:1000000052C1000081C100007FC100007DC100001D
:100010007BC1000079C1000077C1000075C10000FC
:1000200073C100000C947D0B0C947D0B0C947D0B24
:100030006BC1000069C1000067C1000065C100001C
:1000400063C1000061C100005FC100005DC100002C
:100050005BC1000059C1000057C100000C94980F0B
:1000600053C100000C94020B0C94D90A4DC100003E
:100070004BC1000049C1000047C1000045C100005C
:1000800043C1000041C100003FC100003DC100006C
:100090000C94B00A0C94870A37C100000C94FB0B37
:1000A00033C1000031C100002FC100002DC100008C
:1000B0002BC1000029C1000027C1000025C100009C
:1000C00023C1000021C100001FC100001DC10000AC
:1000D0001BC1000019C1000017C1000015C10000BC
:1000E00013C10000ED15F315F91503160D1688164A
:1000F00017162016291633163D1647165616601683
:1001000088166A1674167E16E602070317032C0378
:10011000340344035403470D4A0D390D3D0D430D7F
:10012000810D4E0D520D580D5C0D600D660D6A0D62
:100130006E0D810D740D780D7C0D50524F4752415C
:100140004D4D204552524F523A20554E4B4E4F572F
:100150004E205459504521210052454144204F50D2
:1001600045524154494E4720494E535452554354E9
:10017000494F4E53204245464F5245205553452145
:10018000210000002100240027002A002D0030005B
:10019000330001010000040107010A0100000A0BFD
:1001A00002090C0D0E080703040100000000000006
:1001B000000000000000000000000000000000003F
:1001C00000000000000000001211100000000000FC
:1001D000000000000000000000000000000000001F
:1001E000000000002200250028002B002E00310016
:1001F000340002010000050108010B01000020008D
:100200002300260029002C002F00320000010000EE
:100210000301060109010505050507050808080889
:10022000020202020A0A080804040404010101018E
:100230000101010103030303030303030407070789
:100240000C0C0C0C0C0C0C0C02020202060606062E
:10025000060606060B0B0B0B0B0B0B0B01021020FB
:1002600020080810204010204080020102010804EC
:100270000201010204081020408080402010080480
:1002800002018004020180402010080402010804D9
:10029000020101020408102040800102040810201D
:1002A00040807A1F531F11241FBECFEFD1E2DEBF63
:1002B000CDBF00E00CBF1FE0A0E0B2E0E2E5F6E455
:1002C00000E00BBF02C007900D92AC3AB107D9F71E
:1002D00022E1ACEABFE001C01D92A23AB207E1F709
:1002E00011E0C2E5D1E000E006C021970109802FAE
:1002F000FE010E94D720C135D10780E00807A9F789
:100300000E94E20F0C9418237BCE682F80E00C949F
:100310002D0E1092ED1081E08093EC101092C7101A
:1003200061E084E10E94D40E61E085E10E94D40E78
:10033000E9EBF0E080818E7F808380818D7F8083F8
:1003400088E48093B80085E48093BC0008951092FF
:10035000DB0F1092DA0F1092D80F1092D70F109275
:10036000D50F1092D30F1092D20F10923F1010920F
:100370003E1010923D101092D90F1092D60F10928D
:10038000D40F68EE73E080E090E00C943F0F60E0E3
:100390008BE20E94D40E60E081E30E94D40E60E004
:1003A00085E30E94D40E60E08CE10E94D40E60E0F0
:1003B00084E30E94D40E60E08FE20E94D40E60E0DD
:1003C00089E20E94D40E60E087E20E94D40E60E0D1
:1003D0008BE10E94D40E60E083E30C94D40E8091F4
:1003E000E60F811102C061E001C060E08DE20E9471
:1003F000D40E8091E20F882359F01092E40F81E02F
:1004000080930002A4DFC3DF60E08DE20E94D40E7F
:100410008091E10F882309F4A2C080913C108111E2
:100420000BC08CEF96E00E94120E80E397E00E94D2
:10043000120E81E080933C108091E00F60E081110A
:100440004AC084E30E94D40E80913B10811115C0F4
:1004500087E497E00E94120E8AE697E00E94120E4F
:1004600086EA97E00E94120E8FED97E00E94120E2E
:1004700081E080933B1010923A108091E60F882320
:1004800031F061E08FE20E94D40E60E009C08091FB
:100490000302811108C060E08FE20E94D40E61E087
:1004A00081E30E94D40E8091E50F882309F457C0A0
:1004B0008091030281110AC081E08093030261E010
:1004C0008FE20E94D40E86E098E041C010920302B1
:1004D00082E498E03CC08FE20E94D40E60E081E3A9
:1004E0000E94D40E80913A1081110DC084E898E0EA
:1004F0000E94120E8DEA98E00E94120E81E0809315
:100500003A1010923B108091E60F882311F061E0C1
:1005100005C080913910811104C060E084E30E941D
:10052000D40E8091E30F8823D1F08091391081118E
:100530000AC081E08093391061E084E30E94D40E08
:1005400086ED98E004C0109239108FEE98E00E947A
:10055000120E68EE73E080E090E00C943F0F089577
:10056000CF93DF93EC0169E079E08EEA91E1C0D7A7
:10057000BE018EEA91E1BDD78DE592E10E945C0E4D
:100580006AE070E080E090E0DF91CF910C943F0F43
:100590000F931F93CF93DF93CDB7DEB72C970FB692
:1005A000F894DEBF0FBECDBF8C0162E179E0CE01D1
:1005B0000196E2D6F8013197E730F10508F090C0D6
:1005C0008827EC57FF4F8F4F0C94D720CE01019610
:1005D0000E945C0E0E94230E6BE379E082E892E1B8
:1005E00087D761E080E00E942D0E6CE479E082E81C
:1005F00092E17ED763E080E00E942D0E62EC73E012
:1006000082E892E175D781E08093DB0F17C086E521
:1006100099E00E94120E83E090E077DE6EEA79E0C6
:1006200082E892E165D781E08093DA0F07C08EE916
:1006300099E00E94120E81E08093D80FCE010196BE
:1006400096D62C960FB6F894DEBF0FBECDBFDF91C5
:10065000CF911F910F9108958EEB99E00E94120E99
:1006600081E08093D70FEACF8FED99E00E94120EC0
:1006700083E090E04ADE6AE07AE082E892E138D7EF
:1006800081E08093D50FDACF8FE19AE00E94120EBD
:1006900083E090E03ADE6EE47AE082E892E128D7E7
:1006A00081E08093D30FCACF83E69AE00E94120EB6
:1006B00081E89AE00E94120E82E090E026DE64EB70
:1006C0007AE082E892E114D783E090E01EDE67ECE6
:1006D0007AE082E892E10CD781E08093D20FAECF2E
:1006E0006CED7AE0CE01079647D6CE01079638DF4B
:1006F000CE0107963CD6A2CF81E090E00C94770F14
:100700006EEF83E692E1EAD461E083E692E1E6D41B
:1007100080E090E00E94770F62E070E080E090E07F
:100720000C943F0FEF92FF920F931F93CF93DF93A1
:10073000CDB7DEB7E6970FB6F894DEBF0FBECDBFDC
:100740008C0167EF7AE0CE0101967C0115D668E353
:100750007BE0CE01079610D667E87BE0CE010D96D0
:100760000BD669E97BE0CE01439606D660ED7BE0CF
:10077000CE01499601D66EEF7BE0CE014F96FCD5B7
:1007800061E37CE0CE018596F7D569E67CE0CE0199
:100790008B96F2D56DE77CE0CE01C196EDD50230A7
:1007A0001105A1F164F50130110509F05EC0C70122
:1007B0000E945C0ECE0107960E945C0E8DE592E1D0
:1007C0000E945C0E0E94230E6BE379E082E892E1C6
:1007D0008FD661E080E00E942D0E62EB7CE082E823
:1007E00092E186D663E080E00E942D0E6CEB7CE007
:1007F00082E892E17DD681E08093DB0F36C0033042
:10080000110561F104301105B9F12FC0CE010D962B
:100810000E945C0ECE0143960E945C0ECE0149966A
:100820000E945C0ECE014F960E945C0ECE01859612
:100830000E945C0E8DE592E10E945C0E61DF6EEC21
:100840007CE083E692E154D657DF69ED7CE083E6F5
:1008500092E14ED681E08093DA0F07C0CE018B96ED
:100860000E945C0E81E08093D80FCE01C1967FD5A7
:100870008E010F5C1F4F08C0CE01C1960E945C0E16
:1008800081E08093D70FF1CF06501109C8016FD5D1
:100890000E151F05C9F7E6960FB6F894DEBF0FBE1A
:1008A000CDBFDF91CF911F910F91FF90EF900895F1
:1008B0000F931F93CF938C01C62F80E00E942D0EC3
:1008C00069EE7CE082E892E113D66C2F80E00E9412
:1008D0002D0EB80182E892E1CF911F910F9109C6C8
:1008E0000F931F93CF93DF93CDB7DEB72C970FB63F
:1008F000F894DEBF0FBECDBF8C0162E179E0CE017E
:1009000001963AD50230110559F10330110509F469
:1009100047C00130110509F055C0CE0101960E9473
:100920005C0E0E94230E6EEF7CE0CE01079624D56C
:1009300060E070E0CE010796BBDFCE01079617D5C9
:1009400068E37DE0CE01079617D561E070E0CE0147
:100950000796AEDFCE0107960AD561E17DE017C0AC
:1009600085E29DE00E94120E83E49DE00E94120E3B
:1009700060E87DE0CE010796FFD462E070E0CE0132
:10098000079696DFCE010796F2D465E97DE0CE01A9
:100990000796F2D463E070E0CE01079689DF1AC0B3
:1009A00085EA9DE00E94120ECE010196E0D42C96BD
:1009B0000FB6F894DEBF0FBECDBFDF91CF911F9170
:1009C0000F91089562EB7DE0CE010796D5D4CE015C
:1009D0000796C6DDCE010796CAD4E6CF0F931F93C4
:1009E000CF93DF93CDB7DEB72C970FB6F894DEBF69
:1009F0000FBECDBF8C0162E179E0CE010196BCD47F
:100A00000230110509F437C00330110509F45FC045
:100A10000130110509F06DC0CE0101960E945C0EF7
:100A20006FDE64EC7DE083E692E162D565DE62EC28
:100A300073E083E692E15CD50E94230E62ED7DE0D7
:100A4000CE01079699D460E070E0CE01079630DFC2
:100A5000CE0107968CD466EF7DE0CE0107968CD44C
:100A600061E070E0CE01079623DFCE0107967FD4C8
:100A700061E17DE023C084EE9DE00E94120E83E0E0
:100A80009EE00E94120E3CDE64EC7DE083E692E183
:100A90002FD532DE66E575E083E692E129D56DE378
:100AA0007EE0CE01079668D462E070E0CE01079642
:100AB000FFDECE0107965BD460E57EE0CE010796AF
:100AC0005BD463E070E0CE010796F2DE1AC08FE5DA
:100AD0009EE00E94120ECE01019649D42C960FB6CC
:100AE000F894DEBF0FBECDBFDF91CF911F910F9164
:100AF000089567E77EE0CE0107963ED4CE010796C3
:100B00002FDDCE01079633D4E6CF0F931F93CF93FB
:100B1000DF93CDB7DEB72C970FB6F894DEBF0FBECC
:100B2000CDBF8C0162E179E0CE01019625D402307F
:100B30001105A9F13CF50130110509F079C0CE018C
:100B400001960E945C0E0E94230E62ED7DE0CE01B4
:100B5000079612D460E070E0CE010796A9DECE01C0
:100B6000079605D469E97EE0CE01079605D461E0D9
:100B700070E0CE0107969CDECE010796F8D361E1C6
:100B80007DE03DC00330110531F10430110509F05D
:100B90004FC08EE79FE00E94120EB2DD3BC087E897
:100BA0009EE00E94120E89EA9EE00E94120E8FEED5
:100BB0009EE00E94120E6DE17FE0CE010796DCD32D
:100BC00062E070E0CE01079673DECE010796CFD3C8
:100BD0006CEB7CE014C08FE29FE00E94120E90DD6F
:100BE0006BEA7FE0CE010796C7D362E070E0CE01EA
:100BF00007965EDECE010796BAD365E97DE0CE01A9
:100C00000796BAD363E070E0CE01079651DECE01BD
:100C10000796ADD3CE010196AAD32C960FB6F894C1
:100C2000DEBF0FBECDBFDF91CF911F910F91089511
:100C300067E77EE0CE0107969FD3CE01079690DC52
:100C4000E6CF1092DF0F1092DE0F86E090E09093D7
:100C5000DD0F8093DC0F88E0DBD78091DE0F909171
:100C6000DF0FD2D78091DC0F9091DD0FCDD76FD7FA
:100C70006AE070E080E090E00E943F0F1092DF0F8A
:100C80001092DE0F1092DD0F1092DC0F88E0C0D7BB
:100C90008091DE0F9091DF0FB7D78091DC0F90919C
:100CA000DD0FB2D754D76AE070E080E090E00C949A
:100CB0003F0F1092DF0F1092DE0F85E090E09093CF
:100CC000DD0F8093DC0F88E0A3D78091DE0F909139
:100CD000DF0F9AD78091DC0F9091DD0F95D737D732
:100CE0006AE070E080E090E00E943F0F1092DF0F1A
:100CF0001092DE0F1092DD0F1092DC0F88E088D783
:100D00008091DE0F9091DF0F7FD78091DC0F909163
:100D1000DD0F7AD71CD76AE070E080E090E00C9499
:100D20003F0F1092DF0F1092DE0F84E090E090935F
:100D3000DD0F8093DC0F88E06BD78091DE0F909100
:100D4000DF0F62D78091DC0F9091DD0F5DD7FFD66A
:100D50006AE070E080E090E00E943F0F1092DF0FA9
:100D60001092DE0F1092DD0F1092DC0F88E050D74A
:100D70008091DE0F9091DF0F47D78091DC0F90912B
:100D8000DD0F42D7E4D66AE070E080E090E00C949A
:100D90003F0F1092DF0F1092DE0F81E090E09093F2
:100DA000DD0F8093DC0F88E033D78091DE0F9091C8
:100DB000DF0F2AD78091DC0F9091DD0F25D7C7D6A2
:100DC0006AE070E080E090E00E943F0F1092DF0F39
:100DD0001092DE0F1092DD0F1092DC0F88E018D712
:100DE0008091DE0F9091DF0F0FD78091DC0F9091F3
:100DF000DD0F0AD7ACD66AE070E080E090E00C949A
:100E00003F0F6115710579F0FB0101900020E9F7B2
:100E10003197AF01461B570BDC01ED91FC9102802D
:100E2000F381E02D199480E090E00895CF92DF9255
:100E3000EF92FF920F931F93CF93DF936C017A0190
:100E40008B01C0E0D0E0CE15DF0589F0D8016D91AF
:100E50008D01D601ED91FC910190F081E02DC6014C
:100E60001995892B11F47E0102C02196ECCFC701A0
:100E7000DF91CF911F910F91FF90EF90DF90CF9076
:100E80000895FC01A089B1898C91A689B78982FD5A
:100E90000FC09C91818D8F5F8F73228D821749F0D7
:100EA000218DDF01A20FB11D5D969C93818F089566
:100EB0008C910895FC01918D828D981761F0828D3F
:100EC000DF01A80FB11D5D968C91928D9F5F9F737E
:100ED000928F90E008958FEF9FEF0895FC01918D20
:100EE000828D981731F0828DE80FF11D858D90E08D
:100EF00008958FEF9FEF0895FC01918D228D892F2A
:100F000090E0805C9F4F821B91098F739927089511
:100F100081E191E1F1DF21E0892B09F420E0822FCA
:100F200008958EEA91E1E8DF21E0892B09F420E0C1
:100F3000822F0895FC01848DDF01A80FB11DA35AF3
:100F4000BF4F2C91848D90E001968F739927848FE9
:100F5000A689B7892C93A089B1898C9180648C93E0
:100F6000938D848D981306C00288F389E02D8081CB
:100F70008F7D80830895EF92FF920F931F93CF93FD
:100F8000DF93EC0181E0888F9B8D8C8D981305C0D9
:100F9000E889F989808185FD23C0F62E0B8D10E04C
:100FA0000F5F1F4F0F731127E02E8C8DE8120BC0BF
:100FB0000FB607FCFACFE889F989808185FFF5CF64
:100FC000CE01B8DFF2CF8B8DFE01E80FF11DE35AA1
:100FD000FF4FF0820B8FEA89FB898081806207C016
:100FE000EE89FF896083E889F98980818064808344
:100FF00081E090E0DF91CF911F910F91FF90EF90F2
:101000000895CF93DF93EC01888D8823C1F0EA899E
:10101000FB89808185FD05C0A889B9898C9186FDF1
:101020000EC00FB607FCF5CF808185FFF2CFA889EF
:10103000B9898C9185FFEDCFCE017CDFE8CFDF91C0
:10104000CF91089580E090E0892B19F06ADF81113B
:1010500020C080E090E0892B19F05ADF81111CC07C
:1010600080E090E0892B41F080E090E0892B21F036
:101070000E940000811113C080E090E0892BA1F054
:1010800080E090E0892B81F00E94000081110AC06D
:1010900008950E940000DDCF0E940000E1CF0E9471
:1010A0000000EACF0C94000008952091AE0F30911B
:1010B000AF0F2817390771F49091AC0F8091AD0FE5
:1010C000981741F0E091AC0FF0E0E957FF4E8081B6
:1010D00090E008958FEF9FEF089508951F93CF93A9
:1010E000DF93DC015C962D913C915D9721153105D4
:1010F00039F481E090E013969C938E9312973DC053
:101100005196ED91FC91529750969C915097892F52
:1011100080951FB75E964C915E9741FB772770F9DB
:1011200041FD6095F8944081772311F0492B01C06F
:1011300048234083E9012197F1F748E0508160FF9F
:1011400002C0592B01C058235083E9012197F1F7C0
:101150006695415099F7772321F090818923808308
:1011600003C08081982B90831FBF5C968D919C91CA
:101170005D970197F1F721E030E0C901DF91CF9150
:101180001F9108952091AE0F3091AF0F28173907A6
:1011900069F48091AD0F2091AC0F90E0805C9F4F7F
:1011A000821B910960E470E00C94A22080E090E042
:1011B00008952091AE0F3091AF0F28173907B9F479
:1011C0009091AC0F8091AD0F981789F0E091AC0F22
:1011D000F0E0E957FF4E80812091AC0F30E02F5FA7
:1011E0003F4F2F7333272093AC0F90E008958FEF7C
:1011F0009FEF08950895E091D00F8091D10FE817E7
:1012000030F4F0E0E055F04F808190E008958FEFEA
:101210009FEF08959091D00F8091D10F981750F4BF
:10122000E92FF0E0E055F04F208130E09F5F909390
:10123000D00F02C02FEF3FEFC90108958091D10F69
:1012400090E02091D00F821B9109089585ED809345
:10125000BC008091BC0084FDFCCF1092ED1008957D
:1012600040916210262F30E0240F311D21323105CC
:10127000DCF42091ED102430C9F4FC0180E090E012
:10128000861758F4309162102191DC01A05CBF4EAA
:10129000A30FB11D2C930196F3CF80916210680FBC
:1012A0006093621080E0089581E0089582E00895DF
:1012B000CF92DF92EF92FF920F931F93CF93DF9322
:1012C0007C01262F972F8A018091EE10882391F0C0
:1012D000C62FD72F6E01C40ED51ECC15DD0569F0C3
:1012E0006991D701ED91FC910190F081E02DC7014A
:1012F0001995F3CF642F822FB3DFC801DF91CF910F
:101300001F910F91FF90EF90DF90CF900895CF93B2
:10131000DF931F92CDB7DEB769832091EE102223B1
:10132000D1F020911011203240F021E030E0FC019A
:101330003383228380E090E014C08091EF10E82F87
:10134000F0E0E051FF4E998190838F5F8093EF1022
:101350008093101104C061E0CE01019681DF81E02D
:1013600090E00F90DF91CF9108950E940423FC013B
:10137000808191810C948821EF92FF920F931F93AB
:10138000CF93DF93EC01198218821B821A821D828F
:101390001C8261157105A9F17B01FB010190002000
:1013A000E9F731978F01061B170BB8016F5F7F4F6D
:1013B00080E090E00E942022009759F09983888372
:1013C0001B830A832C813D81232B81F4FC01108235
:1013D0000DC088819981009711F00E94882119829F
:1013E00018821D821C821B821A820BC01D830C83F3
:1013F000B701DF91CF911F910F91FF90EF900C9467
:101400001123DF91CF911F910F91FF90EF900895DD
:101410004F925F926F927F92EF92FF920F931F9382
:10142000CF93DF93CDB7DEB7A1970FB6F894DEBFA9
:101430000FBECDBF7C01FA01CB0119A2223008F406
:101440002AE08E010F5D1F4F422E512C612C712C12
:10145000BF01A30192010E94B520F901CA01015008
:1014600011096A3014F4605D01C0695CD8016C93A5
:10147000232B242B252B61F7B801C701C2DCA196D1
:101480000FB6F894DEBF0FBECDBFDF91CF911F9195
:101490000F91FF90EF907F906F905F904F90089525
:1014A000CF92DF92EF92FF920F931F93CF93DF9330
:1014B000EC016A017B01E881F9810190F081E02D66
:1014C0006DE219958C0144275527BA014C195D0925
:1014D0006E097F092AE0CE019BDF800F911FDF910B
:1014E000CF911F910F91FF90EF90DF90CF900895D3
:1014F00088CCDC01ED91FC91DB0114964D915C915F
:1015000015976D917C910280F381E02D19941F92C3
:101510000F920FB60F9211240BB60F922F933F9399
:101520004F935F936F937F938F939F93AF93BF93EB
:10153000EF93FF9381E191E1FDDCFF91EF91BF918A
:10154000AF919F918F917F916F915F914F913F915B
:101550002F910F900BBE0F900FBE0F901F901895FC
:101560001F920F920FB60F9211240BB60F922F936A
:101570003F934F935F936F937F938F939F93AF931B
:10158000BF93EF93FF9381E191E17BDCFF91EF91BA
:10159000BF91AF919F918F917F916F915F914F918B
:1015A0003F912F910F900BBE0F900FBE0F901F9089
:1015B00018951F920F920FB60F9211240BB60F922F
:1015C0002F933F934F935F936F937F938F939F934B
:1015D000AF93BF93EF93FF938EEA91E1ABDCFF9162
:1015E000EF91BF91AF919F918F917F916F915F919B
:1015F0004F913F912F910F900BBE0F900FBE0F9008
:101600001F9018951F920F920FB60F9211240BB6D0
:101610000F922F933F934F935F936F937F938F938B
:101620009F93AF93BF93EF93FF938EEA91E129DCF1
:10163000FF91EF91BF91AF919F918F917F916F91AA
:101640005F914F913F912F910F900BBE0F900FBE66
:101650000F901F9018950F931F93CF93DF931F92B6
:10166000CDB7DEB78C01FC0184816983D1D2F8014A
:1016700083856981862B90E0C7D20F90DF91CF914F
:101680001F910F9164C20F931F93CF938C01C62FAC
:10169000E2DF6C2F6460C801DEDF6C2F6B7FC80156
:1016A000DADF83EC90E00197F1F7CF911F910F9172
:1016B0000895FF920F931F93CF93DF931F92CDB79F
:1016C000DEB78C01F62E962F907F692F642BC80110
:1016D0004983D9DF80E1F89EB00111244981642B50
:1016E000C8010F90DF91CF911F910F91FF90CBCF49
:1016F00041E0DFDF81E090E008951F920F920FB686
:101700000F9211240BB60F922F933F934F935F9339
:101710006F937F938F939F93AF93BF93EF93FF93B9
:10172000E091AE0FF091AF0F309709F451C0968D54
:10173000A685B785858591FF04C09C91892329F4EE
:1017400047C09C91892309F043C0A389B4899C9127
:101750008589809589238C93868997890197F1F7EC
:10176000608D718DA685B785558538E020E0CB0169
:101770000197F1F7822F90E095958795282F4C914E
:10178000452309F02068315091F7868D81FD209521
:101790008091AD0F90E001968F7399273091AC0F37
:1017A000381749F0A091AD0FB0E0A957BF4E2C9368
:1017B0008093AD0F03C0868D8160868F828D938D5F
:1017C0000197F1F7A389B4899C918589892B8C9322
:1017D000FF91EF91BF91AF919F918F917F916F9109
:1017E0005F914F913F912F910F900BBE0F900FBEC5
:1017F0000F901F9018951F920F920FB60F92112401
:101800000BB60F922F933F934F935F936F937F93FA
:101810008F939F93AF93BF93EF93FF938091B90002
:10182000887F803609F49CC068F5883209F45BC073
:1018300090F4803109F454C038F4882309F4F6C0D8
:10184000883009F44DC0F5C0883109F44CC08032AD
:1018500009F45DC0EEC0803409F468C048F48033F8
:1018600009F455C0883309F0E4C08093EB10D8C068
:10187000803509F44FC0883509F45DC0883409F01B
:10188000D8C0D6C0883909F4C7C0A8F4883709F48D
:1018900067C038F4883609F463C0803709F460C043
:1018A000C8C0883809F4B8C0803909F45FC08038EE
:1018B00009F0BFC05BC0803B09F486C038F4803AB1
:1018C00009F466C0883A09F47FC0B3C0803C09F4CB
:1018D000A7C0883C09F4A4C0883B09F48AC0A9C009
:1018E0008091C81010C09091EA108091E91098176B
:1018F00070F5E091EA1081E08E0F8093EA10F0E03D
:10190000E753FF4E80818093BB0085EC86C08093B7
:10191000EB108EC0E091EA1081E08E0F8093EA1008
:101920008091BB00F0E0E753FF4E80839091EA1076
:101930008091E9106EC0E091EA1081E08E0F8093F3
:10194000EA108091BB00F0E0E753FF4E8083809166
:10195000EC1081116DC081E08093C71084EA61C0F2
:1019600083E08093ED1010928610CFCF8091861087
:10197000803208F051C0E091861081E08E0F809394
:1019800086108091BB00F0E0EA59FF4E8083BDCF06
:1019900085EC8093BC001092ED108091861080320F
:1019A00030F4E0918610F0E0EA59FF4E1082609129
:1019B000861070E0E0916410F091651086E690E189
:1019C00019951092861035C084E08093ED10109226
:1019D000631010926210E0916010F09161101995FF
:1019E00080916210811105C081E080936210109295
:1019F0004010E091631081E08E0F80936310F0E05F
:101A0000E05CFF4E80818093BB00909163108091D9
:101A10006210981708F479CF85E88093BC0009C05C
:101A200085EC8093BC001092ED1003C01092EB1077
:101A30000DDCFF91EF91BF91AF919F918F917F91BD
:101A40006F915F914F913F912F910F900BBE0F902F
:101A50000FBE0F901F90189590E0FC013197E23176
:101A6000F10508F04EC08827E557FF4F8F4F0C94C3
:101A7000D720809180008F7703C0809180008F7D78
:101A800080938000089580918000877FF9CF84B58E
:101A90008F7702C084B58F7D84BD08958091B0009A
:101AA0008F7703C08091B0008F7D8093B000089540
:101AB000809190008F7707C0809190008F7D03C048
:101AC00080919000877F8093900008958091A0007E
:101AD0008F7707C08091A0008F7D03C08091A00008
:101AE000877F8093A0000895809120018F7707C0A1
:101AF000809120018F7D03C080912001877F80939A
:101B0000200108953FB7F8948091991290919A120C
:101B1000A0919B12B0919C1226B5A89B05C02F3FA7
:101B200019F00196A11DB11D3FBFBA2FA92F982F03
:101B30008827820F911DA11DB11DBC01CD0142E07E
:101B4000660F771F881F991F4A95D1F70895209136
:101B5000101190919D12213208F04AC08091ED1031
:101B60008111FCCF32E03093ED1031E03093EC1076
:101B70003FEF3093EB101092EA102093E910A0EFA2
:101B8000B0E149EC50E1FA013E2F341B321718F452
:101B90003D913193F9CF1092C8102091C810990F40
:101BA000922B9093C8109091C710913061F41092CD
:101BB000C7109091C8109093BB009091BC0093FD0A
:101BC000F8CF95EC01C095EE9093BC009091ED108C
:101BD0009230E1F39091EB109F3F79F08091EB1000
:101BE000803241F08091EB10803331F084E005C009
:101BF00081E003C082E001C083E01092EF101092F8
:101C000010111092EE100895682F8BE492E17FCBB3
:101C100091E09093EE1080939D121092EF1010922D
:101C200010110895CF93DF93BC018EEA91E1E9D8BA
:101C3000EC0169EA7FE08EEA91E1E3D88C0F9D1F09
:101C4000DF91CF91089540E061E082E892E131DDDB
:101C50008BE39FE10197F1F70895CF93DF93CDB721
:101C6000DEB728970FB6F894DEBF0FBECDBF28E0D1
:101C7000EAE0F2E0DE01119601900D922A95E1F77B
:101C800020918A12261710F46FEF620FFE01319631
:101C9000E60FF11DE60FF11D9081682F690F606856
:101CA00040E082E892E128960FB6F894DEBF0FBEBE
:101CB000CDBFDF91CF91FDCCCF93DF93BC018EEAF6
:101CC00091E117DCEC0169EA7FE08EEA91E199D8B5
:101CD0008C0F9D1FDF91CF910895CF93DF93E091FB
:101CE000AE11F091AF110190F081E02D682F8EEAD6
:101CF00091E11995EC0169EA7FE08EEA91E181D8E2
:101D00008C0F9D1FDF91CF9108950F931F93CF9359
:101D1000DF938C01C0E0D0E0F801EC0FFD1F64916F
:101D2000662371F0E091AE11F091AF110190F08156
:101D3000E02D8EEA91E11995892B11F02196ECCFD7
:101D400069EA7FE08EEA91E15CD88C0F9D1FDF91FC
:101D5000CF911F910F910895CF93DF93282F30E0FB
:101D6000F901E456FE4F8491F901E45AFD4FD491F4
:101D7000F901EA5EFD4FC491CC2389F081116CDE3C
:101D8000EC2FF0E0EE0FFF1FE450FE4FA591B49151
:101D9000EC91ED2381E090E021F480E002C080E04E
:101DA00090E0DF91CF9108951F93CF93DF93282F79
:101DB00030E0F901E456FE4F8491F901E45AFD4FF9
:101DC000D491F901EA5EFD4FC491CC23C1F0162FE6
:101DD000811142DEEC2FF0E0EE0FFF1FEE51FE4FBF
:101DE000A591B4918FB7F894111105C09C91ED2F76
:101DF000E095E92302C0EC91ED2BEC938FBFDF91CE
:101E0000CF911F910895CF93DF9390E0FC01E45AA6
:101E1000FD4F2491FC01EA5EFD4F8491882361F11E
:101E200090E0880F991FFC01EE57FE4FC591D491A9
:101E3000FC01EE51FE4FA591B491611109C09FB70D
:101E4000F8948881209582238883EC912E230BC0FF
:101E5000623061F49FB7F8943881822F8095832394
:101E60008883EC912E2B2C939FBF06C08FB7F894DC
:101E7000E8812E2B28838FBFDF91CF9108958F9219
:101E80009F92AF92BF92CF92DF92EF92FF926B013F
:101E90007C0138DE4B015C01C114D104E104F10482
:101EA000E9F030DEDC01CB0188199909AA09BB09E8
:101EB000883E9340A105B10578F321E0C21AD1080C
:101EC000E108F10888EE880E83E0981EA11CB11C81
:101ED000C114D104E104F10421F7DECFFF90EF90AB
:101EE000DF90CF90BF90AF909F908F900895CF9349
:101EF000C82F6EEF83E692E1F1D86C2F6295660FE2
:101F0000660F607C605883E692E1E8D862E070E09A
:101F100080E090E0CF91B3CF2FB7F8946091951205
:101F20007091961280919712909198122FBF0895F8
:101F30001F920F920FB60F9211242F933F938F93FE
:101F40009F93AF93BF938091951290919612A09119
:101F50009712B09198123091941223E0230F2D37ED
:101F600020F40196A11DB11D05C026E8230F02969D
:101F7000A11DB11D209394128093951290939612F7
:101F8000A0939712B09398128091991290919A12FF
:101F9000A0919B12B0919C120196A11DB11D80933E
:101FA000991290939A12A0939B12B0939C12BF9196
:101FB000AF919F918F913F912F910F900FBE0F90F6
:101FC0001F901895CF93DF93CDB7DEB76E970FB6FE
:101FD000F894DEBF0FBECDBF789484B5826084BD17
:101FE00084B5816084BD85B5826085BD85B581601D
:101FF00085BD80916E00816080936E00109281009B
:102000008091810082608093810080918100816055
:102010008093810080918000816080938000809116
:10202000B10084608093B1008091B00081608093A2
:10203000B000809191008260809391008091910026
:1020400081608093910080919000816080939000E6
:102050008091A10082608093A1008091A1008160A5
:102060008093A1008091A00081608093A000809166
:102070002101826080932101809121018160809300
:1020800021018091200181608093200180917A005C
:10209000846080937A0080917A00826080937A00D5
:1020A00080917A00816080937A0080917A008068C4
:1020B00080937A001092C10010927E1210927D12CD
:1020C00010927C1210927B1210927A121092791256
:1020D0008DE991E09093801280937F1280916F122E
:1020E00096EF980F943048F02EEC280F243028F00B
:1020F00022EC280F283008F070C02DEB30E0309330
:102100007A12209379122BE931E030937C122093DC
:102110007B122CE231E030937E1220937D129430BA
:1021200070F02EEC280F243050F022EC280F2830CD
:1021300010F40C94491FA0E0B0E00C944B1FA8E6EB
:10214000B0E0E8E6F0E02081943018F08E5388305B
:1021500010F081E001C084E0822B8C9380916F129B
:1021600096EF980F943058F02EEC280F243038F06A
:1021700022EC280F283030F020E030E005C02BE6BC
:1021800030E002C02DE630E03093771220937612D3
:10219000943010F49AEF0BC0823381F0833381F0D6
:1021A000843381F092EC980F983070F492EC980F91
:1021B00081E001C0880F9A95EAF707C088E005C062
:1021C00084E003C082E001C081E0809378128091B6
:1021D0007F12909180120197F1F780917D1290917A
:1021E0007E12892B49F1E091AE0FF091AF0F82E1A1
:1021F000E336F80709F1309739F0A389B4899C9147
:102200008589809589238C93809181128E7F80931C
:1022100081121092AD0F1092AC0F83E692E1909371
:10222000AF0F8093AE0FE0917612F091771290810C
:1022300080917812892B80830E94800380E090E057
:1022400056DE1092D00F1092D10F1092EF10109214
:1022500010110E9489011092871280918C12823095
:1022600018F098E09093871280938A1262E370E0EE
:1022700080E090E004DE60918D1282E892E1EBD97B
:1022800068EE73E080E090E0FADD60E382E892E1DE
:10229000FAD90BE416E4C8010197F1F760E382E88C
:1022A00092E1F1D9C8010197F1F760E382E892E188
:1022B000EAD983E592E00197F1F760E282E892E1E2
:1022C000E2D960918712606240E082E892E1F1D940
:1022D00084E08093881240E06CE082E892E1E9D9E2
:1022E000B2DC12E01093891240E066E082E892E1ED
:1022F000E0D940E062E082E892E1DBD98BE39FE144
:102300000197F1F788E080938D1260E082E892E116
:10231000A2D960E080E0A1DC6AE472E082E892E1A8
:10232000E7D861E080E099DC62E572E082E892E162
:10233000DFD86EE872E182E892E1DBD862E080E00B
:102340008CDC6CE572E082E892E1D2D8E091BE11BB
:10235000F091BF111083E091BA11F091BB1110827E
:10236000E091BC11F091BD118FEC80831092C611E9
:10237000E091C211F091C31186E08083E091C01119
:10238000F091C111808180618083E091C011F09152
:10239000C111808188608083E091C011F091C111EA
:1023A000808180688083E091C011F091C1118081AB
:1023B0008F7D80831092D00F1092D10F1092EF106A
:1023C000109210110E94890160E082E31CDD60E040
:1023D00080E319DD60E08EE116DD60E08FE113DD62
:1023E00060E081E210DD60E08AE20DDD60E080E225
:1023F0000ADD60E088E107DD60E084E204DD60E0A2
:1024000083E201DD60E089E1FEDC60E088E2FBDC84
:1024100060E08DE1F8DC60E08CE2F5DC60E082E217
:10242000F2DC60E08EE2EFDC60E08AE1ECDC60E0B0
:1024300086E2E9DC61E085E2E6DC61E087E2E3DC9C
:1024400061E089E2E0DC61E085E3DDDC61E084E31A
:10245000DADC61E08CE1D7DC61E08DE2D4DC61E0C4
:102460008FE2D1DC61E08BE2CEDC61E081E3CBDCAA
:1024700061E083E3C8DC61E08BE1C5DC61E082E31D
:1024800093DC61E080E390DC61E08EE18DDC61E073
:102490008FE18ADC61E081E287DC61E08AE284DC52
:1024A00061E080E281DC61E088E17EDC61E084E281
:1024B0007BDC61E083E278DC61E088E275DC61E08E
:1024C00089E172DC61E08DE16FDC61E08CE26CDC63
:1024D00061E082E269DC61E08EE266DC61E08AE173
:1024E00063DC61E086E260DC82E0E82EF12C93E0C0
:1024F000C92ED12CAA24A394B12C06E910E034E60D
:10250000832E912C40EB642E4FE0742E05DD20913C
:10251000E80F3091E90F4091EA0F5091EB0F1B014A
:102520002C01221A330A440A550AA20191012536C8
:1025300031054105510590F06093E80F7093E90F64
:102540008093EA0F9093EB0F8091E70F811104C005
:1025500081E08093E70F02C01092E70FDDDC20914D
:10256000EC0F3091ED0F4091EE0F5091EF0F1B01EA
:102570002C01221A330A440A550AA20191012B3F69
:1025800031054105510590F06093EC0F7093ED0F0C
:102590008093EE0F9093EF0F80912C10811104C067
:1025A00081E080932C1002C010922C10B5DC209199
:1025B000F00F3091F10F4091F20F5091F30F1B018A
:1025C0002C01221A330A440A550AE5EF2E16E1E0DF
:1025D0003E064104510490F06093F00F7093F10FA8
:1025E0008093F20F9093F30F80912710811104C014
:1025F00081E08093271002C0109227108DDC20917B
:10260000F40F3091F50F4091F60F5091F70F1B0129
:102610002C01221A330A440A550AE9EE2E16E3E089
:102620003E064104510490F06093F40F7093F50F4F
:102630008093F60F9093F70F8091E60F811104C0FD
:1026400081E08093E60F02C01092E60F82E384DB04
:10265000892B21F481E08093211002C01092211077
:1026600080E37ADB892B21F081E08093361002C071
:10267000109236108EE170DB892B21F481E080937B
:102680000E1002C010920E108FE166DB892B61F4F0
:1026900081E08093E10F1092221010923410B092DA
:1026A000FD0FA092FC0F27C081E256DB892B61F45D
:1026B0001092E10F1092221081E080933410D0929A
:1026C000FD0FC092FC0F17C08FE146DB892B11F480
:1026D0000C94091F81E240DB892B11F40C94091F33
:1026E0001092E10F81E08093221010923410F0924A
:1026F000FD0FE092FC0F8EE22FDB892B21F481E0AD
:102700008093331002C0109233108AE225DB0197C8
:1027100019F41092E30F03C081E08093E30F80E28D
:102720001BDB892B21F081E080930D1002C01092F9
:102730000D1088E111DB892B21F481E080932A10B0
:1027400002C010922A1082E207DB892B19F4109242
:10275000E00F03C081E08093E00F8AE1FDDA892B6E
:1027600021F481E08093FB0F02C01092FB0F86E200
:10277000F3DA892B21F481E08093FA0F02C01092E2
:10278000FA0F84E2E9DA892B61F481E080931B106F
:1027900010921A1010921910B0921110A0921010ED
:1027A00017C084E2D9DA892B11F40C940F1F83E24D
:1027B000D3DA892B11F40C940F1F10921B1081E0B7
:1027C00080931A1010921910F0921110E0921010CC
:1027D00089E1C2DA892B21F481E08093E20F02C003
:1027E0001092E20F88E2B8DA892B21F481E080931D
:1027F000E50F02C01092E50F8DE1AEDA892B21F4CE
:1028000081E08093F90F02C01092F90F8CE2A4DAF4
:10281000892B21F481E08093F80F02C01092F80F09
:102820008091F90F882341F08091F80F882321F0DF
:1028300081E08093171006C080913410811102C08E
:1028400010921710809138108111B1C58091051038
:10285000882389F08091E30F882351F080912C1018
:10286000882311F060E001C061E085E39DDA03C0D8
:102870008091E60FF5CF80910410882349F0809174
:10288000E60F882311F060E001C061E08CE18CDA92
:1028900080910B108111BDC06CE672E0CE010196F3
:1028A0000E94BC0963EB72E0CE0107960E94BC094E
:1028B0006AE772E0CE010D960E94BC0960E972E001
:1028C000CE0143960E94BC098DE592E1F5D98FE2D5
:1028D00004DA8DE592E1F0D9CE010196EDD9CE0171
:1028E0004396EAD98DE592E1E7D9CE010796E4D97E
:1028F000CE010D96E1D985EA92E094D96EE872E1B5
:102900008EEA91E10E94790A8DE592E1D5D98FE2B4
:10291000E4D90E9480036FEA72E083E692E10E94AC
:10292000780A81E090E0E3DA60EC72E083E692E11D
:102930000E94780A6EE872E183E692E10E94790AC9
:10294000CE0143960E94B709CE010D960E94B709A9
:10295000CE0107960E94B709CE0101960E94B709E1
:1029600064E670E080E090E08ADA8BEA9FE05AD972
:102970008CE7B3D989E591E0C8D98CE7AED98BEA69
:102980009FE050D981E080930B1064E670E080E016
:1029900090E075DA65EC72E0CE0101960E94BC0908
:1029A0006EEF72E0CE0107960E94BC096CE273E004
:1029B000CE010D960E94BC09CE0101967DD96AE92F
:1029C00073E0CE0149960E94BC0960E070E0CE0140
:1029D00049960E945804CE0149960E94B70966EABA
:1029E00073E0CE0149960E94BC0961E070E0CE011F
:1029F00049960E945804CE0149960E94B709CE011B
:102A00000D960E94B709CE0107960E94B7090C9453
:102A10001D1E80910E10882309F413C680910A10A0
:102A2000811144C065EC72E0CE0101960E94BC09A0
:102A30006EEF72E0CE0107960E94BC096CE273E073
:102A4000CE010D960E94BC09CE01079635D981E0D2
:102A500080930A1066EB73E0CE0149960E94BC0990
:102A600060E070E0CE0149960E945804CE0149967C
:102A70000E94B70962EC73E0CE0149960E94BC093E
:102A800061E070E0CE0149960E945804CE0149965B
:102A90000E94B709CE010D960E94B709CE01079694
:102AA0000E94B709CE0101960E94B70980910202E7
:102AB0008111B7C18091E10F882309F4AFC18091E2
:102AC0002A10882309F43FC18091DA0F811104C0D4
:102AD00082E090E00E9492038091E00F811139C062
:102AE0008091E60F81111AC061E087E25DD960E054
:102AF00089E25AD961E085E357D960E084E354D98B
:102B000060E08CE151D961E08FE24ED961E08BE267
:102B10004BD961E081E348D960E019C060E087E209
:102B200043D961E089E240D960E085E33DD961E0C5
:102B300084E33AD961E08CE137D960E08FE234D99F
:102B400060E08BE231D960E081E32ED961E08DE273
:102B500017C061E087E228D961E089E225D961E008
:102B600085E322D961E084E31FD961E08CE11CD9BF
:102B700061E08FE219D961E08BE216D961E081E36F
:102B800013D980910D10882379F081E0809338105B
:102B900080930202809301028093000280930410CC
:102BA0008093FE0F0E94C7018091211061E088236D
:102BB00009F4B0C085E027D9E1EAF1E0E4918E2F75
:102BC00090E0FC013197E231F10508F0A1C08827BF
:102BD000EE58FF4F8F4F0C94D72084B5806884BD8A
:102BE00086E987BD9CC084B5806284BD86E988BDC6
:102BF00096C0809180008068809380001093890047
:102C0000009388008CC08091800080628093800057
:102C100010938B0000938A0082C0809180008860AE
:102C20008093800010938D0000938C0078C0809179
:102C3000B00080688093B00086E98093B3006FC0D5
:102C40008091B00080628093B00086E98093B400E8
:102C500066C08091900080688093900010939900E6
:102C6000009398005CC080919000806280939000F7
:102C700010939B0000939A0052C08091900088604E
:102C80008093900010939D0000939C0048C0809119
:102C9000A00080688093A0008091A0008F7B80932B
:102CA000A0001093A9000093A80039C08091A00053
:102CB00080628093A0001093AB000093AA002FC005
:102CC0008091A00088608093A0001093AD000093D5
:102CD000AC0025C080912001806880932001109372
:102CE0002901009328011BC08091200180628093FC
:102CF000200110932B0100932A0111C08091200123
:102D000088608093200110932D0100932C0107C04F
:102D100061E003C085E077D860E085E045D8809128
:102D2000E30F882309F466C061ED73E0CE010196DC
:102D30000E94BC09CE0101960E94B002CE0101960C
:102D40000E94B70957C08091DB0F811104C081E058
:102D500090E00E9492038091E60F811120C061E013
:102D600087E222D861E089E21FD861E085E31CD8C0
:102D700061E084E319D861E08CE116D861E08FE26C
:102D800013D861E08BE210D861E081E30DD861E0F7
:102D90008BE10AD861E083E307D860E028C060E0F7
:102DA00087E202D860E089E20E94D40E60E085E309
:102DB0000E94D40E60E084E30E94D40E60E08CE1B7
:102DC0000E94D40E60E08FE20E94D40E60E08BE29D
:102DD0000E94D40E60E081E30E94D40E60E08BE19B
:102DE0000E94D40E60E083E30E94D40E61E08DE285
:102DF0000E94D40E8091E20F882311F40C94051FD9
:102E00000E94C70181E08093020260E08DE20E948F
:102E1000D40E83E090E00E949203C6C20E94C701D4
:102E200090C78091010281111DC18091DB0F81113A
:102E300004C081E090E00E94C8028091E10F8823E5
:102E400009F40BC18091DA0F811104C082E090E097
:102E50000E94C8028091D90F811154C08091D80F6F
:102E6000811104C083E090E00E94C8028091E60FC7
:102E7000882311F061E001C060E08CE10E94D40E73
:102E800080910D108823D9F161E08CE10E94D40E6D
:102E90008091321081110CC03FD860932E10709336
:102EA0002F10809330109093311081E08093321076
:102EB00020902E1030902F104090301050903110F4
:102EC0002BD8AB01BC01421953096409750981E093
:102ED000493E53406105710508F480E080932D1050
:102EE000882309F442C081E08093D90F8091D70FE5
:102EF00081113BC084E090E00E94C80236C010926D
:102F0000321033C08091D60F81112FC08091D50F20
:102F1000811104C085E090E00E94C8028091D40F26
:102F200081110AC08091E60F882311F061E001C091
:102F300060E085E30E94D40E809136108823A9F0CA
:102F40008091D30F811104C086E090E00E94C802F6
:102F500080912710882311F061E001C060E085E3D3
:102F60000E94D40E81E08093D40F8091D40F8823E7
:102F700009F44BC780913610811147C761E085E3A2
:102F80000E94D40E81E08093D60F8091E60F8823B3
:102F900031F08091E20F811102C061E001C060E078
:102FA0008DE20E94D40E8091E20F882309F44AC07A
:102FB00061E08DE20E94D40E8091321081110DC02B
:102FC0000E948C0F60932E1070932F1080933010FE
:102FD0009093311081E08093321020902E10309029
:102FE0002F1040903010509031100E948C0FAB0188
:102FF000BC01421953096409750981E0453F5140FC
:103000006105710508F480E080932D108823E1F0BC
:1030100060E08DE20E94D40E0E94C70161E08CE165
:103020000E94D40E0E94A70161E085E30E94D40EA5
:1030300081E08093010268EE73E080E090E00E94FE
:103040003F0F02C0109232108091D20F8111DDC665
:1030500087E090E00E94C802D8C660E08DE20E943E
:10306000D40E4BC180910510811109C180910002DD
:10307000811148C0909138108091E40F91113EC0A9
:10308000882319F00E94EF01C0C68091DB0F8111E7
:103090000BC083EE93E00E94120E88E094E00E9441
:1030A000120E81E08093DB0F8091E60F882351F0B0
:1030B00060E084E30E94D40E80912A10882371F08E
:1030C00061E009C061E084E30E94D40E80912A107F
:1030D000882321F060E08FE20E94D40E80912A10B4
:1030E000882309F492C68091E50F882321F081E0BE
:1030F0008093E40F8AC60E94C70187C6882309F41B
:1031000084C6C0CF61E085E30E94D40E8091DB0FBE
:10311000811107C081E090E00E94850581E08093E5
:10312000DB0F8091E10F882309F4E7C08091DA0F6B
:10313000811107C082E090E00E94850581E08093C4
:10314000DA0F8091021081114EC08091E20F882326
:10315000E9F161E08DE20E94D40E8091321081117C
:103160000DC00E948C0F60932E1070932F108093CF
:1031700030109093311081E08093321020902E1007
:1031800030902F1040903010509031100E948C0FD2
:10319000AB01BC01421953096409750981E0453F3F
:1031A00051406105710508F480E080932D1088235B
:1031B00009F42BC683E090E00E94850560E08DE273
:1031C0000E94D40E81E0809302101FC68091E60F0A
:1031D000882311F061E001C060E08DE20E94D40E0E
:1031E0001092321012C68091E30F882309F46DC04B
:1031F00061E084E30E94D40E8091321081110DC0F1
:103200000E948C0F60932E1070932F1080933010BB
:103210009093311081E08093321020902E103090E6
:103220002F1040903010509031100E948C0FAB0145
:10323000BC01421953096409750981E041315742C3
:103240006105710508F480E080932D10882309F44E
:10325000DCC584E090E00E9485050E94C70160E023
:1032600084E30E94D40E0E94A70168EE73E080E020
:1032700090E00E943F0F81E080930510C6C58091C9
:103280000410882359F180910310811174C1809139
:10329000DB0F811107C081E090E00E94700481E0A3
:1032A0008093DB0F8091E10F882339F18091DA0F51
:1032B000811107C082E090E00E94700481E0809359
:1032C000DA0F8091E30F81111DC1809127108823AF
:1032D00011F061E001C060E084E380CF8091DB0FFA
:1032E000811107C081E090E00E94EE0481E08093AC
:1032F000DB0F8091E10F811105C00E94C701109280
:10330000DA0F83C58091DA0F811107C082E090E067
:103310000E94EE0481E08093DA0F809133108823BD
:1033200009F4E7C061E083E30E94D40E809132107B
:1033300081110DC00E948C0F60932E1070932F107E
:10334000809330109093311081E080933210209060
:103350002E1030902F1040903010509031100E945D
:103360008C0FAB01BC01421953096409750981E056
:10337000493853416105710508F480E080932D10B0
:10338000882309F442C583E090E00E94EE0481E0C6
:103390008093041010920110109200100E94C70137
:1033A00060E084E30E94D40E0E94A7012EC5909194
:1033B000E10F80912A10911157C1882329F0809143
:1033C0002C10882309F44EC161E087E20E94D40EDC
:1033D00080910E1081110DC081E080933510809393
:1033E000371080932B109092201080921F108093A2
:1033F0001C1080913610882329F081E080933510CD
:103400008093371080910D10882339F081E08093EC
:103410002610809325108093371080912B108111F6
:1034200028C18091351081115FC1809126108111D2
:103430008FC180910E10882309F4BCC161E085E240
:103440000E94D40E80913710882309F4C5C1809161
:1034500036108111DAC480913510882309F4F2C343
:103460006DE674E0CE0101960E94BC0960E070E058
:10347000CE0101960E945804CE0101960E94B70920
:1034800080913410882309F4BCC30E94800366E550
:1034900075E083E692E10E94780A0E947C0367E669
:1034A00075E083E692E10E94780A64E775E0CE0158
:1034B00001960E94BC0962E070E0CE0101960E9474
:1034C0005804CE0101960E94B70967E875E0CE0165
:1034D00001960E94BC0963E070E0CE0101960E9453
:1034E0005804CE0101960E94B709809133108111D2
:1034F00046C380912C10882311F061E001C060E088
:1035000083E36CCE61E084E30E94D40E809132109C
:1035100081110DC00E948C0F60932E1070932F109C
:10352000809330109093311081E08093321020907E
:103530002E1030902F1040903010509031100E947B
:103540008C0FAB01BC01421953096409750981E074
:10355000493B5B406105710508F480E080932D10C4
:10356000882309F452C483E090E00E94700481E053
:10357000809303104AC48091FF0F811168C4809129
:10358000ED108111FCCF81E08093ED108093EC1061
:103590009FEF9093EB101092EA101092E910809335
:1035A000C8108091C81080618093C8108091C710A6
:1035B000813061F41092C7108091C8108093BB00D5
:1035C0008091BC0083FDF8CF85EC01C085EE80932F
:1035D000BC008091ED108130E1F38091EA108111FF
:1035E00003C05090EA1002C055245394A9ECB0E1F6
:1035F000E0EBFFE08E2F8619851518F48D918193ED
:10360000F9CF1092D00F5092D10F80E090E020912E
:10361000D00F521629F08BE492E10E940A09F7CFED
:10362000019709F017C48CE294E00E94120E81E029
:103630008093FF0F62E370E080E090E00E943F0F14
:1036400006C460E08DE20E94D40E0E94C701109271
:103650000A10109209101092081010920710109280
:103660000610D3C360E0B1CE8823E1F38091271028
:10367000A8CE80910C1081112CC08091371081113F
:1036800009C00E94C70160E08DE20E94D40E81E073
:10369000809337100E9480036FE574E083E692E127
:1036A0000E94780A40911F1050912010052E000CA6
:1036B000660B770B77FF05C083E692E10E94500A04
:1036C00005C02AE083E692E10E94080A81E0809327
:1036D0000C108091E60F882311F061E001C060E0DA
:1036E00089E20E94D40E9DCE80911C10811121C0D0
:1036F0000E94C70160E08DE20E94D40E61E08CE17F
:103700000E94D40E8DE694E00E94120E552453942C
:1037100050922B101093201000931F1080912410B2
:10372000811104C00E94C9065092241081E0809348
:103730001C1080913610882311F061E005C0809143
:1037400027108823D1F360E085E30E94D40E6DCE6C
:103750008091231081111EC00E94C70160E08DE29C
:103760000E94D40E60E084E30E94D40E8CE794E0C3
:103770000E94120E80912410811103C081E0809379
:10378000241064EF71E080E090E00E943F0F81E040
:103790008093231080912510882309F44ACE8091CC
:1037A0002710882311F060E001C061E08CE10E94E5
:1037B000D40E3FCE81E080933710809335100E9465
:1037C000C70160E08DE20E94D40E8091E60F88234D
:1037D00009F434CE60E033CE80911B10882309F4C5
:1037E000A3C18091E10F882309F497C1809118103B
:1037F00081115FC19091E00F809113109923F1F135
:10380000882309F44CC01092DF0F1092DE0F88E07D
:103810000E94080E80E090E00E94040E83E090E099
:103820000E94040E0E94A70D6AE070E080E090E024
:103830000E943F0F1092DD0F1092DC0F88E00E9473
:10384000080E80E090E00E94040E80E090E00E946C
:10385000040E0E94A70D6AE070E080E090E00E94F4
:103860003F0F1092131080E090E00E94770F6EE8F7
:1038700074E083E692E10E94780A11C081110FC0C2
:103880000E94910680E090E00E94770F6FE974E05B
:1038900083E692E10E94780A81E080931310809180
:1038A000E50F882309F44CC080911210882309F495
:1038B0004AC010921210809114108823D9F01092EF
:1038C00014100E94590660E08FE20E94D40E60EB53
:1038D00074E0CE0101960E94BC09CE0101960E94BF
:1038E0005C0ECE0101960E94B7090E947C0364EC35
:1038F00074E01BC081E0809314100E94210661E0F7
:103900008FE20E94D40E65ED74E0CE0101960E9414
:10391000BC09CE0101960E945C0ECE0101960E9468
:10392000B7090E947C0367EE74E083E692E10E948F
:10393000780A64E670E080E090E00E943F0F03C0E8
:1039400081E08093121080911010909111108130BD
:10395000910579F480911310882341F0809114101F
:10396000882321F081E08093151016C01092151065
:1039700013C08230910511F0039771F480911310F8
:10398000811105C01092151010920F1005C0809182
:1039900014108111E7CFF6CF80911510882309F418
:1039A0007FC08091E60F882331F061E08BE20E94B6
:1039B000D40E61E005C060E08BE20E94D40E60E0AE
:1039C00081E30E94D40E80911710882309F4C2C0AD
:1039D000809118108111BEC061E081E30E94D40E75
:1039E00061E08BE20E94D40E60E08FE20E94D40E70
:1039F0001092DF0F1092DE0F88E00E94080E80E028
:103A000090E00E94040E82E090E00E94040E0E946A
:103A1000A70D6AE070E080E090E00E943F0F1092F6
:103A2000DD0F1092DC0F88E00E94080E80E090E02D
:103A30000E94040E80E090E00E94040E0E94A70DF8
:103A40006AE070E080E090E00E943F0F0E948003F7
:103A500068EF74E083E692E10E94780A0E947C039A
:103A600064E075E083E692E10E94780A0E94230EEA
:103A700060E080E00E942D0E61E175E082E892E155
:103A80000E94780A61E080E00E942D0E64E075E0FB
:103A900082E892E10E94780A81E0809318105AC06F
:103AA00060E08BE20E94D40E60E081E30E94D40EBD
:103AB00051C08091171081114DC00E9480036FE9A1
:103AC00074E083E692E10E94780A0E947C0367EE2C
:103AD00074E083E692E10E94780A81E080931610F8
:103AE00010921510809103028823A1F010921410F7
:103AF00060E08FE20E94D40E8EE195E00E94120EEB
:103B00000E9459060E947C0364EC74E083E692E113
:103B10000E94780A109218101DC080912210811105
:103B200019C08091341006C080911A10811112C002
:103B30008091191081110EC069E475E0CE010196E3
:103B40000E94BC09CE0101960E94B002CE010196EE
:103B50000E94B70961E084E30E94D40E8091E60FD1
:103B6000882331F060E085E30E94D40E60E005C058
:103B700061E085E30E94D40E61E08CE1E6C061E083
:103B800083E30E94D40E8091321081110DC00E94F7
:103B90008C0F60932E1070932F10809330109093A1
:103BA000311081E08093321020902E1030902F1031
:103BB00040903010509031100E948C0FAB01BC012E
:103BC000421953096409750981E0413D5740610577
:103BD000710508F480E080932D10882309F415C145
:103BE00060E084E30E94D40E60E085E30E94D40E7E
:103BF00010921E1010921D101092351010921C1071
:103C000004C10E94800367E975E083E692E10E94A7
:103C1000780A0E947C0365EA75E083E692E10E94DF
:103C2000780A67EB75E0CE0101960E94BC0963E05B
:103C300070E0CE0101960E945804CE0101960E94C8
:103C4000B709E3C080912B10882309F481C08091CB
:103C50002210882309F475C088EC95E00E94120EAA
:103C600040911F1050912010052E000C660B770B11
:103C700077FF05C08EEA91E10E94500A05C02AE054
:103C80008EEA91E10E94080A0E9480036FE574E0C9
:103C900083E692E10E94780A40911F105091201013
:103CA000052E000C660B770B77FF05C083E692E1CB
:103CB0000E94500A05C02AE083E692E10E94080AA9
:103CC00080911F109091201084369105C1F044F42A
:103CD0008832910589F0C897D9F48BED95E01AC028
:103CE0008E36910579F08639910579F08536910502
:103CF00079F489E096E00EC080ED95E00BC089EF85
:103D000095E008C08BE296E005C087E596E002C02A
:103D100082E796E00E94120E8091E20F882369F0FC
:103D200061E08DE20E94D40E1092201010921F10BC
:103D30008BE796E00E94120E68C08091E60F882300
:103D400011F060E001C061E08DE20E94D40E5DC020
:103D50000E94800366E575E083E692E10E94780A9E
:103D600080912A10882331F08091E60F882311F08A
:103D700061E001C060E08FE20E94D40E8091E50F07
:103D8000882319F081E08093E40F40902810509030
:103D90002910EAE04E165104FCF48091E30F8823C9
:103DA00061F061E084E30E94D40E8FEF481A580A54
:103DB000509229104092281028C080912710882303
:103DC00011F061E001C060E084E30E94D40E109223
:103DD00029101092281019C061E084E30E94D40ECB
:103DE000109229101092281010922610109225106F
:103DF000109237101092241081E08093231064EF0A
:103E000071E080E090E00E943F0F0E9422080C9435
:103E100086128EEA96E00E94120E0C947B1383E2C7
:103E20000E94AC0E892B69F410921B1010921A108C
:103E300081E080931910D0921110C09210100C9450
:103E4000E8138AE391E00E94850E0C94E8138DEC50
:103E500096E002C081EE96E00E94120E0E94C90612
:103E60000E9421060E9491060E94230E6DE474E0D8
:103E700082E892E10E94780A5524539450921410DB
:103E800061E08FE20E94D40E5092131050923810CD
:103E9000BCCFA8E6B0E0283010F40C94A110E0E00C
:103EA000F0E00C94A31087E592E10E94B7098DE53C
:103EB00092E10E94B70986E392E0909364128093A6
:103EC00063128091AE0F9091AF0F8356924171F4BF
:103ED000E0917612F091771290818091781280951E
:103EE000892380831092AF0F1092AE0F8EE892E17B
:103EF0000C94B709CF92DF92EF92FF9210921411B7
:103F00001092131198EEC92E93E0D92EE12CF12CCA
:103F1000C0921511D0921611E0921711F09218115B
:103F200086E192E090931211809311112DEC30E014
:103F300030931E1120931D112CEC30E03093201192
:103F400020931F1128EC30E030932211209321118F
:103F500029EC30E030932411209323112AEC30E037
:103F600030932611209325112EEC30E03093281148
:103F70002093271110922A1110922B1110922C11BC
:103F800010922D111092B1111092B011C092B21175
:103F9000D092B311E092B411F092B5119093AF1199
:103FA0008093AE1185EC90E09093BB118093BA1191
:103FB00084EC90E09093BD118093BC1180EC90E074
:103FC0009093BF118093BE1181EC90E09093C1114A
:103FD0008093C01182EC90E09093C3118093C21142
:103FE00086EC90E09093C5118093C4111092C71194
:103FF0001092C8111092C9111092CA1110924E124B
:1040000010924D12C0924F12D0925012E092511263
:10401000F092521286E292E090934C1280934B12EF
:1040200066E97FE08EE892E10E94BC091092851259
:104030001092841286E492E090938312809382120D
:1040400087E28093861284E180938B1284E08093D0
:104050008C1210928D121092661210926512C092FC
:104060006712D0926812E0926912F0926A1286E3A7
:1040700092E0909364128093631210927A121092DD
:10408000791210927C1210927B1210927E12109272
:104090007D121092801210927F12609181126E7FB9
:1040A0006D7F609381126695617081E068278EE074
:1040B0000E94D40E61E08EE00E94030FEAE6F2E077
:1040C000E491E0937312E4E2F2E0E491F0E0EE0FA9
:1040D000FF1FEE51FE4F859194919093751280933E
:1040E000741260E080E00E94030F8091811281FDD4
:1040F00004C061E080E00E94D40E10926F12ECE5E3
:10410000F2E0E491E0937012E6E1F2E0E491F0E095
:10411000EE0FFF1FE450FE4F859194919093721221
:10412000809371126BEA7FE08DE592E10E94BC09F9
:1041300061EA7FE087E592E1FF90EF90DF90CF901A
:104140000C94BC0997FB072E16F4009406D077FD5B
:1041500008D035D007FC05D03EF4909581959F4F4F
:104160000895709561957F4F0895A1E21A2EAA1BBC
:10417000BB1BFD010DC0AA1FBB1FEE1FFF1FA21717
:10418000B307E407F50720F0A21BB30BE40BF50B14
:10419000661F771F881F991F1A9469F7609570959D
:1041A000809590959B01AC01BD01CF010895EE0F64
:1041B000FF1F881F8BBF0790F691E02D1994AA1B53
:1041C000BB1B51E107C0AA1FBB1FA617B70710F002
:1041D000A61BB70B881F991F5A95A9F78095909534
:1041E000BC01CD010895CF93DF938230910510F487
:1041F00082E090E0E091A012F091A11220E030E086
:10420000C0E0D0E0309711F1408151814817590743
:10421000C0F04817590761F482819381209719F003
:104220009B838A832BC09093A1128093A01226C0F7
:104230002115310519F04217530718F49A01BE01F0
:10424000DF01EF010280F381E02DDCCF2115310584
:1042500009F1281B390B2430310590F412968D9109
:104260009C9113976115710521F0FB019383828363
:1042700004C09093A1128093A012FD01329644C015
:10428000FD01E20FF31F81939193225031092D9389
:104290003C933AC020919E1230919F12232B41F4FF
:1042A000209106023091070230939F1220939E12B4
:1042B00020910402309105022115310541F42DB7FA
:1042C0003EB74091080250910902241B350BE09142
:1042D0009E12F0919F12E217F307A0F42E1B3F0BE2
:1042E0002817390778F0AC014E5F5F4F2417350768
:1042F00048F04E0F5F1F50939F1240939E12819380
:10430000919302C0E0E0F0E0CF01DF91CF910895FA
:104310000F931F93CF93DF93009709F48CC0FC0198
:104320003297138212820091A0121091A1120115EE
:10433000110581F420813181820F931F20919E12FB
:1043400030919F122817390779F5F0939F12E09367
:104350009E1271C0D80140E050E0AE17BF0750F484
:1043600012962D913C911397AD012115310509F15C
:10437000D901F3CF9D01DA013383228360817181FA
:10438000860F971F8217930769F4EC012881398102
:10439000260F371F2E5F3F4F318320838A819B81F9
:1043A00093838283452B29F4F093A112E093A0120A
:1043B00042C01396FC93EE931297ED0149915991E7
:1043C0009E01240F351FE217F30771F4808191815C
:1043D000840F951F029611969C938E9382819381F0
:1043E00013969C938E931297E0E0F0E0D80112961A
:1043F0008D919C911397009719F0F8018C01F6CFDD
:104400008D919C9198012E5F3F4F820F931F2091B9
:104410009E1230919F122817390769F4309729F4BA
:104420001092A1121092A01202C013821282109355
:104430009F1200939E12DF91CF911F910F910895CB
:104440006F927F928F929F92AF92BF92CF92DF92A4
:10445000EF92FF920F931F93CF93DF93EC0100979E
:1044600081F4CB01DF91CF911F910F91FF90EF90DD
:10447000DF90CF90BF90AF909F908F907F906F9084
:10448000B2CEFC01E60FF71F9C0122503109E21762
:10449000F30708F4A8C0D9010D911C9111970617D4
:1044A0001707A8F00530110508F49BC0C801049750
:1044B0008617970708F495C002501109061B170BC1
:1044C000019311936D937C93CF0122DF8AC05B012E
:1044D000A01AB10A4C01800E911EA091A012B091B9
:1044E000A11240E050E0E12CF12C109709F44AC0F1
:1044F000A815B905D1F56D907C901197630182E004
:10450000C80ED11CCA14DB0480F1A3014A195B094F
:104510006A0182E0C80ED11C1296BC9012971396C5
:10452000AC91B5E0CB16D10440F0B282A3835183A5
:104530004083D9016D937C930AC00E5F1F4FC30166
:10454000800F911FF90191838083EB2DFA2FE114E5
:10455000F10431F0D7011396FC93EE93129741C00A
:10456000F093A112E093A0123CC08D919C91119701
:104570004817590708F4AC017D0112960D90BC91C3
:10458000A02DB3CF80919E1290919F12881599050E
:10459000E1F446175707C8F4809104029091050290
:1045A000009741F48DB79EB74091080250910902DF
:1045B000841B950BE817F907B0F4F0939F12E09372
:1045C0009E12F901718360830CC0CB010CDE7C016B
:1045D000009749F0A801BE011BD0CE0199DEC701AA
:1045E00004C0CE0102C080E090E0DF91CF911F9126
:1045F0000F91FF90EF90DF90CF90BF90AF909F9082
:104600008F907F906F90089581E090E0F89410C0B3
:10461000FB01DC0102C001900D9241505040D8F7DF
:104620000895FB01DC0101900D920020E1F708954F
:1046300011E0C2E5D1E000E005C0802FFE01B7DD4A
:104640002196011DC335D10780E00807B1F7F89422
:02465000FFCF9A
:10465200010101010000A2128000000040001400CC
:10466200540000000000BB0716077C075A076E07BC
:10467200010800000000870958091E090A09FB0801
:10468200FA08000000006E081607C208D90855088B
:104692006D0800000000780B160757454C434F4D3C
:1046A200450056657273696F6E3A20004279204D5B
:1046B2006174742053746574736F6E00436F6E740B
:1046C200726F6C2050616E656C0073746574736FE9
:1046D2006E3240696C6C696E6F69732E6564750029
:1046E2004C61737420557064617465643A20392F8B
:1046F200382F31360056455253494F4E3A20004228
:10470200593A204D4154542053544554534F4E006E
:104712005645523A0050414E454C20504F57455253
:10472200204953204F46462E205357495443482090
:1047320050414E454C20544F204F4E20544F204262
:104742004547494E20535441525455502E00535719
:104752004954434820544F204155544F204D4F4413
:104762004520544F20424547494E20504841534529
:10477200204920535441525455502E00415454451F
:104782004E54494F4E3A20452D53544F50205445D4
:1047920053542C20452D53544F50205245534554C9
:1047A2002C2026205741524E494E4720484F524E08
:1047B2002068617665206265656E20736B69707032
:1047C20065642E20506C6561736520726573746137
:1047D200727420696620746869732077617320613E
:1047E200206D697374616B652E00535441545553A7
:1047F200203030313A0050414E454C20504F574501
:1048020052204F46460053544154555320303032C3
:104812003A0053574954434820544F204155544F6E
:10482200005761726E696E6720686F726E207465E0
:1048320073740050726573732052696465205374F7
:1048420061727420746F20636F6E74696E75652077
:10485200737461727475700050726573732072653F
:1048620073747261696E747320666F722066756EFE
:104872006374696F6E73206D656E7500436F6E6E43
:10488200656374656420746F204B6579626F617231
:10489200642053696D756C61746F722100535441C9
:1048A2005254555020434F4D504C455445210045DC
:1048B20052524F523A2020202020202000452D53D2
:1048C200544F502050524553534544005249444599
:1048D2002053544F502050524553534544004149B0
:1048E2005247415445533A20204F50454E210041F2
:1048F200495247415445533A202020204F4B210032
:10490200526573747261696E747320756E6C6F6335
:104912006B656400524553545241494E54533A20F8
:104922004F50454E00526573747261696E74732004
:104932006C6F636B656400524553545241494E5447
:10494200533A20204F4B21005354415455532031A8
:1049520030303A004449535041544348494E47216C
:1049620000535441545553203130303A200052659F
:1049720073747261696E747320756E6C6F636B65AC
:1049820064206265636175736520747261696E206B
:1049920073746F707065642E00554E4B4E4F574EB8
:1049A200204D4F44450050524553532052494445EF
:1049B20020535441525400544F20455352205245E3
:1049C20053455400546F20726573657420455352E9
:1049D200206C6F6F703A00507265737320455352AA
:1049E20020524553455400452D53544F50204143C6
:1049F200544956450053776974636820746F2042A6
:104A02005950415353210053776974636820746F7E
:104A120020425950415353004552524F523A2000BE
:104A2200434F4D4D204552524F5200494E5445522C
:104A32004E414C204552524F522E20534545204460
:104A420045425547204C4F470050414E454C204B64
:104A520045594544204F464600504F574552204B3A
:104A620065797377697463682077617320737769F6
:104A72007463686564206F66662E0050616E656CB3
:104A82002077617320696E61637469766520666F51
:104A92007220746F6F206C6F6E672E2054696D6583
:104AA20064206F75742E004D61696E2070616E65B1
:104AB2006C20652D73746F702070726573736564FA
:104AC20021004E4F204552524F52004572726F7272
:104AD20020436C65617265642E2050726573732089
:104AE20054524F55424C4520746F20726573657461
:104AF2002E004572726F72205265736574005052B7
:104B02004F4752414D4D204552524F523A20554E39
:104B12004B4E4F574E204D4F44452121004B657956
:104B2200626F61726420436F6E6E65637465642E9A
:104B3200004B6579626F61726420636F6E6E6563AC
:104B420074696F6E206661696C65640046554E43F8
:104B520054494F4E53204D454E553A202850414717
:104B6200452031204F462033293B204F50455241AA
:104B720054494F4E532046554E4354494F4E5300CD
:104B82004C4541442F53555045525649534F525369
:104B9200204F4E4C592100504147452031413A2087
:104BA2004C4541442D41434345535341424C4520DA
:104BB20046554E4354494F4E53005072657373200D
:104BC2004C4F434B20524553545241494E5453206B
:104BD200746F20746F67676C65204155544F4D4167
:104BE20054494320524553545241494E545320553F
:104BF2004E4C4F434B0050726573732044495350DF
:104C02004154434820524947485420746F204C492C
:104C120053542043555252454E54204F5045524111
:104C220054494F4E532053455454494E475300461E
:104C32006F72206D6F7265206F7074696F6E732C66
:104C42002073776974636820474154455320746F19
:104C5200204F50454E00524553545241494E5453F1
:104C62002057494C4C204E4F57204155544F4D41EF
:104C7200544943414C4C5920554E4C4F434B2049CB
:104C82004E204155544F4D41544943204D4F4445C8
:104C92002100524553545241494E54532057494CD6
:104CA2004C204E4F204C4F4E474552204155544FB9
:104CB2004D41544943414C4C5920554E4C4F434B66
:104CC2002120494E204155544F4D41544943204DD6
:104CD2004F444500504147452032413A20535550F8
:104CE20045525649534F522D414343455353414236
:104CF2004C452046554E4354494F4E530050726521
:104D02007373204449535041544348205249474801
:104D12005420666F722044495350415443482054F2
:104D22004F47474C450053555045525649534F52F1
:104D3200204D4F444520454E41424C4544210053AD
:104D4200555045525649534F52204D4F44452044E9
:104D5200495341424C4544210044454255473A207B
:104D6200200053776974636820746F204155544F53
:104D7200204D4F444520746F20636F6E74696E75C9
:104D82006520737461727475702E005354415254CD
:104D920055503A20504841534520490053544F50F2
:104DA2002054455354005048415345204920535400
:104DB20041525455503A2053544F50205445535465
:104DC2003B20456E7375726520616C6C2073746F45
:104DD2007020627574746F6E732066756E63746989
:104DE2006F6E20636F72726563746C792E00524924
:104DF20044452053544F5020544553543A20507246
:104E020065737320524944452053544F5000524910
:104E120044452053544F502066756E6374696F6E1B
:104E2200696E6720636F72726563746C792E0045D8
:104E32004D455247454E43592053544F50205445F7
:104E420053543A20507265737320454D455247457D
:104E52004E43592053544F502100507265737320B2
:104E6200454D455247454E43592053544F500045F6
:104E72004D455247454E43592053544F50205052AE
:104E820045535345443A2050756C6C20757020454B
:104E92004D455247454E43592053544F500050758B
:104EA2006C6C20454D455247454E43592053544F53
:104EB200502000452D53544F502066756E6374691F
:104EC2006F6E696E6720636F72726563746C792EA0
:104ED2000053544F50205445535420434F4D504C8F
:104EE2004554452E2050726573732041434B4E4FFB
:104EF200574C4544474520746F20636F6E74696E4A
:104F02007565210053746F70207465737420636F2C
:104F12006D706C6574650050726573732041434B0C
:104F22004E4F574C4544474520202000554B4E4F8D
:104F3200574E20434153452073746F705465737408
:104F420053657269616C0050686173652049207312
:104F52007461727475703A204C414D50205445531F
:104F6200543A20456E7375726520616C6C206C61D9
:104F72006D70732066756E6374696F6E20636F72F5
:104F8200726563746C792E005072657373204143AD
:104F92004B4E4F574C4544474520746F20636F6E0C
:104FA2006669726D20616C6C206C616D7073206635
:104FB200756E6374696F6E2070726F7065726C7952
:104FC20020616E6420636F6E74696E756520737400
:104FD20061727475702E0045585452412046554EE8
:104FE2004354494F4E533A20005377697463682003
:104FF200454E5452414E4345204741544553207437
:105002006F204F50454E20746F207475726E206170
:105012006C6C206C616D707320736F6C69642E0010
:10502200507265737320616E6420686F6C642054E3
:10503200524F55424C4520666F7220535441525490
:10504200555020484F524E20746573742E00507292
:1050520065737320616E6420686F6C6420524944EA
:105062004520535441525420666F72205741524E8C
:10507200494E47204D45535341474520746573744B
:1050820000507265737320524944452053544F5067
:1050920020746F206279706173732073746172740B
:1050A2007570203D3E204D41494E5441494E454E7A
:1050B2004345204F4E4C5921004C414D5020544500
:1050C200535420434F4D504C4554452E0043616E7E
:1050D2006E6F7420636F6D706C657465206C616DAA
:1050E2007020746573742E200A2053776974636884
:1050F20020474154455320746F20434C4F5345443D
:105102002E004C414D50205445535400507265734B
:10511200732041434B4E4F574C45444745004C4149
:105122004D5020544553543A00455854524120465C
:10513200554E4354494F4E5300202020202020201A
:105142002020202020202020202020202000535416
:1051520041525455503A20504841534520494949FB
:105162000053776974636820746F204155544F204F
:105172004D4F444500504841534520494949205329
:105182005441525455503A205249444520535441B7
:10519200525400452D53544F502052455345543AD2
:1051A20020507265737320616E6420686F6C642096
:1051B2005249444520535441525420746F20636F26
:1051C2006D706C65746520737461727475702E00F5
:1051D200546F20636F6D706C6574652073746172B7
:1051E2007475703A00486F6C6420524944452053EC
:1051F200544152540052494445205354415254455B
:10520200440046494E414C53544152542053455256
:1052120049414C00452D53544F502052455345545B
:105222003A00535441525455503A20504841534544
:10523200204949005048415345204949205354418F
:10524200525455503A20452D53544F5020524553F5
:10525200455400452D53544F502052455345543A1E
:1052620020507265737320616E6420686F6C6420D5
:105272005249444520535441525420746F20726560
:1052820073657420455352204C4F4F5000546F2089
:10529200726573657420657372206C6F6F703A006B
:1052A200486F6C6420455352205245534554004583
:1052B2002D53544F50205245534554205355434388
:1052C20045535346554C0045535253544152542072
:1052D20053455249414C00504841534520494920C9
:1052E200535441525455503A2053544152545550FC
:1052F200205741524E494E47005354415254555043
:10530200205741524E494E473A20434845434B208D
:105312005448415420414C4C20474154455320416C
:1053220052452053454355524520414E442052494F
:105332004445204152454120434C454152210050B1
:10534200524553532041434B4E4F574C45444745DA
:1053520020544F20434F4E4652494D20534146451B
:1053620020544F204F504552415445210043484557
:10537200434B20524944452041524541212100538B
:10538200414645204F5045524154494F4E20434FCC
:105392004E4652494D4544213A205072657373205E
:1053A200616E6420686F6C642052494445205354F6
:1053B20041525420746F20726573657420494E49BE
:1053C200544941544520535441525455500053546A
:1053D2004152545550205741524E494E4720535541
:1053E200434345535300352E302E302064657632C8
:0C53F2000044454255473A20000D0A00D7
:00000001FF
