:1000000052C1000081C100007FC100007DC100001D
:100010007BC1000079C1000077C1000075C10000FC
:1000200073C100000C9465090C9465090C94650972
:100030006BC1000069C1000067C1000065C100001C
:1000400063C1000061C100005FC100005DC100002C
:100050005BC1000059C1000057C100000C94660D3F
:1000600053C100000C942F090C9406094DC10000E7
:100070004BC1000049C1000047C1000045C100005C
:1000800043C1000041C100003FC100003DC100006C
:100090003BC1000039C1000037C100000C94E309E6
:1000A00033C1000031C100002FC100002DC100008C
:1000B0002BC1000029C1000027C1000025C100009C
:1000C00023C1000021C100001FC100001DC10000AC
:1000D0001BC1000019C1000017C1000015C10000BC
:1000E00013C10000EA12F012F61200130A1385136E
:1000F00014131D13261330133A13441353135D13B3
:100100008513671371137B1384039803AC03C10336
:10011000C903DD03F1034E0B510B400B440B4A0B9B
:10012000880B550B590B5F0B630B670B6D0B710B3A
:10013000750B880B7B0B7F0B830B50524F47524143
:100140004D4D204552524F523A20554E4B4E4F572F
:100150004E205459504521210052454144204F50D2
:1001600045524154494E4720494E535452554354E9
:10017000494F4E53204245464F5245205553452145
:10018000210000002100240027002A002D0030005B
:10019000330001010000040107010A0100000A0BFD
:1001A00002090C0D0E080703040100000000000006
:1001B000000000000000000000000000000000003F
:1001C00000000000000000001211100000000000FC
:1001D000000000000000000000000000000000001F
:1001E000000000002200250028002B002E00310016
:1001F000340002010000050108010B01000020008D
:100200002300260029002C002F00320000010000EE
:100210000301060109010505050507050808080889
:10022000020202020A0A080804040404010101018E
:100230000101010103030303030303030407070789
:100240000C0C0C0C0C0C0C0C02020202060606062E
:10025000060606060B0B0B0B0B0B0B0B01021020FB
:1002600020080810204010204080020102010804EC
:100270000201010204081020408080402010080480
:1002800002018004020180402010080402010804D9
:10029000020101020408102040800102040810201D
:1002A0004080151BEE1A11241FBECFEFD1E2DEBF36
:1002B000CDBF00E00CBF1EE0A0E0B2E0E6EEFCE344
:1002C00000E00BBF02C007900D92A031B107D9F733
:1002D00020E1A0E1BEE001C01D92A435B207E1F724
:1002E00011E0C2E5D1E000E006C021970109802FAE
:1002F000FE010E94211CC135D10780E00807A9F743
:100300000E94B00D0C94621E7BCE60E08BE20E94D6
:10031000A20C60E081E30E94A20C60E085E30E94F1
:10032000A20C60E084E30E94A20C60E083E30E94E0
:10033000A20C60E08FE20E94A20C60E089E20E94C1
:10034000A20C60E087E20C94A20C8091270E811130
:1003500002C061E001C060E08DE20E94A20C8091C9
:10036000240E882361F01092250E81E08093030211
:100370000E94140BCADF60E08DE20E94A20C809103
:10038000230E882309F4A2C08091970E81110BC01F
:1003900086E696E00E94190C8AE996E00E94190C04
:1003A00081E08093970E8091220E60E081114AC017
:1003B00083E30E94A20C8091960E811115C081EBFF
:1003C00096E00E94190C84ED96E00E94190C80E1E1
:1003D00097E00E94190C89E497E00E94190C81E0D3
:1003E0008093960E1092950E8091270E882331F0FF
:1003F00061E08FE20E94A20C60E009C080910702D8
:10040000811108C060E08FE20E94A20C61E081E3EC
:100410000E94A20C8091260E882309F457C0809177
:10042000070281110AC081E08093070261E08FE238
:100430000E94A20C80E797E041C0109207028CEA6C
:1004400097E03CC08FE20E94A20C60E081E30E9432
:10045000A20C8091950E81110DC08EEE97E00E9446
:10046000190C87E198E00E94190C81E08093950EA9
:100470001092960E8091270E882311F061E005C03E
:100480008091940E811104C060E083E30E94A20C6D
:100490008091280E8823D1F08091940E81110AC09A
:1004A00081E08093940E61E083E30E94A20C80E4DB
:1004B00098E004C01092940E89E598E00E94190C0F
:1004C00068EE73E080E090E00C940D0D0895CF93FA
:1004D000DF93EC0163E778E08CE69FE096D6BE01FF
:1004E0008CE69FE0FFD58BE190E10E942A0C6AE048
:1004F00070E080E090E0DF91CF910C940D0D81E0F1
:1005000090E00C94450D6EEF81E290E151D461E0F2
:1005100081E290E14DD480E090E00E94450D62E0E0
:1005200070E080E090E00C940D0D0F931F93CF933B
:10053000DF93CDB7DEB72C970FB6F894DEBF0FBEB2
:10054000CDBF8C016CE778E0CE0101967FD50230FB
:100550001105A1F00330110531F101301105A9F5A4
:10056000CE0101960E942A0CCEDF65EA78E081E296
:1005700090E14BD6C4DF64E973E011C083EB98E0EF
:100580000E94190C82ED98E00E94190CBCDF65EA0C
:1005900078E081E290E139D6B2DF62E075E081E295
:1005A00090E133D604C08CE099E00E94190CCE0192
:1005B000019647D52C960FB6F894DEBF0FBECDBF7F
:1005C000DF91CF911F910F91089564E279E0CE0100
:1005D00007963CD5CE0107967ADFCE01079631D536
:1005E000E6CF0F931F93CF93DF93CDB7DEB72C9752
:1005F0000FB6F894DEBF0FBECDBF8C016CE778E07C
:10060000CE01019623D50230110501F194F4013099
:10061000110509F04FC0CE0101960E942A0C73DF2C
:1006200064E379E081E290E1F0D569DF64E973E0A9
:1006300030C00330110501F10430110509F03AC052
:100640008DE49AE00E94190C5EDF26C085E499E0F3
:100650000E94190C87E699E00E94190C8DEA99E036
:100660000E94190C50DF6BED79E081E290E1CDD56D
:1006700046DF6DEE79E00DC08EEF99E00E94190C17
:1006800042DF64E379E081E290E1BFD538DF62E0E8
:1006900075E081E290E1B9D5CE010196D2D42C96D5
:1006A0000FB6F894DEBF0FBECDBFDF91CF911F9183
:1006B0000F91089564E279E0CE010796C7D4CE0188
:1006C000079605DFCE010796BCD4E6CF0F931F93A4
:1006D000CF93DF93CDB7DEB72C970FB6F894DEBF7C
:1006E0000FBECDBF8C016CE778E0CE010196AED491
:1006F000F8013197E730F10508F08BC08827EC57F7
:10070000FF4F8F4F0C94211CCE0101960E942A0CA2
:10071000FADE65E67AE081E290E177D5F0DE64E921
:1007200073E081E290E171D581E080931D0E1BC0E2
:1007300080E79AE00E94190CE6DE65E67AE081E245
:1007400090E163D5DCDE68EB7AE081E290E15DD593
:1007500081E080931C0E07C088EC9AE00E94190C7F
:1007600081E080931A0ECE0101966BD42C960FB6C1
:10077000F894DEBF0FBECDBFDF91CF911F910F91D7
:10078000089588EE9AE00E94190C81E08093190E7A
:10079000EACF89E09BE00E94190CB5DE65E67AE0BD
:1007A00081E290E132D5ABDE64E37BE081E290E16F
:1007B0002CD581E08093170ED6CF81E49BE00E9478
:1007C000190CA1DE65E67AE081E290E11ED597DEA4
:1007D00060E77BE081E290E118D581E08093150E1F
:1007E000C2CF8CE79BE00E94190C8AE99BE00E9433
:1007F000190C89DE6DEC7BE081E290E106D57FDEAD
:100800006BED7BE081E290E100D581E08093140EF6
:10081000AACF65EE7BE0CE01079618D4CE010796ED
:1008200056DECE0107960DD49ECFEF92FF920F9326
:100830001F93CF93DF93CDB7DEB7E6970FB6F8944B
:10084000DEBF0FBECDBF8C0160E07CE0CE01019623
:100850007C01FCD361E47CE0CE010796F7D360E92C
:100860007CE0CE010D96F2D362EA7CE0CE014396A5
:10087000EDD369ED7CE0CE014996E8D367E07DE0F9
:10088000CE014F96E3D36AE37DE0CE018596DED3B9
:1008900062E77DE0CE018B96D9D366E87DE0CE019C
:1008A000C196D4D30230110521F1E4F401301105D1
:1008B00009F047C0C701CED7CE010796CBD78BE151
:1008C00090E1C8D720DE6BEB7DE081E290E19DD422
:1008D00016DE6CEC7DE081E290E197D481E08093BC
:1008E0001D0E2FC00330110531F10430110581F1C7
:1008F00028C0CE010D96AED7CE014396ABD7CE0120
:100900004996A8D7CE014F96A5D7CE018596A2D7F6
:100910008BE190E19FD7F7DD6CED7DE081E290E126
:1009200074D4EDDD67EE7DE081E290E16ED481E08C
:1009300080931C0E06C0CE018B968CD781E08093ED
:100940001A0ECE01C1967DD38E010F5C1F4F07C0DA
:10095000CE01C1967FD781E08093190EF2CF065069
:100960001109C8016ED30E151F05C9F7E6960FB61B
:10097000F894DEBF0FBECDBFDF91CF911F910F91D5
:10098000FF90EF9008951092210E1092200E86E0B5
:1009900090E090931F0E80931E0E88E040D78091C8
:1009A000200E9091210E37D780911E0E90911F0E30
:1009B00032D7D4D66AE070E080E090E00E940D0D5E
:1009C0001092210E1092200E10921F0E10921E0EE9
:1009D00088E025D78091200E9091210E1CD7809120
:1009E0001E0E90911F0E17D7B9D66AE070E080E016
:1009F00090E00C940D0D1092210E1092200E85E0C7
:100A000090E090931F0E80931E0E88E008D780918F
:100A1000200E9091210EFFD680911E0E90911F0EF8
:100A2000FAD69CD66AE070E080E090E0F6D71092AB
:100A3000210E1092200E10921F0E10921E0E88E0B2
:100A4000EED68091200E9091210EE5D680911E0E5B
:100A500090911F0EE0D682D66AE070E080E090E0D0
:100A6000DCC71092210E1092200E84E090E090934B
:100A70001F0E80931E0E88E0D2D68091200E90919A
:100A8000210EC9D680911E0E90911F0EC4D666D637
:100A90006AE070E080E090E0C0D71092210E1092E2
:100AA000200E10921F0E10921E0E88E0B8D6809174
:100AB000200E9091210EAFD680911E0E90911F0EA8
:100AC000AAD64CD66AE070E080E090E0A6C710920B
:100AD000210E1092200E81E090E090931F0E8093E3
:100AE0001E0E88E09CD68091200E9091210E93D608
:100AF00080911E0E90911F0E8ED630D66AE070E067
:100B000080E090E08AD71092210E1092200E109271
:100B10001F0E10921E0E88E082D68091200E9091BA
:100B2000210E79D680911E0E90911F0E74D616D686
:100B30006AE070E080E090E070C7CF92DF92EF92C1
:100B4000FF920F931F93CF93DF936C017A018B0178
:100B5000C0E0D0E0CE15DF0589F0D8016D918D01A0
:100B6000D601ED91FC910190F081E02DC60119951F
:100B7000892B11F47E0102C02196ECCFC701DF91D1
:100B8000CF911F910F91FF90EF90DF90CF9008953C
:100B9000FC01918D828D981761F0828DDF01A80F85
:100BA000B11D5D968C91928D9F5F9F73928F90E0A7
:100BB00008958FEF9FEF0895FC01918D828D981716
:100BC00031F0828DE80FF11D858D90E008958FEF53
:100BD0009FEF0895FC01918D228D892F90E0805C1C
:100BE0009F4F821B91098F73992708958CE69FE090
:100BF000F1DF21E0892B09F420E0822F0895FC0128
:100C0000848DDF01A80FB11DA35ABF4F2C91848D95
:100C100090E001968F739927848FA689B7892C93CA
:100C2000A089B1898C9180648C93938D848D981365
:100C300006C00288F389E02D80818F7D808308952E
:100C4000EF92FF920F931F93CF93DF93EC0181E01C
:100C5000888F9B8D8C8D981305C0E889F9898081D8
:100C600085FD23C0F62E0B8D10E00F5F1F4F0F7315
:100C70001127E02E8C8DE8120BC00FB607FCFACFBF
:100C8000E889F989808185FFF5CFCE01B8DFF2CF01
:100C90008B8DFE01E80FF11DE35AFF4FF0820B8FA1
:100CA000EA89FB898081806207C0EE89FF896083C1
:100CB000E889F98980818064808381E090E0DF9118
:100CC000CF911F910F91FF90EF900895CF93DF93F5
:100CD000EC01888D8823C1F0EA89FB89808185FD3C
:100CE00005C0A889B9898C9186FD0EC00FB607FC96
:100CF000F5CF808185FFF2CFA889B9898C9185FFD6
:100D0000EDCFCE017CDFE8CFDF91CF91089580E079
:100D100090E0892B19F06ADF811125C080E090E016
:100D2000892B41F080E090E0892B21F00E940000A7
:100D300081111CC080E090E0892B41F080E090E0C0
:100D4000892B21F00E940000811113C080E090E007
:100D5000892BA1F080E090E0892B81F00E940000B7
:100D600081110AC008950E940000D8CF0E9400009F
:100D7000E1CF0E940000EACF0C940000089520917A
:100D8000120E3091130E2817390771F49091100E3E
:100D90008091110E981741F0E091100EF0E0EE51A5
:100DA000F14F808190E008958FEF9FEF08950895AF
:100DB0001F93CF93DF93DC015C962D913C915D975F
:100DC0002115310539F481E090E013969C938E93C0
:100DD00012973DC05196ED91FC91529750969C917F
:100DE0005097892F80951FB75E964C915E9741FB77
:100DF000772770F941FD6095F8944081772311F0D1
:100E0000492B01C048234083E9012197F1F748E0CD
:100E1000508160FF02C0592B01C058235083E90163
:100E20002197F1F76695415099F7772321F090814A
:100E30008923808303C08081982B90831FBF5C9699
:100E40008D919C915D970197F1F721E030E0C90108
:100E5000DF91CF911F9108952091120E3091130EC2
:100E60002817390769F48091110E2091100E90E037
:100E7000805C9F4F821B910960E470E00C94EC1B36
:100E800080E090E008952091120E3091130E281703
:100E90003907B9F49091100E8091110E981789F0CE
:100EA000E091100EF0E0EE51F14F80812091100E94
:100EB00030E02F5F3F4F2F7333272093100E90E0C9
:100EC00008958FEF9FEF08950895E0912A0E809185
:100ED000290EE81730F4F0E0E55DF14F808190E0F5
:100EE00008958FEF9FEF089590912A0E8091290E1B
:100EF000981750F4E92FF0E0E55DF14F208130E0E4
:100F00009F5F90932A0E02C02FEF3FEFC901089513
:100F10008091290E90E020912A0E821B910908955C
:100F200085ED8093BC008091BC0084FDFCCF1092C5
:100F3000480F08954091BD0E262F30E0240F311D3B
:100F400021323105DCF42091480F2430C9F4FC0132
:100F500080E090E0861758F43091BD0E2191DC01BD
:100F6000A556B14FA30FB11D2C930196F3CF8091DD
:100F7000BD0E680F6093BD0E80E0089581E0089576
:100F800082E00895CF92DF92EF92FF920F931F932A
:100F9000CF93DF937C01262F972F8A018091490FF1
:100FA000882391F0C62FD72F6E01C40ED51ECC1505
:100FB000DD0569F06991D701ED91FC910190F08117
:100FC000E02DC7011995F3CF642F822FB3DFC8013D
:100FD000DF91CF911F910F91FF90EF90DF90CF9015
:100FE0000895CF93DF931F92CDB7DEB76983209129
:100FF000490F2223D1F020916B0F203240F021E0E5
:1010000030E0FC013383228380E090E014C08091C3
:101010004A0FE82FF0E0E55BF04F998190838F5FF6
:1010200080934A0F80936B0F04C061E0CE0101965C
:1010300081DF81E090E00F90DF91CF9108950E94D1
:101040004E1EFC01808191810C94D21CEF92FF9284
:101050000F931F93CF93DF93EC01198218821B82A9
:101060001A821D821C8261157105A9F17B01FB01A9
:1010700001900020E9F731978F01061B170BB8018B
:101080006F5F7F4F80E090E00E946A1D009759F0EB
:10109000998388831B830A832C813D81232B81F4D0
:1010A000FC0110820DC088819981009711F00E9487
:1010B000D21C198218821D821C821B821A820BC0CC
:1010C0001D830C83B701DF91CF911F910F91FF908A
:1010D000EF900C945B1EDF91CF911F910F91FF90C9
:1010E000EF900895DC01ED91FC91DB0114964D9198
:1010F0005C9115976D917C910280F381E02D19949C
:101100006115710579F0FB0101900020E9F7319735
:10111000AF01461B570BDC01ED91FC910280F3817E
:10112000E02D199480E090E008954F925F926F92C5
:101130007F92EF92FF920F931F93CF93DF93CDB7E0
:10114000DEB7A1970FB6F894DEBF0FBECDBF7C010E
:10115000FA01CB0119A2223008F42AE08E010F5DBA
:101160001F4F422E512C612C712CBF01A301920103
:101170000E94FF1BF901CA01015011096A3014F4E1
:10118000605D01C0695CD8016C93232B242B252B57
:1011900061F7B801C701B4DFA1960FB6F894DEBFBE
:1011A0000FBECDBFDF91CF911F910F91FF90EF90B8
:1011B0007F906F905F904F900895CF92DF92EF9263
:1011C000FF920F931F93CF93DF93EC016A017B0192
:1011D000E881F9810190F081E02D6DE219958C0193
:1011E00044275527BA014C195D096E097F092AE089
:1011F000CE019BDF800F911FDF91CF911F910F9147
:10120000FF90EF90DF90CF9008957ACF1F920F92CA
:101210000FB60F9211240BB60F922F933F934F935B
:101220005F936F937F938F939F93AF93BF93EF934E
:10123000FF938CE69FE0E3DCFF91EF91BF91AF91CC
:101240009F918F917F916F915F914F913F912F91DE
:101250000F900BBE0F900FBE0F901F9018951F920E
:101260000F920FB60F9211240BB60F922F938F93FC
:101270009F93EF93FF93E0917C0FF0917D0F80811E
:10128000E091820FF091830F82FD12C090818091D6
:10129000850F8F5F8F732091860F821751F0E09139
:1012A000850FF0E0E459F04F958F8093850F01C0D2
:1012B0008081FF91EF919F918F912F910F900BBEA5
:1012C0000F900FBE0F901F9018951F920F920FB6A0
:1012D0000F9211240BB60F922F933F934F935F936E
:1012E0006F937F938F939F93AF93BF93EF93FF93EE
:1012F000E091120EF091130E309709F451C0968DC3
:10130000A685B785858591FF04C09C91892329F422
:1013100047C09C91892309F043C0A389B4899C915B
:101320008589809589238C93868997890197F1F720
:10133000608D718DA685B785558538E020E0CB019D
:101340000197F1F7822F90E095958795282F4C9182
:10135000452309F02068315091F7868D81FD209555
:101360008091110E90E001968F7399273091100EA5
:10137000381749F0A091110EB0E0AE51B14F2C9347
:101380008093110E03C0868D8160868F828D938D30
:101390000197F1F7A389B4899C918589892B8C9356
:1013A000FF91EF91BF91AF919F918F917F916F913D
:1013B0005F914F913F912F910F900BBE0F900FBEF9
:1013C0000F901F9018951F920F920FB60F92112435
:1013D0000BB60F922F933F934F935F936F937F932F
:1013E0008F939F93AF93BF93EF93FF938091B90037
:1013F000887F803609F49CC068F5883209F45BC0A8
:1014000090F4803109F454C038F4882309F4F6C00C
:10141000883009F44DC0F5C0883109F44CC08032E1
:1014200009F45DC0EEC0803409F468C048F480332C
:1014300009F455C0883309F0E4C08093460FD8C042
:10144000803509F44FC0883509F45DC0883409F04F
:10145000D8C0D6C0883909F4C7C0A8F4883709F4C1
:1014600067C038F4883609F463C0803709F460C077
:10147000C8C0883809F4B8C0803909F45FC0803822
:1014800009F0BFC05BC0803B09F486C038F4803AE5
:1014900009F466C0883A09F47FC0B3C0803C09F4FF
:1014A000A7C0883C09F4A4C0883B09F48AC0A9C03D
:1014B0008091230F10C09091450F8091440F981791
:1014C00070F5E091450F81E08E0F8093450FF0E0BD
:1014D000EC5DF04F80818093BB0085EC86C08093EB
:1014E000460F8EC0E091450F81E08E0F8093450F2F
:1014F0008091BB00F0E0EC5DF04F80839091450F50
:101500008091440F6EC0E091450F81E08E0F809373
:10151000450F8091BB00F0E0EC5DF04F808380913F
:10152000470F81116DC081E08093220F84EA61C072
:1015300083E08093480F1092E10ECFCF8091E10EAF
:10154000803208F051C0E091E10E81E08E0F80936F
:10155000E10E8091BB00F0E0EF53F14F8083BDCFEF
:1015600085EC8093BC001092480F8091E10E803290
:1015700030F4E091E10EF0E0EF53F14F1082609112
:10158000E10E70E0E091BF0EF091C00E81EC9EE0A4
:1015900019951092E10E35C084E08093480F1092A7
:1015A000BE0E1092BD0EE091BB0EF091BC0E1995CF
:1015B0008091BD0E811105C081E08093BD0E109217
:1015C0009B0EE091BE0E81E08E0F8093BE0EF0E088
:1015D000E556F14F80818093BB009091BE0E8091C3
:1015E000BD0E981708F479CF85E88093BC0009C038
:1015F00085EC8093BC001092480F03C01092460FF8
:101600008FDCFF91EF91BF91AF919F918F917F916F
:101610006F915F914F913F912F910F900BBE0F9063
:101620000FBE0F901F90189510921D0E10921C0E59
:1016300010921A0E1092190E1092170E1092150E8B
:101640001092140E10929A0E1092990E1092980EFB
:1016500010921B0E1092180E1092160E68EE73E088
:1016600080E090E0DAC190E0FC013197E231F105D1
:1016700008F04EC08827E557FF4F8F4F0C94211C70
:10168000809180008F7703C0809180008F7D809350
:101690008000089580918000877FF9CF84B58F778F
:1016A00002C084B58F7D84BD08958091B0008F778E
:1016B00003C08091B0008F7D8093B0000895809129
:1016C00090008F7707C0809190008F7D03C080913C
:1016D0009000877F8093900008958091A0008F777D
:1016E00007C08091A0008F7D03C08091A000877FFC
:1016F0008093A0000895809120018F7707C080918A
:1017000020018F7D03C080912001877F809320017D
:1017100008953FB7F89480914B1090914C10A09190
:101720004D10B0914E1026B5A89B05C02F3F19F063
:101730000196A11DB11D3FBFBA2FA92F982F882751
:10174000820F911DA11DB11DBC01CD0142E0660FAC
:10175000771F881F991F4A95D1F7089520916B0F25
:1017600090914F10213208F04AC08091480F8111AA
:10177000FCCF32E03093480F31E03093470F3FEF1A
:101780003093460F1092450F2093440FABE4BFE017
:1017900044E25FE0FA013E2F341B321718F43D910A
:1017A0003193F9CF1092230F2091230F990F922B91
:1017B0009093230F9091220F913061F41092220F99
:1017C0009091230F9093BB009091BC0093FDF8CFB4
:1017D00095EC01C095EE9093BC009091480F92302B
:1017E000E1F39091460F9F3F79F08091460F803250
:1017F00041F08091460F803331F084E005C081E0F4
:1018000003C082E001C083E010924A0F10926B0F78
:101810001092490F0895682F89E090E1E2CB91E0A2
:101820009093490F80934F1010924A0F10926B0FB4
:101830000895CF93DF93BC018CE69FE061DCEC015F
:101840006DE07EE08CE69FE05BDC8C0F9D1FDF91FE
:10185000CF910895CF93DF93BC018CE69FE042DCEB
:10186000EC016DE07EE08CE69FE04ADC8C0F9D1F72
:10187000DF91CF910895CF93DF93E0916C0FF091BA
:101880006D0F0190F081E02D682F8CE69FE0199597
:10189000EC016DE07EE08CE69FE032DC8C0F9D1F5A
:1018A000DF91CF9108950F931F93CF93DF938C0116
:1018B000C0E0D0E0F801EC0FFD1F6491662371F0E9
:1018C000E0916C0FF0916D0F0190F081E02D8CE6AE
:1018D0009FE01995892B11F02196ECCF6DE07EE009
:1018E0008CE69FE00DDC8C0F9D1FDF91CF911F9147
:1018F0000F910895CF93DF93282F30E0F901E4563C
:10190000FE4F8491F901E45AFD4FD491F901EA5E4A
:10191000FD4FC491CC2389F08111A5DEEC2FF0E0BE
:10192000EE0FFF1FE450FE4FA591B491EC91ED2313
:1019300081E090E021F480E002C080E090E0DF915F
:10194000CF9108951F93CF93DF93282F30E0F901B3
:10195000E456FE4F8491F901E45AFD4FD491F90108
:10196000EA5EFD4FC491CC23C1F0162F81117BDEBE
:10197000EC2FF0E0EE0FFF1FEE51FE4FA591B4915A
:101980008FB7F894111105C09C91ED2FE095E923D4
:1019900002C0EC91ED2BEC938FBFDF91CF911F91A3
:1019A0000895CF93DF9390E0FC01E45AFD4F24911A
:1019B000FC01EA5EFD4F8491882361F190E0880F7D
:1019C000991FFC01EE57FE4FC591D491FC01EE51D9
:1019D000FE4FA591B491611109C09FB7F894888119
:1019E000209582238883EC912E230BC0623061F412
:1019F0009FB7F8943881822F809583238883EC9158
:101A00002E2B2C939FBF06C08FB7F894E8812E2B06
:101A100028838FBFDF91CF9108958F929F92AF92CD
:101A2000BF92CF92DF92EF92FF926B017C0171DE49
:101A30004B015C01C114D104E104F104E9F069DE59
:101A4000DC01CB0188199909AA09BB09883E93409A
:101A5000A105B10578F321E0C21AD108E108F10827
:101A600088EE880E83E0981EA11CB11CC114D1041D
:101A7000E104F10421F7DECFFF90EF90DF90CF90EB
:101A8000BF90AF909F908F900895CF93C82F6EEF27
:101A900081E290E18DD96C2F6295660F660F607CB4
:101AA000605881E290E184D962E070E080E090E0EB
:101AB000CF91B3CF2FB7F894609147107091481031
:101AC0008091491090914A102FBF08951F920F9254
:101AD0000FB60F9211242F933F938F939F93AF9341
:101AE000BF938091471090914810A0914910B091F8
:101AF0004A103091461023E0230F2D3720F4019631
:101B0000A11DB11D05C026E8230F0296A11DB11D20
:101B1000209346108093471090934810A09349104B
:101B2000B0934A1080914B1090914C10A0914D10A1
:101B3000B0914E100196A11DB11D80934B10909352
:101B40004C10A0934D10B0934E10BF91AF919F9148
:101B50008F913F912F910F900FBE0F901F9018956E
:101B6000CF93DF93CDB7DEB768970FB6F894DEBF9B
:101B70000FBECDBF789484B5826084BD84B581608A
:101B800084BD85B5826085BD85B5816085BD809148
:101B90006E00816080936E001092810080918100C0
:101BA00082608093810080918100816080938100B8
:101BB000809180008160809380008091B10084607A
:101BC0008093B1008091B00081608093B0008091DB
:101BD0009100826080939100809191008160809358
:101BE0009100809190008160809390008091A1008D
:101BF00082608093A1008091A10081608093A10008
:101C00008091A00081608093A0008091210182607A
:101C10008093210180912101816080932101809135
:101C2000200181608093200180917A0084608093FC
:101C30007A0080917A00826080937A0080917A00A5
:101C4000816080937A0080917A00806880937A0026
:101C50001092C100E0917C0FF0917D0F82E08083B3
:101C6000E091780FF091790F1082E0917A0FF09166
:101C70007B0F8FEC80831092840FE091800FF091A6
:101C8000810F86E08083E0917E0FF0917F0F80814D
:101C900080618083E0917E0FF0917F0F808188606A
:101CA0008083E0917E0FF0917F0F80818068808338
:101CB000E0917E0FF0917F0F80818F7D8083109265
:101CC0003C1010923B1010923A1010923910109262
:101CD0003810109237108DE991E090933E10809368
:101CE0003D1080912D1096EF980F943048F02EEC17
:101CF000280F243028F022EC280F283008F070C07C
:101D00002DEB30E030933810209337102BE931E081
:101D100030933A10209339102CE231E030933C108C
:101D200020933B10943070F02EEC280F243050F0AC
:101D300022EC280F283010F40C94E41AA0E0B0E054
:101D40000C94E61AA8E6B0E0E8E6F0E020819430D2
:101D500018F08E53883010F081E001C084E0822BAF
:101D60008C9380912D1096EF980F943058F02EECB4
:101D7000280F243038F022EC280F283030F020E0F3
:101D800030E005C02BE630E002C02DE630E03093B5
:101D9000351020933410943010F49AEF0BC0823336
:101DA00081F0833381F0843381F092EC980F983086
:101DB00070F492EC980F81E001C0880F9A95EAF7D1
:101DC00007C088E005C084E003C082E001C081E074
:101DD0008093361080913D1090913E100197F1F75D
:101DE00080913B1090913C10892B49F1E091120EAB
:101DF000F091130E20E1E132F20709F1309739F04A
:101E0000A389B4899C918589809589238C9380913D
:101E10003F108E7F80933F101092110E1092100E83
:101E200081E290E19093130E8093120EE0913410B2
:101E3000F0913510908180913610892B80830E941B
:101E4000830280E090E021DE10922A0E1092290E8B
:101E500010924A0F10926B0F1092480F81E08093FE
:101E6000470F1092220F61E084E16CDD61E085E1B3
:101E700069DD8091B9008E7F8093B9008091B900AF
:101E80008D7F8093B90088E48093B80085E48093C7
:101E9000BC0060E088E185DD60E080E382DD60E039
:101EA0008EE17FDD60E08FE17CDD60E081E279DD65
:101EB00060E08EE276DD60E082E373DD60E082E286
:101EC00070DD60E084E26DDD60E083E26ADD60E0A9
:101ED00086E267DD60E088E264DD60E08DE161DD7F
:101EE00060E08CE25EDD60E08AE25BDD61E085E27D
:101EF00058DD61E087E255DD61E089E252DD61E0B5
:101F000085E34FDD61E083E34CDD61E084E349DD9F
:101F100061E08DE246DD61E08FE243DD61E08BE26E
:101F200040DD61E081E33DDD61E088E10BDD61E002
:101F300080E308DD61E08EE105DD61E08FE102DD37
:101F400061E081E2FFDC61E08EE2FCDC61E082E3E3
:101F5000F9DC61E082E2F6DC61E084E2F3DC61E07E
:101F600083E2F0DC61E088E2EDDC61E086E2EADC5D
:101F700061E08DE1E7DC61E08CE2E4DC61E08AE2D3
:101F8000E1DC11E032E0C32ED12C43E0A42EB12CD1
:101F900088248394912C66E9E62EF12C74E6672E52
:101FA000712C88DD20914C0E30914D0E40914E0EDB
:101FB00050914F0E1B012C01221A330A440A550A74
:101FC000A2019101253631054105510588F0609344
:101FD0004C0E70934D0E80934E0E90934F0E809149
:101FE0004B0E811103C010934B0E02C010924B0E8A
:101FF00061DD2091500E3091510E4091520E509162
:10200000530E1B012C01221A330A440A550AA2015D
:1020100091012B3F31054105510588F06093500E29
:102020007093510E8093520E9093530E80916D0ECB
:10203000811103C010936D0E02C010926D0E3ADD37
:102040002091540E3091550E4091560E5091570EDE
:102050001B012C01221A330A440A550AE5EF2E16F9
:10206000E1E03E064104510488F06093540E709301
:10207000550E8093560E9093570E80918B0E8111C2
:1020800003C010938B0E02C010928B0E13DD2091B3
:10209000580E3091590E40915A0E50915B0E1B0113
:1020A0002C01221A330A440A550AE9EE2E16E3E0FF
:1020B0003E064104510488F06093580E7093590E07
:1020C00080935A0E90935B0E8091270E811103C06E
:1020D0001093270E02C01092270E88E10BDC892B8B
:1020E00019F41093810E02C01092810E80E302DC7D
:1020F000892B19F01093900E02C01092900E8EE171
:10210000F9DB892B19F41093700E02C01092700E37
:102110008FE1F0DB892B59F41093230E1092820E7D
:1021200010928E0E90925F0E80925E0E25C081E21C
:10213000E1DB892B59F41092230E1092820E10933A
:102140008E0EB0925F0EA0925E0E16C08FE1D2DBB3
:10215000892B11F40C94CC1A81E2CCDB892B11F47D
:102160000C94CC1A1092230E1093820E10928E0EA5
:10217000D0925F0EC0925E0E8EE2BCDB019719F426
:102180001092280E02C01093280E82E3B3DB892B35
:1021900019F010936F0E02C010926F0E82E2AADB4C
:1021A000892B19F41093890E02C01092890E8AE2CD
:1021B000A1DB892B19F41092220E02C01093220E7B
:1021C00084E298DB892B59F410937D0E10927C0EDB
:1021D00010927B0E9092730E8092720E1AC084E25F
:1021E00089DB892B31F083E285DB892B11F00C949C
:1021F000D81A83E27FDB892B11F00C94D21A10924B
:102200007D0E10927C0E10937B0EB092730EA092F6
:10221000720E86E26FDB892B19F41093240E02C034
:102220001092240E88E266DB892B19F41093260E97
:1022300002C01092260E8DE15DDB892B19F41093FC
:102240005D0E02C010925D0E8CE254DB892B19F4F6
:1022500010935C0E02C010925C0E80915D0E88237C
:1022600039F080915C0E882319F01093790E06C026
:1022700080918E0E811102C01092790E8091930E82
:10228000811121C580910402882389F08091280E54
:10229000882351F080916D0E882311F060E001C019
:1022A00061E085E34FDB03C08091270EF5CF80917D
:1022B0000202882349F08091270E882311F060E004
:1022C00001C061E084E33EDB80916C0E8111B1C0FE
:1022D0006EE372E0CE0101960E94260865E872E086
:1022E000CE0107960E9426086CE472E0CE010D969E
:1022F0000E94260862E672E0CE0143960E942608FC
:102300008BE190E1A7DA8FE2B6DA8BE190E1A2DA15
:10231000CE0101969FDACE0143969CDA8BE190E1E3
:1023200099DACE01079696DACE010D9693DA87E711
:1023300092E07FDA60E470E18CE69FE00E94720830
:102340008BE190E187DA8FE296DA0E94830261E8FE
:1023500072E081E290E10E94050981E090E095DB66
:1023600062E972E081E290E10E94050960E470E1B7
:1023700081E290E10E947208CE0143960E942108FA
:10238000CE010D960E942108CE0107960E942108D9
:10239000CE0101960E94210864EF71E080E090E098
:1023A0003CDB8FE09EE045DA8CE765DA89E591E079
:1023B0007ADA8CE760DA8FE09EE03BDA10936C0EFD
:1023C00068EE73E080E090E028DB67E972E0CE0120
:1023D00001960E94260860ED72E0CE0107960E94E9
:1023E00026086EEF72E0CE010D960E942608CE01FF
:1023F000019630DA0E9483026CE673E081E290E19C
:102400000E94050981E090E040DB68E773E081E22B
:1024100090E10E940509CE010D960E942108CE018F
:1024200007960E942108CE0101960E9421080C9473
:102430006A1A8091700E882309F434C480916B0E5F
:10244000811133C067E972E0CE0101960E9426082F
:1024500060ED72E0CE0107960E9426086EEF72E0F2
:10246000CE010D960E942608CE010796F3D910934F
:102470006B0E0E94830268E873E081E290E10E94A3
:1024800005090E947F0264E973E081E290E10E9405
:102490000509CE010D960E942108CE0107960E94E3
:1024A0002108CE0101960E94210880910602811127
:1024B0009EC18091230E882309F496C18091890ED4
:1024C000882309F43DC180911C0E811104C082E073
:1024D00090E00E9415048091220E811139C08091F4
:1024E000270E81111AC061E087E22CDA60E089E2F0
:1024F00029DA61E085E326DA60E083E323DA60E04D
:1025000084E320DA61E08FE21DDA61E08BE21ADA1F
:1025100061E081E317DA60E019C060E087E212DA77
:1025200061E089E20FDA60E085E30CDA61E083E3E1
:1025300009DA61E084E306DA60E08FE203DA60E062
:102540008BE200DA60E081E3FDD961E08DE217C043
:1025500061E087E2F7D961E089E2F4D961E085E3DF
:10256000F1D961E083E3EED961E084E3EBD961E086
:102570008FE2E8D961E08BE2E5D961E081E3E2D95D
:1025800080916F0E882371F01093930E10930602C2
:10259000109305021093030210930202109300029D
:1025A0000E9485018091810E61E0882309F4AFC00B
:1025B00085E0F7D9E1EAF1E0849190E0FC01319700
:1025C000E231F10508F0A1C08827EE58FF4F8F4F88
:1025D0000C94211C84B5806884BD86E987BD9CC0AD
:1025E00084B5806284BD86E988BD96C080918000F4
:1025F000806880938000F0928900E09288008CC00F
:1026000080918000806280938000F0928B00E09245
:102610008A0082C080918000886080938000F09260
:102620008D00E0928C0078C08091B000806880932B
:10263000B00086E98093B3006FC08091B0008062E3
:102640008093B00086E98093B40066C080919000CA
:10265000806880939000F0929900E09298005CC0AE
:1026600080919000806280939000F0929B00E092B5
:102670009A0052C080919000886080939000F09200
:102680009D00E0929C0048C08091A00080688093EB
:10269000A0008091A0008F7B8093A000F092A90001
:1026A000E092A80039C08091A00080628093A000D1
:1026B000F092AB00E092AA002FC08091A000886049
:1026C0008093A000F092AD00E092AC0025C0809114
:1026D0002001806880932001F0922901E092280176
:1026E0001BC080912001806280932001F0922B0119
:1026F000E0922A0111C0809120018860809320011E
:10270000F0922D01E0922C0107C061E003C085E04A
:1027100048D960E085E016D98091280E882309F415
:1027200050C063EA73E0CE0101960E942608CE01F4
:1027300001960E946702CE0101960E94210841C0C5
:1027400080911D0E811104C081E090E00E9415046B
:102750008091270E81111AC061E087E2F3D861E011
:1027600089E2F0D861E085E3EDD861E083E3EAD85F
:1027700061E084E3E7D861E08FE2E4D861E08BE2D6
:10278000E1D861E081E3DED860E019C060E087E273
:10279000D9D860E089E2D6D860E085E3D3D860E09C
:1027A00083E3D0D860E084E3CDD860E08FE2CAD87C
:1027B00060E08BE2C7D860E081E3C4D861E08DE2DD
:1027C000C1D88091240E882309F484C60E94850113
:1027D0001093060260E08DE2B5D883E090E00E949D
:1027E00015040E94140B76C60E94850168C1809171
:1027F00005028111A5C080911D0E811104C081E0E8
:1028000090E00E9466038091230E882309F4B5C0EE
:1028100080911C0E811104C082E090E00E9466034A
:1028200080911B0E811124C080911A0E811104C069
:1028300083E090E00E9466038091270E882311F0C8
:1028400061E001C060E084E37DD880916F0E882351
:1028500009F43EC061E084E375D810931B0E8091AB
:10286000190E811135C084E090E00E94660330C0EB
:102870008091180E81112CC08091170E811104C017
:1028800085E090E00E9466038091160E811109C0D8
:102890008091270E882311F061E001C060E085E39C
:1028A00051D88091900E882399F08091150E811156
:1028B00004C086E090E00E94660380918B0E88231E
:1028C00011F061E001C060E085E33CD81093160E82
:1028D0008091160E882309F4FDC58091900E811118
:1028E000F9C561E085E32ED81093180E8091270E6C
:1028F000882311F061E001C060E08DE223D880916F
:10290000240E8823A1F01093050260E08DE21AD80E
:102910000E94850161E084E315D80E94140B61E0F8
:1029200085E310D868EE73E080E090E076D880917F
:10293000140E8111CFC587E090E00E946603CAC5DE
:1029400080910402811118C1809103028823D1F083
:1029500061E085E30E94A20CADD81B012C0180919F
:102960001D0E811106C081E090E00E94F1021093DB
:102970001D0E8091230E81114BC060E08DE20E94FC
:10298000A20C64C19091930E8091250E91113CC0D0
:10299000882319F00E94A5019DC580911D0E81110B
:1029A0000AC085EB93E00E94190C8AED93E00E9427
:1029B000190C10931D0E8091270E882351F060E0B2
:1029C00083E30E94A20C8091890E882371F061E05C
:1029D00009C061E083E30E94A20C8091890E8823E4
:1029E00021F060E08FE20E94A20C8091890E882382
:1029F00009F470C58091260E882319F01093250ED6
:102A000069C50E94850166C5882309F463C5C2CFE4
:102A100080911C0E811106C082E090E00E94F102BC
:102A200010931C0E8091660E81114CC08091640E33
:102A30009091650E092E000CAA0BBB0BA20191010F
:102A4000281B390B4A0B5B0BDA01C901893E934005
:102A5000A105B105D0F03092650E2092640E8091F0
:102A6000240E882371F061E08DE20E94A20C809117
:102A7000620E9091630E01969093630E8093620EA6
:102A800004C01092630E1092620E8091620E9091BB
:102A9000630E029751F483E090E00E94F10260E03F
:102AA0008DE20E94A20C1093660E8091270E88235F
:102AB00011F061E005C08091240E81110BC560E02A
:102AC0008DE2C4C360E08DE20E94A20C8091640E8E
:102AD0009091650E092E000CAA0BBB0BA20191016F
:102AE000281B390B4A0B5B0BDA01C901893E934065
:102AF000A105B105D0F03092650E2092640E809150
:102B0000280E882371F061E083E30E94A20C80917B
:102B1000600E9091610E01969093610E8093600E0D
:102B200004C01092610E1092600E8091600E909120
:102B3000610E0A97A1F484E090E00E94F1020E94E5
:102B4000850160E083E30E94A20C0E94140B68EEF2
:102B500073E080E090E00E940D0D109304028091DC
:102B6000270E882311F061E005C08091280E8111A5
:102B7000B1C460E083E36AC38091020281116BC03B
:102B80000E945A0D1B012C0180911D0E811106C05F
:102B900081E090E00E94950210931D0E8091230E1B
:102BA000882309F453C080911C0E811106C082E075
:102BB00090E00E94950210931C0E8091640E9091FB
:102BC000650E092E000CAA0BBB0BA2019101281B5C
:102BD000390B4A0B5B0BDA01C901893E9340A10511
:102BE000B105D0F03092650E2092640E8091280ECF
:102BF000882371F061E083E30E94A20C8091600E53
:102C00009091610E01969093610E8093600E04C0C6
:102C10001092610E1092600E8091600E9091610E84
:102C20000A9709F09CCF83E090E00E9495021093F0
:102C300002021092610E1092600E0E94850160E007
:102C400083E30E94A20C0E94140B89CF0E9485018D
:102C500010921C0E3FC480910102811112C080911C
:102C60008B0E882311F061E001C060E083E30E94D5
:102C7000A20C8091280E882309F42CC41093010221
:102C800029C41093760E0E9467050E94C3040E9417
:102C9000310561E08FE20E94A20C1093750E109333
:102CA000930E18C460E08DE20E94A20C0E94850180
:102CB00010926B0E10926A0E1092690E1092680EAE
:102CC0001092670E07C49091230E8091890E911186
:102CD0001DC0882321F080916D0E882311F061E0E2
:102CE00001C060E087E20E94A20C8091700E811109
:102CF00012C010938F0E1093910E10938A0E709243
:102D0000800E60927F0E10937E0E05C0882349F3DB
:102D100080918B0EE2CF8091900E882321F010934A
:102D20008F0E1093910E80916F0E882331F01093C7
:102D3000860E1093850E1093910E80918A0E882333
:102D4000C1F180916E0E81112AC08091910E811186
:102D500008C00E94850160E08DE20E94A20C1093E1
:102D6000910E0E9483026EEF73E081E290E10E9477
:102D7000050940917F0E5091800E052E000C660BC8
:102D8000770B77FF05C081E290E10E94DD0805C066
:102D90002AE081E290E10E94950810936E0E8091E6
:102DA000270E882311F061E001C060E089E20E94F3
:102DB000A20C80918F0E882381F180917E0E81116B
:102DC0001EC00E94850160E08DE20E94A20C61E0BD
:102DD00084E30E94A20C8CE094E00E94190C1093F2
:102DE0008A0EF092800EE0927F0E8091840E811107
:102DF00004C00E9467051093840E10937E0E80918C
:102E0000900E882311F061E005C080918B0E88231D
:102E1000D1F360E085E30E94A20C8091860E8823A6
:102E200071F18091830E81111CC00E94850160E0C8
:102E30008DE20E94A20C60E083E30E94A20C8BE171
:102E400094E00E94190C8091840E811102C01093AD
:102E5000840E64EF71E080E090E00E940D0D10930D
:102E6000830E8091850E882351F080918B0E8823EC
:102E700011F060E001C061E084E30E94A20C809147
:102E8000700E8823A9F061E085E20E94A20C0E94E6
:102E900083026DE274E081E290E10E9405090E94E4
:102EA0007F0269E374E081E290E10E94050914C0A9
:102EB0001093910E10938F0E0E94850160E08DE2B9
:102EC0000E94A20C8091270E882311F060E001C0BF
:102ED00061E085E20E94A20C8091910E8111B9C13E
:102EE00080917D0E882309F487C18091230E882369
:102EF00009F47BC180917A0E811144C19091220E18
:102F00008091750E9923F1F1882309F44BC010923A
:102F1000210E1092200E88E00E940F0C80E090E0BD
:102F20000E940B0C83E090E00E940B0C0E94AE0B01
:102F30006AE070E080E090E00E940D0D10921F0E9C
:102F400010921E0E88E00E940F0C80E090E00E941C
:102F50000B0C80E090E00E940B0C0E94AE0B6AE02C
:102F600070E080E090E00E940D0D1092750E80E000
:102F700090E00E94450D67E474E081E290E10E94D8
:102F8000050910C081110EC00E94310580E090E05B
:102F90000E94450D68E574E081E290E10E94050918
:102FA0001093750E8091260E882309F44BC08091F2
:102FB000740E882309F448C01092740E8091760E26
:102FC0008823D9F01092760E0E94FB0460E08FE215
:102FD0000E94A20C69E674E0CE0101960E942608C8
:102FE000CE0101960E942A0CCE0101960E94210872
:102FF0000E947F026DE774E01AC01093760E0E9463
:10300000C30461E08FE20E94A20C6EE874E0CE017E
:1030100001960E942608CE0101960E942A0CCE013C
:1030200001960E9421080E947F0260EA74E081E21A
:1030300090E10E94050964E670E080E090E00E9463
:103040000D0D02C01093740E8091720E9091730E4C
:103050008130910571F48091750E882339F080914B
:10306000760E882319F01093770E16C01092770E03
:1030700013C08230910511F0039771F48091750EA1
:10308000811105C01092770E1092710E05C08091CB
:10309000760E8111E8CFF6CF8091770E882309F460
:1030A00068C08091270E882331F061E08BE20E9496
:1030B000A20C61E005C060E08BE20E94A20C60E01F
:1030C00081E30E94A20C8091790E882309F4AAC0A2
:1030D00080917A0E8111A6C061E081E30E94A20C6A
:1030E00061E08BE20E94A20C60E08FE20E94A20CE1
:1030F0001092210E1092200E88E00E940F0C80E0AA
:1031000090E00E940B0C82E090E00E940B0C0E9469
:10311000AE0B6AE070E080E090E00E940D0D10922E
:103120001F0E10921E0E88E00E940F0C80E090E0AF
:103130000E940B0C80E090E00E940B0C0E94AE0BF2
:103140006AE070E080E090E00E940D0D0E94830232
:1031500061EB74E081E290E10E9405090E947F0228
:103160006DEB74E081E290E10E94050910937A0E04
:1031700059C060E08BE20E94A20C60E081E30E94F3
:10318000A20C50C08091790E81114CC00E94830224
:1031900068E574E081E290E10E9405090E947F02E7
:1031A00060EA74E081E290E10E9405091093780ED4
:1031B0001092770E809107028823A1F01092760E6C
:1031C00060E08FE20E94A20C8AEC94E00E94190C4D
:1031D0000E94FB040E947F026DE774E081E290E1AF
:1031E0000E94050910927A0E1DC08091820E8111F5
:1031F00019C080918E0E06C080917C0E811112C084
:1032000080917B0E81110EC065EF74E0CE010196B6
:103210000E942608CE0101960E946702CE01019607
:103220000E94210861E083E30E94A20C8091270E96
:10323000882331F060E085E30E94A20C60E005C0C5
:1032400061E085E30E94A20C61E084E30E94A20C8D
:1032500041C18091900E81113DC180918F0E8823D4
:1032600009F45EC080918E0E882309F448C00E9444
:10327000830262E075E081E290E10E9405090E940C
:103280007F0263E175E081E290E10E9405094090D0
:103290008C0E50908D0E45E044165104FCF4809144
:1032A000280E882361F061E083E30E94A20C5FEFA7
:1032B000451A550A50928D0E40928C0E0BC180918A
:1032C0008B0E882311F061E001C060E083E30E946F
:1032D000A20C10928D0E10928C0EFCC060E083E365
:1032E0000E94A20C60E085E30E94A20C10928D0E59
:1032F00010928C0E10928F0E10927E0EEBC00E94D8
:10330000830260E275E081E290E10E9405090E947B
:103310007F026EE275E081E290E10E940509DAC069
:1033200080918A0E882309F47BC08091820E8823C5
:1033300009F4C5CB80E495E00E94190C40917F0E02
:103340005091800E052E000C660B770B77FF05C0A1
:103350008CE69FE00E94DD0805C02AE08CE69FE035
:103360000E9495080E9483026EEF73E081E290E173
:103370000E94050940917F0E5091800E052E000C91
:10338000660B770B77FF05C081E290E10E94DD08B4
:1033900005C02AE081E290E10E94950880917F0EAD
:1033A0009091800E84369105C1F044F488329105E5
:1033B00089F0C897D9F483E595E01AC08E36910557
:1033C00079F08639910579F08536910579F481E8AF
:1033D00095E00EC088E495E00BC081E795E008C059
:1033E00083EA95E005C08FEC95E002C08AEE95E097
:1033F0000E94190C8091240E882369F061E08DE20F
:103400000E94A20C1092800E10927F0E83EF95E026
:103410000E94190C5FC08091270E811150CB49CBBF
:103420000E94830262E075E081E290E10E9405095A
:103430008091890E882331F08091270E882311F026
:1034400061E001C060E08FE20E94A20C8091260E34
:1034500081111093250E4090870E5090880E8AE0BF
:1034600048165104FCF48091280E882361F061E035
:1034700083E30E94A20CEFEF4E1A5E0A5092880E70
:103480004092870E27C080918B0E882311F061E057
:1034900001C060E083E30E94A20C1092880E10929B
:1034A000870E18C061E083E30E94A20C1092880E80
:1034B0001092870E1092860E1092850E1092910E29
:1034C0001092840E1093830E64EF71E080E090E020
:1034D0000E940D0D8091920E81115AC08091480F6B
:1034E0008111FCCF1093480F1093470F8FEF8093FB
:1034F000460F1092450F1092440F1093230F8091A6
:10350000230F80618093230F8091220F813061F41B
:103510001092220F8091230F8093BB008091BC00FA
:1035200083FDF8CF85EC01C085EE8093BC008091CF
:10353000480F8130E1F38091450F811103C08091E4
:10354000450F01C081E0A4E2BFE0EBE2FEE09E2F68
:103550002BE2222E2EE0322E9219981718F49D910C
:103560009193F5CF10922A0E8093290E89E090E175
:103570000E947407019761F486E296E00E94190C9C
:103580001093920E62E370E080E090E00E940D0DD7
:103590000E9487060C94D10F87E496E00E94190CD4
:1035A0000C94BC108AE391E00E94530C0C94091116
:1035B00010927D0E10937C0E10927B0ED092730EA3
:1035C000C092720E0C940911A8E6B0E0283010F4F5
:1035D0000C94A40EE0E0F0E00C94A60E85E190E1DE
:1035E0000E9421088BE190E10E94210882E392E091
:1035F00090932210809321108091120E9091130EBF
:103600008152904171F4E0913410F0913510908125
:10361000809136108095892380831092130E10922A
:10362000120E80E490E10C942108CF92DF92EF9289
:10363000FF9210926F0F10926E0F98EEC92E93E0CA
:10364000D92EE12CF12CC092700FD092710FE09224
:10365000720FF092730F82E192E090936D0F80935E
:103660006C0F85EC90E09093790F8093780F84EC49
:1036700090E090937B0F80937A0F80EC90E0909392
:103680007D0F80937C0F81EC90E090937F0F80936F
:103690007E0F82EC90E09093810F8093800F86ECF8
:1036A00090E09093830F8093820F1092850F109279
:1036B000860F1092870F1092880F10920C101092A4
:1036C0000B10C0920D10D0920E10E0920F10F092DD
:1036D000101082E292E090930A108093091067EF35
:1036E0007DE080E490E10E94260810922410109260
:1036F0002310C0922510D0922610E0922710F0924D
:10370000281082E392E0909322108093211010926F
:1037100038101092371010923A10109239101092FF
:103720003C1010923B1010923E1010923D10609190
:103730003F106E7F6D7F60933F106695617081E0F2
:1037400068278EE00E94A20C61E08EE00E94D10CFE
:10375000EAE6F2E0E491E0933110E4E2F2E0E49191
:10376000F0E0EE0FFF1FEE51FE4F85919491909384
:1037700033108093321060E080E00E94D10C809181
:103780003F1081FD04C061E080E00E94A20C109215
:103790002D10ECE5F2E0E491E0932E10E6E1F2E08A
:1037A000E491F0E0EE0FFF1FE450FE4F85919491FD
:1037B0009093301080932F106FE07EE08BE190E1CA
:1037C0000E94260865E07EE085E190E1FF90EF90A1
:1037D000DF90CF900C94260897FB072E16F40094E8
:1037E00006D077FD08D035D007FC05D03EF4909583
:1037F00081959F4F0895709561957F4F0895A1E23F
:103800001A2EAA1BBB1BFD010DC0AA1FBB1FEE1F5A
:10381000FF1FA217B307E407F50720F0A21BB30BA5
:10382000E40BF50B661F771F881F991F1A9469F721
:1038300060957095809590959B01AC01BD01CF017D
:103840000895EE0FFF1F881F8BBF0790F691E02DA4
:103850001994AA1BBB1B51E107C0AA1FBB1FA617C7
:10386000B70710F0A61BB70B881F991F5A95A9F729
:1038700080959095BC01CD010895CF93DF93823060
:10388000910510F482E090E0E0915210F091531015
:1038900020E030E0C0E0D0E0309711F1408151816C
:1038A00048175907C0F04817590761F4828193817E
:1038B000209719F09B838A832BC090935310809399
:1038C000521026C02115310519F04217530718F47C
:1038D0009A01BE01DF01EF010280F381E02DDCCF10
:1038E0002115310509F1281B390B2430310590F4DD
:1038F00012968D919C9113976115710521F0FB0132
:103900009383828304C09093531080935210FD01DF
:10391000329644C0FD01E20FF31F81939193225030
:1039200031092D933C933AC02091501030915110A1
:10393000232B41F420910A0230910B023093511055
:103940002093501020910802309109022115310571
:1039500041F42DB73EB740910C0250910D02241B4B
:10396000350BE0915010F0915110E217F307A0F4DD
:103970002E1B3F0B2817390778F0AC014E5F5F4FC5
:103980002417350748F04E0F5F1F50935110409396
:1039900050108193919302C0E0E0F0E0CF01DF91FD
:1039A000CF9108950F931F93CF93DF93009709F45E
:1039B0008CC0FC0132971382128200915210109138
:1039C00053100115110581F420813181820F931F5D
:1039D00020915010309151102817390779F5F09344
:1039E0005110E093501071C0D80140E050E0AE1784
:1039F000BF0750F412962D913C911397AD012115FC
:103A0000310509F1D901F3CF9D01DA013383228316
:103A100060817181860F971F8217930769F4EC010B
:103A200028813981260F371F2E5F3F4F3183208336
:103A30008A819B8193838283452B29F4F0935310D1
:103A4000E093521042C01396FC93EE931297ED014F
:103A5000499159919E01240F351FE217F30771F424
:103A600080819181840F951F029611969C938E936D
:103A70008281938113969C938E931297E0E0F0E0FD
:103A8000D80112968D919C911397009719F0F80127
:103A90008C01F6CF8D919C9198012E5F3F4F820F44
:103AA000931F20915010309151102817390769F455
:103AB000309729F4109253101092521002C01382C2
:103AC00012821093511000935010DF91CF911F91EB
:103AD0000F9108956F927F928F929F92AF92BF92B3
:103AE000CF92DF92EF92FF920F931F93CF93DF93CA
:103AF000EC01009781F4CB01DF91CF911F910F91E1
:103B0000FF90EF90DF90CF90BF90AF909F908F90FD
:103B10007F906F90B2CEFC01E60FF71F9C01225000
:103B20003109E217F30708F4A8C0D9010D911C91DF
:103B3000119706171707A8F00530110508F49BC068
:103B4000C80104978617970708F495C00250110919
:103B5000061B170B019311936D937C93CF0122DF0A
:103B60008AC05B01A01AB10A4C01800E911EA0917F
:103B70005210B091531040E050E0E12CF12C10971E
:103B800009F44AC0A815B905D1F56D907C9011973C
:103B9000630182E0C80ED11CCA14DB0480F1A301CA
:103BA0004A195B096A0182E0C80ED11C1296BC90CA
:103BB00012971396AC91B5E0CB16D10440F0B282C7
:103BC000A38351834083D9016D937C930AC00E5F18
:103BD0001F4FC301800F911FF90191838083EB2D4B
:103BE000FA2FE114F10431F0D7011396FC93EE9310
:103BF000129741C0F0935310E09352103CC08D9146
:103C00009C9111974817590708F4AC017D01129651
:103C10000D90BC91A02DB3CF809150109091511078
:103C200088159905E1F446175707C8F480910802F2
:103C300090910902009741F48DB79EB740910C0214
:103C400050910D02841B950BE817F907B0F4F0931F
:103C50005110E0935010F901718360830CC0CB01C7
:103C60000CDE7C01009749F0A801BE011BD0CE01FB
:103C700099DEC70104C0CE0102C080E090E0DF9170
:103C8000CF911F910F91FF90EF90DF90CF90BF9059
:103C9000AF909F908F907F906F90089581E090E01B
:103CA000F89410C0FB01DC0102C001900D9241505C
:103CB0005040D8F70895FB01DC0101900D920020DF
:103CC000E1F7089511E0C2E5D1E000E005C0802FE2
:103CD000FE01B7DD2196011DC335D10780E008073D
:063CE000B1F7F894FFCFDC
:103CE60001010101010101010000541080000000E2
:103CF600000020069D05EA05C805DC0566060000ED
:103D06000000F107C207880774076507640700000B
:103D16000000D8069D052C074307BF06D706436F4C
:103D26006E74726F6C2050616E656C00737465748E
:103D3600736F6E3240696C6C696E6F69732E656461
:103D460075004C61737420557064617465643A2023
:103D5600392F382F31360056455253494F4E3A20A7
:103D66000042593A204D4154542053544554534F20
:103D76004E005645523A0050414E454C20504F5742
:103D86004552204953204F46462E20535749544307
:103D9600482050414E454C20544F204F4E20544F02
:103DA60020424547494E20535441525455502E0007
:103DB60053574954434820544F204155544F204DA2
:103DC6004F444520544F20424547494E20504841D4
:103DD6005345204920535441525455502E004154C6
:103DE60054454E54494F4E3A20452D53544F50207A
:103DF600544553542C20452D53544F50205245536F
:103E060045542C2026205741524E494E4720484FB4
:103E1600524E2068617665206265656E20736B6917
:103E2600707065642E20506C6561736520726573D1
:103E3600746172742069662074686973207761738F
:103E46002061206D697374616B652E005354415473
:103E56005553203030313A0050414E454C20504F9A
:103E6600574552204F46460053544154555320302F
:103E760030323A0053574954434820544F20415555
:103E8600544F005761726E696E6720686F726E20BC
:103E9600746573740050726573732052696465208B
:103EA600537461727420746F20636F6E74696E75DB
:103EB6006520737461727475700050726573732037
:103EC600726573747261696E747320666F722066B0
:103ED600756E6374696F6E73206D656E75004552FD
:103EE600524F523A2020202020202000452D5354A6
:103EF6004F502050524553534544005249444520A3
:103F060053544F5020505245535345440053544147
:103F16005455533A203030300050414E454C204BDA
:103F26004559204F46460041495247415445533A68
:103F360020204F50454E2100414952474154455398
:103F46003A202020204F4B2100526573747261691C
:103F56006E747320756E6C6F636B656400524553A7
:103F6600545241494E54533A204F50454E005265E3
:103F760073747261696E7473206C6F636B65640031
:103F8600524553545241494E54533A20204F4B21E7
:103F960000535441545553203130303A004449536C
:103FA6005041544348494E4721005265737472612B
:103FB600696E747320756E6C6F636B6564206265E1
:103FC600636175736520747261696E2073746F70B6
:103FD6007065642E00554E4B4E4F574E204D4F4444
:103FE60045005052455353205249444520535441AD
:103FF600525400544F2045535220524553455400C5
:10400600452D53544F50204143544956450053774C
:104016006974636820746F204259504153532100DC
:104026004552524F523A2000434F4D4D2045525271
:104036004F5200494E5445524E414C204552524F24
:10404600522E20534545204445425547204C4F4764
:104056000050414E454C204B45594544204F46465D
:1040660000504F574552204B6579737769746368E2
:1040760020776173207377697463686564206F665F
:10408600662E0050616E656C2077617320696E61E3
:10409600637469766520666F7220746F6F206C6F2B
:1040A6006E672E2054696D6564206F75742E004D01
:1040B60061696E2070616E656C20652D73746F701A
:1040C600207072657373656421004E4F204552520D
:1040D6004F52004572726F7220436C65617265645F
:1040E6002E2050726573732054524F55424C452012
:1040F600746F2072657365742E004572726F72203C
:10410600526573657400436F6E6E656374656420F3
:10411600746F204B6579626F6172642053696D75A7
:104126006C61746F72210050524F4752414D4D20C1
:104136004552524F523A20554E4B4E4F574E204DF8
:104146004F444521210046554E4354494F4E532076
:104156004D454E553A2028504147452031204F467F
:104166002033293B204F5045524154494F4E53204E
:1041760046554E4354494F4E53004C4541442F53E8
:10418600555045525649534F5253204F4E4C592184
:1041960000504147452031413A204C4541442D418C
:1041A600434345535341424C452046554E4354499B
:1041B6004F4E53005072657373204C4F434B205241
:1041C6004553545241494E545320746F20746F67BF
:1041D600676C65204155544F4D4154494320524523
:1041E60053545241494E545320554E4C4F434B0065
:1041F60050726573732044495350415443482052CA
:104206004947485420746F204C4953542043555213
:1042160052454E54204F5045524154494F4E53201B
:1042260053455454494E475300466F72206D6F7282
:1042360065206F7074696F6E732C20737769746371
:104246006820474154455320746F204F50454E0017
:10425600524553545241494E54532057494C4C20D1
:104266004E4F57204155544F4D41544943414C4CB4
:104276005920554E4C4F434B20494E204155544FE3
:104286004D41544943204D4F444521005245535416
:104296005241494E54532057494C4C204E4F204CC6
:1042A6004F4E474552204155544F4D415449434185
:1042B6004C4C5920554E4C4F434B2120494E2041E2
:1042C60055544F4D41544943204D4F4445005041AC
:1042D60047452032413A2053555045525649534F8F
:1042E600522D41434345535341424C452046554E7A
:1042F6004354494F4E5300507265737320444953DB
:10430600504154434820524947485420666F722012
:10431600444953504154434820544F47474C450065
:1043260053555045525649534F52204D4F44452000
:10433600454E41424C45442100535550455256493D
:10434600534F52204D4F44452044495341424C451A
:1043560044210044454255473A202000537769746A
:10436600636820746F204155544F204D4F444520BB
:10437600746F20636F6E74696E75652073746172F5
:104386007475702E00452D53544F50205245534599
:10439600543A00504841534520494920535441520C
:1043A6005455503A20452D53544F502052455345AD
:1043B6005400452D53544F502052455345543A20EE
:1043C600507265737320616E6420686F6C6420524E
:1043D60049444520535441525420746F20726573EA
:1043E600657420455352204C4F4F5000452D535471
:1043F6004F5020524553455420535543434553533C
:1044060046554C004553525354415254205345523D
:1044160049414C0053544152545550205741524E35
:10442600494E473A00504841534520494920535484
:1044360041525455503A20535441525455502057E6
:1044460041524E494E4700535441525455502057FD
:1044560041524E494E473A20434845434B20544823
:10446600415420414C4C204741544553204152452C
:104476002053454355524520414E44205249444518
:10448600204152454120434C45415221005052455E
:1044960053532041434B4E4F574C454447452054B8
:1044A6004F20434F4E4652494D20534146452054D6
:1044B6004F204F5045524154452100434845434BF8
:1044C6002052494445204152454121210050524540
:1044D60053532041434B4E4F574C4447450053419D
:1044E6004645204F5045524154494F4E20434F4E6A
:1044F6004652494D4544213A2050726573732061F6
:104506006E6420686F6C64205249444520535441C0
:10451600525420746F20726573657420494E495455
:104526004941544520535441525455500053544127
:1045360052545550205741524E494E4720535543E9
:10454600434553530053544F5020544553543A0057
:104556005048415345204920535441525455503AEE
:104566002053544F5020544553543B20456E737589
:10457600726520616C6C2073746F70206275747440
:104586006F6E732066756E6374696F6E20636F72EB
:10459600726563746C792E0050524553532052490C
:1045A60044452053544F5000524944452053544FDC
:1045B6005020544553543A20507265737320524923
:1045C60044452053544F5000524944452053544FBC
:1045D600502066756E6374696F6E696E6720636FCF
:1045E60072726563746C792E00454D455247454E8F
:1045F60043592053544F5020544553543A20507237
:1046060065737320454D455247454E4359205354D3
:104616004F502100505245535320452D53544F506F
:1046260000454D455247454E43592053544F50205F
:10463600505245535345443A2050756C6C20757062
:1046460020454D455247454E43592053544F50003F
:1046560050554C4C20452D53544F5000452D535426
:104666004F502066756E6374696F6E696E6720635E
:104676006F72726563746C792E0053544F502054D8
:1046860045535420434F4D504C4554452E205072AF
:104696006573732041434B4E4F574C454447452065
:1046A600746F20636F6E74696E7565210053544F85
:1046B6005020544553543A204F4B005052455353C3
:1046C6002041434B00554B4E4F574E2043415345D7
:1046D6002073746F705465737453657269616C00EE
:1046E6005068617365204920737461727475703AFD
:1046F600204C414D5020544553543A20456E737515
:10470600726520616C6C206C616D70732066756ECD
:104716006374696F6E20636F72726563746C792E51
:104726000050726573732041434B4E4F574C4544BE
:10473600474520746F20636F6E6669726D20616CE9
:104746006C206C616D70732066756E6374696F6E34
:104756002070726F7065726C7920616E6420636F71
:104766006E74696E756520737461727475702E004F
:1047760045585452412046554E4354494F4E533A9C
:10478600200053776974636820454E5452414E4366
:104796004520474154455320746F204F50454E20C5
:1047A600746F207475726E20616C6C206C616D7014
:1047B6007320736F6C69642E005072657373206189
:1047C6006E6420686F6C642054524F55424C4520ED
:1047D600666F72205354415254555020484F524EE2
:1047E60020746573742E00507265737320616E6455
:1047F60020686F6C642052494445205354415254FA
:1048060020666F72205741524E494E47204D455300
:104816005341474520746573740050726573732065
:10482600524944452053544F5020746F206279708A
:104836006173732073746172747570203D3E204DF0
:1048460041494E5441494E454E4345204F4E4C59E1
:1048560021004C414D50205445535420434F4D5058
:104866004C4554452E0043616E6E6F7420636F6D28
:10487600706C657465206C616D7020746573742E40
:10488600200A2053776974636820474154455320B2
:10489600746F20434C4F5345442E004C414D5020DD
:1048A600544553543A2050524553530041434B20EC
:1048B600544F20434F4E54494E5545004C414D50A0
:1048C60020544553543A0045585452412046554EBB
:1048D6004354494F4E5300352E302E3020616C70B4
:1048E600686120310044454255473A20000D0A00D0
:00000001FF
