:1000000052C1000081C100007FC100007DC100001D
:100010007BC1000079C1000077C1000075C10000FC
:1000200073C10000CAC40000C8C40000C6C40000F8
:100030006BC1000069C1000067C1000065C100001C
:1000400063C1000061C100005FC100005DC100002C
:100050005BC1000059C1000057C100000C94DF0BC8
:1000600053C1000074C4000049C400004DC1000029
:100070004BC1000049C1000047C1000045C100005C
:1000800043C1000041C100003FC100003DC100006C
:100090003BC1000039C1000037C100000CC50000A1
:1000A00033C1000031C100002FC100002DC100008C
:1000B0002BC1000029C1000027C1000025C100009C
:1000C00023C1000021C100001FC100001DC10000AC
:1000D0001BC1000019C1000017C1000015C10000BC
:1000E00013C10000601166116C1176118011FB11B3
:1000F0008A1193119C11A611B011BA11C911D31113
:10010000FB11DD11E711F1117D089008A308B70874
:10011000BE08D108E408CF09D209C109C509CB0935
:10012000090AD609DA09E009E409E809EE09F20941
:10013000F609090AFC09000A040A50524F475241C5
:100140004D4D204552524F523A20554E4B4E4F572F
:100150004E205459504521210052454144204F50D2
:1001600045524154494E4720494E535452554354E9
:10017000494F4E53204245464F5245205553452145
:10018000210000002100240027002A002D0030005B
:10019000330001010000040107010A0100000A0BFD
:1001A00002090C0D0E080703040100000000000006
:1001B000000000000000000000000000000000003F
:1001C00000000000000000001211100000000000FC
:1001D000000000000000000000000000000000001F
:1001E000000000002200250028002B002E00310016
:1001F000340002010000050108010B01000020008D
:100200002300260029002C002F00320000010000EE
:100210000301060109010505050507050808080889
:10022000020202020A0A080804040404010101018E
:100230000101010103030303030303030407070789
:100240000C0C0C0C0C0C0C0C02020202060606062E
:10025000060606060B0B0B0B0B0B0B0B01021020FB
:1002600020080810204010204080020102010804EC
:100270000201010204081020408080402010080480
:1002800002018004020180402010080402010804D9
:10029000020101020408102040800102040810201D
:1002A0004080E118BA1811241FBECFEFD1E2DEBFA3
:1002B000CDBF00E00CBF1DE0A0E0B2E0ECE3F8E34E
:1002C00000E00BBF02C007900D92AC31B107D9F727
:1002D0002FE0ACE1BDE001C01D92AF35B207E1F700
:1002E00011E0C2E5D1E000E006C021970109802FAE
:1002F000FE010E94CC19C135D10780E00807A9F79B
:100300000E94290C0C940D1C7BCECF92DF92EF92B1
:10031000FF920F931F93CF93DF936C017A018B01B0
:10032000C0E0D0E0CE15DF0589F0D8016D918D01D8
:10033000D601ED91FC910190F081E02DC601199557
:10034000892B11F47E0102C02196ECCFC701DF9109
:10035000CF911F910F91FF90EF90DF90CF90089574
:10036000FC01918D828D981761F0828DDF01A80FBD
:10037000B11D5D968C91928D9F5F9F73928F90E0DF
:1003800008958FEF9FEF0895FC01918D828D98174E
:1003900031F0828DE80FF11D858D90E008958FEF8B
:1003A0009FEF0895FC01918D228D892F90E0805C54
:1003B0009F4F821B91098F739927089588E79EE0CC
:1003C000F1DF21E0892B09F420E0822F0895FC0160
:1003D000848DDF01A80FB11DA35ABF4F2C91848DCE
:1003E00090E001968F739927848FA689B7892C9303
:1003F000A089B1898C9180648C93938D848D98139E
:1004000006C00288F389E02D80818F7D8083089566
:10041000EF92FF920F931F93CF93DF93EC0181E054
:10042000888F9B8D8C8D981305C0E889F989808110
:1004300085FD23C0F62E0B8D10E00F5F1F4F0F734D
:100440001127E02E8C8DE8120BC00FB607FCFACFF7
:10045000E889F989808185FFF5CFCE01B8DFF2CF39
:100460008B8DFE01E80FF11DE35AFF4FF0820B8FD9
:10047000EA89FB898081806207C0EE89FF896083F9
:10048000E889F98980818064808381E090E0DF9150
:10049000CF911F910F91FF90EF900895CF93DF932D
:1004A000EC01888D8823C1F0EA89FB89808185FD74
:1004B00005C0A889B9898C9186FD0EC00FB607FCCE
:1004C000F5CF808185FFF2CFA889B9898C9185FF0E
:1004D000EDCFCE017CDFE8CFDF91CF91089580E0B2
:1004E00090E0892B19F06ADF811125C080E090E04F
:1004F000892B41F080E090E0892B21F00E940000E0
:1005000081111CC080E090E0892B41F080E090E0F8
:10051000892B21F00E940000811113C080E090E03F
:10052000892BA1F080E090E0892B81F00E940000EF
:1005300081110AC008950E940000D8CF0E940000D7
:10054000E1CF0E940000EACF0C94000008952091B2
:100550001E0D30911F0D2817390771F490911C0D55
:1005600080911D0D981741F0E0911C0DF0E0E351D2
:10057000F24F808190E008958FEF9FEF08950895E6
:100580001F93CF93DF93DC015C962D913C915D9797
:100590002115310539F481E090E013969C938E93F8
:1005A00012973DC05196ED91FC91529750969C91B7
:1005B0005097892F80951FB75E964C915E9741FBAF
:1005C000772770F941FD6095F8944081772311F009
:1005D000492B01C048234083E9012197F1F748E006
:1005E000508160FF02C0592B01C058235083E9019C
:1005F0002197F1F76695415099F7772321F0908183
:100600008923808303C08081982B90831FBF5C96D1
:100610008D919C915D970197F1F721E030E0C90140
:10062000DF91CF911F91089520911E0D30911F0DE4
:100630002817390769F480911D0D20911C0D90E059
:10064000805C9F4F821B910960E470E00C94B919A3
:1006500080E090E0089520911E0D30911F0D281725
:100660003907B9F490911C0D80911D0D981789F0F0
:10067000E0911C0DF0E0E351F24F808120911C0DC0
:1006800030E02F5F3F4F2F73332720931C0D90E0F6
:1006900008958FEF9FEF08950895E091320D8091B6
:1006A000310DE81730F4F0E0ED5CF24F808190E01E
:1006B00008958FEF9FEF08959091320D8091310D45
:1006C000981750F4E92FF0E0ED5CF24F208130E014
:1006D0009F5F9093320D02C02FEF3FEFC901089545
:1006E0008091310D90E02091320D821B9109089587
:1006F00085ED8093BC008091BC0084FDFCCF1092FE
:10070000530E08954091C80D262F30E0240F311D5F
:1007100021323105DCF42091530E2430C9F4FC0160
:1007200080E090E0861758F43091C80D2191DC01EB
:10073000AA55B24FA30FB11D2C930196F3CF809110
:10074000C80D680F6093C80D80E0089581E008959A
:1007500082E00895CF92DF92EF92FF920F931F9362
:10076000CF93DF937C01262F972F8A018091540E1F
:10077000882391F0C62FD72F6E01C40ED51ECC153D
:10078000DD0569F06991D701ED91FC910190F0814F
:10079000E02DC7011995F3CF642F822FB3DFC80175
:1007A000DF91CF911F910F91FF90EF90DF90CF904D
:1007B0000895CF93DF931F92CDB7DEB76983209161
:1007C000540E2223D1F02091770E203240F021E008
:1007D00030E0FC013383228380E090E014C08091FC
:1007E000550EE82FF0E0EA5AF14F998190838F5F20
:1007F0008093550E8093770E04C061E0CE01019680
:1008000081DF81E090E00F90DF91CF9108950E9409
:10081000F91BFC01808191810C947D1AEF92FF926B
:100820000F931F93CF93DF93EC01198218821B82E1
:100830001A821D821C8261157105A9F17B01FB01E1
:1008400001900020E9F731978F01061B170BB801C3
:100850006F5F7F4F80E090E00E94151B009759F07A
:10086000998388831B830A832C813D81232B81F408
:10087000FC0110820DC088819981009711F00E94BF
:100880007D1A198218821D821C821B821A820BC05B
:100890001D830C83B701DF91CF911F910F91FF90C2
:1008A000EF900C94061CDF91CF911F910F91FF9058
:1008B000EF900895DC01ED91FC91DB0114964D91D0
:1008C0005C9115976D917C910280F381E02D1994D4
:1008D0006115710579F0FB0101900020E9F731976E
:1008E000AF01461B570BDC01ED91FC910280F381B7
:1008F000E02D199480E090E00895EACF1F920F92C6
:100900000FB60F9211240BB60F922F933F934F9374
:100910005F936F937F938F939F93AF93BF93EF9367
:10092000FF9388E79EE053DDFF91EF91BF91AF9178
:100930009F918F917F916F915F914F913F912F91F7
:100940000F900BBE0F900FBE0F901F9018951F9227
:100950000F920FB60F9211240BB60F922F938F9315
:100960009F93EF93FF93E091880EF091890E808121
:10097000E0918E0EF0918F0E82FD12C090818091D9
:10098000910E8F5F8F732091920E821751F0E0913C
:10099000910EF0E0E858F14F958F8093910E01C0D1
:1009A0008081FF91EF919F918F912F910F900BBEBE
:1009B0000F900FBE0F901F9018951F920F920FB6B9
:1009C0000F9211240BB60F922F933F934F935F9387
:1009D0006F937F938F939F93AF93BF93EF93FF9307
:1009E000E0911E0DF0911F0D309709F451C0968DC6
:1009F000A685B785858591FF04C09C91892329F43C
:100A000047C09C91892309F043C0A389B4899C9174
:100A10008589809589238C93868997890197F1F739
:100A2000608D718DA685B785558538E020E0CB01B6
:100A30000197F1F7822F90E095958795282F4C919B
:100A4000452309F02068315091F7868D81FD20956E
:100A500080911D0D90E001968F73992730911C0DA8
:100A6000381749F0A0911D0DB0E0A351B24F2C935F
:100A700080931D0D03C0868D8160868F828D938D3E
:100A80000197F1F7A389B4899C918589892B8C936F
:100A9000FF91EF91BF91AF919F918F917F916F9156
:100AA0005F914F913F912F910F900BBE0F900FBE12
:100AB0000F901F9018951F920F920FB60F9211244E
:100AC0000BB60F922F933F934F935F936F937F9348
:100AD0008F939F93AF93BF93EF93FF938091B90050
:100AE000887F803609F49CC068F5883209F45BC0C1
:100AF00090F4803109F454C038F4882309F4F6C026
:100B0000883009F44DC0F5C0883109F44CC08032FA
:100B100009F45DC0EEC0803409F468C048F4803345
:100B200009F455C0883309F0E4C08093510ED8C051
:100B3000803509F44FC0883509F45DC0883409F068
:100B4000D8C0D6C0883909F4C7C0A8F4883709F4DA
:100B500067C038F4883609F463C0803709F460C090
:100B6000C8C0883809F4B8C0803909F45FC080383B
:100B700009F0BFC05BC0803B09F486C038F4803AFE
:100B800009F466C0883A09F47FC0B3C0803C09F418
:100B9000A7C0883C09F4A4C0883B09F48AC0A9C056
:100BA00080912E0E10C09091500E80914F0E98178C
:100BB00070F5E091500E81E08E0F8093500EF0E0C2
:100BC000E15DF14F80818093BB0085EC86C080930E
:100BD000510E8EC0E091500E81E08E0F8093500E2A
:100BE0008091BB00F0E0E15DF14F80839091500E69
:100BF00080914F0E6EC0E091500E81E08E0F809379
:100C0000500E8091BB00F0E0E15DF14F8083809158
:100C1000520E81116DC081E080932D0E84EA61C077
:100C200083E08093530E1092EC0DCFCF8091EC0DAA
:100C3000803208F051C0E091EC0D81E08E0F80937E
:100C4000EC0D8091BB00F0E0E453F24F8083BDCF08
:100C500085EC8093BC001092530E8091EC0D803295
:100C600030F4E091EC0DF0E0E453F24F108260912B
:100C7000EC0D70E0E091CA0DF091CB0D8CEC9DE095
:100C800019951092EC0D35C084E08093530E1092AC
:100C9000C90D1092C80DE091C60DF091C70D1995C0
:100CA0008091C80D811105C081E08093C80D10921C
:100CB000A60DE091C90D81E08E0F8093C90DF0E083
:100CC000EA55F24F80818093BB009091C90D8091CD
:100CD000C80D981708F479CF85E88093BC0009C047
:100CE00085EC8093BC001092530E03C01092510EFD
:100CF000FFDCFF91EF91BF91AF919F918F917F9119
:100D00006F915F914F913F912F910F900BBE0F907C
:100D10000FBE0F901F90189510922A0D1092290D5A
:100D20001092270D1092260D1092240D1092220D74
:100D30001092200D1092A50D1092A40D1092A30DEB
:100D40001092280D1092250D1092230D68EE73E07D
:100D500080E090E0D9C460E08BE26BD460E081E396
:100D600068D460E085E365D460E084E362D460E049
:100D700083E35FD460E08FE25CD460E089E259D421
:100D800060E087E256C480912F0D811102C061E0BE
:100D900001C060E08DE24DD48091210D882351F097
:100DA00010922D0D81E080930302B6DFD4DF60E066
:100DB0008DE23FD480912C0D882309F48FC080915F
:100DC000A20D811109C082E795E0AAD386EA95E0D9
:100DD000A7D381E08093A20D80912B0D60E081115B
:100DE00041C083E326D48091A10D811111C08DEB08
:100DF00095E096D380EE95E093D38CE196E090D386
:100E000085E596E08DD381E08093A10D1092A00D31
:100E100080912F0D882329F061E08FE20AD460E0F1
:100E200008C080910702811106C060E08FE201D402
:100E300061E081E3FED380912E0D882309F44EC03A
:100E400080910702811109C081E08093070261E06F
:100E50008FE2EFD38CE796E03BC01092070288EB5D
:100E600096E036C08FE2E5D360E081E3E2D3809183
:100E7000A00D81110BC08AEF96E052D383E297E078
:100E80004FD381E08093A00D1092A10D80912F0D82
:100E9000882311F061E005C080919F0D811103C08E
:100EA00060E083E3C6D38091300D8823B9F0809150
:100EB0009F0D811109C081E080939F0D61E083E364
:100EC000B8D38CE497E004C010929F0D85E697E0BC
:100ED00027D368EE73E080E090E016C40895CF93C6
:100EE000DF93EC016FE777E088E79EE006DDBE0167
:100EF00088E79EE0DFDC86E49FE023D36AE070E0D1
:100F000080E090E0DF91CF91FFC381E090E034C4B6
:100F10006EEF81E29FE034DB61E081E29FE030DB55
:100F200080E090E029D462E070E080E090E0ECC3E3
:100F30000F931F93CF93DF93CDB7DEB72C970FB6E8
:100F4000F894DEBF0FBECDBF8C0168E877E0CE011C
:100F5000019664DC0230110599F00330110519F196
:100F60000130110589F5CE010196EBD2D1DF61EB9D
:100F700077E081E29FE0C1DCC8DF64E973E00FC085
:100F80008FEB97E0CDD28EED97E0CAD2C1DF61EB57
:100F900077E081E29FE0B1DCB8DF64EF74E081E2EA
:100FA0009FE0ABDC03C088E198E0BAD2CE010196A5
:100FB00030DC2C960FB6F894DEBF0FBECDBFDF91AC
:100FC000CF911F910F91089560E378E0CE010796CD
:100FD00025DCCE01079683DFCE0107961ADCE6CF2B
:100FE0000F931F93CF93DF93CDB7DEB72C970FB638
:100FF000F894DEBF0FBECDBF8C0168E877E0CE016C
:1010000001960CDC02301105F1F08CF40130110571
:1010100009F049C0CE01019694D27ADF60E478E00D
:1010200081E29FE06ADC71DF64E973E02BC003308A
:101030001105E1F00430110509F035C089E599E0AA
:101040006FD266DF22C081E598E06AD283E798E03C
:1010500067D289EB98E064D25BDF67EE78E081E2EB
:101060009FE04BDC52DF69EF78E00CC08AE099E04A
:1010700057D24EDF60E478E081E29FE03EDC45DF5E
:1010800064EF74E081E29FE038DCCE010196C1DBC1
:101090002C960FB6F894DEBF0FBECDBFDF91CF9177
:1010A0001F910F91089560E378E0CE010796B6DBBB
:1010B000CE01079614DFCE010796ABDBE6CF0F9388
:1010C0001F93CF93DF93CDB7DEB72C970FB6F8946D
:1010D000DEBF0FBECDBF8C0168E877E0CE01019680
:1010E0009DDBF8013197E730F10508F083C08827D0
:1010F000EC57FF4F8F4F0C94CC19CE01019621D2A3
:1011000007DF61E779E081E29FE0F7DBFEDE64E97B
:1011100073E081E29FE0F1DB81E080932A0D19C04A
:101120008CE799E0FDD1F4DE61E779E081E29FE0B0
:10113000E4DBEBDE64EC79E081E29FE0DEDB81E082
:101140008093290D06C084ED99E0EAD181E0809377
:10115000270DCE0101965DDB2C960FB6F894DEBF0D
:101160000FBECDBFDF91CF911F910F91089584EFF6
:1011700099E0D6D181E08093260DEBCF85E19AE00E
:10118000CFD1C6DE61E779E081E29FE0B6DBBDDE6C
:1011900060E47AE081E29FE0B0DB81E08093240D9F
:1011A000D8CF8DE49AE0BCD1B3DE61E779E081E28B
:1011B0009FE0A3DBAADE6CE77AE081E29FE09DDBA3
:1011C00081E08093220DC5CF88E89AE0A9D186EA14
:1011D0009AE0A6D19DDE69ED7AE081E29FE08DDBA9
:1011E00094DE67EE7AE081E29FE087DB81E0809326
:1011F000200DAFCF61EF7AE0CE0107960FDBCE0175
:1012000007966DDECE01079604DBA3CFEF92FF9227
:101210000F931F93CF93DF93CDB7DEB7E6970FB64B
:10122000F894DEBF0FBECDBF8C016CE07BE0CE0139
:1012300001967C01F3DA6DE47BE0CE010796EEDAED
:101240006CE97BE0CE010D96E9DA6EEA7BE0CE0137
:101250004396E4DA65EE7BE0CE014996DFDA63E19E
:101260007CE0CE014F96DADA66E47CE0CE0185962A
:10127000D5DA6EE77CE0CE018B96D0DA62E97CE0CD
:10128000CE01C196CBDA0230110521F1E4F4013030
:10129000110509F047C0C70154D1CE01079651D1BD
:1012A00086E49FE04ED134DE67EC7CE081E29FE093
:1012B00024DB2BDE68ED7CE081E29FE01EDB81E039
:1012C00080932A0D2FC00330110531F10430110530
:1012D00081F128C0CE010D9634D1CE01439631D193
:1012E000CE0149962ED1CE014F962BD1CE018596B7
:1012F00028D186E49FE025D10BDE68EE7CE081E218
:101300009FE0FBDA02DE63EF7CE081E29FE0F5DA4A
:1013100081E08093290D06C0CE018B9612D181E029
:101320008093270DCE01C19674DA8E010F5C1F4F9A
:1013300007C0CE01C19605D181E08093260DF2CF82
:1013400006501109C80165DA0E151F05C9F7E696A2
:101350000FB6F894DEBF0FBECDBFDF91CF911F91C6
:101360000F91FF90EF90089590E0FC013197E231EA
:10137000F10508F04EC08827E557FF4F8F4F0C94BA
:10138000CC19809180008F7703C0809180008F7D81
:1013900080938000089580918000877FF9CF84B585
:1013A0008F7702C084B58F7D84BD08958091B00091
:1013B0008F7703C08091B0008F7D8093B000089537
:1013C000809190008F7707C0809190008F7D03C03F
:1013D00080919000877F8093900008958091A00075
:1013E0008F7707C08091A0008F7D03C08091A000FF
:1013F000877F8093A0000895809120018F7707C098
:10140000809120018F7D03C080912001877F809390
:10141000200108953FB7F8948091570F9091580F8D
:10142000A091590FB0915A0F26B5A89B05C02F3F28
:1014300019F00196A11DB11D3FBFBA2FA92F982FFA
:101440008827820F911DA11DB11DBC01CD0142E075
:10145000660F771F881F991F4A95D1F7089520912D
:10146000770E9091760E213208F04AC08091530E8B
:101470008111FCCF32E03093530E31E03093520EA5
:101480003FEF3093510E1092500E20934F0EA6E571
:10149000BEE04FE25EE0FA013E2F341B321718F433
:1014A0003D913193F9CF10922E0E20912E0E990F6F
:1014B000922B90932E0E90912D0E913061F41092FC
:1014C0002D0E90912E0E9093BB009091BC0093FD39
:1014D000F8CF95EC01C095EE9093BC009091530E1F
:1014E0009230E1F39091510E9F3F79F08091510E2F
:1014F000803241F08091510E803331F084E005C09C
:1015000081E003C082E001C083E01092550E10928A
:10151000770E1092540E0895682F85E19FE049C917
:10152000CF93DF93BC0188E79EE0D2D9EC0169E15B
:101530007DE088E79EE0CCD98C0F9D1FDF91CF9195
:101540000895CF93DF93BC0188E79EE0B3D9EC0107
:1015500069E17DE088E79EE0BBD98C0F9D1FDF919C
:10156000CF910895CF93DF93E091780EF091790EAB
:101570000190F081E02D682F88E79EE01995EC013D
:1015800069E17DE088E79EE0A3D98C0F9D1FDF9184
:10159000CF9108950F931F93CF93DF938C01C0E0F9
:1015A000D0E0F801EC0FFD1F6491662371F0E0912B
:1015B000780EF091790E0190F081E02D88E79EE0A1
:1015C0001995892B11F02196ECCF69E17DE088E730
:1015D0009EE07ED98C0F9D1FDF91CF911F910F91BF
:1015E0000895CF93DF93282F30E0F901E456FE4FA2
:1015F0008491F901E45AFD4FD491F901EA5EFD4F5F
:10160000C491CC2389F08111AFDEEC2FF0E0EE0F16
:10161000FF1FE450FE4FA591B491EC91ED2381E0C2
:1016200090E021F480E002C080E090E0DF91CF9173
:1016300008951F93CF93DF93282F30E0F901E456EC
:10164000FE4F8491F901E45AFD4FD491F901EA5E0D
:10165000FD4FC491CC23C1F0162F811185DEEC2FF4
:10166000F0E0EE0FFF1FEE51FE4FA591B4918FB742
:10167000F894111105C09C91ED2FE095E92302C06B
:10168000EC91ED2BEC938FBFDF91CF911F910895DB
:10169000CF93DF9390E0FC01E45AFD4F2491FC01CD
:1016A000EA5EFD4F8491882361F190E0880F991FD5
:1016B000FC01EE57FE4FC591D491FC01EE51FE4F57
:1016C000A591B491611109C09FB7F89488812095C4
:1016D00082238883EC912E230BC0623061F49FB784
:1016E000F8943881822F809583238883EC912E2B68
:1016F0002C939FBF06C08FB7F894E8812E2B2883C8
:101700008FBFDF91CF9108958F929F92AF92BF923A
:10171000CF92DF92EF92FF926B017C017BDE4B0157
:101720005C01C114D104E104F104E9F073DEDC01D1
:10173000CB0188199909AA09BB09883E9340A105E4
:10174000B10578F321E0C21AD108E108F10888EE6A
:10175000880E83E0981EA11CB11CC114D104E104C1
:10176000F10421F7DECFFF90EF90DF90CF90BF9094
:10177000AF909F908F900895CF93C82F6EEF81E226
:101780009FE00E94C0026C2F6295660F660F607C1E
:10179000605881E29FE00E94C00262E070E080E059
:1017A00090E0CF91B1CF2FB7F8946091530F709123
:1017B000540F8091550F9091560F2FBF08951F928F
:1017C0000F920FB60F9211242F933F938F939F93F5
:1017D000AF93BF938091530F9091540FA091550FE9
:1017E000B091560F3091520F23E0230F2D3720F484
:1017F0000196A11DB11D05C026E8230F0296A11D6B
:10180000B11D2093520F8093530F9093540FA093C8
:10181000550FB093560F8091570F9091580FA0918C
:10182000590FB0915A0F0196A11DB11D8093570F0A
:101830009093580FA093590FB0935A0FBF91AF9147
:101840009F918F913F912F910F900FBE0F901F90FE
:101850001895CF93DF93CDB7DEB768970FB6F8949E
:10186000DEBF0FBECDBF789484B5826084BD84B5E1
:10187000816084BD85B5826085BD85B5816085BD8B
:1018800080916E00816080936E0010928100809143
:1018900081008260809381008091810081608093CB
:1018A0008100809180008160809380008091B100F0
:1018B00084608093B1008091B00081608093B0001B
:1018C000809191008260809391008091910081606D
:1018D000809391008091900081608093900080912E
:1018E000A10082608093A1008091A100816080931B
:1018F000A1008091A00081608093A00080912101CF
:101900008260809321018091210181608093210177
:101910008091200181608093200180917A00846011
:1019200080937A0080917A00826080937A0080911F
:101930007A00816080937A0080917A008068809339
:101940007A001092C100E091880EF091890E82E039
:101950008083E091840EF091850E1082E091860ED6
:10196000F091870E8FEC80831092900EE0918C0E98
:10197000F0918D0E86E08083E0918A0EF0918B0EBF
:10198000808180618083E0918A0EF0918B0E80814E
:1019900088608083E0918A0EF0918B0E8081806850
:1019A0008083E0918A0EF0918B0E80818F7D808301
:1019B00010923C0F10923B0F10923A0F1092390F79
:1019C0001092380F1092370F8DE991E090933E0FEF
:1019D00080933D0F80912D0F96EF980F943048F033
:1019E0002EEC280F243028F022EC280F283008F0A5
:1019F00070C02DEB30E03093380F2093370F2BE978
:101A000031E030933A0F2093390F2CE231E03093DC
:101A10003C0F20933B0F943070F02EEC280F2430B5
:101A200050F022EC280F283010F40C94B018A0E0ED
:101A3000B0E00C94B218A8E6B0E0E8E6F0E020814F
:101A4000943018F08E53883010F081E001C084E0AB
:101A5000822B8C9380912D0F96EF980F943058F035
:101A60002EEC280F243038F022EC280F283030F0EC
:101A700020E030E005C02BE630E002C02DE630E08B
:101A80003093350F2093340F943010F49AEF0BC03D
:101A9000823381F0833381F0843381F092EC980FAC
:101AA000983070F492EC980F81E001C0880F9A95FD
:101AB000EAF707C088E005C084E003C082E001C007
:101AC00081E08093360F80913D0F90913E0F0197FA
:101AD000F1F780913B0F90913C0F892B49F1E091F8
:101AE0001E0DF0911F0D2FE0E132F20709F1309742
:101AF00039F0A389B4899C918589809589238C9339
:101B000080913F0F8E7F80933F0F10921D0D10929A
:101B10001C0D81E29FE090931F0D80931E0DE091BC
:101B2000340FF091350F90818091360F892B80838F
:101B3000EFD980E090E020DE1092320D1092310D4E
:101B40001092550E1092770E1092530E81E08093F2
:101B5000520E10922D0E61E084E16BDD61E085E1B3
:101B600068DD8091B9008E7F8093B9008091B900C3
:101B70008D7F8093B90088E48093B80085E48093DA
:101B8000BC0060E088E184DD60E080E381DD60E04E
:101B90008EE17EDD60E08FE17BDD60E081E278DD7B
:101BA00060E08EE275DD60E082E372DD60E082E29B
:101BB0006FDD60E084E26CDD60E083E269DD60E0BF
:101BC00086E266DD60E088E263DD60E08DE160DD95
:101BD00060E08CE25DDD60E08AE25ADD61E085E292
:101BE00057DD61E087E254DD61E089E251DD61E0CB
:101BF00085E34EDD61E083E34BDD61E084E348DDB6
:101C000061E08DE245DD61E08FE242DD61E08BE283
:101C10003FDD61E081E33CDD61E088E10ADD61E018
:101C200080E307DD61E08EE104DD61E08FE101DD4D
:101C300061E081E2FEDC61E08EE2FBDC61E082E3F8
:101C4000F8DC61E082E2F5DC61E084E2F2DC61E094
:101C500083E2EFDC61E088E2ECDC61E086E2E9DC73
:101C600061E08DE1E6DC61E08CE2E3DC61E08AE2E8
:101C7000E0DC11E032E0C32ED12C43E0A42EB12CE5
:101C800088248394912C66E9E62EF12C74E6672E65
:101C9000712C89DD2091540D3091550D4091560DD8
:101CA0005091570D1B012C01221A330A440A550A80
:101CB000A2019101253631054105510588F0609357
:101CC000540D7093550D8093560D9093570D809140
:101CD000530D811103C01093530D02C01092530D88
:101CE00062DD2091580D3091590D40915A0D50915F
:101CF0005B0D1B012C01221A330A440A550AA2016A
:101D000091012B3F31054105510588F06093580D35
:101D10007093590D80935A0D90935B0D8091760DC1
:101D2000811103C01093760D02C01092760D3BDD39
:101D300020915C0D30915D0D40915E0D50915F0DD5
:101D40001B012C01221A330A440A550AE5EF2E160C
:101D5000E1E03E064104510488F060935C0D70930D
:101D60005D0D80935E0D90935F0D8091960D8111B6
:101D700003C01093960D02C01092960D14DD2091B1
:101D8000600D3091610D4091620D5091630D1B010A
:101D90002C01221A330A440A550AE9EE2E16E3E012
:101DA0003E064104510488F06093600D7093610D0C
:101DB0008093620D9093630D80912F0D811103C06C
:101DC00010932F0D02C010922F0D88E10ADC892B91
:101DD00019F41093680D02C01092680D80E301DCC5
:101DE000892B19F010939B0D02C010929B0D8EE170
:101DF000F8DB892B19F410937A0D02C010927A0D3A
:101E00008FE1EFDB892B59F410932C0D1092940D78
:101E10001092990D9092670D8092660D25C081E217
:101E2000E0DB892B59F410922C0D1092940D109335
:101E3000990DB092670DA092660D16C08FE1D1DBAF
:101E4000892B11F40C94981881E2CBDB892B11F4C7
:101E50000C94981810922C0D1093940D1092990DCB
:101E6000D092670DC092660D8EE2BBDB019719F42C
:101E70001092300D02C01093300D82E3B2DB892B3B
:101E800019F01093770D02C01092770D82E2A9DB52
:101E9000892B19F41093930D02C01092930D8AE2CE
:101EA000A0DB892B19F410922B0D02C010932B0D7F
:101EB00084E297DB892B59F410938B0D10928A0DD5
:101EC0001092890D9092810D8092800D1AC084E24B
:101ED00088DB892B31F083E284DB892B11F00C94B1
:101EE000A41883E27EDB892B11F00C949E181092CB
:101EF0008B0D10928A0D1093890DB092810DA092D6
:101F0000800D86E26EDB892B19F41093210D02C03F
:101F10001092210D88E265DB892B19F410932E0DA8
:101F200002C010922E0D8DE15CDB892B19F4109309
:101F3000650D02C01092650D8CE253DB892B19F4FC
:101F40001093640D02C01092640D8091650D88237A
:101F500039F08091640D882319F01093870D06C025
:101F60008091990D811102C01092870D80919E0D74
:101F7000811119C580910402882389F08091300D68
:101F8000882351F08091760D882311F060E001C024
:101F900061E085E34EDB03C080912F0DF5CF80918A
:101FA0000202882349F080912F0D882311F060E010
:101FB00001C061E084E33DDB8091750D8111B0C00B
:101FC0006EE372E0CE0101960E940E0465E872E0B5
:101FD000CE0107960E940E046CE472E0CE010D96CD
:101FE0000E940E0462E672E0CE0143960E940E0447
:101FF00086E49FE0A6DA8FE2B5DA86E49FE0A1DA14
:10200000CE0101969EDACE0143969BDA86E49FE0EC
:1020100098DACE01079695DACE010D9692DA87E727
:1020200092E07EDA6CE47FE088E79EE00E945A044A
:1020300086E49FE086DA8FE295DA0E94880761E8FD
:1020400072E081E29FE00E947D0481E090E094DBF9
:1020500062E972E081E29FE00E947D046CE47FE02F
:1020600081E29FE00E945A04CE0143960E94090437
:10207000CE010D960E940904CE0107960E94090424
:10208000CE0101960E94090464EF71E080E090E0C7
:102090003BDB8BE19DE044DA8CE764DA89E591E093
:1020A00079DA8CE75FDA8BE19DE03ADA1093750D0F
:1020B00068EE73E080E090E027DB67E972E0CE0134
:1020C00001960E940E0460ED72E0CE0107960E9418
:1020D0000E046EEF72E0CE010D960E940E04CE014A
:1020E00001962FDA0E9488076CE673E081E29FE098
:1020F0000E947D0481E090E03FDB68E773E081E2CD
:102100009FE00E947D04CE010D960E940904CE013D
:1021100007960E940904CE0101960E940904A6C7F1
:1021200080917A0D882309F42DC48091740D81115A
:1021300033C067E972E0CE0101960E940E0460EDA3
:1021400072E0CE0107960E940E046EEF72E0CE019F
:102150000D960E940E04CE010796F3D91093740DCC
:102160000E94880768E873E081E29FE00E947D0496
:102170000E94850764E973E081E29FE00E947D048C
:10218000CE010D960E940904CE0107960E94090413
:10219000CE0101960E9409048091060281119DC121
:1021A00080912C0D882309F495C18091930D88238B
:1021B00009F43CC18091290D811103C082E090E0B7
:1021C00025D880912B0D811139C080912F0D81115F
:1021D0001AC061E087E22DDA60E089E22ADA61E084
:1021E00085E327DA60E083E324DA60E084E321DA40
:1021F00061E08FE21EDA61E08BE21BDA61E081E3ED
:1022000018DA60E019C060E087E213DA61E089E281
:1022100010DA60E085E30DDA61E083E30ADA61E079
:1022200084E307DA60E08FE204DA60E08BE201DA4F
:1022300060E081E3FED961E08DE217C061E087E2F2
:10224000F8D961E089E2F5D961E085E3F2D961E08E
:1022500083E3EFD961E084E3ECD961E08FE2E9D96F
:1022600061E08BE2E6D961E081E3E3D98091770D0B
:10227000882371F010939E0D1093060210930502AF
:102280001093030210930202109300020E94AB0607
:102290008091680D61E0882309F4AFC085E0F8D92A
:1022A000E1EAF1E0849190E0FC013197E231F1053F
:1022B00008F0A1C08827EE58FF4F8F4F0C94CC191F
:1022C00084B5806884BD86E987BD9CC084B5806282
:1022D00084BD86E988BD96C0809180008068809327
:1022E0008000F0928900E09288008CC0809180008C
:1022F000806280938000F0928B00E0928A0082C01E
:1023000080918000886080938000F0928D00E09240
:102310008C0078C08091B00080688093B00086E91E
:102320008093B3006FC08091B00080628093B00052
:1023300086E98093B40066C08091900080688093A5
:102340009000F0929900E09298005CC0809190001B
:10235000806280939000F0929B00E0929A0052C0BD
:1023600080919000886080939000F0929D00E092B0
:102370009C0048C08091A00080688093A00080915C
:10238000A0008F7B8093A000F092A900E092A800AB
:1023900039C08091A00080628093A000F092AB00D1
:1023A000E092AA002FC08091A00088608093A000D6
:1023B000F092AD00E092AC0025C0809120018068D1
:1023C00080932001F0922901E09228011BC08091A6
:1023D0002001806280932001F0922B01E0922A017B
:1023E00011C080912001886080932001F0922D011E
:1023F000E0922C0107C061E003C085E049D960E0AC
:1024000085E017D98091300D882309F450C063EA24
:1024100073E0CE0101960E940E04CE0101960E9447
:102420006F07CE0101960E94090441C080912A0DD8
:10243000811104C081E090E00E94060980912F0D77
:1024400081111AC061E087E2F4D861E089E2F1D835
:1024500061E085E3EED861E083E3EBD861E084E3FB
:10246000E8D861E08FE2E5D861E08BE2E2D861E094
:1024700081E3DFD860E019C060E087E2DAD860E08D
:1024800089E2D7D860E085E3D4D860E083E3D1D88F
:1024900060E084E3CED860E08FE2CBD860E08BE2EE
:1024A000C8D860E081E3C5D861E08DE2C2D88091F0
:1024B000210D882309F4DAC50E94AB0610930602A9
:1024C00060E08DE2B6D883E090E00E9406090E94A9
:1024D0008C06CCC50E94AB0668C1809105028111B3
:1024E000A5C080912A0D811104C081E090E00E9476
:1024F0005F0880912C0D882309F4B5C08091290DC7
:10250000811104C082E090E00E945F088091280D54
:10251000811124C08091270D811104C083E090E0D7
:102520000E945F0880912F0D882311F061E001C0A7
:1025300060E084E37ED88091770D882309F43EC063
:1025400061E084E376D81093280D8091260D8111E7
:1025500035C084E090E00E945F0830C08091250D76
:1025600081112CC08091240D811104C085E090E080
:102570000E945F088091230D811109C080912F0D69
:10258000882311F061E001C060E085E352D88091BA
:102590009B0D882399F08091220D811104C086E063
:1025A00090E00E945F088091960D882311F061E011
:1025B00001C060E085E33DD81093230D8091230D89
:1025C000882309F453C580919B0D81114FC561E0AB
:1025D00085E32FD81093250D80912F0D882311F0BE
:1025E00061E001C060E08DE224D88091210D882354
:1025F000A1F01093050260E08DE21BD80E94AB06AB
:1026000061E084E316D80E948C0661E085E311D86E
:1026100068EE73E080E090E077D88091200D811122
:1026200025C587E090E00E945F0820C580910402E4
:10263000811118C1809103028823D1F061E085E304
:102640000E94190BB0D81B012C0180912A0D811119
:1026500006C081E090E00E94F00710932A0D80915F
:102660002C0D81114BC060E08DE20E94190B64C1FA
:1026700090919E0D80912D0D91113CC0882319F0F1
:102680000E94C306F3C480912A0D81110AC085EB14
:1026900093E00E94900A8AED93E00E94900A1093C2
:1026A0002A0D80912F0D882351F060E083E30E9472
:1026B000190B8091930D882371F061E009C061E0EE
:1026C00083E30E94190B8091930D882321F060E031
:1026D0008FE20E94190B8091930D882309F4C6C4E0
:1026E00080912E0D882319F010932D0DBFC40E94E8
:1026F000AB06BCC4882309F4B9C4C2CF8091290DAC
:10270000811106C082E090E00E94F0071093290D2D
:1027100080916F0D81114CC080916D0D90916E0D67
:10272000092E000CAA0BBB0BA2019101281B390B2F
:102730004A0B5B0BDA01C901893E9340A105B10543
:10274000D0F030926E0D20926D0D8091210D882376
:1027500071F061E08DE20E94190B80916B0D9091F8
:102760006C0D019690936C0D80936B0D04C01092CC
:102770006C0D10926B0D80916B0D90916C0D02970A
:1027800051F483E090E00E94F00760E08DE20E9447
:10279000190B10936F0D80912F0D882311F061E0BC
:1027A00005C08091210D811161C460E08DE28EC36E
:1027B00060E08DE20E94190B80916D0D90916E0D7D
:1027C000092E000CAA0BBB0BA2019101281B390B8F
:1027D0004A0B5B0BDA01C901893E9340A105B105A3
:1027E000D0F030926E0D20926D0D8091300D8823C7
:1027F00071F061E083E30E94190B8091690D909163
:102800006A0D019690936A0D8093690D04C0109231
:102810006A0D1092690D8091690D90916A0D0A9769
:10282000A1F484E090E00E94F0070E94AB0660E013
:1028300083E30E94190B0E948C0668EE73E080E02F
:1028400090E00E94840B1093040280912F0D882346
:1028500011F061E005C08091300D811107C460E086
:1028600083E334C38091020281116BC00E94D30BB9
:102870001B012C0180912A0D811106C081E090E09E
:102880000E94980710932A0D80912C0D882309F43B
:1028900053C08091290D811106C082E090E00E9412
:1028A00098071093290D80916D0D90916E0D092E52
:1028B000000CAA0BBB0BA2019101281B390B4A0B80
:1028C0005B0BDA01C901893E9340A105B105D0F047
:1028D00030926E0D20926D0D8091300D882371F035
:1028E00061E083E30E94190B8091690D90916A0D5C
:1028F000019690936A0D8093690D04C010926A0D41
:102900001092690D8091690D90916A0D0A9709F0F6
:102910009CCF83E090E00E949807109302021092EF
:102920006A0D1092690D0E94AB0660E083E30E947D
:10293000190B0E948C0689CF0E94AB061092290DBC
:1029400095C380910102811112C08091960D882358
:1029500011F061E001C060E083E30E94190B8091F7
:10296000300D882309F482C3109301027FC31093B2
:10297000840D61E08FE20E94190B1093830D109378
:102980009E0D74C360E08DE20E94190B0E94AB069D
:102990001092740D1092730D1092720D1092710DB1
:1029A0001092700D63C390912C0D8091930D911135
:1029B0001DC0882321F08091760D882311F061E0FD
:1029C00001C060E087E20E94190B80917A0D8111AD
:1029D00012C010939A0D10939C0D1093950D709248
:1029E000790D6092780D10938C0D05C0882349F302
:1029F0008091960DE2CF80919B0D882321F010935A
:102A00009A0D10939C0D8091770D882331F01093CF
:102A1000900D10938F0D10939C0D80919A0D88232B
:102A200009F467C080918C0D811155C00E94AB06DE
:102A300060E08DE20E94190B61E084E30E94190BB3
:102A40008EEF93E00E94900A1093950DF092790D0D
:102A5000E092780D80918E0D81113BC010927E0D19
:102A600010927D0D1093540E08E00093760E109294
:102A7000550E1092770E80E090E00E948C0A81E063
:102A800090E00E948C0A0E942F0A6AE070E080E0C9
:102A900090E00E94840B10927C0D10927B0D10939D
:102AA000540E0093760E1092550E1092770E80E021
:102AB00090E00E948C0A80E090E00E948C0A0E94C4
:102AC0002F0A6AE070E080E090E00E94840B10938F
:102AD0008E0D10938C0D80919B0D882311F061E079
:102AE00005C08091960D8823D1F360E085E30E94B4
:102AF000190B8091900D882371F180918D0D8111BA
:102B00001CC00E94AB0660E08DE20E94190B60E0E1
:102B100083E30E94190B8DE094E00E94900A80915B
:102B20008E0D811102C010938E0D64EF71E080E074
:102B300090E00E94840B10938D0D80918F0D88235F
:102B400051F08091960D882311F060E001C061E0A2
:102B500084E30E94190B80917A0D8823A9F061E02B
:102B600085E20E94190B0E9488076FE174E081E200
:102B70009FE00E947D040E9485076BE274E081E281
:102B80009FE00E947D0414C010939C0D10939A0D39
:102B90000E94AB0660E08DE20E94190B80912F0D20
:102BA000882311F060E001C061E085E20E94190B0A
:102BB00080919C0D81118DC180918B0D882309F42A
:102BC0005BC180912C0D882309F44FC18091880D41
:102BD00081111AC190912B0D8091830D992379F069
:102BE0008823D9F01092830D80E090E00E94BC0B06
:102BF00069E374E081E29FE00E947D040EC08111D0
:102C00000CC080E090E00E94BC0B6AE474E081E2BA
:102C10009FE00E947D041093830D80912E0D8823E8
:102C200009F447C08091820D882309F444C01092B2
:102C3000820D8091840D8823C9F01092840D60E08C
:102C40008FE20E94190B6BE574E0CE0101960E94A1
:102C50000E04CE0101960E94A10ACE0101960E94A7
:102C600009040E9485076FE674E018C01093840D74
:102C700061E08FE20E94190B60E874E0CE010196DA
:102C80000E940E04CE0101960E94A10ACE01019677
:102C90000E9409040E94850762E974E081E29FE0D6
:102CA0000E947D0464E670E080E090E00E94840B66
:102CB00002C01093820D8091800D9091810D813022
:102CC000910571F48091830D882339F08091840DF2
:102CD000882319F01093850D16C01092850D13C02E
:102CE0008230910511F0039771F48091830D811169
:102CF00005C01092850D10927F0D05C08091840D46
:102D00008111E8CFF6CF8091850D882309F473C037
:102D100080912F0D882331F061E08BE20E94190B26
:102D200061E005C060E08BE20E94190B60E081E386
:102D30000E94190B8091870D882309F4B3C08091FC
:102D4000880D8111AFC061E081E30E94190B61E041
:102D50008BE20E94190B60E08FE20E94190B109227
:102D60007E0D10927D0D1093540E08E00093760EA8
:102D70001092550E1092770E80E090E00E948C0A1F
:102D800082E090E00E948C0A0E942F0A6AE070E0C4
:102D900080E090E00E94840B10927C0D10927B0DDD
:102DA0001093540E0093760E1092550E1092770EDB
:102DB00080E090E00E948C0A80E090E00E948C0A03
:102DC0000E942F0A6AE070E080E090E00E94840B8D
:102DD0000E94880763EA74E081E29FE00E947D041C
:102DE0000E9485076FEA74E081E29FE00E947D0403
:102DF0001093880D57C060E08BE20E94190B60E0D1
:102E000081E30E94190B4EC08091870D81114AC049
:102E10000E9488076AE474E081E29FE00E947D04DA
:102E20000E94850762E974E081E29FE00E947D04D0
:102E30001093860D1092850D80910702882391F0E2
:102E40001092840D60E08FE20E94190B8CEB94E0ED
:102E50000E94900A0E9485076FE674E081E29FE07D
:102E60000E947D041092880D1DC08091940D8111E7
:102E700019C08091990D06C080918A0D811112C0F0
:102E80008091890D81110EC067EE74E0CE0101962C
:102E90000E940E04CE0101960E946F07CE0101969A
:102EA0000E94090461E083E30E94190B80912F0DB9
:102EB000882331F060E085E30E94190B60E005C0D3
:102EC00061E085E30E94190B61E084E30E94190B25
:102ED000CDC080919B0D8111C9C080919A0D88232E
:102EE00009F45EC08091990D882309F448C00E94BE
:102EF000880764EF74E081E29FE00E947D040E94F5
:102F0000850765E075E081E29FE00E947D044090C6
:102F1000970D5090980D45E044165104FCF48091B3
:102F2000300D882361F061E083E30E94190B5FEFAD
:102F3000451A550A5092980D4092970D97C080916E
:102F4000960D882311F061E001C060E083E30E94E8
:102F5000190B1092980D1092970D88C060E083E3D2
:102F60000E94190B60E085E30E94190B1092980DE6
:102F70001092970D10929A0D10928C0D77C00E94AE
:102F8000880762E175E081E29FE00E947D040E9473
:102F9000850760E275E081E29FE00E947D0466C0E3
:102FA0008091950D882341F08091940D882309F438
:102FB0005DC01092950D5AC00E94880764EF74E0BE
:102FC00081E29FE00E947D048091930D882331F07F
:102FD00080912F0D882311F061E001C060E08FE245
:102FE0000E94190B80912E0D811110932D0D409090
:102FF000910D5090920D8AE048165104FCF4809196
:10300000300D882361F061E083E30E94190BEFEF3C
:103010004E1A5E0A5092920D4092910D27C08091F7
:10302000960D882311F061E001C060E083E30E9407
:10303000190B1092920D1092910D18C061E083E36C
:103040000E94190B1092920D1092910D1092900DFA
:1030500010928F0D10929C0D10928E0D10938D0D6D
:1030600064EF71E080E090E00E94840B80919D0D00
:1030700081115AC08091530E8111FCCF1093530ED1
:103080001093520E8FEF8093510E1092500E1092AB
:103090004F0E10932E0E80912E0E806180932E0E77
:1030A00080912D0E813061F410922D0E80912E0EA4
:1030B0008093BB008091BC0083FDF8CF85EC01C0FC
:1030C00085EE8093BC008091530E8130E1F38091B6
:1030D000500E811103C08091500E01C081E0AFE21B
:1030E000BEE0E3E3FDE09E2F23E3222E2DE0322E0F
:1030F0009219981718F49D919193F5CF1092320D73
:103100008093310D85E19FE00E945C03019761F49B
:1031100082E395E00E94900A10939D0D62E370E0B7
:1031200080E090E00E94840B0E946F020C94490E94
:1031300083E595E00E94900A0C94340F8AE391E0B5
:103140000E94CA0A0C94810F10928B0D10938A0D65
:103150001092890DD092810DC092800D0C94810F38
:10316000A8E6B0E0283010F40C941D0DE0E0F0E08B
:103170000C941F0D82E392E09093220F8093210F15
:1031800080911E0D90911F0D81529F4071F4E0912E
:10319000340FF091350F90818091360F80958923FF
:1031A000808310921F0D10921E0D80E49FE00E94FC
:1031B000090486E49FE00E9409048CE49FE00C94DB
:1031C0000904CF92DF92EF92FF9210927B0E109241
:1031D0007A0E98EEC92E93E0D92EE12CF12CC092F4
:1031E0007C0ED0927D0EE0927E0EF0927F0E82E1F8
:1031F00092E09093790E8093780E85EC90E0909316
:10320000850E8093840E84EC90E09093870E8093DB
:10321000860E80EC90E09093890E8093880E81EC6E
:1032200090E090938B0E80938A0E82EC90E09093C6
:103230008D0E80938C0E86EC90E090938F0E809391
:103240008E0E1092910E1092920E1092930E10927A
:10325000940E1092180F1092170FC092190FD0925F
:103260001A0FE0921B0FF0921C0F82E292E09093F3
:10327000160F8093150F63E07DE08CE49FE00E94C1
:103280000E046BE17DE086E49FE00E940E0461E1A4
:103290007DE080E49FE00E940E041092240F1092C3
:1032A000230FC092250FD092260FE092270FF092A5
:1032B000280F82E392E09093220F8093210F1092C7
:1032C000380F1092370F10923A0F1092390F109258
:1032D0003C0F10923B0F10923E0F10923D0F6091E9
:1032E0003F0F6E7F6D7F60933F0F6695617081E049
:1032F00068278EE00E94190B61E08EE00E94480B67
:10330000EAE6F2E0E491E093310FE4E2F2E0E491E6
:10331000F0E0EE0FFF1FEE51FE4F859194919093D8
:10332000330F8093320F60E080E00E94480B809161
:103330003F0F81FD04C061E080E00E94190B1092F4
:103340002D0FECE5F2E0E491E0932E0FE6E1F2E0E0
:10335000E491F0E0EE0FFF1FE450FE4F8591949151
:103360009093300F80932F0FFF90EF90DF90CF90CE
:10337000089597FB072E16F4009406D077FD08D029
:1033800013D007FC05D03EF4909581959F4F08958A
:10339000709561957F4F0895EE0FFF1F881F8BBFBB
:1033A0000790F691E02D1994AA1BBB1B51E107C0B1
:1033B000AA1FBB1FA617B70710F0A61BB70B881FC5
:1033C000991F5A95A9F780959095BC01CD01089554
:1033D000CF93DF938230910510F482E090E0E0918A
:1033E0005D0FF0915E0F20E030E0C0E0D0E030975C
:1033F00011F14081518148175907C0F0481759070A
:1034000061F482819381209719F09B838A832BC07A
:1034100090935E0F80935D0F26C02115310519F042
:103420004217530718F49A01BE01DF01EF01028031
:10343000F381E02DDCCF2115310509F1281B390B73
:103440002430310590F412968D919C91139761155B
:10345000710521F0FB019383828304C090935E0F7A
:1034600080935D0FFD01329644C0FD01E20FF31F12
:1034700081939193225031092D933C933AC020912E
:103480005B0F30915C0F232B41F420910A023091A5
:103490000B0230935C0F20935B0F20910802309158
:1034A00009022115310541F42DB73EB740910C02B8
:1034B00050910D02241B350BE0915B0FF0915C0FD6
:1034C000E217F307A0F42E1B3F0B2817390778F0FB
:1034D000AC014E5F5F4F2417350748F04E0F5F1F5A
:1034E00050935C0F40935B0F8193919302C0E0E097
:1034F000F0E0CF01DF91CF9108950F931F93CF9309
:10350000DF93009709F48CC0FC013297138212827A
:1035100000915D0F10915E0F0115110581F420815E
:103520003181820F931F20915B0F30915C0F281720
:10353000390779F5F0935C0FE0935B0F71C0D80108
:1035400040E050E0AE17BF0750F412962D913C9129
:103550001397AD012115310509F1D901F3CF9D0173
:10356000DA013383228360817181860F971F82176E
:10357000930769F4EC0128813981260F371F2E5FEC
:103580003F4F318320838A819B8193838283452BA4
:1035900029F4F0935E0FE0935D0F42C01396FC9305
:1035A000EE931297ED01499159919E01240F351F19
:1035B000E217F30771F480819181840F951F0296C1
:1035C00011969C938E938281938113969C938E93F4
:1035D0001297E0E0F0E0D80112968D919C9113973C
:1035E000009719F0F8018C01F6CF8D919C9198010C
:1035F0002E5F3F4F820F931F20915B0F30915C0F26
:103600002817390769F4309729F410925E0F109249
:103610005D0F02C01382128210935C0F00935B0F48
:10362000DF91CF911F910F9108956F927F928F92AA
:103630009F92AF92BF92CF92DF92EF92FF920F9341
:103640001F93CF93DF93EC01009781F4CB01DF91BF
:10365000CF911F910F91FF90EF90DF90CF90BF908F
:10366000AF909F908F907F906F90B2CEFC01E60F4D
:10367000F71F9C0122503109E217F30708F4A8C094
:10368000D9010D911C91119706171707A8F0053065
:10369000110508F49BC0C80104978617970708F422
:1036A00095C002501109061B170B019311936D93DE
:1036B0007C93CF0122DF8AC05B01A01AB10A4C01C2
:1036C000800E911EA0915D0FB0915E0F40E050E022
:1036D000E12CF12C109709F44AC0A815B905D1F5D1
:1036E0006D907C901197630182E0C80ED11CCA14C2
:1036F000DB0480F1A3014A195B096A0182E0C80E6C
:10370000D11C1296BC9012971396AC91B5E0CB16D3
:10371000D10440F0B282A38351834083D9016D93D9
:103720007C930AC00E5F1F4FC301800F911FF901E8
:1037300091838083EB2DFA2FE114F10431F0D7014E
:103740001396FC93EE93129741C0F0935E0FE093B3
:103750005D0F3CC08D919C9111974817590708F453
:10376000AC017D0112960D90BC91A02DB3CF80913C
:103770005B0F90915C0F88159905E1F44617570788
:10378000C8F48091080290910902009741F48DB726
:103790009EB740910C0250910D02841B950BE817C7
:1037A000F907B0F4F0935C0FE0935B0FF9017183BC
:1037B00060830CC0CB010CDE7C01009749F0A801AE
:1037C000BE011BD0CE0199DEC70104C0CE0102C0EC
:1037D00080E090E0DF91CF911F910F91FF90EF90EB
:1037E000DF90CF90BF90AF909F908F907F906F9021
:1037F000089581E090E0F89410C0FB01DC0102C064
:1038000001900D9241505040D8F70895FB01DC0122
:1038100001900D920020E1F7089511E0C2E5D1E09A
:1038200000E005C0802FFE01B7DD2196011DC335E4
:0C383000D10780E00807B1F7F894FFCF43
:10383C00010101010101010100005F0F8000000086
:10384C00000008028501D201B001C4014E02000043
:10385C000000D903AA0370035C034D034C03000062
:10386C000000C002850114032B03A702BF02436FA3
:10387C006E74726F6C2050616E656C00737465743D
:10388C00736F6E3240696C6C696E6F69732E656410
:10389C0075004C61737420557064617465643A20D2
:1038AC00392F382F31360056455253494F4E3A2056
:1038BC000042593A204D4154542053544554534FCF
:1038CC004E005645523A0050414E454C20504F57F1
:1038DC004552204953204F46462E205357495443B6
:1038EC00482050414E454C20544F204F4E20544FB1
:1038FC0020424547494E20535441525455502E00B6
:10390C0053574954434820544F204155544F204D50
:10391C004F444520544F20424547494E2050484182
:10392C005345204920535441525455502E00415474
:10393C0054454E54494F4E3A20452D53544F502028
:10394C00544553542C20452D53544F50205245531D
:10395C0045542C2026205741524E494E4720484F63
:10396C00524E2068617665206265656E20736B69C6
:10397C00707065642E20506C656173652072657380
:10398C00746172742069662074686973207761733E
:10399C002061206D697374616B652E005354415422
:1039AC005553203030313A0050414E454C20504F49
:1039BC00574552204F4646005354415455532030DE
:1039CC0030323A0053574954434820544F20415504
:1039DC00544F005761726E696E6720686F726E206B
:1039EC00746573740050726573732052696465203A
:1039FC00537461727420746F20636F6E74696E758A
:103A0C0065207374617274757000507265737320E5
:103A1C00726573747261696E747320666F7220665E
:103A2C00756E6374696F6E73206D656E7500452DD0
:103A3C0053544F502050524553534544005249441F
:103A4C00452053544F502050524553534544005336
:103A5C0054415455533A203030300050414E454C6F
:103A6C00204B4559204F4646004149524741544549
:103A7C00533A20204F50454E210041495247415462
:103A8C0045533A202020204F4B210052657374720D
:103A9C0061696E747320756E6C6F636B6564005234
:103AAC004553545241494E54533A204F50454E00C1
:103ABC00526573747261696E7473206C6F636B659D
:103ACC006400524553545241494E54533A20204FAE
:103ADC004B2100535441545553203130303A00445B
:103AEC0049535041544348494E4721005265737421
:103AFC007261696E747320756E6C6F636B65642094
:103B0C006265636175736520747261696E2073748C
:103B1C006F707065642E00554E4B4E4F574E204DB6
:103B2C004F4445005052455353205249444520536D
:103B3C005441525400544F20455352205245534542
:103B4C005400452D53544F50204143544956450081
:103B5C0053776974636820746F20425950415353F2
:103B6C002100436F6E6E656374656420746F204B27
:103B7C006579626F6172642053696D756C61746FE5
:103B8C0072210050524F4752414D4D204552524FD9
:103B9C00523A20554E4B4E4F574E204D4F444521D7
:103BAC00210046554E4354494F4E53204D454E55DA
:103BBC003A2028504147452031204F462033293B9D
:103BCC00204F5045524154494F4E532046554E4379
:103BDC0054494F4E53004C4541442F535550455278
:103BEC005649534F5253204F4E4C59210050414788
:103BFC00452031413A204C4541442D4143434553E6
:103C0C005341424C452046554E4354494F4E530068
:103C1C005072657373204C4F434B20524553545292
:103C2C0041494E545320746F20746F67676C652044
:103C3C004155544F4D4154494320524553545241E0
:103C4C00494E545320554E4C4F434B0050726573A4
:103C5C0073204449535041544348205249474854D7
:103C6C0020746F204C4953542043555252454E54A6
:103C7C00204F5045524154494F4E532053455454B4
:103C8C00494E475300466F72206D6F7265206F70FE
:103C9C0074696F6E732C2073776974636820474165
:103CAC0054455320746F204F50454E005245535489
:103CBC005241494E54532057494C4C204E4F57209B
:103CCC004155544F4D41544943414C4C5920554E4C
:103CDC004C4F434B20494E204155544F4D41544974
:103CEC0043204D4F44452100524553545241494EB7
:103CFC0054532057494C4C204E4F204C4F4E474567
:103D0C0052204155544F4D41544943414C4C59203C
:103D1C00554E4C4F434B2120494E204155544F4D4D
:103D2C0041544943204D4F444500504147452032B2
:103D3C00413A2053555045525649534F522D414309
:103D4C004345535341424C452046554E4354494FED
:103D5C004E53005072657373204449535041544381
:103D6C004820524947485420666F722044495350AA
:103D7C004154434820544F47474C450053555045F8
:103D8C00525649534F52204D4F444520454E4142C7
:103D9C004C4544210053555045525649534F5220DF
:103DAC004D4F44452044495341424C454421004425
:103DBC00454255473A202000537769746368207454
:103DCC006F204155544F204D4F444520746F206354
:103DDC006F6E74696E756520737461727475702E74
:103DEC0000452D53544F502052455345543A0050E2
:103DFC004841534520494920535441525455503A57
:103E0C0020452D53544F5020524553455400452DB9
:103E1C0053544F502052455345543A2050726573B9
:103E2C007320616E6420686F6C6420524944452095
:103E3C00535441525420746F20726573657420453D
:103E4C005352204C4F4F5000452D53544F5020523D
:103E5C0045534554205355434345535346554C0005
:103E6C0045535253544152542053455249414C00EE
:103E7C0053544152545550205741524E494E473A93
:103E8C000050484153452049492053544152545500
:103E9C00503A2053544152545550205741524E4998
:103EAC004E470053544152545550205741524E499D
:103EBC004E473A20434845434B20544841542041F7
:103ECC004C4C2047415445532041524520534543C7
:103EDC0055524520414E44205249444520415245BB
:103EEC004120434C454152210050524553532041EF
:103EFC00434B4E4F574C4544474520544F20434F5E
:103F0C004E4652494D205341464520544F204F5068
:103F1C0045524154452100434845434B20524944A6
:103F2C0045204152454121210050524553532041D7
:103F3C00434B4E4F574C4447450053414645204F49
:103F4C005045524154494F4E20434F4E4652494DD5
:103F5C004544213A20507265737320616E64206869
:103F6C006F6C642052494445205354415254207480
:103F7C006F20726573657420494E4954494154450C
:103F8C00205354415254555000535441525455509F
:103F9C00205741524E494E472053554343455353A6
:103FAC000053544F5020544553543A0050484153F9
:103FBC0045204920535441525455503A2053544FA4
:103FCC005020544553543B20456E737572652061E7
:103FDC006C6C2073746F7020627574746F6E7320C8
:103FEC0066756E6374696F6E20636F72726563744D
:103FFC006C792E005052455353205249444520535E
:10400C00544F5000524944452053544F502054456E
:10401C0053543A20507265737320524944452053CF
:10402C00544F5000524944452053544F502066750C
:10403C006E6374696F6E696E6720636F727265630D
:10404C00746C792E00454D455247454E43592053CB
:10405C00544F5020544553543A205072657373207A
:10406C00454D455247454E43592053544F5021001E
:10407C00505245535320452D53544F5000454D45F8
:10408C005247454E43592053544F5020505245539C
:10409C005345443A2050756C6C20757020454D4545
:1040AC005247454E43592053544F500050554C4C99
:1040BC0020452D53544F5000452D53544F502066DE
:1040CC00756E6374696F6E696E6720636F7272656B
:1040DC0063746C792E0053544F5020544553542024
:1040EC00434F4D504C4554452E20507265737320F0
:1040FC0041434B4E4F574C4544474520746F20630A
:10410C006F6E74696E7565210053544F5020544581
:10411C0053543A204F4B0050524553532041434B7C
:10412C0000554B4E4F574E20434153452073746FEF
:10413C00705465737453657269616C005068617377
:10414C0065204920737461727475703A204C414D2E
:10415C005020544553543A20456E73757265206156
:10416C006C6C206C616D70732066756E6374696F16
:10417C006E20636F72726563746C792E0050726579
:10418C0073732041434B4E4F574C45444745207465
:10419C006F20636F6E6669726D20616C6C206C6150
:1041AC006D70732066756E6374696F6E2070726FBC
:1041BC007065726C7920616E6420636F6E74696EC9
:1041CC00756520737461727475702E004558545265
:1041DC00412046554E4354494F4E533A2000537795
:1041EC006974636820454E5452414E434520474103
:1041FC0054455320746F204F50454E20746F2074DB
:10420C0075726E20616C6C206C616D707320736FB5
:10421C006C69642E00507265737320616E64206843
:10422C006F6C642054524F55424C4520666F72207F
:10423C005354415254555020484F524E207465737C
:10424C00742E00507265737320616E6420686F6CFD
:10425C0064205249444520535441525420666F7295
:10426C00205741524E494E47204D455353414745E7
:10427C002074657374005072657373205249444501
:10428C002053544F5020746F2062797061737320E7
:10429C0073746172747570203D3E204D41494E54CB
:1042AC0041494E454E4345204F4E4C5921004C41FF
:1042BC004D50205445535420434F4D504C4554457C
:1042CC002E0043616E6E6F7420636F6D706C65743D
:1042DC0065206C616D7020746573742E200A2053F8
:1042EC00776974636820474154455320746F2043A9
:1042FC004C4F5345442E004C414D50205445535483
:10430C003A2050524553530041434B20544F2043C5
:10431C004F4E54494E5545004C414D502054455339
:10432C00543A0045585452412046554E4354494F37
:10433C004E5300352E302E3020616C706861203168
:0C434C000044454255473A20000D0A008D
:00000001FF
