:1000000052C1000081C100007FC100007DC100001D
:100010007BC1000079C1000077C1000075C10000FC
:1000200073C100000C94E70B0C94E70B0C94E70BE6
:100030006BC1000069C1000067C1000065C100001C
:1000400063C1000061C100005FC100005DC100002C
:100050005BC1000059C1000057C100000C944B0B5C
:1000600053C100000C944B0A0C94220A4DC10000AD
:100070004BC1000049C1000047C1000045C100005C
:1000800043C1000041C100003FC100003DC100006C
:100090000C94F9090C94D00937C100000C94650C3C
:1000A00033C1000031C100002FC100002DC100008C
:1000B0002BC1000029C1000027C1000025C100009C
:1000C00023C1000021C100001FC100001DC10000AC
:1000D0001BC1000019C1000017C1000015C10000BC
:1000E00013C100003F1645164B1655165F16DA165B
:1000F000691672167B1685168F169916A816B216F3
:10010000DA16BC16C616D0168B02AF02C002D60293
:10011000DE02EF020003BF08C208B108B508BB0841
:10012000F908C608CA08D008D408D808DE08E208CA
:10013000E608F908EC08F008F40850524F4752411D
:100140004D4D204552524F523A20554E4B4E4F572F
:100150004E205459504521210052454144204F50D2
:1001600045524154494E4720494E535452554354E9
:10017000494F4E53204245464F5245205553452145
:10018000210000000A0B02090C0D0E0807030401F0
:10019000000000000000000000000000000000005F
:1001A000000000000000000000000000000012112C
:1001B000100000000000000000000000000000002F
:1001C00000000000000000000000210024002700C3
:1001D0002A002D0030003300010100000401070156
:1001E0000A0100002200250028002B002E0031000B
:1001F000340002010000050108010B01000020008D
:100200002300260029002C002F00320000010000EE
:100210000301060109010505050507050808080889
:10022000020202020A0A080804040404010101018E
:100230000101010103030303030303030407070789
:100240000C0C0C0C0C0C0C0C02020202060606062E
:10025000060606060B0B0B0B0B0B0B0B01021020FB
:1002600020080810204010204080020102010804EC
:100270000201010204081020408080402010080480
:1002800002018004020180402010080402010804D9
:10029000020101020408102040800102040810201D
:1002A00040801820B11F11241FBECFEFD1E2DEBF66
:1002B000CDBF00E00CBF1FE0A0E0B2E0EEE8F7E445
:1002C00000E00BBF02C007900D92A83BB107D9F721
:1002D00022E1A8EBBFE001C01D92A83EB207E1F702
:1002E00011E0C2E5D1E000E006C021970109802FAE
:1002F000FE010E945321C135D10780E00807A9F70C
:100300000E94F90F0C94B6237BCE0895E091DC0F88
:100310008091DD0FE81730F4F0E0E454F04F808175
:1003200090E008958FEF9FEF08959091DC0F8091FA
:10033000DD0F981750F4E92FF0E0E454F04F2081DE
:1003400030E09F5F9093DC0F02C02FEF3FEFC901B9
:1003500008958091DD0F90E02091DC0F821B9109C0
:100360000895CF92DF92EF92FF920F931F93CF9356
:10037000DF937C01262F972F8A0180913D118823DE
:1003800091F0C62FD72F6E01C40ED51ECC15DD05FA
:1003900071F06991D701ED91FC910190F081E02D10
:1003A000C7011995F3CF642F822F0E94960DC801C3
:1003B000DF91CF911F910F91FF90EF90DF90CF9041
:1003C0000895CF93DF931F92CDB7DEB76983209155
:1003D0003D112223D1F020915F11203240F021E025
:1003E00030E0FC013383228380E090E015C08091EF
:1003F0003E11E82FF0E0E15CFE4E998190838F5F23
:1004000080933E1180935F1105C061E0CE0101969B
:100410000E94960D81E090E00F90DF91CF910895BA
:10042000682F80E00C94850E10923C1181E080933F
:100430003B111092161161E084E10E949C0A61E078
:1004400085E10E949C0AE9EBF0E080818E7F808349
:1004500080818D7F808388E48093B80085E48093D9
:10046000BC0008951092E70F1092E60F1092E40F6F
:100470001092E30F1092E10F1092DF0F1092DE0F37
:100480001092851010928410109283101092E50F34
:100490001092E20F1092E00F68EE73E080E090E0BF
:1004A0000C94070BCF93DF93EC016BE077E08DEFBB
:1004B00091E10E94D70FBE018DEF91E10E94D90F0B
:1004C0008CEA92E10E94E70F6AE070E080E090E041
:1004D000DF91CF910C94070B0F931F93CF93DF9372
:1004E000CDB7DEB72C970FB6F894DEBF0FBECDBFE9
:1004F0008C0164E177E0CE0101960E941A0FF801A9
:100500003197E730F10508F099C08827EC57FF4F85
:100510008F4F0C945321CE0101960E94E70F0E9449
:100520007B0E6DE377E081ED92E10E94D70F61E0F1
:1005300080E00E94850E6EE477E081ED92E10E94FA
:10054000D70F63E080E00E94850E61ED73E081EDDE
:1005500092E10E94D70F81E08093E70F18C088E5F1
:1005600097E00E94550E83E090E05ADF60EB77E061
:1005700081ED92E10E94D70F81E08093E60F07C0E2
:1005800080EA97E00E94550E81E08093E40FCE014F
:1005900001960E94150F2C960FB6F894DEBF0FBE81
:1005A000CDBFDF91CF911F910F91089580EC97E01F
:1005B0000E94550E81E08093E30FE9CF81EE97E032
:1005C0000E94550E83E090E02BDF6CE078E081ED37
:1005D00092E10E94D70F81E08093E10FD8CF81E2B2
:1005E00098E00E94550E83E090E01ADF60E578E025
:1005F00081ED92E10E94D70F81E08093DF0FC7CF9A
:1006000085E698E00E94550E83E898E00E94550E1A
:1006100082E090E005DF66EB78E081ED92E10E94F8
:10062000D70F83E090E0FCDE69EC78E081ED92E1A9
:100630000E94D70F81E08093DE0FA9CF6EED78E0A6
:10064000CE0107960E941A0FCE0107962BDFCE012E
:1006500007960E94150F9BCF81E090E00C94660EE8
:100660006EEF82EB92E104D661E082EB92E100D67C
:1006700080E090E00E94660E62E070E080E090E032
:10068000C6C7EF92FF920F931F93CF93DF93CDB71F
:10069000DEB7E6970FB6F894DEBF0FBECDBF8C0174
:1006A00069EF78E0CE0101967C010E941A0F6AE39F
:1006B00079E0CE0107960E941A0F69E879E0CE0131
:1006C0000D960E941A0F6BE979E0CE0143960E94C5
:1006D0001A0F62ED79E0CE0149960E941A0F60E090
:1006E0007AE0CE014F960E941A0F63E37AE0CE01C2
:1006F00085960E941A0F6BE67AE0CE018B960E94D7
:100700001A0F6FE77AE0CE01C1960E941A0F0230ED
:100710001105B9F17CF50130110509F063C0C7017D
:100720000E94E70FCE0107960E94E70F8CEA92E144
:100730000E94E70F0E947B0E6DE377E081ED92E16E
:100740000E94D70F61E080E00E94850E64EB7AE0A2
:1007500081ED92E10E94D70F63E080E00E94850E58
:100760006EEB7AE081ED92E10E94D70F81E08093F9
:10077000E70F38C00330110571F104301105D1F1D4
:1007800031C0CE010D960E94E70FCE0143960E9424
:10079000E70FCE0149960E94E70FCE014F960E94C7
:1007A000E70FCE0185960E94E70F8CEA92E10E9446
:1007B000E70F56DF60ED7AE082EB92E10E94D70FFF
:1007C0004BDF6BED7AE082EB92E10E94D70F81E084
:1007D0008093E60F07C0CE018B960E94E70F81E061
:1007E0008093E40FCE01C1960E94150F8E010F5C1D
:1007F0001F4F08C0CE01C1960E94E70F81E0809391
:10080000E30FF0CF06501109C8010E94150F0E1515
:100810001F05C1F7E6960FB6F894DEBF0FBECDBF39
:10082000DF91CF911F910F91FF90EF9008950F935B
:100830001F93CF938C01C62F80E00E94850E6BEE34
:100840007AE081ED92E10E94D70F6C2F80E00E9448
:10085000850EB80181ED92E1CF911F910F910C941B
:10086000D90F0F931F93CF93DF93CDB7DEB72C979C
:100870000FB6F894DEBF0FBECDBF8C0164E177E008
:10088000CE0101960E941A0F0230110579F1033052
:10089000110509F44EC00130110509F05DC0CE010B
:1008A00001960E94E70F0E947B0E60E07BE0CE0184
:1008B00007960E941A0F60E070E0CE010796B7DF3E
:1008C000CE0107960E94150F6AE37BE0CE010796E2
:1008D0000E941A0F61E070E0CE010796A8DFCE01FA
:1008E00007960E94150F63E17BE019C087E29BE049
:1008F0000E94550E85E49BE00E94550E62E87BE065
:10090000CE0107960E941A0F62E070E0CE010796B2
:100910008EDFCE0107960E94150F67E97BE0CE01BE
:1009200007960E941A0F63E070E0CE0107967FDF02
:100930001CC087EA9BE00E94550ECE0101960E94E2
:10094000150F2C960FB6F894DEBF0FBECDBFDF910A
:10095000CF911F910F91089564EB7BE0CE01079634
:100960000E941A0FCE0107969DDDCE0107960E94C8
:10097000150FE3CF0F931F93CF93DF93CDB7DEB760
:100980002C970FB6F894DEBF0FBECDBF8C0164E18B
:1009900077E0CE0101960E941A0F0230110509F48A
:1009A0003DC00330110509F46AC00130110509F09A
:1009B00079C0CE0101960E94E70F52DE66EC7BE023
:1009C00082EB92E10E94D70F47DE61ED73E082EB8C
:1009D00092E10E94D70F0E947B0E64ED7BE0CE0176
:1009E00007960E941A0F60E070E0CE0107961FDFA5
:1009F000CE0107960E94150F68EF7BE0CE010796A7
:100A00000E941A0F61E070E0CE01079610DFCE0160
:100A100007960E94150F63E17BE027C086EE9BE0FE
:100A20000E94550E85E09CE00E94550E19DE66EC92
:100A30007BE082EB92E10E94D70F0EDE65E675E067
:100A400082EB92E10E94D70F6FE37CE0CE01079624
:100A50000E941A0F62E070E0CE010796E8DECE0138
:100A600007960E94150F62E57CE0CE0107960E9472
:100A70001A0F63E070E0CE010796D9DE1CC081E654
:100A80009CE00E94550ECE0101960E94150F2C96F7
:100A90000FB6F894DEBF0FBECDBFDF91CF911F918F
:100AA0000F91089569E77CE0CE0107960E941A0F26
:100AB000CE010796F7DCCE0107960E94150FE3CF13
:100AC0000F931F93CF93DF93CDB7DEB72C970FB65D
:100AD000F894DEBF0FBECDBF8C0164E177E0CE019C
:100AE00001960E941A0F02301105C9F15CF5013020
:100AF000110509F084C0CE0101960E94E70F0E9403
:100B00007B0E64ED7BE0CE0107960E941A0F60E039
:100B100070E0CE0107968BDECE0107960E94150F7E
:100B20006BE97CE0CE0107960E941A0F61E070E04D
:100B3000CE0107967CDECE0107960E94150F63E179
:100B40007BE041C00330110541F10430110509F08B
:100B500056C080E89DE00E94550E82DD41C089E8C4
:100B60009CE00E94550E8BEA9CE00E94550E81EF9E
:100B70009CE00E94550E6FE17DE0CE0107960E9439
:100B80001A0F62E070E0CE01079651DECE010796A3
:100B90000E94150F6EEB7AE016C081E39DE00E9483
:100BA000550E5EDD68E572E0CE0107960E941A0FD1
:100BB00062E070E0CE0107963ADECE0107960E9411
:100BC000150F67E97BE0CE0107960E941A0F63E0DC
:100BD00070E0CE0107962BDECE0107960E94150F1E
:100BE000CE0101960E94150F2C960FB6F894DEBF29
:100BF0000FBECDBFDF91CF911F910F91089569E78F
:100C00007CE0CE0107960E941A0FCE0107964ADCBF
:100C1000E3CF1092EC0F1092EB0F86E090E09093F0
:100C2000EA0F8093E90F88E00E944B0E8091EB0F52
:100C30009091EC0F0E94460E8091E90F9091EA0F7F
:100C40000E94460EC6D76AE070E080E090E0DFD4F4
:100C50001092EC0F1092EB0F1092EA0F1092E90F26
:100C600088E00E944B0E8091EB0F9091EC0F0E9458
:100C7000460E8091E90F9091EA0F0E94460EA9D787
:100C80006AE070E080E090E0C2C41092EC0F109235
:100C9000EB0F84E090E09093EA0F8093E90F88E0F7
:100CA000FAD78091EB0F9091EC0FF0D78091E90F7C
:100CB0009091EA0FEBD78DD76AE070E080E090E08A
:100CC000A6D41092EC0F1092EB0F1092EA0F109234
:100CD000E90F88E0E0D78091EB0F9091EC0FD6D729
:100CE0008091E90F9091EA0FD1D773D76AE070E055
:100CF00080E090E08CC41092EC0F1092EB0F81E03A
:100D000090E09093EA0F8093E90F88E0C4D7809138
:100D1000EB0F9091EC0FBAD78091E90F9091EA0F09
:100D2000B5D757D76AE070E080E090E070D41092B9
:100D3000EC0F1092EB0F1092EA0F1092E90F88E07F
:100D4000AAD78091EB0F9091EC0FA0D78091E90F7B
:100D50009091EA0F9BD73DD76AE070E080E090E089
:100D600056C460E08BE2E8D360E081E3E5D360E065
:100D700085E3E2D360E08CE1DFD360E084E3DCD3A1
:100D800060E08FE2D9D360E089E2D6D360E087E209
:100D9000D3D360E08BE1D0D360E083E3CDC3809117
:100DA000F30F811102C061E001C060E08DE2C4D3A5
:100DB0008091EF0F882351F01092F10F81E0809322
:100DC000E80F50DBCEDF60E08DE2B6D38091EE0F0E
:100DD000882309F48FC080918210811109C088E9AD
:100DE0009DE063D78CEC9DE060D781E0809382101A
:100DF0008091ED0F60E0811141C084E39DD380912B
:100E00008110811111C083EE9DE04FD786E09EE0F6
:100E10004CD782E49EE049D78BE79EE046D781E03D
:100E200080938110109280108091F30F882329F015
:100E300061E08FE281D360E008C0809100028111FF
:100E400006C060E08FE278D361E081E375D38091E2
:100E5000F20F882309F44EC080910002811109C06D
:100E600081E08093000261E08FE266D382EA9EE037
:100E70003BC0109200028EED9EE036C08FE25CD344
:100E800060E081E359D38091801081110BC080E232
:100E90009FE00BD789E49FE008D781E08093801022
:100EA000109281108091F30F882311F061E005C04A
:100EB00080917F10811103C060E084E33DD3809175
:100EC000F00F8823B9F080917F10811109C081E073
:100ED00080937F1061E084E32FD382E79FE004C01A
:100EE00010927F108BE89FE0E0D668EE73E080E020
:100EF00090E08DC308956115710579F0FB010190B3
:100F00000020E9F73197AF01461B570BDC01ED914B
:100F1000FC910280F381E02D199480E090E0089527
:100F2000FC01A089B1898C91A689B78982FD0FC087
:100F30009C91818D8F5F8F73228D821749F0218D57
:100F4000DF01A20FB11D5D969C93818F08958C9156
:100F50000895FC01918D828D981761F0828DDF01DB
:100F6000A80FB11D5D968C91928D9F5F9F73928F9C
:100F700090E008958FEF9FEF0895FC01918D828D91
:100F8000981731F0828DE80FF11D858D90E008955E
:100F90008FEF9FEF0895FC01918D228D892F90E0B6
:100FA000805C9F4F821B91098F739927089580E67B
:100FB00091E1F1DF21E0892B09F420E0822F0895EF
:100FC0008DEF91E1E8DF21E0892B09F420E0822F09
:100FD0000895FC01848DDF01A80FB11DA35ABF4FF6
:100FE0002C91848D90E001968F739927848FA68928
:100FF000B7892C93A089B1898C9180648C93938D4F
:10100000848D981306C00288F389E02D80818F7D3E
:1010100080830895EF92FF920F931F93CF93DF93F6
:10102000EC0181E0888F9B8D8C8D981305C0E88939
:10103000F989808185FD23C0F62E0B8D10E00F5FAE
:101040001F4F0F731127E02E8C8DE8120BC00FB6C7
:1010500007FCFACFE889F989808185FFF5CFCE01B9
:10106000B8DFF2CF8B8DFE01E80FF11DE35AFF4F81
:10107000F0820B8FEA89FB898081806207C0EE894C
:10108000FF896083E889F98980818064808381E0B9
:1010900090E0DF91CF911F910F91FF90EF90089515
:1010A000CF93DF93EC01888D8823C1F0EA89FB8917
:1010B000808185FD05C0A889B9898C9186FD0EC007
:1010C0000FB607FCF5CF808185FFF2CFA889B989DB
:1010D0008C9185FFEDCFCE017CDFE8CFDF91CF9102
:1010E000089580E090E0892B19F06ADF811120C01B
:1010F00080E090E0892B19F05ADF81111CC080E05C
:1011000090E0892B41F080E090E0892B21F00E9453
:101110000000811113C080E090E0892BA1F080E0F5
:1011200090E0892B81F00E94000081110AC008958F
:101130000E940000DDCF0E940000E1CF0E9400006D
:10114000EACF0C940000089590E0FC013197E23161
:10115000F10508F04EC08827E557FF4F8F4F0C94DC
:101160005321809180008F7703C0809180008F7D14
:1011700080938000089580918000877FF9CF84B5A7
:101180008F7702C084B58F7D84BD08958091B000B3
:101190008F7703C08091B0008F7D8093B000089559
:1011A000809190008F7707C0809190008F7D03C061
:1011B00080919000877F8093900008958091A00097
:1011C0008F7707C08091A0008F7D03C08091A00021
:1011D000877F8093A0000895809120018F7707C0BA
:1011E000809120018F7D03C080912001877F8093B3
:1011F000200108953FB7F894809112119091131136
:10120000A0911411B091151126B5A89B05C02F3FD0
:1012100019F00196A11DB11D3FBFBA2FA92F982F1C
:101220008827820F911DA11DB11DBC01CD0142E097
:10123000660F771F881F991F4A95D1F7089520914F
:10124000BA0F3091BB0F2817390771F49091B80F7E
:101250008091B90F981741F0E091B80FF0E0E35397
:10126000FF4E808190E008958FEF9FEF08950895DD
:101270001F93CF93DF93DC015C962D913C915D979A
:101280002115310539F481E090E013969C938E93FB
:1012900012973DC05196ED91FC91529750969C91BA
:1012A0005097892F80951FB75E964C915E9741FBB2
:1012B000772770F941FD6095F8944081772311F00C
:1012C000492B01C048234083E9012197F1F748E009
:1012D000508160FF02C0592B01C058235083E9019F
:1012E0002197F1F76695415099F7772321F0908186
:1012F0008923808303C08081982B90831FBF5C96D5
:101300008D919C915D970197F1F721E030E0C90143
:10131000DF91CF911F9108952091BA0F3091BB0FAB
:101320002817390769F48091B90F2091B80F90E020
:10133000805C9F4F821B910960E470E00C94402117
:1013400080E090E008952091BA0F3091BB0F2817EC
:101350003907B9F49091B80F8091B90F981789F0B7
:10136000E091B80FF0E0E353FF4E80812091B80F79
:1013700030E02F5F3F4F2F7333272093B80F90E05B
:1013800008958FEF9FEF089585ED8093BC008091C5
:10139000BC0084FDFCCF10923C1108950E94802374
:1013A0001F920F920FB60F9211240BB60F922F932C
:1013B0003F934F935F936F937F938F939F93AF93DD
:1013C000BF93EF93FF9380E691E103DEFF91EF91EE
:1013D000BF91AF919F918F917F916F915F914F914D
:1013E0003F912F910F900BBE0F900FBE0F901F904B
:1013F00018951F920F920FB60F9211240BB60F92F1
:101400002F933F934F935F936F937F938F939F930C
:10141000AF93BF93EF93FF9380E691E181DDFF915E
:10142000EF91BF91AF919F918F917F916F915F915C
:101430004F913F912F910F900BBE0F900FBE0F90C9
:101440001F9018951F920F920FB60F9211240BB692
:101450000F922F933F934F935F936F937F938F934D
:101460009F93AF93BF93EF93FF938DEF91E1B1DD26
:10147000FF91EF91BF91AF919F918F917F916F916C
:101480005F914F913F912F910F900BBE0F900FBE28
:101490000F901F9018951F920F920FB60F92112464
:1014A0000BB60F922F933F934F935F936F937F935E
:1014B0008F939F93AF93BF93EF93FF938DEF91E142
:1014C0002FDDFF91EF91BF91AF919F918F917F9110
:1014D0006F915F914F913F912F910F900BBE0F90A5
:1014E0000FBE0F901F901895CF93DF93282F30E0F9
:1014F000F901EE57FE4F8491F901E45AFD4FD49162
:10150000F901EA5EFD4FC491CC2389F081111CDE04
:10151000EC2FF0E0EE0FFF1FE450FE4FA591B491C9
:10152000EC91ED2381E090E021F480E002C080E0C6
:1015300090E0DF91CF9108951F93CF93DF93282FF1
:1015400030E0F901EE57FE4F8491F901E45AFD4F66
:10155000D491F901EA5EFD4FC491CC23C1F0162F5E
:101560008111F2DDEC2FF0E0EE0FFF1FEE51FE4F88
:10157000A591B4918FB7F894111105C09C91ED2FEE
:10158000E095E92302C0EC91ED2BEC938FBFDF9146
:10159000CF911F910895CF93DF9390E0FC01E45A1F
:1015A000FD4F2491FC01EA5EFD4F8491882361F197
:1015B00090E0880F991FFC01E853FE4FC591D4912C
:1015C000FC01EE51FE4FA591B491611109C09FB786
:1015D000F8948881209582238883EC912E230BC078
:1015E000623061F49FB7F8943881822F809583230D
:1015F0008883EC912E2B2C939FBF06C08FB7F89455
:10160000E8812E2B28838FBFDF91CF9108958F9291
:101610009F92AF92BF92CF92DF92EF92FF926B01B7
:101620007C01E8DD4B015C01C114D104E104F1044B
:10163000E9F0E0DDDC01CB0188199909AA09BB09B1
:10164000883E9340A105B10578F321E0C21AD10884
:10165000E108F10888EE880E83E0981EA11CB11CF9
:10166000C114D104E104F10421F7DECFFF90EF9023
:10167000DF90CF90BF90AF909F908F9008952FB73D
:10168000F89460910E1170910F118091101190914A
:1016900011112FBF08951F920F920FB60F921124B0
:1016A0002F933F938F939F93AF93BF9380910E118E
:1016B00090910F11A0911011B091111130910D1155
:1016C00023E0230F2D3720F40196A11DB11D05C085
:1016D00026E8230F0296A11DB11D20930D118093C2
:1016E0000E1190930F11A0931011B09311118091CE
:1016F000121190911311A0911411B091151101962E
:10170000A11DB11D8093121190931311A093141178
:10171000B0931511BF91AF919F918F913F912F91F0
:101720000F900FBE0F901F9018950F931F93CF939C
:10173000DF931F92CDB7DEB78C01FC0184816983F2
:10174000AAD2F80183856981862B90E09FD20F9001
:10175000DF91CF911F910F913CC20F931F93CF93B5
:101760008C01C62FE2DF6C2F6460C801DEDF6C2FB6
:101770006B7FC801DADF83EC90E00197F1F7CF913E
:101780001F910F910895FF920F931F93CF93DF93B3
:101790001F92CDB7DEB78C01F62E962F907F692F62
:1017A000642BC8014983D9DF80E1F89EB001112480
:1017B0004981642BC8010F90DF91CF911F910F9148
:1017C000FF90CBCF41E0DFDF81E090E008951F92F2
:1017D0000F920FB60F9211240BB60F922F933F93D7
:1017E0004F935F936F937F938F939F93AF93BF9329
:1017F000EF93FF93E091BA0FF091BB0F309709F48C
:1018000051C0968DA685B785858591FF04C09C91B2
:10181000892329F447C09C91892309F043C0A389F7
:10182000B4899C918589809589238C938689978931
:101830000197F1F7608D718DA685B785558538E0E4
:1018400020E0CB010197F1F7822F90E095958795E5
:10185000282F4C91452309F02068315091F7868D4F
:1018600081FD20958091B90F90E001968F739927A3
:101870003091B80F381749F0A091B90FB0E0A353D9
:10188000BF4E2C938093B90F03C0868D8160868FE5
:10189000828D938D0197F1F7A389B4899C918589F5
:1018A000892B8C93FF91EF91BF91AF919F918F9175
:1018B0007F916F915F914F913F912F910F900BBE50
:1018C0000F900FBE0F901F9018951F920F920FB69A
:1018D0000F9211240BB60F922F933F934F935F9368
:1018E0006F937F938F939F93AF93BF93EF93FF93E8
:1018F0008091B900887F803609F49CC068F58832F1
:1019000009F45BC090F4803109F454C038F48823A2
:1019100009F4F6C0883009F44DC0F5C0883109F4E7
:101920004CC0803209F45DC0EEC0803409F468C058
:1019300048F4803309F455C0883309F0E4C080933B
:101940003A11D8C0803509F44FC0883509F45DC01C
:10195000883409F0D8C0D6C0883909F4C7C0A8F4C3
:10196000883709F467C038F4883609F463C08037D3
:1019700009F460C0C8C0883809F4B8C0803909F4D7
:101980005FC0803809F0BFC05BC0803B09F486C0EF
:1019900038F4803A09F466C0883A09F47FC0B3C0CD
:1019A000803C09F4A7C0883C09F4A4C0883B09F432
:1019B0008AC0A9C08091171110C0909139118091EF
:1019C0003811981770F5E091391181E08E0F8093EE
:1019D0003911F0E0E85EFE4E80818093BB0085EC1B
:1019E00086C080933A118EC0E091391181E08E0F4C
:1019F000809339118091BB00F0E0E85EFE4E808359
:101A000090913911809138116EC0E091391181E0C7
:101A10008E0F809339118091BB00F0E0E85EFE4E9E
:101A2000808380913B1181116DC081E080931611FC
:101A300084EA61C083E080933C111092CC10CFCF38
:101A40008091CC10803208F051C0E091CC1081E040
:101A50008E0F8093CC108091BB00F0E0E455FF4ED8
:101A60008083BDCF85EC8093BC0010923C118091A7
:101A7000CC10803230F4E091CC10F0E0E455FF4E11
:101A800010826091CC1070E0E091AA10F091AB1040
:101A90008CEA90E119951092CC1035C084E08093C7
:101AA0003C111092A9101092A810E091A610F0918C
:101AB000A71019958091A810811105C081E080932D
:101AC000A81010928610E091A91081E08E0F8093EB
:101AD000A910F0E0EA57FF4E80818093BB009091FF
:101AE000A9108091A810981708F479CF85E8809301
:101AF000BC0009C085EC8093BC0010923C1103C06F
:101B000010923A1141DCFF91EF91BF91AF919F91FB
:101B10008F917F916F915F914F913F912F910F9096
:101B20000BBE0F900FBE0F901F9018954091A810FC
:101B3000262F30E0240F311D21323105DCF42091B5
:101B40003C112430C9F4FC0180E090E0861758F481
:101B50003091A8102191DC01AA57BF4EA30FB11DEF
:101B60002C930196F3CF8091A810680F6093A81072
:101B700080E0089581E0089582E00895CF92DF9299
:101B8000EF92FF920F931F93CF93DF936C017A0133
:101B90008B01C0E0D0E0CE15DF0589F0D8016D9152
:101BA0008D01D601ED91FC910190F081E02DC601EF
:101BB0001995892B11F47E0102C02196ECCFC70143
:101BC000DF91CF911F910F91FF90EF90DF90CF9019
:101BD000089520915F119091E312213208F04AC0DC
:101BE00080913C118111FCCF32E030933C1131E007
:101BF00030933B113FEF30933A11109239112093FB
:101C00003811AFE3B1E148E151E1FA013E2F341B55
:101C1000321718F43D913193F9CF1092171120919A
:101C20001711990F922B90931711909116119130D3
:101C300061F410921611909117119093BB0090913E
:101C4000BC0093FDF8CF95EC01C095EE9093BC00DD
:101C500090913C119230E1F390913A119F3F79F0CD
:101C600080913A11803241F080913A11803331F005
:101C700084E005C081E003C082E001C083E01092EF
:101C80003E1110925F1110923D110895682F8AE95C
:101C900092E10C94E10191E090933D118093E31265
:101CA00010923E1110925F110895CF93DF93BC0103
:101CB0008DEF91E120D9EC0166E572E08DEF91E1C5
:101CC0001AD98C0F9D1FDF91CF910895CF93C82F04
:101CD0006EEF82EB92E1CCDA6C2F6295660F660FA5
:101CE000607C605882EB92E1C3DA62E070E080E0F1
:101CF00090E0CF918CCC40E061E081ED92E143DD5A
:101D00008BE39FE10197F1F70895CF93DF93CDB770
:101D1000DEB728970FB6F894DEBF0FBECDBF28E020
:101D2000E7E0F2E0DE01119601900D922A95E1F7CD
:101D30002091D912261710F46FEF620FFE01319631
:101D4000E60FF11DE60FF11D9081682F690F6068A5
:101D500040E081ED92E128960FB6F894DEBF0FBE09
:101D6000CDBFDF91CF910FCDEDEFF1E1A089B1892A
:101D700082E08C93A485B5851C92A685B7858FECEF
:101D80008C93108EA489B58986E08C93A289B3893F
:101D90008C9180618C93A289B3898C9188608C939B
:101DA000A289B3898C9180688C930288F389E02D95
:101DB00080818F7D808308950F931F93CF93DF934E
:101DC0008C01C0E0D0E0F801EC0FFD1F64916623A8
:101DD00071F0E091FD11F091FE110190F081E02D84
:101DE0008DEF91E11995892B11F02196ECCFCE0161
:101DF000DF91CF911F910F910895CF93DF93E091E1
:101E0000FD11F091FE110190F081E02D682F8DEF12
:101E100091E11995EC0166E572E08DEF91E16BD8E7
:101E20008C0F9D1FDF91CF910895FC0180819181DE
:101E30000C940422EF92FF920F931F93CF93DF93A2
:101E4000EC01198218821B821A821D821C82611584
:101E50007105A9F17B01FB0101900020E9F73197A1
:101E60008F01061B170BB8016F5F7F4F80E090E07A
:101E70000E949C22009759F0998388831B830A83D0
:101E80002C813D81232B81F4FC0110820DC08881BF
:101E90009981009711F00E940422198218821D82F4
:101EA0001C821B821A820BC01D830C83B701DF9139
:101EB000CF911F910F91FF90EF900C948D23DF91A4
:101EC000CF911F910F91FF90EF9008954F925F92E5
:101ED0006F927F92EF92FF920F931F93CF93DF93B6
:101EE000CDB7DEB7A1970FB6F894DEBF0FBECDBF5A
:101EF0007C01FA01CB0119A2223008F42AE08E01FC
:101F00000F5D1F4F422E512C612C712CBF01A3017C
:101F100092010E949423F901CA01015011096A300B
:101F200014F4605D01C0695CD8016C93232B242BF1
:101F3000252B61F7B801C7010E947B07A1960FB658
:101F4000F894DEBF0FBECDBFDF91CF911F910F91EF
:101F5000FF90EF907F906F905F904F900895CF9299
:101F6000DF92EF92FF920F931F93CF93DF93EC01D9
:101F70006A017B01E881F9810190F081E02D6DE239
:101F800019958C0144275527BA014C195D096E0932
:101F90007F092AE0CE019ADF800F911FDF91CF9158
:101FA0001F910F91FF90EF90DF90CF9008950C94C8
:101FB0007B07DC01ED91FC91DB0114964D915C9166
:101FC00015976D917C910280F381E02D1994CF9348
:101FD000DF93BC018DEF91E1ECDFEC0166E572E08F
:101FE0008DEF91E10E947B078C0F9D1FDF91CF91B8
:101FF0000895CF93DF93CDB7DEB76E970FB6F89401
:10200000DEBF0FBECDBF789484B5826084BD84B539
:10201000816084BD85B5826085BD85B5816085BDE3
:1020200080916E00816080936E001092810080919B
:102030008100826080938100809181008160809323
:102040008100809180008160809380008091B10048
:1020500084608093B1008091B00081608093B00073
:1020600080919100826080939100809191008160C5
:102070008093910080919000816080939000809186
:10208000A10082608093A1008091A1008160809373
:10209000A1008091A00081608093A0008091210127
:1020A00082608093210180912101816080932101D0
:1020B0008091200181608093200180917A0084606A
:1020C00080937A0080917A00826080937A00809178
:1020D0007A00816080937A0080917A008068809392
:1020E0007A001092C10010922710109228101092BE
:1020F000291010922A101092F50F1092F60F1092DC
:10210000F70F1092F80F60ED77E080E090E07FDA53
:102110008DEF91E1909326108093251025DEAFDAA4
:102120000091F50F1091F60F2091F70F3091F80FF5
:10213000DC01CB01801B910BA20BB30BC297A10555
:10214000B10530F463E070E080E090E060DAE7CF62
:1021500096DA6093F50F7093F60F8093F70F9093D4
:10216000F80F67E472E080912510909126101FDF30
:102170006AE070E080E090E04ADA81E08093F90F55
:102180001092CD121092CC121092CB121092CA1251
:102190001092C9121092C8128DE991E09093CF125B
:1021A0008093CE128091BE1296EF980F943048F033
:1021B0002EEC280F243028F022EC280F283008F0CD
:1021C00070C02DEB30E03093C9122093C8122BE978
:1021D00031E03093CB122093CA122CE231E03093DD
:1021E000CD122093CC12943070F02EEC280F2430B6
:1021F00050F022EC280F283010F40C94A71FA0E018
:10220000B0E00C94A91FA8E6B0E0E8E6F0E0208179
:10221000943018F08E53883010F081E001C084E0D3
:10222000822B8C938091BE1296EF980F943058F0C9
:102230002EEC280F243038F022EC280F283030F014
:1022400020E030E005C02BE630E002C02DE630E0B3
:102250003093C6122093C512943010F49AEF0BC03D
:10226000823381F0833381F0843381F092EC980FD4
:10227000983070F492EC980F81E001C0880F9A9525
:10228000EAF707C088E005C084E003C082E001C02F
:1022900081E08093C7128091CE129091CF12019766
:1022A000F1F78091CC129091CD12892B49F1E091F8
:1022B000BA0FF091BB0F82E1E23BF80709F13097CA
:1022C00039F0A389B4899C918589809589238C9361
:1022D0008091D0128E7F8093D0121092B90F1092FD
:1022E000B80F82EB92E19093BB0F8093BA0FE0910D
:1022F000C512F091C61290818091C712892B8083FC
:102300000E94300380E090E0E1DC1092DC0F10923C
:10231000DD0F10923E1110925F110E941402109274
:10232000D6128091DB12823018F098E09093D6128A
:102330008093D91262E370E080E090E068D9609108
:10234000DC1281ED92E1F1D968EE73E080E090E07B
:102350005ED960E381ED92E100DA0BE416E4C80196
:102360000197F1F760E381ED92E1F7D9C801019798
:10237000F1F760E381ED92E1F0D983E592E0019716
:10238000F1F760E281ED92E1E8D96091D6126062E6
:1023900040E081ED92E1F7D984E08093D71240E0EC
:1023A0006CE081ED92E1EFD9A6DC82E08093D81257
:1023B00040E066E081ED92E1E6D940E062E081ED47
:1023C00092E1E1D98BE39FE10197F1F788E08093F7
:1023D000DC1260E081ED92E1A8D960E080E095DC5C
:1023E00069E572E081ED92E1E2DD61E080E08DDCA3
:1023F00061E672E081ED92E1DADD6DED72E181ED91
:1024000092E1D7DD62E080E080DC6BE672E081ED96
:1024100092E1CDDDA9DC1092DC0F1092DD0F10925D
:102420003E1110925F110E94140260E082E3B3D863
:1024300060E080E3B0D860E08EE1ADD860E08FE18D
:10244000AAD860E081E2A7D860E08AE2A4D860E080
:1024500080E2A1D860E088E19ED860E084E29BD869
:1024600060E083E298D860E089E195D860E088E296
:1024700092D860E08DE18FD860E08CE28CD860E08B
:1024800082E289D860E08EE286D860E08AE183D873
:1024900060E086E280D861E085E27DD861E087E295
:1024A0007AD861E089E277D861E085E374D861E0A9
:1024B00084E371D861E08CE16ED861E08DE26BD885
:1024C00061E08FE268D861E08BE265D861E081E38A
:1024D00062D861E083E35FD861E08BE15CD861E0C2
:1024E00082E32AD861E080E327D861E08EE124D836
:1024F00061E08FE121D861E081E21ED861E08AE2EB
:102500001BD861E080E218D861E088E115D861E06D
:1025100084E212D861E083E20FD861E088E20CD84F
:1025200061E089E109D861E08DE106D861E08CE2E3
:1025300003D861E082E200D861E08EE20E949C0A4A
:1025400061E08AE10E949C0A61E086E20E949C0AA6
:1025500082E0E82EF12C93E0C92ED12CAA24A3947A
:10256000B12C06E910E034E6832E912C4CEB642E5E
:102570004FE0742E84D820912B1030912C10409174
:102580002D1050912E101B012C01221A330A440ADF
:10259000550AA2019101253631054105510590F0FA
:1025A00060932B1070932C1080932D1090932E100D
:1025B00080915410811104C081E08093541002C0B6
:1025C000109254105CD820912F103091301040910F
:1025D0003110509132101B012C01221A330A440A87
:1025E000550AA20191012B3F31054105510590F09B
:1025F00060932F10709330108093311090933210AD
:1026000080917210811104C081E08093721002C029
:102610001092721034D820913310309134104091C0
:102620003510509136101B012C01221A330A440A2E
:10263000550AE5EF2E16E1E03E064104510490F004
:10264000609333107093341080933510909336104C
:1026500080916D10811104C081E080936D1002C0E3
:1026600010926D100CD82091371030913810409195
:10267000391050913A101B012C01221A330A440AD6
:10268000550AE9EE2E16E3E03E064104510490F0AF
:1026900060933710709338108093391090933A10EC
:1026A0008091F30F811104C081E08093F30F02C089
:1026B0001092F30F82E30E94740A892B21F481E0C7
:1026C0008093671002C01092671080E30E94740A22
:1026D000892B21F081E080937C1002C010927C1045
:1026E0008EE10E94740A892B21F481E080935310BB
:1026F00002C0109253108FE10E94740A892B61F47A
:1027000081E08093EE0F1092681010927A10B092D0
:102710004010A0923F102AC081E20E94740A892BC7
:1027200061F41092EE0F1092681081E080937A109D
:10273000D0924010C0923F1019C08FE10E94740ADD
:10274000892B11F40C94661F81E20E94740A892B74
:1027500011F40C94661F1092EE0F81E080936810C4
:1027600010927A10F0924010E0923F108EE20E9498
:10277000740A892B21F481E08093791002C01092B1
:1027800079108AE20E94740A019719F41092F00FEE
:1027900003C081E08093F00F80E20E94740A892BCD
:1027A00021F081E08093521002C01092521088E113
:1027B0000E94740A892B21F481E08093701002C07A
:1027C0001092701082E20E94740A892B19F4109200
:1027D000ED0F03C081E08093ED0F8AE10E94740A3F
:1027E000892B21F481E080933E1002C010923E10AC
:1027F00086E20E94740A892B21F481E080933D10C7
:1028000002C010923D1084E20E94740A892B61F488
:1028100081E0809361101092601010925F10B0926E
:102820005710A09256101EC084E20E94740A892B91
:1028300039F083E20E94740A892B11F00C94781FFE
:1028400083E20E94740A892B11F00C946C1F109281
:1028500061101092601081E080935F10D092571049
:10286000C092561089E10E94740A892B21F481E0FC
:102870008093EF0F02C01092EF0F88E20E94740A5B
:10288000892B21F481E08093F20F02C01092F20FA5
:102890008DE10E94740A892B21F481E080933C1021
:1028A00002C010923C108CE20E94740A892B21F421
:1028B00081E080933B1002C010923B1080913C104D
:1028C000882341F080913B10882321F081E08093A0
:1028D0005D1006C080917A10811102C010925D10C7
:1028E00080917E108111C2C580914810882391F09B
:1028F0008091F00F882359F080917210882311F095
:1029000060E001C061E085E30E949C0A03C0809101
:10291000F30FF4CF80914710882351F08091F30F8B
:10292000882311F060E001C061E08CE10E949C0A04
:10293000809150108111B0C06BE772E0CE0101961A
:1029400079DA62EC72E0CE01079674DA69E872E037
:10295000CE010D966FDA6FE972E0CE0143966ADA26
:102960008CEA92E134DB8FE248DA8CEA92E12FDBE9
:10297000CE0101962CDBCE01439629DB8CEA92E155
:1029800026DBCE01079623DBCE010D9620DB84EB00
:1029900092E08BD96DED72E18DEF91E10ADB8CEA6B
:1029A00092E115DB8FE229DA0E9430036EEB72E0D0
:1029B00082EB92E1FCDA81E090E088D96FEC72E082
:1029C00082EB92E1F4DA6DED72E182EB92E1F1DA01
:1029D000CE0143962ADACE010D9627DACE0107966C
:1029E00024DACE01019621DA64E670E080E090E01E
:1029F0000E94070B88E592E058D98CE7FED989E55B
:102A000091E0DAD966E572E08DEF91E10E947B07F3
:102A10008CE7F3D988E592E048D981E080935010A3
:102A200064E670E080E090E00E94070B64ED72E0E5
:102A3000CE010196FFD96DE073E0CE010796FAD979
:102A40006BE373E0CE010D96F5D9CE010196BFDAA6
:102A500069EA73E0CE014996EDD960E070E0CE01FD
:102A600049960E941704CE014996DFD965EB73E0C1
:102A7000CE014996DFD961E070E0CE0149960E940F
:102A80001704CE014996D1D9CE010D96CED9CE01EB
:102A90000796CBD90C947A1E80915310882309F4A1
:102AA0002FC680914F1081113AC064ED72E0CE01C3
:102AB0000196C0D96DE073E0CE010796BBD96BE3F8
:102AC00073E0CE010D96B6D9CE01079680DA81E08B
:102AD00080934F1065EC73E0CE014996ABD960E06E
:102AE00070E0CE0149960E941704CE0149969DD907
:102AF00061ED73E0CE0149969DD961E070E0CE01B1
:102B000049960E941704CE0149968FD9CE010D96A1
:102B10008CD9CE01079689D9CE01019686D98091AC
:102B20004E108111DBC18091EE0F882309F4D3C1CF
:102B300080917010882309F458C18091E60F8111AB
:102B400004C082E090E00E9441038091ED0F81116A
:102B500049C08091F30F811122C061E087E20E9499
:102B60009C0A60E089E20E949C0A61E085E30E9481
:102B70009C0A60E084E30E949C0A60E08CE10E9471
:102B80009C0A61E08FE20E949C0A61E08BE20E9455
:102B90009C0A61E081E30E949C0A60E021C060E041
:102BA00087E20E949C0A61E089E20E949C0A60E040
:102BB00085E30E949C0A61E084E30E949C0A61E034
:102BC0008CE10E949C0A60E08FE20E949C0A60E017
:102BD0008BE20E949C0A60E081E30E949C0A61E013
:102BE0008DE21EC061E087E20E949C0A61E089E2FA
:102BF0000E949C0A61E085E30E949C0A61E084E3F4
:102C00000E949C0A61E08CE10E949C0A61E08FE2D4
:102C10000E949C0A61E08BE20E949C0A61E081E3D1
:102C20000E949C0A80915210882379F081E0809361
:102C30007E1080934E10809349108093E80F80930C
:102C40004710809341100E94B1068091671061E0A7
:102C5000882309F4B1C085E00E94CB0AE7E8F1E0DF
:102C6000E4918E2F90E0FC013197E231F10508F0FC
:102C7000A1C08827EE58FF4F8F4F0C94532184B585
:102C8000806884BD86E987BD9EC084B5806284BDAE
:102C900086E988BD98C0809180008068809380001C
:102CA00010938900009388008EC08091800080621C
:102CB0008093800010938B0000938A0084C08091E1
:102CC000800088608093800010938D0000938C00BA
:102CD0007AC08091B00080688093B00086E98093CC
:102CE000B30071C08091B00080628093B00086E92B
:102CF0008093B40068C080919000806880939000B9
:102D000010939900009398005EC0809190008062BB
:102D10008093900010939B0000939A0054C0809180
:102D2000900088608093900010939D0000939C0019
:102D30004AC08091A00080688093A0008091A0008C
:102D40008F7B8093A0001093A9000093A8003BC044
:102D50008091A00080628093A0001093AB0000934C
:102D6000AA0031C08091A00088608093A0001093D9
:102D7000AD000093AC0027C0809120018068809353
:102D8000200110932901009328011DC0809120018A
:102D900080628093200110932B0100932A0113C0BD
:102DA0008091200188608093200110932D01009371
:102DB0002C0109C061E004C085E00E94CB0A60E0FC
:102DC00085E00E949C0A8091F00F882309F46FC06F
:102DD00060EE73E0CE0101962DD8CE0101960E94DF
:102DE0005202CE01019621D862C08091E70F811175
:102DF00004C081E090E00E9441038091F30F8111B3
:102E00002AC061E087E20E949C0A61E089E20E9498
:102E10009C0A61E085E30E949C0A61E084E30E94D1
:102E20009C0A61E08CE10E949C0A61E08FE20E94B2
:102E30009C0A61E08BE20E949C0A61E081E30E94AF
:102E40009C0A61E08BE10E949C0A61E083E30E949E
:102E50009C0A60E029C060E087E20E949C0A60E072
:102E600089E20E949C0A60E085E30E949C0A60E07F
:102E700084E30E949C0A60E08CE10E949C0A60E06E
:102E80008FE20E949C0A60E08BE20E949C0A60E054
:102E900081E30E949C0A60E08BE10E949C0A60E052
:102EA00083E30E949C0A61E08DE20E949C0A80916B
:102EB000EF0F882311F40C94621F0E94B10681E089
:102EC00080934E1060E08DE20E949C0A83E090E0C7
:102ED0000E944103C8C20E94B10690C78091491068
:102EE00081111FC18091E70F811104C081E090E042
:102EF0000E946C028091EE0F882309F40DC180912D
:102F0000E60F811104C082E090E00E946C02809183
:102F1000E50F811156C08091E40F811104C083E058
:102F200090E00E946C028091F30F882311F061E021
:102F300001C060E08CE10E949C0A809152108823BD
:102F4000E9F161E08CE10E949C0A80917810811186
:102F50000DC00E943F0B60937410709375108093A6
:102F600076109093771081E0809378102090741001
:102F70003090751040907610509077100E943F0B63
:102F8000AB01BC01421953096409750981E0493E4E
:102F900053406105710508F480E080937310882325
:102FA00009F442C081E08093E50F8091E30F811125
:102FB0003BC084E090E00E946C0236C01092781012
:102FC00033C08091E20F81112FC08091E10F8111F8
:102FD00004C085E090E00E946C028091E00F8111B6
:102FE0000AC08091F30F882311F061E001C060E016
:102FF00085E30E949C0A80917C108823A9F080912F
:10300000DF0F811104C086E090E00E946C02809185
:103010006D10882311F061E001C060E085E30E943B
:103020009C0A81E08093E00F8091E00F882309F4EF
:1030300049C780917C10811145C761E085E30E94FA
:103040009C0A81E08093E20F8091F30F882331F096
:103050008091EF0F811102C061E001C060E08DE25C
:103060000E949C0A8091EF0F882309F44AC061E016
:103070008DE20E949C0A8091781081110DC00E94FF
:103080003F0B60937410709375108093761090933B
:10309000771081E080937810209074103090751034
:1030A00040907610509077100E943F0BAB01BC010E
:1030B000421953096409750981E0453F5140610592
:1030C000710508F480E0809373108823E1F060E0DC
:1030D0008DE20E949C0A0E94B10661E08CE10E9490
:1030E0009C0A0E94320261E085E30E949C0A81E012
:1030F0008093491068EE73E080E090E00E94070B37
:1031000002C0109278108091DE0F8111DBC687E03B
:1031100090E00E946C02D6C660E08DE20E949C0A9C
:103120004BC180914810811109C18091E80F811134
:1031300048C090917E108091F10F91113EC088237C
:1031400019F00E94CF06BEC68091E70F81110BC017
:1031500082EF93E00E94550E87E194E00E94550EA5
:1031600081E08093E70F8091F30F882351F060E0B6
:1031700084E30E949C0A80917010882371F061E0C2
:1031800009C061E084E30E949C0A8091701088234A
:1031900021F060E08FE20E949C0A809170108823E9
:1031A00009F490C68091F20F882321F081E080938A
:1031B000F10F88C60E94B10685C6882309F482C62D
:1031C000C0CF61E085E30E949C0A8091E70F8111E6
:1031D00007C081E090E00E94600581E08093E70FE6
:1031E0008091EE0F882309F4E7C08091E60F8111EA
:1031F00007C082E090E00E94600581E08093E60FC6
:103200008091451081114EC08091EF0F8823E9F124
:1032100061E08DE20E949C0A8091781081110DC0BE
:103220000E943F0B6093741070937510809376101A
:103230009093771081E080937810209074103090F4
:10324000751040907610509077100E943F0BAB01A4
:10325000BC01421953096409750981E0453F514099
:103260006105710508F480E080937310882309F4E8
:1032700029C683E090E00E94600560E08DE20E9434
:103280009C0A81E0809345101DC68091F30F88232E
:1032900011F061E001C060E08DE20E949C0A109292
:1032A000781010C68091F00F882309F46DC061E09A
:1032B00084E30E949C0A8091781081110DC00E94C5
:1032C0003F0B6093741070937510809376109093F9
:1032D000771081E0809378102090741030907510F2
:1032E00040907610509077100E943F0BAB01BC01CC
:1032F000421953096409750981E04131574261055A
:10330000710508F480E080937310882309F4DAC50E
:1033100084E090E00E9460050E94B10660E084E3D2
:103320000E949C0A0E94320268EE73E080E090E006
:103330000E94070B81E080934810C4C5809147101C
:10334000882359F180914610811174C18091E70F53
:10335000811107C081E090E00E94310481E08093F8
:10336000E70F8091EE0F882339F18091E60F8111EC
:1033700007C082E090E00E94310481E08093E60F74
:103380008091F00F81111DC180916D10882311F083
:1033900061E001C060E084E380CF8091E70F81119C
:1033A00007C081E090E00E94BA0481E08093E70FBB
:1033B0008091EE0F811105C00E94B1061092E60FB8
:1033C00081C58091E60F811107C082E090E00E94E4
:1033D000BA0481E08093E60F80917910882309F484
:1033E000E7C061E083E30E949C0A8091781081111C
:1033F0000DC00E943F0B6093741070937510809302
:1034000076109093771081E080937810209074105C
:103410003090751040907610509077100E943F0BBE
:10342000AB01BC01421953096409750981E04938AF
:1034300053416105710508F480E08093731088237F
:1034400009F440C583E090E00E94BA0481E08093D3
:10345000471010924410109243100E94B10660E091
:1034600084E30E949C0A0E9432022CC59091EE0FC8
:1034700080917010911157C1882329F080917210AA
:10348000882309F44EC161E087E20E949C0A809182
:10349000531081110DC081E080937B1080937D10CB
:1034A00080937110909266108092651080936210E4
:1034B00080917C10882329F081E080937B10809399
:1034C0007D1080915210882339F081E080936C1038
:1034D00080936B1080937D1080917110811128C1B1
:1034E00080917B1081115FC180916C1081118FC11F
:1034F00080915310882309F4BCC161E085E20E94E9
:103500009C0A80917D10882309F4C5C180917C10AC
:103510008111D8C480917B10882309F4F0C36CE733
:1035200074E0CE0101960E941A0F60E070E0CE01B7
:1035300001960E941704CE0101960E94150F8091FA
:103540007A10882309F4BAC30E94300365E675E057
:1035500082EB92E10E94D70F0E942C0366E775E090
:1035600082EB92E10E94D70F63E875E0CE010196ED
:103570000E941A0F62E070E0CE0101960E941704CB
:10358000CE0101960E94150F66E975E0CE01019605
:103590000E941A0F63E070E0CE0101960E941704AA
:1035A000CE0101960E94150F80917910811144C3BC
:1035B00080917210882311F061E001C060E083E324
:1035C0006CCE61E084E30E949C0A809178108111A6
:1035D0000DC00E943F0B6093741070937510809320
:1035E00076109093771081E080937810209074107B
:1035F0003090751040907610509077100E943F0BDD
:10360000AB01BC01421953096409750981E0493BCA
:103610005B406105710508F480E080937310882396
:1036200009F450C483E090E00E94310481E080936B
:10363000461048C480914210811167C480913C11AA
:103640008111FCCF81E080933C1180933B119FEF6F
:1036500090933A11109239111092381180931711EA
:10366000809117118061809317118091161181301C
:1036700061F410921611809117118093BB00809114
:10368000BC0083FDF8CF85EC01C085EE8093BC00C3
:1036900080913C118130E1F380913911811103C097
:1036A0005090391102C055245394A8E1B1E1ECEBDC
:1036B000FFE08E2F8619851518F48D918193F9CF2F
:1036C0001092DC0F5092DD0F80E090E02091DC0F33
:1036D000521629F08AE992E10E949501F7CF0197ED
:1036E00009F016C48BE394E00E94550E81E08093AC
:1036F000421062E370E080E090E00E94070B05C496
:1037000060E08DE20E949C0A0E94B10610924F1068
:1037100010924D1010924C1010924B1010924A10B3
:10372000D1C360E0B1CE8823E1F380916D10A8CEC3
:103730008091511081112CC080917D10811109C0A0
:103740000E94B10660E08DE20E949C0A81E08093B5
:103750007D100E9430036EE674E082EB92E10E94DD
:10376000D70F4091651050916610052E000C660B26
:10377000770B77FF05C082EB92E10E94AF0F05C087
:103780002AE082EB92E10E94660F81E08093511063
:103790008091F30F882311F061E001C060E089E2BD
:1037A0000E949C0A9DCE80916210811121C00E94CE
:1037B000B10660E08DE20E949C0A61E08CE10E940B
:1037C0009C0A8CE794E00E94550E55245394509225
:1037D0007110109366100093651080916A1081112A
:1037E00004C00E947B0650926A1081E080936210B0
:1037F00080917C10882311F061E005C080916D10EC
:103800008823D1F360E085E30E949C0A6DCE80910D
:10381000691081111EC00E94B10660E08DE20E9415
:103820009C0A60E084E30E949C0A8BE894E00E947A
:10383000550E80916A10811103C081E080936A1057
:1038400064EF71E080E090E00E94070B81E08093DC
:10385000691080916B10882309F44ACE80916D1015
:10386000882311F060E001C061E08CE10E949C0AB5
:103870003FCE81E080937D1080937B100E94B10643
:1038800060E08DE20E949C0A8091F30F882309F486
:1038900034CE60E033CE80916110882309F4A1C159
:1038A0008091EE0F882309F495C180915E108111FB
:1038B0005EC19091ED0F809159109923F1F1882309
:1038C00009F44CC01092EC0F1092EB0F88E00E94AC
:1038D0004B0E80E090E00E94460E83E090E00E9454
:1038E000460E0E94E90D6AE070E080E090E00E94E0
:1038F000070B1092EA0F1092E90F88E00E944B0E1E
:1039000080E090E00E94460E80E090E00E94460E2B
:103910000E94E90D6AE070E080E090E00E94070BF1
:103920001092591080E090E00E94660E6DE974E0FC
:1039300082EB92E10E94D70F11C081110FC00E944B
:10394000450680E090E00E94660E6EEA74E082EB2D
:1039500092E10E94D70F81E0809359108091F20F7D
:10396000882309F44BC080915810882309F449C07A
:103970001092581080915A108823D1F010925A104A
:1039800017D360E08FE20E949C0A6FEB74E0CE01D7
:1039900001960E941A0FCE0101960E94E70FCE01F8
:1039A00001960E94150F0E942C0363ED74E01BC06A
:1039B00081E080935A100E94090661E08FE20E9424
:1039C0009C0A64EE74E0CE0101960E941A0FCE01AB
:1039D00001960E94E70FCE0101960E94150F0E94EA
:1039E0002C0366EF74E082EB92E10E94D70F64E64D
:1039F00070E080E090E00E94070B03C081E08093BC
:103A0000581080915610909157108130910579F49B
:103A100080915910882341F080915A10882321F019
:103A200081E080935B1016C010925B1013C082304F
:103A3000910511F0039771F480915910811105C01F
:103A400010925B101092551005C080915A10811190
:103A5000E7CFF6CF80915B10882309F47FC0809177
:103A60005410882331F061E08BE20E949C0A61E0EF
:103A700005C060E08BE20E949C0A60E081E30E9446
:103A80009C0A80915D10882309F4C1C080915E106A
:103A90008111BDC061E081E30E949C0A61E08BE27C
:103AA0000E949C0A60E08FE20E949C0A1092EC0F38
:103AB0001092EB0F88E00E944B0E80E090E00E9495
:103AC000460E82E090E00E94460E0E94E90D6AE0F8
:103AD00070E080E090E00E94070B1092EA0F1092D5
:103AE000E90F88E00E944B0E80E090E00E94460EB5
:103AF00080E090E00E94460E0E94E90D6AE070E0CE
:103B000080E090E00E94070B0E94300367E075E0C0
:103B100082EB92E10E94D70F0E942C0363E175E0D3
:103B200082EB92E10E94D70F0E947B0E60E080E062
:103B30000E94850E60E275E081ED92E10E94D70F50
:103B400061E080E00E94850E63E175E081ED92E125
:103B50000E94D70F81E080935E1059C060E08BE235
:103B60000E949C0A60E081E30E949C0A50C0809100
:103B70005D1081114CC00E9430036EEA74E082EB4C
:103B800092E10E94D70F0E942C0366EF74E082EB53
:103B900092E10E94D70F81E080935C1010925B103D
:103BA00080910002882399F010925A1060E08FE211
:103BB0000E949C0A8DE295E00E94550EF9D10E9468
:103BC0002C0363ED74E082EB92E10E94D70F109218
:103BD0005E101DC080916810811119C080917A100B
:103BE00006C080916010811112C080915F10811118
:103BF0000EC068E575E0CE0101960E941A0FCE0155
:103C000001960E945202CE0101960E94150F61E0BA
:103C100084E30E949C0A8091F30F882331F060E0D6
:103C200085E30E949C0A60E005C061E085E30E9494
:103C30009C0A61E08CE1E6C061E083E30E949C0A9B
:103C40008091781081110DC00E943F0B6093741019
:103C500070937510809376109093771081E0809325
:103C6000781020907410309075104090761050901D
:103C700077100E943F0BAB01BC0142195309640944
:103C8000750981E0413D57406105710508F480E008
:103C900080937310882309F415C160E083E30E94C8
:103CA0009C0A60E085E30E949C0A109264101092C6
:103CB000631010927B101092621004C10E943003B6
:103CC00066EA75E082EB92E10E94D70F0E942C0316
:103CD00064EB75E082EB92E10E94D70F66EC75E031
:103CE000CE0101960E941A0F63E070E0CE010196AA
:103CF0000E941704CE0101960E94150FE3C0809127
:103D00007110882309F481C080916810882309F418
:103D100075C087ED95E00E94550E40916510509159
:103D20006610052E000C660B770B77FF05C08DEF34
:103D300091E10E94AF0F05C02AE08DEF91E10E9452
:103D4000660F0E9430036EE674E082EB92E10E94FF
:103D5000D70F4091651050916610052E000C660B30
:103D6000770B77FF05C082EB92E10E94AF0F05C091
:103D70002AE082EB92E10E94660F8091651090919B
:103D8000661084369105C1F044F48832910589F0BB
:103D9000C897D9F48AEE95E01AC08E36910579F06D
:103DA0008639910579F08536910579F488E196E0B8
:103DB0000EC08FED95E00BC088E096E008C08AE366
:103DC00096E005C086E696E002C081E896E00E9493
:103DD000550E8091EF0F882369F061E08DE20E941B
:103DE0009C0A10926610109265108AE896E00E9474
:103DF000550E68C08091F30F882311F060E001C078
:103E000061E08DE20E949C0A5DC00E94300365E67D
:103E100075E082EB92E10E94D70F809170108823A9
:103E200031F08091F30F882311F061E001C060E070
:103E30008FE20E949C0A8091F20F882319F081E0A2
:103E40008093F10F40906E1050906F10EAE04E1684
:103E50005104FCF48091F00F882361F061E084E369
:103E60000E949C0A8FEF481A580A50926F10409295
:103E70006E1028C080916D10882311F061E001C0A0
:103E800060E084E30E949C0A10926F1010926E1002
:103E900019C061E084E30E949C0A10926F10109296
:103EA0006E1010926C1010926B1010927D10109288
:103EB0006A1081E08093691064EF71E080E090E027
:103EC0000E94070B0E9471080C94BA128DEB96E0C9
:103ED0000E94550E0C94B6138AE391E00E94DC0E0A
:103EE00066E572E08DEF91E10E947B070C9432143D
:103EF0001092611081E08093601010925F10F09238
:103F00005710E09256100C9432148CED96E002C0DB
:103F100080EF96E00E94550E0E947B060E940906E3
:103F20000E9445060E947B0E6CE574E081ED92E1F3
:103F30000E94D70F5524539450925A1061E08FE29B
:103F40000E949C0A5092591050927E10BBCFA8E656
:103F5000B0E0283010F40C940511E0E0F0E00C948F
:103F6000071186EA92E10E94150F8CEA92E10E9405
:103F7000150F83E392E09093B3128093B212809175
:103F8000BA0F9091BB0F825B924171F4E091C51220
:103F9000F091C61290818091C71280958923808309
:103FA0001092BB0F1092BA0F8DED92E10C94150F89
:103FB0001092EC0F1092EB0F85E090E09093EA0FD7
:103FC0008093E90F88E00E944B0E8091EB0F909157
:103FD000EC0F0E94460E8091E90F9091EA0F0E942B
:103FE000460E0E94E90D6AE070E080E090E00E94D9
:103FF000070B1092EC0F1092EB0F1092EA0F109239
:10400000E90F88E00E944B0E8091EB0F9091EC0F2E
:104010000E94460E8091E90F9091EA0F0E94460E91
:104020000E94E90D6AE070E080E090E00C94070BDC
:10403000CF92DF92EF92FF92109263111092621171
:1040400098EEC92E93E0D92EE12CF12CC092641188
:10405000D0926511E0926611F092671183E192E0CF
:1040600090936111809360112DEC30E030936D11CD
:1040700020936C112CEC30E030936F1120936E1173
:1040800028EC30E0309371112093701129EC30E06E
:1040900030937311209372112AEC30E03093751134
:1040A000209374112EEC30E0309377112093761129
:1040B0001092791110927A1110927B1110927C114A
:1040C000109200121092FF11C0920112D0920212AF
:1040D000E0920312F09204129093FE118093FD116E
:1040E00085EC90E090930A128093091284EC90E0A2
:1040F00090930C1280930B1280EC90E090930E1230
:1041000080930D1281EC90E09093101280930F1227
:1041100082EC90E0909312128093111286EC90E062
:104120009093141280931312109216121092171279
:10413000109218121092191210929D1210929C1245
:10414000C0929E12D0929F12E092A012F092A11201
:1041500083E292E090939B1280939A1265EA7FE04B
:104160008DED92E10E941A0F1092D4121092D31288
:1041700083E492E09093D2128093D11287E28093ED
:10418000D51284E18093DA1284E08093DB121092DE
:10419000DC121092B5121092B412C092B612D092E4
:1041A000B712E092B812F092B91283E392E09093C2
:1041B000B3128093B2121092C9121092C8121092C8
:1041C000CB121092CA121092CD121092CC121092F1
:1041D000CF121092CE126091D0126E7F6D7F6093DD
:1041E000D0126695617081E068278EE00E949C0A7B
:1041F00061E08EE00E94CB0AEAE6F2E0E491E0930F
:10420000C212E4E2F2E0E491F0E0EE0FFF1FEE51A3
:10421000FE4F859194919093C4128093C31260E0F5
:1042200080E00E94CB0A8091D01281FD04C061E041
:1042300080E00E949C0A1092BE12ECE5F2E0E4914C
:10424000E093BF12E6E1F2E0E491F0E0EE0FFF1F31
:10425000E450FE4F859194919093C1128093C012C7
:1042600068E572E08CEA92E10E941A0F60EB7FE051
:1042700086EA92E1FF90EF90DF90CF900C941A0FB6
:1042800097FB072E16F4009406D077FD08D013D0C4
:1042900007FC05D03EF4909581959F4F0895709549
:1042A00061957F4F0895EE0FFF1F881F8BBF07900A
:1042B000F691E02D1994AA1BBB1B51E107C0AA1F60
:1042C000BB1FA617B70710F0A61BB70B881F991FB7
:1042D0005A95A9F780959095BC01CD010895CF938B
:1042E000DF938230910510F482E090E0E091E612D5
:1042F000F091E71220E030E0C0E0D0E0309711F11B
:104300004081518148175907C0F04817590761F497
:1043100082819381209719F09B838A832BC090938D
:10432000E7128093E61226C02115310519F04217D5
:10433000530718F49A01BE01DF01EF010280F381F7
:10434000E02DDCCF2115310509F1281B390B243074
:10435000310590F412968D919C911397611571051A
:1043600021F0FB019383828304C09093E712809332
:10437000E612FD01329644C0FD01E20FF31F819366
:104380009193225031092D933C933AC02091E4122D
:104390003091E512232B41F4209103023091040265
:1043A0003093E5122093E412209101023091020231
:1043B0002115310541F42DB73EB7409105025091CA
:1043C0000602241B350BE091E412F091E512E2178E
:1043D000F307A0F42E1B3F0B2817390778F0AC0128
:1043E0004E5F5F4F2417350748F04E0F5F1F509305
:1043F000E5124093E4128193919302C0E0E0F0E073
:10440000CF01DF91CF9108950F931F93CF93DF9347
:10441000009709F48CC0FC0132971382128200913C
:10442000E6121091E7120115110581F42081318106
:10443000820F931F2091E4123091E512281739075B
:1044400079F5F093E512E093E41271C0D80140E0F1
:1044500050E0AE17BF0750F412962D913C91139780
:10446000AD012115310509F1D901F3CF9D01DA0123
:104470003383228360817181860F971F8217930790
:1044800069F4EC0128813981260F371F2E5F3F4FD9
:10449000318320838A819B8193838283452B29F4F6
:1044A000F093E712E093E61242C01396FC93EE936A
:1044B0001297ED01499159919E01240F351FE21782
:1044C000F30771F480819181840F951F02961196F4
:1044D0009C938E938281938113969C938E931297D3
:1044E000E0E0F0E0D80112968D919C91139700972F
:1044F00019F0F8018C01F6CF8D919C9198012E5FF7
:104500003F4F820F931F2091E4123091E51228173C
:10451000390769F4309729F41092E7121092E612E5
:1045200002C0138212821093E5120093E412DF910D
:10453000CF911F910F9108956F927F928F929F92CA
:10454000AF92BF92CF92DF92EF92FF920F931F93A1
:10455000CF93DF93EC01009781F4CB01DF91CF91F2
:104560001F910F91FF90EF90DF90CF90BF90AF9091
:104570009F908F907F906F90B2CEFC01E60FF71F57
:104580009C0122503109E217F30708F4A8C0D901B1
:104590000D911C91119706171707A8F0053011050A
:1045A00008F49BC0C80104978617970708F495C0C4
:1045B00002501109061B170B019311936D937C9305
:1045C000CF0122DF8AC05B01A01AB10A4C01800E24
:1045D000911EA091E612B091E71240E050E0E12C6C
:1045E000F12C109709F44AC0A815B905D1F56D90C2
:1045F0007C901197630182E0C80ED11CCA14DB04C1
:1046000080F1A3014A195B096A0182E0C80ED11C3E
:104610001296BC9012971396AC91B5E0CB16D104CC
:1046200040F0B282A38351834083D9016D937C9380
:104630000AC00E5F1F4FC301800F911FF9019183C4
:104640008083EB2DFA2FE114F10431F0D70113969A
:10465000FC93EE93129741C0F093E712E093E612B9
:104660003CC08D919C9111974817590708F4AC01F3
:104670007D0112960D90BC91A02DB3CF8091E412D4
:104680009091E51288159905E1F446175707C8F48B
:104690008091010290910202009741F48DB79EB77C
:1046A0004091050250910602841B950BE817F9070B
:1046B000B0F4F093E512E093E412F90171836083A2
:1046C0000CC0CB010CDE7C01009749F0A801BE01B3
:1046D0001BD0CE0199DEC70104C0CE0102C080E02C
:1046E00090E0DF91CF911F910F91FF90EF90DF90BD
:1046F000CF90BF90AF909F908F907F906F900895D4
:1047000081E090E0F89432C0FB01DC0102C001902E
:104710000D9241505040D8F70895FB01DC01019003
:104720000D920020E1F70895A1E21A2EAA1BBB1BEF
:10473000FD010DC0AA1FBB1FEE1FFF1FA217B3076D
:10474000E407F50720F0A21BB30BE40BF50B661F83
:10475000771F881F991F1A9469F760957095809547
:1047600090959B01AC01BD01CF01089511E0C2E518
:10477000D1E000E005C0802FFE0195DD2196011DEE
:0E478000C335D10780E00807B1F7F894FFCFEA
:10478E00010000E8128000000040001400540000F8
:10479E000000000A08BE0DCB07A907BD0750080090
:1047AE00000000E101B101A901950186018501001A
:1047BE000000003809BE0D8C09A3091F0937090036
:1047CE00000000E20BBE0D564D4450565F317C3159
:1047DE005F564D4450560D0A0057454C434F4D45BC
:1047EE000056657273696F6E3A20004279204D61F2
:1047FE0074742053746574736F6E00436F6E7472AD
:10480E006F6C2050616E656C0073746574736F6E9F
:10481E003240696C6C696E6F69732E656475004CFD
:10482E0061737420557064617465643A20392F3851
:10483E002F31360056455253494F4E3A20004259B9
:10484E003A204D4154542053544554534F4E005624
:10485E0045523A0050414E454C20504F574552203C
:10486E004953204F46462E20535749544348205013
:10487E00414E454C20544F204F4E20544F20424520
:10488E0047494E20535441525455502E00535749C8
:10489E0054434820544F204155544F204D4F4445CA
:1048AE0020544F20424547494E2050484153452001
:1048BE004920535441525455502E00415454454EA4
:1048CE0054494F4E3A20452D53544F502054455382
:1048DE00542C20452D53544F502052455345542CA3
:1048EE002026205741524E494E4720484F524E20C7
:1048FE0068617665206265656E20736B69707065A0
:10490E00642E20506C6561736520726573746172DC
:10491E007420696620746869732077617320612042
:10492E006D697374616B652E005354415455532059
:10493E003030313A0050414E454C20504F57455281
:10494E00204F464600535441545553203030323A8E
:10495E000053574954434820544F204155544F005B
:10496E005761726E696E6720686F726E2074657320
:10497E0074005072657373205269646520537461BC
:10498E00727420746F20636F6E74696E7565207318
:10499E0074617274757000507265737320726573F2
:1049AE00747261696E747320666F722066756E63C1
:1049BE0074696F6E73206D656E7500436F6E6E65F4
:1049CE006374656420746F204B6579626F617264E5
:1049DE002053696D756C61746F722100535441528E
:1049EE0054555020434F4D504C455445210045528F
:1049FE00524F523A2020202020202000452D535483
:104A0E004F5020505245535345440052494445207F
:104A1E0053544F5020505245535345440041495230
:104A2E0047415445533A20204F50454E21004149AD
:104A3E005247415445533A202020204F4B210052DB
:104A4E006573747261696E747320756E6C6F636BCF
:104A5E00656400524553545241494E54533A204FC7
:104A6E0050454E00526573747261696E7473206C9A
:104A7E006F636B656400524553545241494E545313
:104A8E003A20204F4B21005354415455532031307E
:104A9E00303A004449535041544348494E4721004F
:104AAE00535441545553203130303A2000526573DF
:104ABE00747261696E747320756E6C6F636B65646E
:104ACE00206265636175736520747261696E20730F
:104ADE00746F707065642E00554E4B4E4F574E20BE
:104AEE004D4F4445005052455353205249444520A2
:104AFE00535441525400544F204553522052455363
:104B0E00455400546F2072657365742045535220CE
:104B1E006C6F6F703A00507265737320455352205C
:104B2E00524553455400452D53544F502041435444
:104B3E004956450053776974636820746F20425953
:104B4E0050415353210053776974636820746F206A
:104B5E00425950415353004552524F523A2000434E
:104B6E004F4D4D204552524F5200494E5445524ED4
:104B7E00414C204552524F522E205345452044451C
:104B8E00425547204C4F470050414E454C204B4517
:104B9E00594544204F464600504F574552204B65CD
:104BAE00797377697463682077617320737769749A
:104BBE0063686564206F66662E0050616E656C20BA
:104BCE0077617320696E61637469766520666F72B2
:104BDE0020746F6F206C6F6E672E2054696D656444
:104BEE00206F75742E004D61696E2070616E656C5C
:104BFE0020652D73746F70207072657373656421F8
:104C0E00004E4F204552524F52004572726F722025
:104C1E00436C65617265642E205072657373205407
:104C2E00524F55424C4520746F2072657365742E39
:104C3E00004572726F722052657365740050524F48
:104C4E004752414D4D204552524F523A20554E4BF0
:104C5E004E4F574E204D4F44452121004B657962F2
:104C6E006F61726420436F6E6E65637465642E00AF
:104C7E004B6579626F61726420636F6E6E656374EB
:104C8E00696F6E206661696C6564004445425547E4
:104C9E003A20200053776974636820746F20415561
:104CAE00544F204D4F444520746F20636F6E7469CE
:104CBE006E756520737461727475702E0053544155
:104CCE00525455503A2050484153452049005354B0
:104CDE004F502054455354005048415345204920CD
:104CEE00535441525455503A2053544F502054452A
:104CFE0053543B20456E7375726520616C6C207346
:104D0E00746F7020627574746F6E732066756E6347
:104D1E0074696F6E20636F72726563746C792E00A6
:104D2E00524944452053544F5020544553543A2031
:104D3E00507265737320524944452053544F5000AE
:104D4E00524944452053544F502066756E63746922
:104D5E006F6E696E6720636F72726563746C792E05
:104D6E0000454D455247454E43592053544F502010
:104D7E00544553543A20507265737320454D455235
:104D8E0047454E43592053544F502100507265737E
:104D9E007320454D455247454E43592053544F506D
:104DAE0000454D455247454E43592053544F5020D0
:104DBE00505245535345443A2050756C6C207570D3
:104DCE0020454D455247454E43592053544F5000B0
:104DDE0050756C6C20454D455247454E43592053F6
:104DEE00544F502000452D53544F502066756E631E
:104DFE0074696F6E696E6720636F72726563746C2F
:104E0E00792E0053544F50205445535420434F4D48
:104E1E00504C4554452E2050726573732041434BC0
:104E2E004E4F574C4544474520746F20636F6E7448
:104E3E00696E7565210053746F70207465737420EC
:104E4E00636F6D706C65746500507265737320418D
:104E5E00434B4E4F574C4544474520202000554B61
:104E6E004E4F574E20434153452073746F70546517
:104E7E00737453657269616C005068617365204983
:104E8E0020737461727475703A204C414D502054E9
:104E9E004553543A20456E7375726520616C6C20D3
:104EAE006C616D70732066756E6374696F6E2063CE
:104EBE006F72726563746C792E0050726573732015
:104ECE0041434B4E4F574C4544474520746F20632A
:104EDE006F6E6669726D20616C6C206C616D7073A3
:104EEE002066756E6374696F6E2070726F70657276
:104EFE006C7920616E6420636F6E74696E756520C7
:104F0E00737461727475702E004558545241204668
:104F1E00554E4354494F4E533A20005377697463AC
:104F2E006820454E5452414E434520474154455307
:104F3E0020746F204F50454E20746F207475726E22
:104F4E0020616C6C206C616D707320736F6C696482
:104F5E002E00507265737320616E6420686F6C64EE
:104F6E002054524F55424C4520666F722053544187
:104F7E005254555020484F524E20746573742E0073
:104F8E00507265737320616E6420686F6C6420527A
:104F9E0049444520535441525420666F7220574164
:104FAE00524E494E47204D45535341474520746557
:104FBE0073740050726573732052494445205354E4
:104FCE004F5020746F206279706173732073746117
:104FDE0072747570203D3E204D41494E5441494EEC
:104FEE00454E4345204F4E4C5921004C414D5020CB
:104FFE005445535420434F4D504C4554452E004379
:10500E00616E6E6F7420636F6D706C657465206C6D
:10501E00616D7020746573742E200A205377697445
:10502E00636820474154455320746F20434C4F53BF
:10503E0045442E004C414D5020544553540050725F
:10504E006573732041434B4E4F574C4544474500C3
:10505E004C414D5020544553543A004558545241FA
:10506E002046554E4354494F4E53002020202020B9
:10507E002020202020202020202020202020200042
:10508E00535441525455503A2050484153452049AB
:10509E0049490053776974636820746F20415554F1
:1050AE004F204D4F444500504841534520494949F2
:1050BE0020535441525455503A205249444520539E
:1050CE005441525400452D53544F50205245534590
:1050DE00543A20507265737320616E6420686F6C51
:1050EE0064205249444520535441525420746F2039
:1050FE00636F6D706C657465207374617274757016
:10510E002E00546F20636F6D706C65746520737420
:10511E0061727475703A00486F6C64205249444550
:10512E002053544152540052494445205354415245
:10513E005445440046494E414C5354415254205319
:10514E00455249414C00452D53544F502052455322
:10515E0045543A00535441525455503A2050484108
:10516E005345204949005048415345204949205351
:10517E005441525455503A20452D53544F502052BD
:10518E004553455400452D53544F502052455345D9
:10519E00543A20507265737320616E6420686F6C90
:1051AE0064205249444520535441525420746F2078
:1051BE00726573657420455352204C4F4F50005406
:1051CE006F20726573657420657372206C6F6F70DB
:1051DE003A00486F6C642045535220524553455453
:1051EE0000452D53544F502052455345542053558E
:1051FE00434345535346554C004553525354415225
:10520E00542053455249414C005048415345204982
:10521E004920535441525455503A205354415254FC
:10522E005550205741524E494E4700535441525407
:10523E005550205741524E494E473A204348454318
:10524E004B205448415420414C4C20474154455327
:10525E00204152452053454355524520414E44204E
:10526E0052494445204152454120434C454152212B
:10527E000050524553532041434B4E4F574C4544DB
:10528E00474520544F20434F4E4652494D205341DF
:10529E00464520544F204F5045524154452100431E
:1052AE004845434B20524944452041524541212116
:1052BE000053414645204F5045524154494F4E20D0
:1052CE00434F4E4652494D4544213A205072657324
:1052DE007320616E6420686F6C64205249444520CF
:1052EE00535441525420746F207265736574204973
:1052FE004E4954494154452053544152545550003F
:10530E0053544152545550205741524E494E472006
:10531E00535543434553530046554E4354494F4E00
:10532E0053204D454E553A202850414745203120B7
:10533E004F462033293B204F5045524154494F4E42
:10534E00532046554E4354494F4E53004C4541440D
:10535E002F53555045525649534F5253204F4E4C92
:10536E00592100504147452031413A204C45414496
:10537E002D41434345535341424C452046554E43E0
:10538E0054494F4E53005072657373204C4F434B2C
:10539E0020524553545241494E545320746F207439
:1053AE006F67676C65204155544F4D4154494320FA
:1053BE00524553545241494E545320554E4C4F432F
:1053CE004B00507265737320444953504154434807
:1053DE0020524947485420746F204C49535420435F
:1053EE00555252454E54204F5045524154494F4EFE
:1053FE00532053455454494E475300466F72206D07
:10540E006F7265206F7074696F6E732C207377697D
:10541E0074636820474154455320746F204F5045A4
:10542E004E00524553545241494E54532057494C05
:10543E004C204E4F57204155544F4D4154494341F6
:10544E004C4C5920554E4C4F434B20494E20415504
:10545E00544F4D41544943204D4F44452100524530
:10546E0053545241494E54532057494C4C204E4FA1
:10547E00204C4F4E474552204155544F4D415449B3
:10548E0043414C4C5920554E4C4F434B2120494ED5
:10549E00204155544F4D41544943204D4F444500F2
:1054AE00504147452032413A2053555045525649B6
:1054BE00534F522D41434345535341424C45204691
:1054CE00554E4354494F4E530050726573732044EA
:1054DE004953504154434820524947485420666F1F
:1054EE007220444953504154434820544F47474C2F
:1054FE00450053555045525649534F52204D4F4437
:10550E004520454E41424C4544210053555045528D
:10551E005649534F52204D4F444520444953414222
:10552E004C45442100352E302E30206465763200F5
:08553E0044454255473A2000A4
:00000001FF
