:1000000052C1000080C100007EC100007CC1000020
:100010007AC1000078C1000076C1000074C1000000
:1000200072C1000072C4000070C400006EC4000001
:100030006AC1000068C1000066C1000064C1000020
:1000400062C1000060C100005EC100005CC1000030
:100050005AC1000058C1000056C100000C94EB08C2
:1000600052C100001CC40000F1C300004CC10000DC
:100070004AC1000048C1000046C1000044C1000060
:1000800042C1000040C100003EC100003CC1000070
:100090003AC1000038C1000036C10000B4C40000FD
:1000A00032C1000030C100002EC100002CC1000090
:1000B0002AC1000028C1000026C1000024C10000A0
:1000C00022C1000020C100001EC100001CC10000B0
:1000D0001AC1000018C1000016C1000014C10000C0
:1000E00012C10000F00DF50DFA0D040E0E0E870E74
:1000F000180E200E280E320E3C0E460E550E5F0EC8
:10010000870E690E730E7D0E8C069F06B206B90629
:10011000C006D306E60643074607350739073F07FB
:100120007D074A074E07540758075C0762076607B2
:100130006A077D0770077407780750524F4752418E
:100140004D4D204552524F523A20554E4B4E4F572F
:100150004E205459504521210052454144204F50D2
:1001600045524154494E4720494E535452554354E9
:10017000494F4E53204245464F5245205553452145
:10018000210000002100240027002A002D0030005B
:10019000330001010000040107010A0100000A0BFD
:1001A00002090C0D0E080703040100000000000006
:1001B000000000000000000000000000000000003F
:1001C00000000000000000001211100000000000FC
:1001D000000000000000000000000000000000001F
:1001E000000000002200250028002B002E00310016
:1001F000340002010000050108010B01000020008D
:100200002300260029002C002F00320000010000EE
:100210000301060109010505050507050808080889
:10022000020202020A0A080804040404010101018E
:100230000101010103030303030303030407070789
:100240000C0C0C0C0C0C0C0C02020202060606062E
:10025000060606060B0B0B0B0B0B0B0B01021020FB
:1002600020080810204010204080020102010804EC
:100270000201010204081020408080402010080480
:1002800002018004020180402010080402010804D9
:10029000020101020408102040800102040810201D
:1002A0004080DC12B51211241FBECFEFD1E2DEBFB9
:1002B000CDBF00E00CBF1AE0A0E0B2E0E2E3FCE258
:1002C00000E00BBF02C007900D92A43DB107D9F723
:1002D0002CE0A4EDBAE001C01D92A43CB207E1F706
:1002E00011E0C2E5D1E000E006C021970109802FAE
:1002F000FE010E94C713C135D10780E00807A9F7A6
:10030000B4D70C9408167CCECF92DF92EF92FF9276
:100310000F931F93CF93DF936C017A018B01C0E0A1
:10032000D0E0CE15DF0589F0D8016D918D01D601A1
:10033000ED91FC910190F081E02DC6011995892B7A
:1003400011F47E0102C02196ECCFC701DF91CF915D
:100350001F910F91FF90EF90DF90CF900895FC01D7
:10036000918D828D981761F0828DDF01A80FB11DEC
:100370005D968C91928D9F5F9F73928F90E0089510
:100380008FEF9FEF0895FC01918D828D981731F0CA
:10039000828DE80FF11D858D90E008958FEF9FEF1E
:1003A0000895FC01918D228D892F90E0805C9F4FF4
:1003B000821B91098F73992708958DED9BE0F1DFE2
:1003C00021E0892B09F420E0822F0895FC01848D1F
:1003D000DF01A80FB11DA35ABF4F2C91848D90E06F
:1003E00001968F739927848FA689B7892C93A0894A
:1003F000B1898C9180648C93938D848D981306C001
:100400000288F389E02D80818F7D80830895EF92AB
:10041000FF920F931F93CF93DF93EC0181E0888FBE
:100420009B8D8C8D981305C0E889F989808185FDA5
:1004300023C0F62E0B8D10E00F5F1F4F0F73112797
:10044000E02E8C8DE8120BC00FB607FCFACFE889BE
:10045000F989808185FFF5CFCE01B8DFF2CF8B8D92
:10046000FE01E80FF11DE35AFF4FF0820B8FEA897E
:10047000FB898081806207C0EE89FF896083E889FB
:10048000F98980818064808381E090E0DF91CF9161
:100490001F910F91FF90EF900895CF93DF93EC01A0
:1004A000888D8823C1F0EA89FB89808185FD05C09C
:1004B000A889B9898C9186FD0EC00FB607FCF5CFCF
:1004C000808185FFF2CFA889B9898C9185FFEDCF16
:1004D000CE017CDFE8CFDF91CF91089580E090E0FE
:1004E000892B19F06ADF811125C080E090E0892B0B
:1004F00041F080E090E0892B21F00E940000811102
:100500001CC080E090E0892B41F080E090E0892BD6
:1005100021F00E940000811113C080E090E0892B3F
:10052000A1F080E090E0892B81F00E940000811111
:100530000AC008950E940000D8CF0E940000E1CFB9
:100540000E940000EACF0C94000008952091D60A82
:100550003091D70A2817390771F49091D40A809105
:10056000D50A981741F0E091D40AF0E0E356F44F31
:10057000808190E008958FEF9FEF089508951F9375
:10058000CF93DF93DC015C962D913C915D97211513
:10059000310539F481E090E013969C938E93129785
:1005A0003DC05196ED91FC91529750969C91509779
:1005B000892F80951FB75E964C915E9741FB7727F8
:1005C00070F941FD6095F8944081772311F0492B33
:1005D00001C048234083E9012197F1F748E05081A9
:1005E00060FF02C0592B01C058235083E9012197B5
:1005F000F1F76695415099F7772321F0908189238F
:10060000808303C08081982B90831FBF5C968D915F
:100610009C915D970197F1F721E030E0C901DF91EE
:10062000CF911F9108952091D60A3091D70A2817AB
:10063000390769F48091D50A2091D40A90E0805C52
:100640009F4F821B910960E470E00C94B41380E02A
:1006500090E008952091D60A3091D70A28173907DB
:10066000B9F49091D40A8091D50A981789F0E09155
:10067000D40AF0E0E356F44F80812091D40A30E0B0
:100680002F5F3F4F2F7333272093D40A90E00895B4
:100690008FEF9FEF089508958FEF9FEF08958FEFED
:1006A0009FEF089580919C0B90E091958195910921
:1006B000089585ED8093BC008091BC0084FDFCCF43
:1006C0001092760B08954091500B262F30E0240FA6
:1006D000311D21323105DCF42091760B2430C9F430
:1006E000FC0180E090E0861758F43091500B219186
:1006F000DC01A25DB44FA30FB11D2C930196F3CF83
:100700008091500B680F6093500B80E0089581E05A
:10071000089582E00895CF93DF931F921F92CDB783
:10072000DEB7CB01642F49835A83CDDF4981842F03
:100730005A81952F0F900F90DF91CF910895CF930D
:10074000DF931F92CDB7DEB7698361E0CE010196DA
:10075000BADF81E090E00F90DF91CF9108950E9481
:10076000F415FC01808191810C947814EF92FF9232
:100770000F931F93CF93DF93EC01198218821B8292
:100780001A821D821C8261157105A9F17B01FB0192
:1007900001900020E9F731978F01061B170BB80174
:1007A0006F5F7F4F80E090E00E941015009759F036
:1007B000998388831B830A832C813D81232B81F4B9
:1007C000FC0110820DC088819981009711F00E9470
:1007D0007814198218821D821C821B821A820BC017
:1007E0001D830C83B701DF91CF911F910F91FF9073
:1007F000EF900C940116DF91CF911F910F91FF9014
:10080000EF900895DC01ED91FC91DB0114964D9180
:100810005C9115976D917C910280F381E02D199484
:100820006115710579F0FB0101900020E9F731971E
:10083000AF01461B570BDC01ED91FC910280F38167
:10084000E02D199480E090E00895EACF1F920F9276
:100850000FB60F9211240BB60F922F933F934F9325
:100860005F936F937F938F939F93AF93BF93EF9318
:10087000FF938DED9BE0AADDFF91EF91BF91AF91CA
:100880009F918F917F916F915F914F913F912F91A8
:100890000F900BBE0F900FBE0F901F9018951F92D8
:1008A0000F920FB60F9211240BB60F922F938F93C6
:1008B0009F93EF93FF93E091ED0BF091EE0B80810E
:1008C000E091F30BF091F40B82FD12C090818091C6
:1008D000F60B8F5F8F732091F70B821751F0E09129
:1008E000F60BF0E0E352F44F958F8093F60B01C0C6
:1008F0008081FF91EF919F918F912F910F900BBE6F
:100900000F900FBE0F901F9018951F920F920FB669
:100910000F9211240BB60F922F933F934F935F9337
:100920006F937F938F939F93AF93BF93EF93FF93B7
:10093000E091D60AF091D70A309709F451C0968D0C
:10094000A685B785858591FF04C09C91892329F4EC
:1009500047C09C91892309F043C0A389B4899C9125
:100960008589809589238C93868997890197F1F7EA
:10097000608D718DA685B785558538E020E0CB0167
:100980000197F1F7822F90E095958795282F4C914C
:10099000452309F02068315091F7868D81FD20951F
:1009A0008091D50A90E001968F7399273091D40AEF
:1009B000381749F0A091D50AB0E0A356B44F2C9354
:1009C0008093D50A03C0868D8160868F828D938D3A
:1009D0000197F1F7A389B4899C918589892B8C9320
:1009E000FF91EF91BF91AF919F918F917F916F9107
:1009F0005F914F913F912F910F900BBE0F900FBEC3
:100A00000F901F9018951F920F920FB60F921124FE
:100A10000BB60F922F933F934F935F936F937F93F8
:100A20008F939F93AF93BF93EF93FF938091B90000
:100A3000887F803609F49CC068F5883209F45BC071
:100A400090F4803109F454C038F4882309F4F6C0D6
:100A5000883009F44DC0F5C0883109F44CC08032AB
:100A600009F45DC0EEC0803409F468C048F48033F6
:100A700009F455C0883309F0E4C08093750BD8C0E1
:100A8000803509F44FC0883509F45DC0883409F019
:100A9000D8C0D6C0883909F4C7C0A8F4883709F48B
:100AA00067C038F4883609F463C0803709F460C041
:100AB000C8C0883809F4B8C0803909F45FC08038EC
:100AC00009F0BFC05BC0803B09F486C038F4803AAF
:100AD00009F466C0883A09F47FC0B3C0803C09F4C9
:100AE000A7C0883C09F4A4C0883B09F48AC0A9C007
:100AF00080919B0B10C090919A0B8091990B981745
:100B000070F5E0919A0B81E08E0F80939A0BF0E0E4
:100B1000E758F44F80818093BB0085EC86C08093BA
:100B2000750B8EC0E0919A0B81E08E0F80939A0B2B
:100B30008091BB00F0E0E758F44F808390919A0BCE
:100B40008091990B6EC0E0919A0B81E08E0F80939B
:100B50009A0B8091BB00F0E0E758F44F80838091BE
:100B6000780B81116DC081E08093770B84EA61C0BE
:100B700083E08093760B1092740BCFCF8091740B2F
:100B8000803208F051C0E091740B81E08E0F8093A9
:100B9000740B8091BB00F0E0EC5AF44F8083BDCF22
:100BA00085EC8093BC001092760B8091740B8032A0
:100BB00030F4E091740BF0E0EC5AF44F1082609145
:100BC000740B70E0E091520BF091530B84E59BE0C5
:100BD00019951092740B35C084E08093760B1092B7
:100BE000510B1092500BE0914E0BF0914F0B199559
:100BF0008091500B811105C081E08093500B1092C1
:100C00002E0BE091510B81E08E0F8093510BF0E0A1
:100C1000E25DF44F80818093BB009091510B8091F5
:100C2000500B981708F479CF85E88093BC0009C071
:100C300085EC8093BC001092760B03C01092750B6C
:100C400038DDFF91EF91BF91AF919F918F917F918F
:100C50006F915F914F913F912F910F900BBE0F902D
:100C60000FBE0F901F9018951092E10A1092E00AA3
:100C70001092DE0A1092DD0A1092DB0A1092D90A55
:100C80001092D80A10922D0B10922C0B10922B0B55
:100C90001092DF0A1092DC0A1092DA0A68EE73E012
:100CA00080E090E03FC2CF93DF93EC016BE179E00D
:100CB0008DED9BE0CADDBE018DED9BE0A3DD75D11E
:100CC0006AE070E080E090E0DF91CF912BC281E09C
:100CD00090E060C26EEF8AE79CE051DC61E08AE759
:100CE0009CE04DDC80E090E055D26AE070E080E06E
:100CF00090E018C2CF93DF9300D000D0CDB7DEB71D
:100D0000FC013197E730F10508F076C08827EC57F1
:100D1000FF4F8F4F0C94C71382E197E035D1DADF94
:100D200064E279E08AE79CE090DDD1DF62E273E083
:100D30008AE79CE08ADD81E08093E10A68C08FE267
:100D400099E022D1C7DF64E279E08AE79CE07DDDAB
:100D5000BEDF67E779E08AE79CE077DD81E080939A
:100D6000E00A55C087E899E00FD181E08093DE0A60
:100D70004EC087EA99E008D181E08093DD0A47C040
:100D800088EC99E001D1A6DF64E279E08AE79CE093
:100D90005CDD9DDF63EF79E08AE79CE056DD81E072
:100DA0008093DB0A34C080E09AE0EED093DF64E207
:100DB00079E08AE79CE049DD8ADF6FE27AE08AE742
:100DC0009CE043DD81E08093D90A21C08BE39AE067
:100DD000DBD089E59AE0D8D07DDF6CE87AE08AE75D
:100DE0009CE033DD74DF6AE97AE08AE79CE02DDD80
:100DF00081E08093D80A0BC064EA7AE0CE010196C4
:100E0000B5DCCE0101964FDFCE010196AADC269615
:100E10000FB6F894DEBF0FBECDBFDF91CF9108951E
:100E200060E08BE214D160E081E311D160E085E302
:100E30000ED160E084E30BD160E083E308D160E091
:100E40008FE205D160E089E202D160E087E2FFC075
:100E500090E0FC013197E231F10508F04EC088279F
:100E6000E557FF4F8F4F0C94C713809180008F7709
:100E700003C0809180008F7D8093800008958091D1
:100E80008000877FF9CF84B58F7702C084B58F7DCE
:100E900084BD08958091B0008F7703C08091B00029
:100EA0008F7D8093B0000895809190008F7707C068
:100EB000809190008F7D03C080919000877F809308
:100EC000900008958091A0008F7707C08091A000C6
:100ED0008F7D03C08091A000877F8093A00008953C
:100EE000809120018F7707C0809120018F7D03C002
:100EF00080912001877F8093200108953FB7F89467
:100F00008091B00C9091B10CA091B20CB091B30C47
:100F100026B5A89B05C02F3F19F00196A11DB11D54
:100F20003FBFBA2FA92F982F8827820F911DA11D8F
:100F3000B11DBC01CD0142E0660F771F881F991FCC
:100F40004A95D1F708950F931F93CF93DF938C01A8
:100F5000C0E0D0E0F801EC0FFD1F6491662371F052
:100F6000E091DD0BF091DE0B0190F081E02D8DED35
:100F70009BE01995892B11F02196ECCFCE01DF91E2
:100F8000CF911F910F910895CF93DF93BC018DED09
:100F90009BE046DCEC0167E372E08DED9BE040DC1A
:100FA0008C0F9D1FDF91CF910895CF93DF936FE951
:100FB0007CE08DED9BE026DCEC0167E372E08DEDDB
:100FC0009BE02EDC8C0F9D1FDF91CF910895CF9376
:100FD000DF93E091DD0BF091DE0B0190F081E02DCD
:100FE000682F8DED9BE01995EC0167E372E08DEDC4
:100FF0009BE016DC8C0F9D1FDF91CF910895CF935E
:10100000DF93282F30E0F901E456FE4F8491F90177
:10101000E45AFD4FD491F901EA5EFD4FC491CC230F
:1010200089F0811115DFEC2FF0E0EE0FFF1FE45087
:10103000FE4FA591B491EC91ED2381E090E021F475
:1010400080E002C080E090E0DF91CF9108951F938F
:10105000CF93DF93282F30E0F901E456FE4F8491BF
:10106000F901E45AFD4FD491F901EA5EFD4FC491B4
:10107000CC23C1F0162F8111EBDEEC2FF0E0EE0F48
:10108000FF1FEE51FE4FA591B4918FB7F894111147
:1010900005C09C91ED2FE095E92302C0EC91ED2B6A
:1010A000EC938FBFDF91CF911F910895CF93DF9382
:1010B00090E0FC01E45AFD4F2491FC01EA5EFD4FF3
:1010C0008491882361F190E0880F991FFC01EE570D
:1010D000FE4FC591D491FC01EE51FE4FA591B49104
:1010E000611109C09FB7F894888120958223888375
:1010F000EC912E230BC0623061F49FB7F8943881D5
:10110000822F809583238883EC912E2B2C939FBF75
:1011100006C08FB7F894E8812E2B28838FBFDF910C
:10112000CF9108958F929F92AF92BF92CF92DF920C
:10113000EF92FF926B017C01E1DE4B015C01C11477
:10114000D104E104F104E9F0D9DEDC01CB01881916
:101150009909AA09BB09883E9340A105B10578F316
:1011600021E0C21AD108E108F10888EE880E83E078
:10117000981EA11CB11CC114D104E104F10421F793
:10118000DECFFF90EF90DF90CF90BF90AF909F9019
:101190008F900895CF93C82F6EEF8AE79CE0EFD928
:1011A0006C2F6295660F660F607C60588AE79CE042
:1011B000E6D96AE070E080E090E0CF91B3CF2FB73E
:1011C000F8946091AC0C7091AD0C8091AE0C909144
:1011D000AF0C2FBF08951F920F920FB60F921124DC
:1011E0002F933F938F939F93AF93BF938091AC0CBA
:1011F0009091AD0CA091AE0CB091AF0C3091AB0CB6
:1012000023E0230F2D3720F40196A11DB11D05C049
:1012100026E8230F0296A11DB11D2093AB0C8093ED
:10122000AC0C9093AD0CA093AE0CB093AF0C80912E
:10123000B00C9091B10CA091B20CB091B30C01968E
:10124000A11DB11D8093B00C9093B10CA093B20C72
:10125000B093B30CBF91AF919F918F913F912F911C
:101260000F900FBE0F901F901895CF93DF9300D073
:1012700000D0CDB7DEB7789484B5826084BD84B5E4
:10128000816084BD85B5826085BD85B5816085BD81
:1012900080916E00816080936E0010928100809139
:1012A00081008260809381008091810081608093C1
:1012B0008100809180008160809380008091B100E6
:1012C00084608093B1008091B00081608093B00011
:1012D0008091910082608093910080919100816063
:1012E0008093910080919000816080939000809124
:1012F000A10082608093A1008091A1008160809311
:10130000A1008091A00081608093A00080912101C4
:10131000826080932101809121018160809321016D
:101320008091200181608093200180917A00846007
:1013300080937A0080917A00826080937A00809115
:101340007A00816080937A0080917A00806880932F
:101350007A001092C100E091ED0BF091EE0B82E06B
:101360008083E091E90BF091EA0B1082E091EB0BA6
:10137000F091EC0B8FEC80831092F50BE091F10B68
:10138000F091F20B86E08083E091EF0BF091F00B8F
:10139000808180618083E091EF0BF091F00B808180
:1013A00088608083E091EF0BF091F00B8081806882
:1013B0008083E091EF0BF091F00B80818F7D808333
:1013C0001092950C1092940C1092930C1092920C17
:1013D0001092910C1092900C8DE991E09093970CE3
:1013E0008093960C8091860C96EF980F943048F07D
:1013F0002EEC280F243028F022EC280F283008F09B
:1014000070C02DEB30E03093910C2093900C2BE9C1
:1014100031E03093930C2093920C2CE231E0309326
:10142000950C2093940C943070F02EEC280F2430FF
:1014300050F022EC280F283010F40C94AB12A0E0EE
:10144000B0E00C94AD12A8E6B0E0E8E6F0E0208150
:10145000943018F08E53883010F081E001C084E0A1
:10146000822B8C938091860C96EF980F943058F0D5
:101470002EEC280F243038F022EC280F283030F0E2
:1014800020E030E005C02BE630E002C02DE630E081
:1014900030938E0C20938D0C943010F49AEF0BC087
:1014A000823381F0833381F0843381F092EC980FA2
:1014B000983070F492EC980F81E001C0880F9A95F3
:1014C000EAF707C088E005C084E003C082E001C0FD
:1014D00081E080938F0C8091960C9091970C0197EE
:1014E000F1F78091940C9091950C892B49F1E09142
:1014F000D60AF091D70A2CE0EA37F20709F13097C3
:1015000039F0A389B4899C918589809589238C932E
:101510008091980C8E7F8093980C1092D50A10922F
:10152000D40A8AE79CE09093D70A8093D60AE09188
:101530008D0CF0918E0C908180918F0C892B808383
:10154000C9DB80E090E026DE60E089E1AFDD60E0AD
:1015500080E3ACDD60E08EE1A9DD60E08FE1A6DD37
:1015600060E081E2A3DD60E08EE2A0DD60E082E386
:101570009DDD60E082E29ADD60E084E297DD60E07C
:1015800083E294DD60E086E291DD60E088E28EDD5A
:1015900060E08DE18BDD60E08CE288DD60E08AE276
:1015A00085DD61E085E282DD61E087E27FDD61E08B
:1015B00089E27CDD61E085E379DD61E083E376DD6E
:1015C00061E084E373DD61E08DE270DD61E08FE274
:1015D0006DDD61E08BE26ADD61E081E367DD61E0A2
:1015E00089E135DD61E080E332DD61E08EE12FDD10
:1015F00061E08FE12CDD61E081E229DD61E08EE2D6
:1016000026DD61E082E323DD61E082E220DD61E04E
:1016100084E21DDD61E083E21ADD61E088E217DD2E
:1016200061E086E214DD61E08DE111DD61E08CE2D4
:101630000EDD61E08AE20BDD11E082E0C82ED12CE4
:1016400093E0A92EB12C88248394912C36E9E32EC3
:10165000F12C06E9B4DD4090E30A5090E40A609072
:10166000E50A7090E60A9B01AC0124193509460988
:10167000570929013A0135E6431651046104710402
:1016800088F06093E30A7093E40A8093E50A9093EC
:10169000E60A8091E20A811103C01093E20A02C0B7
:1016A0001092E20A8CDD4090E70A5090E80A6090C0
:1016B000E90A7090EA0A9B01AC0124193509460930
:1016C000570929013A013BEF4316510461047104A3
:1016D00088F06093E70A7093E80A8093E90A909390
:1016E000EA0A80911F0B811103C010931F0B02C0E7
:1016F00010921F0B64DD4090EB0A5090EC0A609052
:10170000ED0A7090EE0A9B01AC01241935094609D7
:10171000570929013A0135EF431631E053066104B8
:10172000710488F06093EB0A7093EC0A8093ED0AE1
:101730009093EE0A80911E0B811103C010931E0B33
:1017400002C010921E0B3BDD4090EF0A5090F00A51
:101750006090F10A7090F20A9B01AC0124193509DE
:101760004609570929013A0139EE431633E0530679
:101770006104710488F06093EF0A7093F00A80931B
:10178000F10A9093F20A80911D0B811103C010930E
:101790001D0B02C010921D0B89E131DC892B19F45D
:1017A0001093FF0A02C01092FF0A80E328DC892B05
:1017B00019F01093110B02C01092110B8EE11FDC77
:1017C000892B19F41093290B02C01092290B8FE179
:1017D00016DC892B59F41093210B1092FC0A1092FD
:1017E000FB0A9092FA0A8092F90A23C081E207DC90
:1017F000892B59F41092210B1092FC0A1093FB0ACA
:10180000B092FA0AA092F90A14C08FE1F8DB892B92
:1018100009F486C681E2F3DB892B09F481C61092B4
:10182000210B1093FC0A1092FB0AD092FA0AC09284
:10183000F90A8EE2E4DB019719F41092070B02C05B
:101840001093070B82E3DBDB892B19F01093120B4B
:1018500002C01092120B82E2D2DB892B19F4109392
:10186000200B02C01092200B8AE2C9DB892B19F4ED
:1018700010920D0B02C010930D0B84E2C0DB892B7C
:1018800059F41093F80A1092F70A1092F60A9092FF
:10189000280B8092270B18C084E2B1DB892B29F03A
:1018A00083E2ADDB892B09F04BC683E2A8DB892BF1
:1018B00009F03BC61092F80A1092F70A1093F60A44
:1018C000B092280BA092270B86E299DB892B19F4A2
:1018D0001093100B02C01092100B88E290DB892B42
:1018E00019F410930A0B02C010920A0B8DE187DBEA
:1018F000892B19F41093F50A02C01092F50A8CE2B4
:101900007EDB892B19F41093F40A02C01092F40ABA
:101910008091F50A882339F08091F40A882319F020
:101920001093F30A02C01092F30A80912A0B8111DE
:10193000CBC58091150B882389F08091070B8823F4
:1019400051F080911F0B882311F060E001C061E02D
:1019500085E37DDB03C080911D0BF5CF8091130BD8
:10196000882349F080911D0B882311F060E001C0AD
:1019700061E084E36CDB80911C0B811166C015DB98
:101980008FE225DB12DB8AE392E0FEDA88E492E064
:10199000FBDA0BDB81E892E0F7DA8DE592E0F4DA2E
:1019A00083E792E0F1DA65EA7CE08DED9BE00E944E
:1019B0000204FBDA8FE20BDB8DD96DE772E08AE778
:1019C0009CE00E94250481E090E0E4DB6EE872E098
:1019D0008AE79CE00E94250465EA7CE08AE79CE0B7
:1019E0000E94020464EF71E080E090E09BDB89E3F9
:1019F00092E0CADA8CE7EBDA89E591E0A4DA67E3F2
:101A000072E08DED9BE00E9410048CE7E0DA89E340
:101A100092E0BADA10931C0B68EE73E080E090E07D
:101A200081DB83E992E0B0DA55D96CEC72E08AE7A9
:101A30009CE00E94250481E090E0ACDB68ED72E060
:101A40008AE79CE00E94250424C58091290B882305
:101A500009F40FC580911B0B811113C088EE92E031
:101A600093DA10931B0B36D966E173E08AE79CE0AA
:101A70000E9425042CD962E273E08AE79CE00E9470
:101A8000250480911A0B8111C8C18091210B8823F4
:101A900009F4C1C18091200B882309F453C18091BE
:101AA000E00A811120C081E393E06EDA83E493E0E1
:101AB0006BDA8AE793E068DA88EA93E065DA8BED1F
:101AC00093E062DA72DA06D963E174E08AE79CE0B7
:101AD0000E942504FCD86EE174E08AE79CE00E9435
:101AE00025041093E00A80910D0B811139C080917B
:101AF0001D0B81111AC061E087E2A9DA60E089E27A
:101B0000A6DA61E085E3A3DA60E083E3A0DA60E0CF
:101B100084E39DDA61E08FE29ADA61E08BE297DAA2
:101B200061E081E394DA60E019C060E087E28FDA77
:101B300061E089E28CDA60E085E389DA61E083E3E1
:101B400086DA61E084E383DA60E08FE280DA60E0E5
:101B50008BE27DDA60E081E37ADA61E08DE217C042
:101B600061E087E274DA61E089E271DA61E085E3DD
:101B70006EDA61E083E36BDA61E084E368DA61E006
:101B80008FE265DA61E08BE262DA61E081E35FDADD
:101B90008091120B882369F010932A0B10931A0B73
:101BA000109300021093FE0A1093130B1093FD0A7A
:101BB00037D98091FF0A61E0882309F4AAC085E043
:101BC00075DAE1EAF1E0849190E0FC013197E231CD
:101BD000F10508F09CC08827EE58FF4F8F4FD7C5FE
:101BE00084B5806884BD07BD99C084B5806284BD1A
:101BF00008BD94C080918000806880938000F0923E
:101C00008900E09288008AC0809180008062809381
:101C10008000F0928B00E0928A0080C0809180006A
:101C2000886080938000F0928D00E0928C0076C0F6
:101C30008091B00080688093B0000093B3006EC0C4
:101C40008091B00080628093B0000093B40066C0C1
:101C500080919000806880939000F0929900E092CB
:101C600098005CC080919000806280939000F09218
:101C70009B00E0929A0052C080919000886080930F
:101C80009000F0929D00E0929C0048C08091A000DE
:101C900080688093A0008091A0008F7B8093A0003B
:101CA000F092A900E092A80039C08091A000806263
:101CB0008093A000F092AB00E092AA002FC0809128
:101CC000A00088608093A000F092AD00E092AC008C
:101CD00025C080912001806880932001F092290125
:101CE000E09228011BC08091200180628093200136
:101CF000F0922B01E0922A0111C0809120018860AE
:101D000080932001F0922D01E0922C0107C061E048
:101D100003C085E0CBD960E085E099D98091070BBD
:101D2000882309F465C06EE274E0CE0101960E943A
:101D3000B603CE0101960E945306CE0101960E9481
:101D4000B10356C08091E10A811119C080E494E08A
:101D50001BD981E894E018D928D90E946A0660ED61
:101D600074E08AE79CE00E9425040E94670661EE09
:101D700074E08AE79CE00E9425041093E10A8091B8
:101D80001D0B81111AC061E087E261D961E089E22F
:101D90005ED961E085E35BD961E083E358D961E016
:101DA00084E355D961E08FE252D961E08BE24FD9EB
:101DB00061E081E34CD960E019C060E087E247D977
:101DC00060E089E244D960E085E341D960E083E3E3
:101DD0003ED960E084E33BD960E08FE238D960E02F
:101DE0008BE235D960E081E332D961E08DE22FD911
:101DF0008091100B882309F44CC312D810931A0B4E
:101E000060E08DE224D981EF94E0BED81093DE0A21
:101E10000E9434063EC304D813C28091000281118F
:101E2000A5C08091E10A811104C081E090E00E9488
:101E30007A068091210B882309F4C4C08091E00ABE
:101E4000811104C082E090E00E947A068091DF0A4E
:101E5000811124C08091DE0A811104C083E090E0EA
:101E60000E947A0680911D0B882311F061E001C069
:101E700060E084E3ECD88091120B882309F43EC023
:101E800061E084E3E4D81093DF0A8091DD0A8111D8
:101E900035C084E090E00E947A0630C08091DC0A70
:101EA00081112CC08091DB0A811104C085E090E093
:101EB0000E947A068091DA0A811109C080911D0B77
:101EC000882311F061E001C060E085E3C0D8809113
:101ED000110B882399F08091D90A811104C086E002
:101EE00090E00E947A0680911E0B882311F061E039
:101EF00001C060E085E3ABD81093DA0A8091DA0A7A
:101F0000882309F4C6C28091110B8111C2C261E01D
:101F100085E39DD81093DC0A80911D0B882311F076
:101F200061E001C060E08DE292D88091100B8823BF
:101F3000A1F01093000260E08DE289D80E941007A2
:101F400061E084E384D80E94340661E085E37FD8B1
:101F500068EE73E080E090E0E5D88091D80A8111C6
:101F600098C287E090E00E947A0693C28091150B98
:101F70008111E1C18091140B811128C061E085E3DA
:101F800066D81DD92B013C018091E10A811116C050
:101F900082E197E00E94C4070E946A066BE377E043
:101FA0008AE79CE00E9425040E94670662E273E0D3
:101FB0008AE79CE00E9425041093E10A8091210B9E
:101FC0008111BFC060E08DE242D84EC280911D0BEE
:101FD000811102C061E001C060E08DE238D88091DB
:101FE000100B882359F010930F0B1092140B0E94C2
:101FF00034060E94100760E08DE229D88091210B01
:10200000882309F446C280910E0B81110AC085E035
:1020100095E00E94C40789E395E00E94C4071093ED
:102020000E0B80910D0B60E0811147C083E30FD848
:1020300080910C0B811114C080E595E00E94C407CB
:1020400083E795E00E94C4078FEA95E00E94C407E9
:1020500088EE95E00E94C40710930C0B1092090BB8
:1020600080911D0B882331F061E08FE20E942708E8
:1020700060E009C080910B0B811108C060E08FE225
:102080000E94270861E081E30E94270880910A0BE3
:10209000882309F4FEC180910B0B811109C01093B4
:1020A0000B0B61E08FE20E9427088FE096E040C0B2
:1020B00010920B0B8BE496E03BC08FE20E94270846
:1020C00060E081E30E9427088091090B81110CC018
:1020D0008DE896E00E94C40786EB96E00E94C40754
:1020E0001093090B10920C0B80911D0B882311F09B
:1020F00061E005C08091080B811104C060E083E3BA
:102100000E9427088091070B882309F4C2C180919F
:10211000080B811109C01093080B61E083E30E9452
:1021200027088FED96E004C01092080B88EF96E028
:102130000E94C40768EE73E080E090E00E9492087D
:10214000A8C18091E00A81111EC08CE497E00E9432
:10215000C4078EE697E00E94C40784EB97E00E94D4
:10216000C4070E946A0662EE77E08AE79CE00E945C
:1021700025040E94670664EF77E08AE79CE00E94EE
:1021800025041093E00A8091060B81115EC08091B6
:10219000040B9091050B092E000CAA0BBB0BA3019D
:1021A0009201281B390B4A0B5B0BDA01C901893EEE
:1021B0009340A105B105D0F05092050B4092040B5D
:1021C0008091100B882371F061E08DE20E94270856
:1021D0008091020B9091030B01969093030B8093D7
:1021E000020B04C01092030B1092020B8091020BA1
:1021F0009091030B0297D1F485E098E00E94C40708
:102200000E946A066BE377E08AE79CE00E9425045F
:102210000E94670664E578E08AE79CE00E94250456
:1022200060E08DE20E9427081093060B80911D0B41
:10223000882311F061E005C08091100B811129C144
:1022400060E08DE20E94270824C160E08DE20E94D8
:1022500027088091040B9091050B092E000CAA0B06
:10226000BB0BA3019201281B390B4A0B5B0BDA0154
:10227000C901893E9340A105B105D0F05092050BEC
:102280004092040B8091070B882371F061E083E397
:102290000E9427088091000B9091010B019690936A
:1022A000010B8093000B04C01092010B1092000BE5
:1022B0008091000B9091010B0A97B1F485E698E0AC
:1022C0000E94C4070E946A060E94100760E083E330
:1022D0000E9427080E94340668EE73E080E090E0D8
:1022E0000E9492081093150B50901D0B552011F071
:1022F00061E005C08091070B811104C060E083E3B9
:102300000E9427088091200B882309F4C2C0809185
:102310000F0B8111BEC0552011F061E001C060E0DB
:102320008FE20E94270880910A0B882309F4B1C02C
:102330001093140BAEC08091130B8111AAC00E94A0
:10234000DF081B012C018091E10A811116C082E196
:1023500097E00E94C4070E946A066DE778E08AE76A
:102360009CE00E9425040E94670662E273E08AE70F
:102370009CE00E9425041093E10A8091210B8823A0
:1023800009F472C08091E00A81111AC08BE898E0CC
:102390000E94C4078AEA98E00E94C4070E946A0665
:1023A0006DE778E08AE79CE00E9425040E946706BA
:1023B00064E578E08AE79CE00E9425041093E00A37
:1023C0008091040B9091050B092E000CAA0BBB0BFE
:1023D000A2019101281B390B4A0B5B0BDA01C901E1
:1023E000893E9340A105B105D0F03092050B2092B3
:1023F000040B8091070B882371F061E083E30E9456
:1024000027088091000B9091010B01969093010B8E
:102410008093000B04C01092010B1092000B80916E
:10242000000B9091010B0A9791F484EE98E00E94C2
:10243000C4071093130B1092010B1092000B0E9413
:10244000100760E083E30E9427080E943406809111
:102450001D0B882311F061E005C08091070B8111ED
:1024600018C060E083E3EECE0E9410071092E00AED
:1024700010C060E08DE20E9427080E9410071092B1
:102480001B0B1092190B1092180B1092170B109235
:10249000160B8091290B882381F080911D0B8823D6
:1024A000E1F180E00E94FF07892B11F061E001C09B
:1024B00060E085E20E94270830C060E085E20E946B
:1024C00027080E94100729C09091210B8091200BB2
:1024D00091111EC0882321F080911F0B882311F0D9
:1024E00061E001C060E087E20E9427088091270B2D
:1024F0009091280B9093260B8093250B88179907B2
:1025000061F01093240B1092230B1092220B05C044
:10251000882341F380911E0BE1CF0E946E029AC87E
:102520008CEF98E00E94C40784C98AE391E00E947E
:10253000A30767E372E08DED9BE00E941004C4C91D
:102540001092F80A1093F70A1092F60AD092280B0C
:10255000C092270BB9C9A8E6B0E0283010F40C945B
:10256000250AE0E0F0E00C94270A8BE292E09093D9
:102570007B0C80937A0C8091D60A9091D70A8A5767
:102580009C4071F4E0918D0CF0918E0C90818091C3
:102590008F0C8095892380831092D70A1092D60AD7
:1025A00089E99CE00E94B1038FE99CE00E94B1039D
:1025B00085EA9CE00C94B103CF92DF92EF92FF92F8
:1025C0001092E00B1092DF0B98EEC92E93E0D92EFB
:1025D000E12CF12CC092E10BD092E20BE092E30BE4
:1025E000F092E40B8BE092E09093DE0B8093DD0B96
:1025F00085EC90E09093EA0B8093E90B84EC90E0FB
:102600009093EC0B8093EB0B80EC90E09093EE0BAF
:102610008093ED0B81EC90E09093F00B8093EF0BA7
:1026200082EC90E09093F20B8093F10B86EC90E0BB
:102630009093F40B8093F30B1092F60B1092F70B20
:102640001092F80B1092F90B1092B70C1092B60C76
:10265000C092B80CD092B90CE092BA0CF092BB0CBC
:102660008BE192E09093B50C8093B40C6FEB7AE021
:1026700085EA9CE00E94B60369E372E08FE99CE082
:102680000E94B6036BEC7AE089E99CE00E94B603F5
:1026900010927D0C10927C0CC0927E0CD0927F0C1C
:1026A000E092800CF092810C8BE292E090937B0C94
:1026B00080937A0C1092910C1092900C1092930CC3
:1026C0001092920C1092950C1092940C1092970C00
:1026D0001092960C6091980C6E7F6D7F6093980CB1
:1026E0006695617081E068278EE00E94270861E0AE
:1026F0008EE00E945608EAE6F2E0E491E0938A0C4C
:10270000E4E2F2E0E491F0E0EE0FFF1FEE51FE4F45
:102710008591949190938C0C80938B0C60E080E079
:102720000E9456088091980C81FD04C061E080E011
:102730000E9427081092860CECE5F2E0E491E09309
:10274000870CE6E1F2E0E491F0E0EE0FFF1FE450C9
:10275000FE4F859194919093890C8093880CFF9003
:10276000EF90DF90CF90089597FB072E16F400941A
:1027700006D077FD08D013D007FC05D03EF4909525
:1027800081959F4F0895709561957F4F0895EE0F45
:10279000FF1F881F8BBF0790F691E02D1994AA1B8D
:1027A000BB1B51E107C0AA1FBB1FA617B70710F03C
:1027B000A61BB70B881F991F5A95A9F7809590956E
:1027C000BC01CD010895CF93DF938230910510F4C1
:1027D00082E090E0E091C20CF091C30C20E030E088
:1027E000C0E0D0E0309711F140815181481759077E
:1027F000C0F04817590761F482819381209719F03E
:102800009B838A832BC09093C30C8093C20C26C0F9
:102810002115310519F04217530718F49A01BE012A
:10282000DF01EF010280F381E02DDCCF21153105BE
:1028300009F1281B390B2430310590F412968D9143
:102840009C9113976115710521F0FB01938382839D
:1028500004C09093C30C8093C20CFD01329644C017
:10286000FD01E20FF31F81939193225031092D93C3
:102870003C933AC02091C00C3091C10C232B41F401
:1028800020910302309104023093C10C2093C00CBC
:1028900020910102309102022115310541F42DB73A
:1028A0003EB74091050250910602241B350BE09182
:1028B000C00CF091C10CE217F307A0F42E1B3F0BE4
:1028C0002817390778F0AC014E5F5F4F24173507A2
:1028D00048F04E0F5F1F5093C10C4093C00C819382
:1028E000919302C0E0E0F0E0CF01DF91CF91089535
:1028F0000F931F93CF93DF93009709F48CC0FC01D3
:102900003297138212820091C20C1091C30C0115F0
:10291000110581F420813181820F931F2091C00C19
:102920003091C10C2817390779F5F093C10CE09369
:10293000C00C71C0D80140E050E0AE17BF0750F4A2
:1029400012962D913C911397AD012115310509F196
:10295000D901F3CF9D01DA01338322836081718134
:10296000860F971F8217930769F4EC01288139813C
:10297000260F371F2E5F3F4F318320838A819B8133
:1029800093838283452B29F4F093C30CE093C20C0C
:1029900042C01396FC93EE931297ED014991599121
:1029A0009E01240F351FE217F30771F48081918196
:1029B000840F951F029611969C938E93828193812A
:1029C00013969C938E931297E0E0F0E0D801129654
:1029D0008D919C911397009719F0F8018C01F6CF17
:1029E0008D919C9198012E5F3F4F820F931F2091F4
:1029F000C00C3091C10C2817390769F4309729F4BD
:102A00001092C30C1092C20C02C013821282109357
:102A1000C10C0093C00CDF91CF911F910F910895CD
:102A20006F927F928F929F92AF92BF92CF92DF92DE
:102A3000EF92FF920F931F93CF93DF93EC010097D8
:102A400081F4CB01DF91CF911F910F91FF90EF9017
:102A5000DF90CF90BF90AF909F908F907F906F90BE
:102A6000B2CEFC01E60FF71F9C0122503109E2179C
:102A7000F30708F4A8C0D9010D911C91119706170E
:102A80001707A8F00530110508F49BC0C80104978A
:102A90008617970708F495C002501109061B170BFB
:102AA000019311936D937C93CF0122DF8AC05B0168
:102AB000A01AB10A4C01800E911EA091C20CB091D7
:102AC000C30C40E050E0E12CF12C109709F44AC00F
:102AD000A815B905D1F56D907C901197630182E03E
:102AE000C80ED11CCA14DB0480F1A3014A195B098A
:102AF0006A0182E0C80ED11C1296BC901297139600
:102B0000AC91B5E0CB16D10440F0B282A3835183DF
:102B10004083D9016D937C930AC00E5F1F4FC301A0
:102B2000800F911FF90191838083EB2DFA2FE1141F
:102B3000F10431F0D7011396FC93EE93129741C044
:102B4000F093C30CE093C20C3CC08D919C91119703
:102B50004817590708F4AC017D0112960D90BC91FD
:102B6000A02DB3CF8091C00C9091C10C8815990510
:102B7000E1F446175707C8F48091010290910202D0
:102B8000009741F48DB79EB740910502509106021F
:102B9000841B950BE817F907B0F4F093C10CE09390
:102BA000C00CF901718360830CC0CB010CDE7C0189
:102BB000009749F0A801BE011BD0CE0199DEC701E4
:102BC00004C0CE0102C080E090E0DF91CF911F9160
:102BD0000F91FF90EF90DF90CF90BF90AF909F90BC
:102BE0008F907F906F90089581E090E0F89410C0EE
:102BF000FB01DC0102C001900D9241505040D8F71A
:102C00000895FB01DC0101900D920020E1F7089589
:102C100011E0C2E5D1E000E005C0802FFE01B7DD84
:102C20002196011DC335D10780E00807B1F7F8945C
:022C3000FFCFD4
:102C3200010000C40C80000000000007028401D1E2
:102C420001AF01C3014D02000000009F038B03523C
:102C5200034F034C034B0300000000BF0284011327
:102C6200032A03A602BE020D0A00436F6E74726F3E
:102C72006C2050616E656C004C61737420557064F9
:102C8200617465643A20392F382F313600737465C8
:102C920074736F6E3240696C6C696E6F69732E6506
:102CA20064750056455253494F4E3A200042593AF4
:102CB200204D4154542053544554534F4E005645D1
:102CC200523A0050414E454C20504F5745522049F0
:102CD20053204F46462E20535749544348205041D3
:102CE2004E454C20544F204F4E20544F20424547D2
:102CF200494E20535441525455502E00535441547E
:102D02005553203030313A0050414E454C20504FFF
:102D1200574552204F464600535749544348205482
:102D22004F204155544F204D4F444520544F20428F
:102D32004547494E2050484153452049205354416C
:102D4200525455502E005354415455532030303272
:102D52003A0053574954434820544F204155544F49
:102D62000045585452412046554E4354494F4E5304
:102D72003A200053776974636820454E5452414E9D
:102D8200434520474154455320746F204F50454ED0
:102D920020746F207475726E20616C6C206C616D92
:102DA200707320736F6C69642E00507265737320A8
:102DB200616E6420686F6C642054524F55424C45DA
:102DC20020666F72205354415254555020484F523E
:102DD2004E20746573742E00507265737320616E99
:102DE2006420686F6C642052494445205354415218
:102DF2005420666F72205741524E494E47204D452E
:102E02005353414745207465737400507265737360
:102E120020524944452053544F5020746F20627908
:102E2200706173732073746172747570203D3E20FB
:102E32004D41494E5441494E454E4345204F4E4C1B
:102E42005921004C414D5020544553543A004558A5
:102E52005452412046554E4354494F4E53005761F8
:102E6200726E696E6720686F726E2074657374008B
:102E72005068617365204920737461727475703A89
:102E8200204C414D5020544553543A20456E7375A1
:102E9200726520616C6C206C616D70732066756E5A
:102EA2006374696F6E20636F72726563746C792EDE
:102EB2000050726573732041434B4E4F574C45444B
:102EC200474520746F20636F6E6669726D20616C76
:102ED2006C206C616D70732066756E6374696F6EC1
:102EE2002070726F7065726C7920616E6420636FFE
:102EF2006E74696E756520737461727475702E00DC
:102F02004C414D5020544553543A2050524553534E
:102F12000041434B20544F20434F4E54494E554598
:102F2200004C414D50205445535420434F4D504C7A
:102F32004554452E0046554E4354494F4E53204D5D
:102F4200454E553A2028504147452031204F4620D2
:102F520033293B204F5045524154494F4E5320464E
:102F6200554E4354494F4E53004C4541442F5355FF
:102F72005045525649534F5253204F4E4C592100FF
:102F8200504147452031413A204C4541442D41436F
:102F92004345535341424C452046554E4354494FB5
:102FA2004E53005072657373204C4F434B20524571
:102FB20053545241494E545320746F20746F6767C3
:102FC2006C65204155544F4D41544943205245535D
:102FD200545241494E545320554E4C4F434B00508E
:102FE20072657373204449535041544348205249F7
:102FF20047485420746F204C495354204355525231
:10300200454E54204F5045524154494F4E53205340
:10301200455454494E475300466F72206D6F726596
:10302200206F7074696F6E732C2073776974636894
:1030320020474154455320746F204F50454E005253
:103042004553545241494E54532057494C4C204EFB
:103052004F57204155544F4D41544943414C4C59CF
:1030620020554E4C4F434B20494E204155544F4D15
:1030720041544943204D4F44452100524553545237
:1030820041494E54532057494C4C204E4F204C4FEF
:103092004E474552204155544F4D41544943414CAE
:1030A2004C5920554E4C4F434B2120494E204155FF
:1030B200544F4D41544943204D4F444500504147E0
:1030C200452032413A2053555045525649534F52AA
:1030D2002D41434345535341424C452046554E43AF
:1030E20054494F4E530050726573732044495350F4
:1030F2004154434820524947485420666F72204445
:103102004953504154434820544F47474C4500537C
:10311200555045525649534F52204D4F4445204534
:103122004E41424C45442100535550455256495355
:103132004F52204D4F44452044495341424C45444F
:10314200210053776974636820746F204155544F8E
:10315200204D4F444520746F20636F6E74696E7505
:103162006520737461727475702E00535441525409
:103172005550205741524E494E473A00504841530C
:103182004520494920535441525455503A205354F2
:103192004152545550205741524E494E47005354C4
:1031A2004152545550205741524E494E473A2043BE
:1031B2004845434B205448415420414C4C20474100
:1031C20054455320415245205345435552452041D1
:1031D2004E442052494445204152454120434C45EA
:1031E2004152210050524553532041434B4E4F57B9
:1031F2004C4544474520544F20434F4E4652494D7B
:10320200205341464520544F204F5045524154458A
:103212002100434845434B205249444520415245F1
:103222004121210050524553532041434B4E4F57A9
:103232004C4447450053414645204F504552415466
:10324200494F4E20434F4E4652494D4544213A2064
:10325200507265737320616E6420686F6C642052D3
:1032620049444520535441525420746F207265736F
:10327200657420494E4954494154452053544152A2
:1032820054555000505245535320524944452053FF
:1032920054415254005354415254555020574152B4
:1032A2004E494E47205355434345535300452D53F2
:1032B200544F502052455345543A005048415345CB
:1032C20020494920535441525455503A20452D53D8
:1032D200544F5020524553455400452D53544F509E
:1032E2002052455345543A20507265737320616EE3
:1032F2006420686F6C642052494445205354415203
:103302005420746F20726573657420455352204CAB
:103312004F4F5000452D53544F5020524553455462
:10332200205355434345535346554C0050524F4743
:1033320052414D4D204552524F523A20554E4B4E1E
:103342004F574E204D4F4445212100444542554799
:103352003A20200053544F5020544553543A0050C1
:1033620048415345204920535441525455503A2024
:1033720053544F5020544553543B20456E7375723D
:103382006520616C6C2073746F7020627574746F49
:103392006E732066756E6374696F6E20636F7272EE
:1033A2006563746C792E0050524553532052494440
:1033B200452053544F5000524944452053544F50D6
:1033C20020544553543A2050726573732052494435
:1033D200452053544F5000524944452053544F50B6
:1033E2002066756E6374696F6E696E6720636F72B3
:1033F200726563746C792E00454D455247454E43C4
:10340200592053544F5020544553543A205072651A
:10341200737320454D455247454E43592053544FEF
:10342200502100505245535320452D53544F5000C4
:10343200454D455247454E43592053544F50205015
:103442005245535345443A2050756C6C2075702098
:10345200454D455247454E43592053544F50005015
:10346200554C4C20452D53544F5000452D53544F2D
:10347200502066756E6374696F6E696E6720636F44
:1034820072726563746C792E0053544F5020544508
:10349200535420434F4D504C4554452E2050726595
:1034A20073732041434B4E4F574C4544474520745C
:1034B2006F20636F6E74696E7565210053544F50AF
:1034C20020544553543A204F4B00505245535320F9
:1034D20041434B00554B4E4F574E204341534520DD
:1034E20073746F705465737453657269616C0035DF
:1034F2002E302E30206465762031004445425547F7
:043502003A2000006B
:00000001FF
