:1000000052C1000081C100007FC100007DC100001D
:100010007BC1000079C1000077C1000075C10000FC
:1000200073C100000C947D0B0C947D0B0C947D0B24
:100030006BC1000069C1000067C1000065C100001C
:1000400063C1000061C100005FC100005DC100002C
:100050005BC1000059C1000057C100000C94980F0B
:1000600053C100000C94020B0C94D90A4DC100003E
:100070004BC1000049C1000047C1000045C100005C
:1000800043C1000041C100003FC100003DC100006C
:100090000C94B00A0C94870A37C100000C94FB0B37
:1000A00033C1000031C100002FC100002DC100008C
:1000B0002BC1000029C1000027C1000025C100009C
:1000C00023C1000021C100001FC100001DC10000AC
:1000D0001BC1000019C1000017C1000015C10000BC
:1000E00013C10000ED15F315F91503160D1688164A
:1000F00017162016291633163D1647165616601683
:1001000088166A1674167E16E602070317032C0378
:10011000340344035403470D4A0D390D3D0D430D7F
:10012000810D4E0D520D580D5C0D600D660D6A0D62
:100130006E0D810D740D780D7C0D50524F4752415C
:100140004D4D204552524F523A20554E4B4E4F572F
:100150004E205459504521210052454144204F50D2
:1001600045524154494E4720494E535452554354E9
:10017000494F4E53204245464F5245205553452145
:10018000210000002100240027002A002D0030005B
:10019000330001010000040107010A0100000A0BFD
:1001A00002090C0D0E080703040100000000000006
:1001B000000000000000000000000000000000003F
:1001C00000000000000000001211100000000000FC
:1001D000000000000000000000000000000000001F
:1001E000000000002200250028002B002E00310016
:1001F000340002010000050108010B01000020008D
:100200002300260029002C002F00320000010000EE
:100210000301060109010505050507050808080889
:10022000020202020A0A080804040404010101018E
:100230000101010103030303030303030407070789
:100240000C0C0C0C0C0C0C0C02020202060606062E
:10025000060606060B0B0B0B0B0B0B0B01021020FB
:1002600020080810204010204080020102010804EC
:100270000201010204081020408080402010080480
:1002800002018004020180402010080402010804D9
:10029000020101020408102040800102040810201D
:1002A00040807A1F531F11241FBECFEFD1E2DEBF63
:1002B000CDBF00E00CBF1FE0A0E0B2E0E2E5F6E455
:1002C00000E00BBF02C007900D92AA3AB107D9F720
:1002D00022E1AAEABFE001C01D92A33AB207E1F70A
:1002E00011E0C2E5D1E000E006C021970109802FAE
:1002F000FE010E94D720C135D10780E00807A9F789
:100300000E94E20F0C9418237BCE682F80E00C949F
:100310002D0E1092EE1081E08093ED101092C81017
:1003200061E084E10E94D40E61E085E10E94D40E78
:10033000E9EBF0E080818E7F808380818D7F8083F8
:1003400088E48093B80085E48093BC0008951092FF
:10035000D90F1092D80F1092D60F1092D50F10927D
:10036000D30F1092D10F1092D00F10924010109214
:100370003F1010923E101092D70F1092D40F10928F
:10038000D20F68EE73E080E090E00C943F0F60E0E5
:100390008BE20E94D40E60E081E30E94D40E60E004
:1003A00085E30E94D40E60E08CE10E94D40E60E0F0
:1003B00084E30E94D40E60E08FE20E94D40E60E0DD
:1003C00089E20E94D40E60E087E20E94D40E60E0D1
:1003D0008BE10E94D40E60E083E30C94D40E8091F4
:1003E000E50F811102C061E001C060E08DE20E9472
:1003F000D40E8091E10F882359F01092E30F81E031
:100400008093DA0FA4DFC3DF60E08DE20E94D40E98
:100410008091E00F882309F4A2C080913D108111E2
:100420000BC089EF96E00E94120E8DE297E00E94C9
:10043000120E81E080933D108091DF0F60E081110A
:100440004AC084E30E94D40E80913C10811115C0F3
:1004500084E497E00E94120E87E697E00E94120E55
:1004600083EA97E00E94120E8CED97E00E94120E34
:1004700081E080933C1010923B108091E50F88231F
:1004800031F061E08FE20E94D40E60E009C08091FB
:100490000002811108C060E08FE20E94D40E61E08A
:1004A00081E30E94D40E8091E40F882309F457C0A1
:1004B0008091000281110AC081E08093000261E016
:1004C0008FE20E94D40E83E098E041C010920002B7
:1004D0008FE398E03CC08FE20E94D40E60E081E39D
:1004E0000E94D40E80913B1081110DC081E898E0EC
:1004F0000E94120E8AEA98E00E94120E81E0809318
:100500003B1010923C108091E50F882311F061E0C0
:1005100005C080913A10811104C060E084E30E941C
:10052000D40E8091E20F8823D1F080913A1081118E
:100530000AC081E080933A1061E084E30E94D40E07
:1005400083ED98E004C010923A108CEE98E00E947F
:10055000120E68EE73E080E090E00C943F0F089577
:10056000CF93DF93EC0166E079E08FEA91E1C0D7A9
:10057000BE018FEA91E1BDD78EE592E10E945C0E4B
:100580006AE070E080E090E0DF91CF910C943F0F43
:100590000F931F93CF93DF93CDB7DEB72C970FB692
:1005A000F894DEBF0FBECDBF8C016FE079E0CE01C5
:1005B0000196E2D6F8013197E730F10508F090C0D6
:1005C0008827EC57FF4F8F4F0C94D720CE01019610
:1005D0000E945C0E0E94230E68E379E083E892E1BA
:1005E00087D761E080E00E942D0E69E479E083E81E
:1005F00092E17ED763E080E00E942D0E6FEB73E006
:1006000083E892E175D781E08093D90F17C083E525
:1006100099E00E94120E83E090E077DE6BEA79E0C9
:1006200083E892E165D781E08093D80F07C08BE91A
:1006300099E00E94120E81E08093D60FCE010196C0
:1006400096D62C960FB6F894DEBF0FBECDBFDF91C5
:10065000CF911F910F9108958BEB99E00E94120E9C
:1006600081E08093D50FEACF8CED99E00E94120EC5
:1006700083E090E04ADE67E07AE083E892E138D7F1
:1006800081E08093D30FDACF8CE19AE00E94120EC2
:1006900083E090E03ADE6BE47AE083E892E128D7E9
:1006A00081E08093D10FCACF80E69AE00E94120EBB
:1006B0008EE79AE00E94120E82E090E026DE61EB67
:1006C0007AE083E892E114D783E090E01EDE64ECE8
:1006D0007AE083E892E10CD781E08093D00FAECF2F
:1006E00069ED7AE0CE01079647D6CE01079638DF4E
:1006F000CE0107963CD6A2CF81E090E00C94770F14
:100700006EEF84E692E1EAD461E084E692E1E6D419
:1007100080E090E00E94770F62E070E080E090E07F
:100720000C943F0FEF92FF920F931F93CF93DF93A1
:10073000CDB7DEB7E6970FB6F894DEBF0FBECDBFDC
:100740008C0164EF7AE0CE0101967C0115D665E359
:100750007BE0CE01079610D664E87BE0CE010D96D3
:100760000BD666E97BE0CE01439606D66DEC7BE0C6
:10077000CE01499601D66BEF7BE0CE014F96FCD5BA
:100780006EE27CE0CE018596F7D566E67CE0CE0190
:100790008B96F2D56AE77CE0CE01C196EDD50230AA
:1007A0001105A1F164F50130110509F05EC0C70122
:1007B0000E945C0ECE0107960E945C0E8EE592E1CF
:1007C0000E945C0E0E94230E68E379E083E892E1C8
:1007D0008FD661E080E00E942D0E6FEA7CE083E816
:1007E00092E186D663E080E00E942D0E69EB7CE00A
:1007F00083E892E17DD681E08093D90F36C0033043
:10080000110561F104301105B9F12FC0CE010D962B
:100810000E945C0ECE0143960E945C0ECE0149966A
:100820000E945C0ECE014F960E945C0ECE01859612
:100830000E945C0E8EE592E10E945C0E61DF6BEC23
:100840007CE084E692E154D657DF66ED7CE084E6F6
:1008500092E14ED681E08093D80F07C0CE018B96EF
:100860000E945C0E81E08093D60FCE01C1967FD5A9
:100870008E010F5C1F4F08C0CE01C1960E945C0E16
:1008800081E08093D50FF1CF06501109C8016FD5D3
:100890000E151F05C9F7E6960FB6F894DEBF0FBE1A
:1008A000CDBFDF91CF911F910F91FF90EF900895F1
:1008B0000F931F93CF938C01C62F80E00E942D0EC3
:1008C00066EE7CE083E892E113D66C2F80E00E9414
:1008D0002D0EB80183E892E1CF911F910F9109C6C7
:1008E0000F931F93CF93DF93CDB7DEB72C970FB63F
:1008F000F894DEBF0FBECDBF8C016FE079E0CE0172
:1009000001963AD50230110559F10330110509F469
:1009100047C00130110509F055C0CE0101960E9473
:100920005C0E0E94230E6BEF7CE0CE01079624D56F
:1009300060E070E0CE010796BBDFCE01079617D5C9
:1009400065E37DE0CE01079617D561E070E0CE014A
:100950000796AEDFCE0107960AD56EE07DE017C0A0
:1009600082E29DE00E94120E80E49DE00E94120E41
:100970006DE77DE0CE010796FFD462E070E0CE0126
:10098000079696DFCE010796F2D462E97DE0CE01AC
:100990000796F2D463E070E0CE01079689DF1AC0B3
:1009A00082EA9DE00E94120ECE010196E0D42C96C0
:1009B0000FB6F894DEBF0FBECDBFDF91CF911F9170
:1009C0000F9108956FEA7DE0CE010796D5D4CE0150
:1009D0000796C6DDCE010796CAD4E6CF0F931F93C4
:1009E000CF93DF93CDB7DEB72C970FB6F894DEBF69
:1009F0000FBECDBF8C016FE079E0CE010196BCD473
:100A00000230110509F437C00330110509F45FC045
:100A10000130110509F06DC0CE0101960E945C0EF7
:100A20006FDE61EC7DE084E692E162D565DE6FEB1E
:100A300073E084E692E15CD50E94230E6FEC7DE0CA
:100A4000CE01079699D460E070E0CE01079630DFC2
:100A5000CE0107968CD463EF7DE0CE0107968CD44F
:100A600061E070E0CE01079623DFCE0107967FD4C8
:100A70006EE07DE023C081EE9DE00E94120E80E0DA
:100A80009EE00E94120E3CDE61EC7DE084E692E185
:100A90002FD532DE63E575E084E692E129D56AE37D
:100AA0007EE0CE01079668D462E070E0CE01079642
:100AB000FFDECE0107965BD46DE47EE0CE010796A3
:100AC0005BD463E070E0CE010796F2DE1AC08CE5DD
:100AD0009EE00E94120ECE01019649D42C960FB6CC
:100AE000F894DEBF0FBECDBFDF91CF911F910F9164
:100AF000089564E77EE0CE0107963ED4CE010796C6
:100B00002FDDCE01079633D4E6CF0F931F93CF93FB
:100B1000DF93CDB7DEB72C970FB6F894DEBF0FBECC
:100B2000CDBF8C016FE079E0CE01019625D4023073
:100B30001105A9F13CF50130110509F079C0CE018C
:100B400001960E945C0E0E94230E6FEC7DE0CE01A8
:100B5000079612D460E070E0CE010796A9DECE01C0
:100B6000079605D466E97EE0CE01079605D461E0DC
:100B700070E0CE0107969CDECE010796F8D36EE0BA
:100B80007DE03DC00330110531F10430110509F05D
:100B90004FC08BE79FE00E94120EB2DD3BC084E89D
:100BA0009EE00E94120E86EA9EE00E94120E8CEEDB
:100BB0009EE00E94120E6AE17FE0CE010796DCD330
:100BC00062E070E0CE01079673DECE010796CFD3C8
:100BD00069EB7CE014C08CE29FE00E94120E90DD75
:100BE00068EA7FE0CE010796C7D362E070E0CE01ED
:100BF00007965EDECE010796BAD362E97DE0CE01AC
:100C00000796BAD363E070E0CE01079651DECE01BD
:100C10000796ADD3CE010196AAD32C960FB6F894C1
:100C2000DEBF0FBECDBFDF91CF911F910F91089511
:100C300064E77EE0CE0107969FD3CE01079690DC55
:100C4000E6CF1092DE0F1092DD0F86E090E09093D9
:100C5000DC0F8093DB0F88E0DBD78091DD0F909174
:100C6000DE0FD2D78091DB0F9091DC0FCDD76FD7FD
:100C70006AE070E080E090E00E943F0F1092DE0F8B
:100C80001092DD0F1092DC0F1092DB0F88E0C0D7BE
:100C90008091DD0F9091DE0FB7D78091DB0F90919F
:100CA000DC0FB2D754D76AE070E080E090E00C949B
:100CB0003F0F1092DE0F1092DD0F85E090E09093D1
:100CC000DC0F8093DB0F88E0A3D78091DD0F90913C
:100CD000DE0F9AD78091DB0F9091DC0F95D737D735
:100CE0006AE070E080E090E00E943F0F1092DE0F1B
:100CF0001092DD0F1092DC0F1092DB0F88E088D786
:100D00008091DD0F9091DE0F7FD78091DB0F909166
:100D1000DC0F7AD71CD76AE070E080E090E00C949A
:100D20003F0F1092DE0F1092DD0F84E090E0909361
:100D3000DC0F8093DB0F88E06BD78091DD0F909103
:100D4000DE0F62D78091DB0F9091DC0F5DD7FFD66D
:100D50006AE070E080E090E00E943F0F1092DE0FAA
:100D60001092DD0F1092DC0F1092DB0F88E050D74D
:100D70008091DD0F9091DE0F47D78091DB0F90912E
:100D8000DC0F42D7E4D66AE070E080E090E00C949B
:100D90003F0F1092DE0F1092DD0F81E090E09093F4
:100DA000DC0F8093DB0F88E033D78091DD0F9091CB
:100DB000DE0F2AD78091DB0F9091DC0F25D7C7D6A5
:100DC0006AE070E080E090E00E943F0F1092DE0F3A
:100DD0001092DD0F1092DC0F1092DB0F88E018D715
:100DE0008091DD0F9091DE0F0FD78091DB0F9091F6
:100DF000DC0F0AD7ACD66AE070E080E090E00C949B
:100E00003F0F6115710579F0FB0101900020E9F7B2
:100E10003197AF01461B570BDC01ED91FC9102802D
:100E2000F381E02D199480E090E00895CF92DF9255
:100E3000EF92FF920F931F93CF93DF936C017A0190
:100E40008B01C0E0D0E0CE15DF0589F0D8016D91AF
:100E50008D01D601ED91FC910190F081E02DC6014C
:100E60001995892B11F47E0102C02196ECCFC701A0
:100E7000DF91CF911F910F91FF90EF90DF90CF9076
:100E80000895FC01A089B1898C91A689B78982FD5A
:100E90000FC09C91818D8F5F8F73228D821749F0D7
:100EA000218DDF01A20FB11D5D969C93818F089566
:100EB0008C910895FC01918D828D981761F0828D3F
:100EC000DF01A80FB11D5D968C91928D9F5F9F737E
:100ED000928F90E008958FEF9FEF0895FC01918D20
:100EE000828D981731F0828DE80FF11D858D90E08D
:100EF00008958FEF9FEF0895FC01918D228D892F2A
:100F000090E0805C9F4F821B91098F739927089511
:100F100082E191E1F1DF21E0892B09F420E0822FC9
:100F200008958FEA91E1E8DF21E0892B09F420E0C0
:100F3000822F0895FC01848DDF01A80FB11DA35AF3
:100F4000BF4F2C91848D90E001968F739927848FE9
:100F5000A689B7892C93A089B1898C9180648C93E0
:100F6000938D848D981306C00288F389E02D8081CB
:100F70008F7D80830895EF92FF920F931F93CF93FD
:100F8000DF93EC0181E0888F9B8D8C8D981305C0D9
:100F9000E889F989808185FD23C0F62E0B8D10E04C
:100FA0000F5F1F4F0F731127E02E8C8DE8120BC0BF
:100FB0000FB607FCFACFE889F989808185FFF5CF64
:100FC000CE01B8DFF2CF8B8DFE01E80FF11DE35AA1
:100FD000FF4FF0820B8FEA89FB898081806207C016
:100FE000EE89FF896083E889F98980818064808344
:100FF00081E090E0DF91CF911F910F91FF90EF90F2
:101000000895CF93DF93EC01888D8823C1F0EA899E
:10101000FB89808185FD05C0A889B9898C9186FDF1
:101020000EC00FB607FCF5CF808185FFF2CFA889EF
:10103000B9898C9185FFEDCFCE017CDFE8CFDF91C0
:10104000CF91089580E090E0892B19F06ADF81113B
:1010500020C080E090E0892B19F05ADF81111CC07C
:1010600080E090E0892B41F080E090E0892B21F036
:101070000E940000811113C080E090E0892BA1F054
:1010800080E090E0892B81F00E94000081110AC06D
:1010900008950E940000DDCF0E940000E1CF0E9471
:1010A0000000EACF0C94000008952091AC0F30911D
:1010B000AD0F2817390771F49091AA0F8091AB0FEB
:1010C000981741F0E091AA0FF0E0E857FF4E8081B9
:1010D00090E008958FEF9FEF089508951F93CF93A9
:1010E000DF93DC015C962D913C915D9721153105D4
:1010F00039F481E090E013969C938E9312973DC053
:101100005196ED91FC91529750969C915097892F52
:1011100080951FB75E964C915E9741FB772770F9DB
:1011200041FD6095F8944081772311F0492B01C06F
:1011300048234083E9012197F1F748E0508160FF9F
:1011400002C0592B01C058235083E9012197F1F7C0
:101150006695415099F7772321F090818923808308
:1011600003C08081982B90831FBF5C968D919C91CA
:101170005D970197F1F721E030E0C901DF91CF9150
:101180001F9108952091AC0F3091AD0F28173907AA
:1011900069F48091AB0F2091AA0F90E0805C9F4F83
:1011A000821B910960E470E00C94A22080E090E042
:1011B00008952091AC0F3091AD0F28173907B9F47D
:1011C0009091AA0F8091AB0F981789F0E091AA0F28
:1011D000F0E0E857FF4E80812091AA0F30E02F5FAA
:1011E0003F4F2F7333272093AA0F90E008958FEF7E
:1011F0009FEF08950895E091CE0F8091CF0FE817EB
:1012000030F4F0E0E255F04F808190E008958FEFE8
:101210009FEF08959091CE0F8091CF0F981750F4C3
:10122000E92FF0E0E255F04F208130E09F5F90938E
:10123000CE0F02C02FEF3FEFC90108958091CF0F6D
:1012400090E02091CE0F821B9109089585ED809347
:10125000BC008091BC0084FDFCCF1092EE1008957C
:1012600040916310262F30E0240F311D21323105CB
:10127000DCF42091EE102430C9F4FC0180E090E011
:10128000861758F4309163102191DC01AF5BBF4E9B
:10129000A30FB11D2C930196F3CF80916310680FBB
:1012A0006093631080E0089581E0089582E00895DE
:1012B000CF92DF92EF92FF920F931F93CF93DF9322
:1012C0007C01262F972F8A018091EF10882391F0BF
:1012D000C62FD72F6E01C40ED51ECC15DD0569F0C3
:1012E0006991D701ED91FC910190F081E02DC7014A
:1012F0001995F3CF642F822FB3DFC801DF91CF910F
:101300001F910F91FF90EF90DF90CF900895CF93B2
:10131000DF931F92CDB7DEB769832091EF102223B0
:10132000D1F020911111203240F021E030E0FC0199
:101330003383228380E090E014C08091F010E82F86
:10134000F0E0EF50FF4E998190838F5F8093F01013
:101350008093111104C061E0CE01019681DF81E02C
:1013600090E00F90DF91CF9108950E940423FC013B
:10137000808191810C948821EF92FF920F931F93AB
:10138000CF93DF93EC01198218821B821A821D828F
:101390001C8261157105A9F17B01FB010190002000
:1013A000E9F731978F01061B170BB8016F5F7F4F6D
:1013B00080E090E00E942022009759F09983888372
:1013C0001B830A832C813D81232B81F4FC01108235
:1013D0000DC088819981009711F00E94882119829F
:1013E00018821D821C821B821A820BC01D830C83F3
:1013F000B701DF91CF911F910F91FF90EF900C9467
:101400001123DF91CF911F910F91FF90EF900895DD
:101410004F925F926F927F92EF92FF920F931F9382
:10142000CF93DF93CDB7DEB7A1970FB6F894DEBFA9
:101430000FBECDBF7C01FA01CB0119A2223008F406
:101440002AE08E010F5D1F4F422E512C612C712C12
:10145000BF01A30192010E94B520F901CA01015008
:1014600011096A3014F4605D01C0695CD8016C93A5
:10147000232B242B252B61F7B801C701C2DCA196D1
:101480000FB6F894DEBF0FBECDBFDF91CF911F9195
:101490000F91FF90EF907F906F905F904F90089525
:1014A000CF92DF92EF92FF920F931F93CF93DF9330
:1014B000EC016A017B01E881F9810190F081E02D66
:1014C0006DE219958C0144275527BA014C195D0925
:1014D0006E097F092AE0CE019BDF800F911FDF910B
:1014E000CF911F910F91FF90EF90DF90CF900895D3
:1014F00088CCDC01ED91FC91DB0114964D915C915F
:1015000015976D917C910280F381E02D19941F92C3
:101510000F920FB60F9211240BB60F922F933F9399
:101520004F935F936F937F938F939F93AF93BF93EB
:10153000EF93FF9382E191E1FDDCFF91EF91BF9189
:10154000AF919F918F917F916F915F914F913F915B
:101550002F910F900BBE0F900FBE0F901F901895FC
:101560001F920F920FB60F9211240BB60F922F936A
:101570003F934F935F936F937F938F939F93AF931B
:10158000BF93EF93FF9382E191E17BDCFF91EF91B9
:10159000BF91AF919F918F917F916F915F914F918B
:1015A0003F912F910F900BBE0F900FBE0F901F9089
:1015B00018951F920F920FB60F9211240BB60F922F
:1015C0002F933F934F935F936F937F938F939F934B
:1015D000AF93BF93EF93FF938FEA91E1ABDCFF9161
:1015E000EF91BF91AF919F918F917F916F915F919B
:1015F0004F913F912F910F900BBE0F900FBE0F9008
:101600001F9018951F920F920FB60F9211240BB6D0
:101610000F922F933F934F935F936F937F938F938B
:101620009F93AF93BF93EF93FF938FEA91E129DCF0
:10163000FF91EF91BF91AF919F918F917F916F91AA
:101640005F914F913F912F910F900BBE0F900FBE66
:101650000F901F9018950F931F93CF93DF931F92B6
:10166000CDB7DEB78C01FC0184816983D1D2F8014A
:1016700083856981862B90E0C7D20F90DF91CF914F
:101680001F910F9164C20F931F93CF938C01C62FAC
:10169000E2DF6C2F6460C801DEDF6C2F6B7FC80156
:1016A000DADF83EC90E00197F1F7CF911F910F9172
:1016B0000895FF920F931F93CF93DF931F92CDB79F
:1016C000DEB78C01F62E962F907F692F642BC80110
:1016D0004983D9DF80E1F89EB00111244981642B50
:1016E000C8010F90DF91CF911F910F91FF90CBCF49
:1016F00041E0DFDF81E090E008951F920F920FB686
:101700000F9211240BB60F922F933F934F935F9339
:101710006F937F938F939F93AF93BF93EF93FF93B9
:10172000E091AC0FF091AD0F309709F451C0968D58
:10173000A685B785858591FF04C09C91892329F4EE
:1017400047C09C91892309F043C0A389B4899C9127
:101750008589809589238C93868997890197F1F7EC
:10176000608D718DA685B785558538E020E0CB0169
:101770000197F1F7822F90E095958795282F4C914E
:10178000452309F02068315091F7868D81FD209521
:101790008091AB0F90E001968F7399273091AA0F3B
:1017A000381749F0A091AB0FB0E0A857BF4E2C936B
:1017B0008093AB0F03C0868D8160868F828D938D61
:1017C0000197F1F7A389B4899C918589892B8C9322
:1017D000FF91EF91BF91AF919F918F917F916F9109
:1017E0005F914F913F912F910F900BBE0F900FBEC5
:1017F0000F901F9018951F920F920FB60F92112401
:101800000BB60F922F933F934F935F936F937F93FA
:101810008F939F93AF93BF93EF93FF938091B90002
:10182000887F803609F49CC068F5883209F45BC073
:1018300090F4803109F454C038F4882309F4F6C0D8
:10184000883009F44DC0F5C0883109F44CC08032AD
:1018500009F45DC0EEC0803409F468C048F48033F8
:1018600009F455C0883309F0E4C08093EC10D8C067
:10187000803509F44FC0883509F45DC0883409F01B
:10188000D8C0D6C0883909F4C7C0A8F4883709F48D
:1018900067C038F4883609F463C0803709F460C043
:1018A000C8C0883809F4B8C0803909F45FC08038EE
:1018B00009F0BFC05BC0803B09F486C038F4803AB1
:1018C00009F466C0883A09F47FC0B3C0803C09F4CB
:1018D000A7C0883C09F4A4C0883B09F48AC0A9C009
:1018E0008091C91010C09091EB108091EA10981768
:1018F00070F5E091EB1081E08E0F8093EB10F0E03B
:10190000E653FF4E80818093BB0085EC86C08093B8
:10191000EC108EC0E091EB1081E08E0F8093EB1005
:101920008091BB00F0E0E653FF4E80839091EB1076
:101930008091EA106EC0E091EB1081E08E0F8093F1
:10194000EB108091BB00F0E0E653FF4E8083809166
:10195000ED1081116DC081E08093C81084EA61C0F0
:1019600083E08093EE1010928710CFCF8091871084
:10197000803208F051C0E091871081E08E0F809393
:1019800087108091BB00F0E0E959FF4E8083BDCF06
:1019900085EC8093BC001092EE108091871080320D
:1019A00030F4E0918710F0E0E959FF4E1082609129
:1019B000871070E0E0916510F091661087E690E185
:1019C00019951092871035C084E08093EE10109224
:1019D000641010926310E0916110F09162101995FB
:1019E00080916310811105C081E080936310109293
:1019F0004110E091641081E08E0F80936410F0E05C
:101A0000EF5BFF4E80818093BB00909164108091CA
:101A10006310981708F479CF85E88093BC0009C05B
:101A200085EC8093BC001092EE1003C01092EC1075
:101A30000DDCFF91EF91BF91AF919F918F917F91BD
:101A40006F915F914F913F912F910F900BBE0F902F
:101A50000FBE0F901F90189590E0FC013197E23176
:101A6000F10508F04EC08827E557FF4F8F4F0C94C3
:101A7000D720809180008F7703C0809180008F7D78
:101A800080938000089580918000877FF9CF84B58E
:101A90008F7702C084B58F7D84BD08958091B0009A
:101AA0008F7703C08091B0008F7D8093B000089540
:101AB000809190008F7707C0809190008F7D03C048
:101AC00080919000877F8093900008958091A0007E
:101AD0008F7707C08091A0008F7D03C08091A00008
:101AE000877F8093A0000895809120018F7707C0A1
:101AF000809120018F7D03C080912001877F80939A
:101B0000200108953FB7F89480919A1290919B120A
:101B1000A0919C12B0919D1226B5A89B05C02F3FA5
:101B200019F00196A11DB11D3FBFBA2FA92F982F03
:101B30008827820F911DA11DB11DBC01CD0142E07E
:101B4000660F771F881F991F4A95D1F70895209136
:101B5000111190919E12213208F04AC08091EE102E
:101B60008111FCCF32E03093EE1031E03093ED1074
:101B70003FEF3093EC101092EB102093EA10A1EF9E
:101B8000B0E14AEC50E1FA013E2F341B321718F451
:101B90003D913193F9CF1092C9102091C910990F3E
:101BA000922B9093C9109091C810913061F41092CB
:101BB000C8109091C9109093BB009091BC0093FD08
:101BC000F8CF95EC01C095EE9093BC009091EE108B
:101BD0009230E1F39091EC109F3F79F08091EC10FE
:101BE000803241F08091EC10803331F084E005C008
:101BF00081E003C082E001C083E01092F0101092F7
:101C000011111092EF100895682F8CE492E17FCBB0
:101C100091E09093EF1080939E121092F01010922A
:101C200011110895CF93DF93BC018FEA91E1E9D8B8
:101C3000EC0166EA7FE08FEA91E1E3D88C0F9D1F0B
:101C4000DF91CF91089540E061E083E892E131DDDA
:101C50008BE39FE10197F1F70895CF93DF93CDB721
:101C6000DEB728970FB6F894DEBF0FBECDBF28E0D1
:101C7000E7E0F2E0DE01119601900D922A95E1F77E
:101C800020918B12261710F46FEF620FFE01319630
:101C9000E60FF11DE60FF11D9081682F690F606856
:101CA00040E083E892E128960FB6F894DEBF0FBEBD
:101CB000CDBFDF91CF91FDCCCF93DF93BC018FEAF5
:101CC00091E117DCEC0166EA7FE08FEA91E199D8B7
:101CD0008C0F9D1FDF91CF910895CF93DF93E091FB
:101CE000AF11F091B0110190F081E02D682F8FEAD3
:101CF00091E11995EC0166EA7FE08FEA91E181D8E4
:101D00008C0F9D1FDF91CF9108950F931F93CF9359
:101D1000DF938C01C0E0D0E0F801EC0FFD1F64916F
:101D2000662371F0E091AF11F091B0110190F08154
:101D3000E02D8FEA91E11995892B11F02196ECCFD6
:101D400066EA7FE08FEA91E15CD88C0F9D1FDF91FE
:101D5000CF911F910F910895CF93DF93282F30E0FB
:101D6000F901E456FE4F8491F901E45AFD4FD491F4
:101D7000F901EA5EFD4FC491CC2389F081116CDE3C
:101D8000EC2FF0E0EE0FFF1FE450FE4FA591B49151
:101D9000EC91ED2381E090E021F480E002C080E04E
:101DA00090E0DF91CF9108951F93CF93DF93282F79
:101DB00030E0F901E456FE4F8491F901E45AFD4FF9
:101DC000D491F901EA5EFD4FC491CC23C1F0162FE6
:101DD000811142DEEC2FF0E0EE0FFF1FEE51FE4FBF
:101DE000A591B4918FB7F894111105C09C91ED2F76
:101DF000E095E92302C0EC91ED2BEC938FBFDF91CE
:101E0000CF911F910895CF93DF9390E0FC01E45AA6
:101E1000FD4F2491FC01EA5EFD4F8491882361F11E
:101E200090E0880F991FFC01EE57FE4FC591D491A9
:101E3000FC01EE51FE4FA591B491611109C09FB70D
:101E4000F8948881209582238883EC912E230BC0FF
:101E5000623061F49FB7F8943881822F8095832394
:101E60008883EC912E2B2C939FBF06C08FB7F894DC
:101E7000E8812E2B28838FBFDF91CF9108958F9219
:101E80009F92AF92BF92CF92DF92EF92FF926B013F
:101E90007C0138DE4B015C01C114D104E104F10482
:101EA000E9F030DEDC01CB0188199909AA09BB09E8
:101EB000883E9340A105B10578F321E0C21AD1080C
:101EC000E108F10888EE880E83E0981EA11CB11C81
:101ED000C114D104E104F10421F7DECFFF90EF90AB
:101EE000DF90CF90BF90AF909F908F900895CF9349
:101EF000C82F6EEF84E692E1F1D86C2F6295660FE1
:101F0000660F607C605884E692E1E8D862E070E099
:101F100080E090E0CF91B3CF2FB7F8946091961204
:101F20007091971280919812909199122FBF0895F5
:101F30001F920F920FB60F9211242F933F938F93FE
:101F40009F93AF93BF938091961290919712A09117
:101F50009812B09199123091951223E0230F2D37EA
:101F600020F40196A11DB11D05C026E8230F02969D
:101F7000A11DB11D209395128093961290939712F4
:101F8000A0939812B093991280919A1290919B12FB
:101F9000A0919C12B0919D120196A11DB11D80933C
:101FA0009A1290939B12A0939C12B0939D12BF9192
:101FB000AF919F918F913F912F910F900FBE0F90F6
:101FC0001F901895CF93DF93CDB7DEB76E970FB6FE
:101FD000F894DEBF0FBECDBF789484B5826084BD17
:101FE00084B5816084BD85B5826085BD85B581601D
:101FF00085BD80916E00816080936E00109281009B
:102000008091810082608093810080918100816055
:102010008093810080918000816080938000809116
:10202000B10084608093B1008091B00081608093A2
:10203000B000809191008260809391008091910026
:1020400081608093910080919000816080939000E6
:102050008091A10082608093A1008091A1008160A5
:102060008093A1008091A00081608093A000809166
:102070002101826080932101809121018160809300
:1020800021018091200181608093200180917A005C
:10209000846080937A0080917A00826080937A00D5
:1020A00080917A00816080937A0080917A008068C4
:1020B00080937A001092C10010927F1210927E12CB
:1020C00010927D1210927C1210927B1210927A1252
:1020D0008DE991E09093811280938012809170122B
:1020E00096EF980F943048F02EEC280F243028F00B
:1020F00022EC280F283008F070C02DEB30E0309330
:102100007B1220937A122BE931E030937D122093D9
:102110007C122CE231E030937F1220937E129430B7
:1021200070F02EEC280F243050F022EC280F2830CD
:1021300010F40C94491FA0E0B0E00C944B1FA8E6EB
:10214000B0E0E8E6F0E02081943018F08E5388305B
:1021500010F081E001C084E0822B8C93809170129A
:1021600096EF980F943058F02EEC280F243038F06A
:1021700022EC280F283030F020E030E005C02BE6BC
:1021800030E002C02DE630E03093781220937712D1
:10219000943010F49AEF0BC0823381F0833381F0D6
:1021A000843381F092EC980F983070F492EC980F91
:1021B00081E001C0880F9A95EAF707C088E005C062
:1021C00084E003C082E001C081E0809379128091B5
:1021D0008012909181120197F1F780917E12909177
:1021E0007F12892B49F1E091AC0FF091AD0F82E1A4
:1021F000E436F80709F1309739F0A389B4899C9146
:102200008589809589238C93809182128E7F80931B
:1022100082121092AB0F1092AA0F84E692E1909373
:10222000AD0F8093AC0FE0917712F091781290810E
:1022300080917912892B80830E94800380E090E056
:1022400056DE1092CE0F1092CF0F1092F010109217
:1022500011110E9489011092881280918D12823092
:1022600018F098E09093881280938B1262E370E0EC
:1022700080E090E004DE60918E1283E892E1EBD979
:1022800068EE73E080E090E0FADD60E383E892E1DD
:10229000FAD90BE416E4C8010197F1F760E383E88B
:1022A00092E1F1D9C8010197F1F760E383E892E187
:1022B000EAD983E592E00197F1F760E283E892E1E1
:1022C000E2D960918812606240E083E892E1F1D93E
:1022D00084E08093891240E06CE083E892E1E9D9E0
:1022E000B2DC12E010938A1240E066E083E892E1EB
:1022F000E0D940E062E083E892E1DBD98BE39FE143
:102300000197F1F788E080938E1260E083E892E114
:10231000A2D960E080E0A1DC67E472E083E892E1AA
:10232000E7D861E080E099DC6FE472E083E892E155
:10233000DFD86FE872E183E892E1DBD862E080E009
:102340008CDC69E572E083E892E1D2D8E091BF11BC
:10235000F091C0111083E091BB11F091BC1110827B
:10236000E091BD11F091BE118FEC80831092C711E6
:10237000E091C311F091C41186E08083E091C11116
:10238000F091C211808180618083E091C111F09150
:10239000C211808188608083E091C111F091C211E7
:1023A000808180688083E091C111F091C2118081A9
:1023B0008F7D80831092CE0F1092CF0F1092F0106D
:1023C000109211110E94890160E082E31CDD60E03F
:1023D00080E319DD60E08EE116DD60E08FE113DD62
:1023E00060E081E210DD60E08AE20DDD60E080E225
:1023F0000ADD60E088E107DD60E084E204DD60E0A2
:1024000083E201DD60E089E1FEDC60E088E2FBDC84
:1024100060E08DE1F8DC60E08CE2F5DC60E082E217
:10242000F2DC60E08EE2EFDC60E08AE1ECDC60E0B0
:1024300086E2E9DC61E085E2E6DC61E087E2E3DC9C
:1024400061E089E2E0DC61E085E3DDDC61E084E31A
:10245000DADC61E08CE1D7DC61E08DE2D4DC61E0C4
:102460008FE2D1DC61E08BE2CEDC61E081E3CBDCAA
:1024700061E083E3C8DC61E08BE1C5DC61E082E31D
:1024800093DC61E080E390DC61E08EE18DDC61E073
:102490008FE18ADC61E081E287DC61E08AE284DC52
:1024A00061E080E281DC61E088E17EDC61E084E281
:1024B0007BDC61E083E278DC61E088E275DC61E08E
:1024C00089E172DC61E08DE16FDC61E08CE26CDC63
:1024D00061E082E269DC61E08EE266DC61E08AE173
:1024E00063DC61E086E260DC82E0E82EF12C93E0C0
:1024F000C92ED12CAA24A394B12C06E910E034E60D
:10250000832E912C4EEA642E4FE0742E05DD20912F
:10251000E60F3091E70F4091E80F5091E90F1B0152
:102520002C01221A330A440A550AA20191012536C8
:1025300031054105510590F06093E60F7093E70F68
:102540008093E80F9093E90F80910F10811104C0E0
:1025500081E080930F1002C010920F10DDDC2091FB
:10256000EA0F3091EB0F4091EC0F5091ED0F1B01F2
:102570002C01221A330A440A550AA20191012B3F69
:1025800031054105510590F06093EA0F7093EB0F10
:102590008093EC0F9093ED0F80912D10811104C06A
:1025A00081E080932D1002C010922D10B5DC209197
:1025B000EE0F3091EF0F4091F00F5091F10F1B0192
:1025C0002C01221A330A440A550AE5EF2E16E1E0DF
:1025D0003E064104510490F06093EE0F7093EF0FAC
:1025E0008093F00F9093F10F80912810811104C017
:1025F00081E08093281002C0109228108DDC209179
:10260000F20F3091F30F4091F40F5091F50F1B0131
:102610002C01221A330A440A550AE9EE2E16E3E089
:102620003E064104510490F06093F20F7093F30F53
:102630008093F40F9093F50F8091E50F811104C002
:1026400081E08093E50F02C01092E50F82E384DB06
:10265000892B21F481E08093221002C01092221075
:1026600080E37ADB892B21F081E08093371002C070
:10267000109237108EE170DB892B21F481E080937A
:102680000E1002C010920E108FE166DB892B61F4F0
:1026900081E08093E00F1092231010923510B092D9
:1026A000FB0FA092FA0F27C081E256DB892B61F461
:1026B0001092E00F1092231081E080933510D09299
:1026C000FB0FC092FA0F17C08FE146DB892B11F484
:1026D0000C94091F81E240DB892B11F40C94091F33
:1026E0001092E00F81E08093231010923510F09249
:1026F000FB0FE092FA0F8EE22FDB892B21F481E0B1
:102700008093341002C0109234108AE225DB0197C6
:1027100019F41092E20F03C081E08093E20F80E28F
:102720001BDB892B21F081E080930D1002C01092F9
:102730000D1088E111DB892B21F481E080932B10AF
:1027400002C010922B1082E207DB892B19F4109241
:10275000DF0F03C081E08093DF0F8AE1FDDA892B70
:1027600021F481E08093F90F02C01092F90F86E204
:10277000F3DA892B21F481E08093F80F02C01092E4
:10278000F80F84E2E9DA892B61F481E080931C1070
:1027900010921B1010921A10B0921210A0921110E9
:1027A00017C084E2D9DA892B11F40C940F1F83E24D
:1027B000D3DA892B11F40C940F1F10921C1081E0B6
:1027C00080931B1010921A10F0921210E0921110C8
:1027D00089E1C2DA892B21F481E08093E10F02C004
:1027E0001092E10F88E2B8DA892B21F481E080931E
:1027F000E40F02C01092E40F8DE1AEDA892B21F4D0
:1028000081E08093F70F02C01092F70F8CE2A4DAF8
:10281000892B21F481E08093F60F02C01092F60F0D
:102820008091F70F882341F08091F60F882321F0E3
:1028300081E08093181006C080913510811102C08C
:1028400010921810809139108111B1C58091031038
:10285000882389F08091E20F882351F080912D1018
:10286000882311F060E001C061E085E39DDA03C0D8
:102870008091E50FF5CF80910210882349F0809177
:10288000E50F882311F060E001C061E08CE18CDA93
:1028900080910B108111BDC069E672E0CE010196F6
:1028A0000E94BC0960EB72E0CE0107960E94BC0951
:1028B00067E772E0CE010D960E94BC096DE872E0F8
:1028C000CE0143960E94BC098EE592E1F5D98FE2D4
:1028D00004DA8EE592E1F0D9CE010196EDD9CE0170
:1028E0004396EAD98EE592E1E7D9CE010796E4D97D
:1028F000CE010D96E1D982EA92E094D96FE872E1B7
:102900008FEA91E10E94790A8EE592E1D5D98FE2B2
:10291000E4D90E9480036CEA72E084E692E10E94AE
:10292000780A81E090E0E3DA6DEB72E084E692E110
:102930000E94780A6FE872E184E692E10E94790AC7
:10294000CE0143960E94B709CE010D960E94B709A9
:10295000CE0107960E94B709CE0101960E94B709E1
:1029600064E670E080E090E08ADA88EA9FE05AD975
:102970008CE7B3D989E591E0C8D98CE7AED988EA6C
:102980009FE050D981E080930B1064E670E080E016
:1029900090E075DA62EC72E0CE0101960E94BC090B
:1029A0006BEF72E0CE0107960E94BC0969E273E00A
:1029B000CE010D960E94BC09CE0101967DD967E932
:1029C00073E0CE0149960E94BC0960E070E0CE0140
:1029D00049960E945804CE0149960E94B70963EABD
:1029E00073E0CE0149960E94BC0961E070E0CE011F
:1029F00049960E945804CE0149960E94B709CE011B
:102A00000D960E94B709CE0107960E94B7090C9453
:102A10001D1E80910E10882309F413C680910A10A0
:102A2000811144C062EC72E0CE0101960E94BC09A3
:102A30006BEF72E0CE0107960E94BC0969E273E079
:102A4000CE010D960E94BC09CE01079635D981E0D2
:102A500080930A1063EB73E0CE0149960E94BC0993
:102A600060E070E0CE0149960E945804CE0149967C
:102A70000E94B7096FEB73E0CE0149960E94BC0932
:102A800061E070E0CE0149960E945804CE0149965B
:102A90000E94B709CE010D960E94B709CE01079694
:102AA0000E94B709CE0101960E94B70980910910D2
:102AB0008111B7C18091E00F882309F4AFC18091E3
:102AC0002B10882309F43FC18091D80F811104C0D5
:102AD00082E090E00E9492038091DF0F811139C063
:102AE0008091E50F81111AC061E087E25DD960E055
:102AF00089E25AD961E085E357D960E084E354D98B
:102B000060E08CE151D961E08FE24ED961E08BE267
:102B10004BD961E081E348D960E019C060E087E209
:102B200043D961E089E240D960E085E33DD961E0C5
:102B300084E33AD961E08CE137D960E08FE234D99F
:102B400060E08BE231D960E081E32ED961E08DE273
:102B500017C061E087E228D961E089E225D961E008
:102B600085E322D961E084E31FD961E08CE11CD9BF
:102B700061E08FE219D961E08BE216D961E081E36F
:102B800013D980910D10882379F081E0809339105A
:102B900080930910809304108093DA0F80930210C1
:102BA0008093FC0F0E94C7018091221061E088236E
:102BB00009F4B0C085E027D9E1EAF1E0E4918E2F75
:102BC00090E0FC013197E231F10508F0A1C08827BF
:102BD000EE58FF4F8F4F0C94D72084B5806884BD8A
:102BE00086E987BD9CC084B5806284BD86E988BDC6
:102BF00096C0809180008068809380001093890047
:102C0000009388008CC08091800080628093800057
:102C100010938B0000938A0082C0809180008860AE
:102C20008093800010938D0000938C0078C0809179
:102C3000B00080688093B00086E98093B3006FC0D5
:102C40008091B00080628093B00086E98093B400E8
:102C500066C08091900080688093900010939900E6
:102C6000009398005CC080919000806280939000F7
:102C700010939B0000939A0052C08091900088604E
:102C80008093900010939D0000939C0048C0809119
:102C9000A00080688093A0008091A0008F7B80932B
:102CA000A0001093A9000093A80039C08091A00053
:102CB00080628093A0001093AB000093AA002FC005
:102CC0008091A00088608093A0001093AD000093D5
:102CD000AC0025C080912001806880932001109372
:102CE0002901009328011BC08091200180628093FC
:102CF000200110932B0100932A0111C08091200123
:102D000088608093200110932D0100932C0107C04F
:102D100061E003C085E077D860E085E045D8809128
:102D2000E20F882309F466C06EEC73E0CE010196D1
:102D30000E94BC09CE0101960E94B002CE0101960C
:102D40000E94B70957C08091D90F811104C081E05A
:102D500090E00E9492038091E50F811120C061E014
:102D600087E222D861E089E21FD861E085E31CD8C0
:102D700061E084E319D861E08CE116D861E08FE26C
:102D800013D861E08BE210D861E081E30DD861E0F7
:102D90008BE10AD861E083E307D860E028C060E0F7
:102DA00087E202D860E089E20E94D40E60E085E309
:102DB0000E94D40E60E084E30E94D40E60E08CE1B7
:102DC0000E94D40E60E08FE20E94D40E60E08BE29D
:102DD0000E94D40E60E081E30E94D40E60E08BE19B
:102DE0000E94D40E60E083E30E94D40E61E08DE285
:102DF0000E94D40E8091E10F882311F40C94051FDA
:102E00000E94C70181E08093091060E08DE20E947A
:102E1000D40E83E090E00E949203C6C20E94C701D4
:102E200090C78091041081111DC18091D90F81112B
:102E300004C081E090E00E94C8028091E00F8823E6
:102E400009F40BC18091D80F811104C082E090E099
:102E50000E94C8028091D70F811154C08091D60F73
:102E6000811104C083E090E00E94C8028091E50FC8
:102E7000882311F061E001C060E08CE10E94D40E73
:102E800080910D108823D9F161E08CE10E94D40E6D
:102E90008091331081110CC03FD860932F10709334
:102EA0003010809331109093321081E08093331072
:102EB00020902F10309030104090311050903210F0
:102EC0002BD8AB01BC01421953096409750981E093
:102ED000493E53406105710508F480E080932E104F
:102EE000882309F442C081E08093D70F8091D50FE9
:102EF00081113BC084E090E00E94C80236C010926D
:102F0000331033C08091D40F81112FC08091D30F23
:102F1000811104C085E090E00E94C8028091D20F28
:102F200081110AC08091E50F882311F061E001C092
:102F300060E085E30E94D40E809137108823A9F0C9
:102F40008091D10F811104C086E090E00E94C802F8
:102F500080912810882311F061E001C060E085E3D2
:102F60000E94D40E81E08093D20F8091D20F8823EB
:102F700009F44BC780913710811147C761E085E3A1
:102F80000E94D40E81E08093D40F8091E50F8823B6
:102F900031F08091E10F811102C061E001C060E079
:102FA0008DE20E94D40E8091E10F882309F44AC07B
:102FB00061E08DE20E94D40E8091331081110DC02A
:102FC0000E948C0F60932F107093301080933110FB
:102FD0009093321081E08093331020902F10309026
:102FE000301040903110509032100E948C0FAB0185
:102FF000BC01421953096409750981E0453F5140FC
:103000006105710508F480E080932E108823E1F0BB
:1030100060E08DE20E94D40E0E94C70161E08CE165
:103020000E94D40E0E94A70161E085E30E94D40EA5
:1030300081E08093041068EE73E080E090E00E94ED
:103040003F0F02C0109233108091D00F8111DDC666
:1030500087E090E00E94C802D8C660E08DE20E943E
:10306000D40E4BC180910310811109C18091DA0FF8
:10307000811148C0909139108091E30F91113EC0A9
:10308000882319F00E94EF01C0C68091D90F8111E9
:103090000BC080EE93E00E94120E85E094E00E9447
:1030A000120E81E08093D90F8091E50F882351F0B3
:1030B00060E084E30E94D40E80912B10882371F08D
:1030C00061E009C061E084E30E94D40E80912B107E
:1030D000882321F060E08FE20E94D40E80912B10B3
:1030E000882309F492C68091E40F882321F081E0BF
:1030F0008093E30F8AC60E94C70187C6882309F41C
:1031000084C6C0CF61E085E30E94D40E8091D90FC0
:10311000811107C081E090E00E94850581E08093E5
:10312000D90F8091E00F882309F4E7C08091D80F70
:10313000811107C082E090E00E94850581E08093C4
:10314000D80F8091001081114EC08091E10F88232B
:10315000E9F161E08DE20E94D40E8091331081117B
:103160000DC00E948C0F60932F10709330108093CD
:1031700031109093321081E08093331020902F1003
:103180003090301040903110509032100E948C0FCF
:10319000AB01BC01421953096409750981E0453F3F
:1031A00051406105710508F480E080932E1088235A
:1031B00009F42BC683E090E00E94850560E08DE273
:1031C0000E94D40E81E0809300101FC68091E50F0D
:1031D000882311F061E001C060E08DE20E94D40E0E
:1031E0001092331012C68091E20F882309F46DC04B
:1031F00061E084E30E94D40E8091331081110DC0F0
:103200000E948C0F60932F107093301080933110B8
:103210009093321081E08093331020902F103090E3
:10322000301040903110509032100E948C0FAB0142
:10323000BC01421953096409750981E041315742C3
:103240006105710508F480E080932E10882309F44D
:10325000DCC584E090E00E9485050E94C70160E023
:1032600084E30E94D40E0E94A70168EE73E080E020
:1032700090E00E943F0F81E080930310C6C58091CB
:103280000210882359F180910110811174C180913D
:10329000D90F811107C081E090E00E94700481E0A5
:1032A0008093D90F8091E00F882339F18091D80F56
:1032B000811107C082E090E00E94700481E0809359
:1032C000D80F8091E20F81111DC1809128108823B1
:1032D00011F061E001C060E084E380CF8091D90FFC
:1032E000811107C081E090E00E94EE0481E08093AC
:1032F000D90F8091E00F811105C00E94C701109283
:10330000D80F83C58091D80F811107C082E090E06B
:103310000E94EE0481E08093D80F809134108823BE
:1033200009F4E7C061E083E30E94D40E809133107A
:1033300081110DC00E948C0F60932F10709330107C
:10334000809331109093321081E08093331020905D
:103350002F103090301040903110509032100E9459
:103360008C0FAB01BC01421953096409750981E056
:10337000493853416105710508F480E080932E10AF
:10338000882309F442C583E090E00E94EE0481E0C6
:10339000809302101092FF0F1092FE0F0E94C7013F
:1033A00060E084E30E94D40E0E94A7012EC5909194
:1033B000E00F80912B10911157C1882329F0809143
:1033C0002D10882309F44EC161E087E20E94D40EDB
:1033D00080910E1081110DC081E080933610809392
:1033E000381080932C10909221108092201080939E
:1033F0001D1080913710882329F081E080933610CA
:103400008093381080910D10882339F081E08093EB
:103410002710809326108093381080912C108111F2
:1034200028C18091361081115FC1809127108111D0
:103430008FC180910E10882309F4BCC161E085E240
:103440000E94D40E80913810882309F4C5C1809160
:1034500037108111DAC480913610882309F4F2C341
:103460006AE674E0CE0101960E94BC0960E070E05B
:10347000CE0101960E945804CE0101960E94B70920
:1034800080913510882309F4BCC30E94800363E552
:1034900075E084E692E10E94780A0E947C0364E66B
:1034A00075E084E692E10E94780A61E775E0CE015A
:1034B00001960E94BC0962E070E0CE0101960E9474
:1034C0005804CE0101960E94B70964E875E0CE0168
:1034D00001960E94BC0963E070E0CE0101960E9453
:1034E0005804CE0101960E94B709809134108111D1
:1034F00046C380912D10882311F061E001C060E087
:1035000083E36CCE61E084E30E94D40E809133109B
:1035100081110DC00E948C0F60932F10709330109A
:10352000809331109093321081E08093331020907B
:103530002F103090301040903110509032100E9477
:103540008C0FAB01BC01421953096409750981E074
:10355000493B5B406105710508F480E080932E10C3
:10356000882309F452C483E090E00E94700481E053
:10357000809301104AC48091FD0F811168C480912D
:10358000EE108111FCCF81E08093EE108093ED105E
:103590009FEF9093EC101092EB101092EA10809332
:1035A000C9108091C91080618093C9108091C810A2
:1035B000813061F41092C8108091C9108093BB00D3
:1035C0008091BC0083FDF8CF85EC01C085EE80932F
:1035D000BC008091EE108130E1F38091EB108111FD
:1035E00003C05090EB1002C055245394AAECB0E1F4
:1035F000EEEAFFE08E2F8619851518F48D918193E0
:10360000F9CF1092CE0F5092CF0F80E090E0209132
:10361000CE0F521629F08CE492E10E940A09F7CFEE
:10362000019709F017C489E294E00E94120E81E02C
:103630008093FD0F62E370E080E090E00E943F0F16
:1036400006C460E08DE20E94D40E0E94C701109271
:103650000A10109208101092071010920610109283
:103660000510D3C360E0B1CE8823E1F38091281028
:10367000A8CE80910C1081112CC08091381081113E
:1036800009C00E94C70160E08DE20E94D40E81E073
:10369000809338100E9480036CE574E084E692E128
:1036A0000E94780A4091201050912110052E000CA4
:1036B000660B770B77FF05C084E692E10E94500A03
:1036C00005C02AE084E692E10E94080A81E0809326
:1036D0000C108091E50F882311F061E001C060E0DB
:1036E00089E20E94D40E9DCE80911D10811121C0CF
:1036F0000E94C70160E08DE20E94D40E61E08CE17F
:103700000E94D40E8AE694E00E94120E552453942F
:1037100050922C10109321100093201080912510AE
:10372000811104C00E94C9065092251081E0809347
:103730001D1080913710882311F061E005C0809141
:1037400028108823D1F360E085E30E94D40E6DCE6B
:103750008091241081111EC00E94C70160E08DE29B
:103760000E94D40E60E084E30E94D40E89E794E0C6
:103770000E94120E80912510811103C081E0809378
:10378000251064EF71E080E090E00E943F0F81E03F
:103790008093241080912610882309F44ACE8091CA
:1037A0002810882311F060E001C061E08CE10E94E4
:1037B000D40E3FCE81E080933810809336100E9463
:1037C000C70160E08DE20E94D40E8091E50F88234E
:1037D00009F434CE60E033CE80911C10882309F4C4
:1037E000A3C18091E00F882309F497C1809119103B
:1037F00081115FC19091DF0F809114109923F1F135
:10380000882309F44CC01092DE0F1092DD0F88E07F
:103810000E94080E80E090E00E94040E83E090E099
:103820000E94040E0E94A70D6AE070E080E090E024
:103830000E943F0F1092DC0F1092DB0F88E00E9475
:10384000080E80E090E00E94040E80E090E00E946C
:10385000040E0E94A70D6AE070E080E090E00E94F4
:103860003F0F1092141080E090E00E94770F6BE8F9
:1038700074E084E692E10E94780A11C081110FC0C1
:103880000E94910680E090E00E94770F6CE974E05E
:1038900084E692E10E94780A81E08093141080917E
:1038A000E40F882309F44CC080911310882309F495
:1038B0004AC010921310809115108823D9F01092ED
:1038C00015100E94590660E08FE20E94D40E6DEA46
:1038D00074E0CE0101960E94BC09CE0101960E94BF
:1038E0005C0ECE0101960E94B7090E947C0361EC38
:1038F00074E01BC081E0809315100E94210661E0F6
:103900008FE20E94D40E62ED74E0CE0101960E9417
:10391000BC09CE0101960E945C0ECE0101960E9468
:10392000B7090E947C0364EE74E084E692E10E9491
:10393000780A64E670E080E090E00E943F0F03C0E8
:1039400081E08093131080911110909112108130BA
:10395000910579F480911410882341F0809115101D
:10396000882321F081E08093161016C01092161063
:1039700013C08230910511F0039771F480911410F7
:10398000811105C0109216101092101005C0809180
:1039900015108111E7CFF6CF80911610882309F416
:1039A0007FC080910F10882331F061E08BE20E948C
:1039B000D40E61E005C060E08BE20E94D40E60E0AE
:1039C00081E30E94D40E80911810882309F4C2C0AC
:1039D000809119108111BEC061E081E30E94D40E74
:1039E00061E08BE20E94D40E60E08FE20E94D40E70
:1039F0001092DE0F1092DD0F88E00E94080E80E02A
:103A000090E00E94040E82E090E00E94040E0E946A
:103A1000A70D6AE070E080E090E00E943F0F1092F6
:103A2000DC0F1092DB0F88E00E94080E80E090E02F
:103A30000E94040E80E090E00E94040E0E94A70DF8
:103A40006AE070E080E090E00E943F0F0E948003F7
:103A500065EF74E084E692E10E94780A0E947C039C
:103A600061E075E084E692E10E94780A0E94230EEC
:103A700060E080E00E942D0E6EE075E083E892E148
:103A80000E94780A61E080E00E942D0E61E075E0FE
:103A900083E892E10E94780A81E0809319105AC06D
:103AA00060E08BE20E94D40E60E081E30E94D40EBD
:103AB00051C08091181081114DC00E9480036CE9A3
:103AC00074E084E692E10E94780A0E947C0364EE2E
:103AD00074E084E692E10E94780A81E080931710F6
:103AE00010921610809100028823A1F010921510F8
:103AF00060E08FE20E94D40E8BE195E00E94120EEE
:103B00000E9459060E947C0361EC74E084E692E115
:103B10000E94780A109219101DC080912310811103
:103B200019C08091351006C080911B10811112C000
:103B300080911A1081110EC066E475E0CE010196E5
:103B40000E94BC09CE0101960E94B002CE010196EE
:103B50000E94B70961E084E30E94D40E8091E50FD2
:103B6000882331F060E085E30E94D40E60E005C058
:103B700061E085E30E94D40E61E08CE1E6C061E083
:103B800083E30E94D40E8091331081110DC00E94F6
:103B90008C0F60932F10709330108093311090939E
:103BA000321081E08093331020902F10309030102D
:103BB00040903110509032100E948C0FAB01BC012C
:103BC000421953096409750981E0413D5740610577
:103BD000710508F480E080932E10882309F415C144
:103BE00060E083E30E94D40E60E085E30E94D40E7F
:103BF00010921F1010921E101092361010921D106D
:103C000004C10E94800364E975E084E692E10E94A9
:103C1000780A0E947C0362EA75E084E692E10E94E1
:103C2000780A64EB75E0CE0101960E94BC0963E05E
:103C300070E0CE0101960E945804CE0101960E94C8
:103C4000B709E3C080912C10882309F481C08091CA
:103C50002310882309F475C085EC95E00E94120EAC
:103C60004091201050912110052E000C660B770B0F
:103C700077FF05C08FEA91E10E94500A05C02AE053
:103C80008FEA91E10E94080A0E9480036CE574E0CB
:103C900084E692E10E94780A409120105091211010
:103CA000052E000C660B770B77FF05C084E692E1CA
:103CB0000E94500A05C02AE084E692E10E94080AA8
:103CC000809120109091211084369105C1F044F428
:103CD0008832910589F0C897D9F488ED95E01AC02B
:103CE0008E36910579F08639910579F08536910502
:103CF00079F486E096E00EC08DEC95E00BC086EF7F
:103D000095E008C088E296E005C084E596E002C030
:103D10008FE696E00E94120E8091E10F882369F0F1
:103D200061E08DE20E94D40E1092211010922010BA
:103D300088E796E00E94120E68C08091E50F882304
:103D400011F060E001C061E08DE20E94D40E5DC020
:103D50000E94800363E575E084E692E10E94780AA0
:103D600080912B10882331F08091E50F882311F08A
:103D700061E001C060E08FE20E94D40E8091E40F08
:103D8000882319F081E08093E30F40902910509030
:103D90002A10EAE04E165104FCF48091E20F8823C9
:103DA00061F061E084E30E94D40E8FEF481A580A54
:103DB00050922A104092291028C080912810882300
:103DC00011F061E001C060E084E30E94D40E109223
:103DD0002A101092291019C061E084E30E94D40EC9
:103DE00010922A101092291010922710109226106B
:103DF000109238101092251081E08093241064EF07
:103E000071E080E090E00E943F0F0E9422080C9435
:103E100086128BEA96E00E94120E0C947B1383E2CA
:103E20000E94AC0E892B69F410921C1010921B108A
:103E300081E080931A10D0921210C09211100C944D
:103E4000E8138AE391E00E94850E0C94E8138AEC53
:103E500096E002C08EED96E00E94120E0E94C90606
:103E60000E9421060E9491060E94230E6AE474E0DB
:103E700083E892E10E94780A5524539450921510D9
:103E800061E08FE20E94D40E5092141050923910CB
:103E9000BCCFA8E6B0E0283010F40C94A110E0E00C
:103EA000F0E00C94A31088E592E10E94B7098EE53A
:103EB00092E10E94B70983E392E0909365128093A8
:103EC00064128091AC0F9091AD0F8456924171F4C1
:103ED000E0917712F091781290818091791280951B
:103EE000892380831092AD0F1092AC0F8FE892E17E
:103EF0000C94B709CF92DF92EF92FF9210921511B6
:103F00001092141198EEC92E93E0D92EE12CF12CC9
:103F1000C0921611D0921711E0921811F092191157
:103F200083E192E090931311809312112DEC30E015
:103F300030931F1120931E112CEC30E0309321118F
:103F40002093201128EC30E030932311209322118C
:103F500029EC30E030932511209324112AEC30E035
:103F600030932711209326112EEC30E03093291145
:103F70002093281110922B1110922C1110922D11B8
:103F800010922E111092B2111092B111C092B31171
:103F9000D092B411E092B511F092B6119093B01195
:103FA0008093AF1185EC90E09093BC118093BB118E
:103FB00084EC90E09093BE118093BD1180EC90E072
:103FC0009093C0118093BF1181EC90E09093C21147
:103FD0008093C11182EC90E09093C4118093C3113F
:103FE00086EC90E09093C6118093C5111092C81191
:103FF0001092C9111092CA111092CB1110924F1247
:1040000010924E12C0925012D0925112E09252125F
:10401000F092531283E292E090934D1280934C12EF
:1040200063E97FE08FE892E10E94BC09109286125A
:104030001092851283E492E090938412809383120D
:1040400087E28093871284E180938C1284E08093CE
:104050008D1210928E121092671210926612C092F8
:104060006812D0926912E0926A12F0926B1283E3A6
:1040700092E0909365128093641210927B121092DA
:104080007A1210927D1210927C1210927F1210926E
:104090007E121092811210928012609182126E7FB5
:1040A0006D7F609382126695617081E068278EE073
:1040B0000E94D40E61E08EE00E94030FEAE6F2E077
:1040C000E491E0937412E4E2F2E0E491F0E0EE0FA8
:1040D000FF1FEE51FE4F859194919093761280933D
:1040E000751260E080E00E94030F8091821281FDD2
:1040F00004C061E080E00E94D40E10927012ECE5E2
:10410000F2E0E491E0937112E6E1F2E0E491F0E094
:10411000EE0FFF1FE450FE4F859194919093731220
:104120008093721268EA7FE08EE592E10E94BC09FA
:104130006EE97FE088E592E1FF90EF90DF90CF900D
:104140000C94BC0997FB072E16F4009406D077FD5B
:1041500008D035D007FC05D03EF4909581959F4F4F
:104160000895709561957F4F0895A1E21A2EAA1BBC
:10417000BB1BFD010DC0AA1FBB1FEE1FFF1FA21717
:10418000B307E407F50720F0A21BB30BE40BF50B14
:10419000661F771F881F991F1A9469F7609570959D
:1041A000809590959B01AC01BD01CF010895EE0F64
:1041B000FF1F881F8BBF0790F691E02D1994AA1B53
:1041C000BB1B51E107C0AA1FBB1FA617B70710F002
:1041D000A61BB70B881F991F5A95A9F78095909534
:1041E000BC01CD010895CF93DF938230910510F487
:1041F00082E090E0E091A112F091A21220E030E084
:10420000C0E0D0E0309711F1408151814817590743
:10421000C0F04817590761F482819381209719F003
:104220009B838A832BC09093A2128093A11226C0F5
:104230002115310519F04217530718F49A01BE01F0
:10424000DF01EF010280F381E02DDCCF2115310584
:1042500009F1281B390B2430310590F412968D9109
:104260009C9113976115710521F0FB019383828363
:1042700004C09093A2128093A112FD01329644C013
:10428000FD01E20FF31F81939193225031092D9389
:104290003C933AC020919F123091A012232B41F4FD
:1042A00020910302309104023093A01220939F12B8
:1042B00020910102309102022115310541F42DB700
:1042C0003EB74091050250910602241B350BE09148
:1042D0009F12F091A012E217F307A0F42E1B3F0BE0
:1042E0002817390778F0AC014E5F5F4F2417350768
:1042F00048F04E0F5F1F5093A01240939F1281937E
:10430000919302C0E0E0F0E0CF01DF91CF910895FA
:104310000F931F93CF93DF93009709F48CC0FC0198
:104320003297138212820091A1121091A2120115EC
:10433000110581F420813181820F931F20919F12FA
:104340003091A0122817390779F5F093A012E09365
:104350009F1271C0D80140E050E0AE17BF0750F483
:1043600012962D913C911397AD012115310509F15C
:10437000D901F3CF9D01DA013383228360817181FA
:10438000860F971F8217930769F4EC012881398102
:10439000260F371F2E5F3F4F318320838A819B81F9
:1043A00093838283452B29F4F093A212E093A11208
:1043B00042C01396FC93EE931297ED0149915991E7
:1043C0009E01240F351FE217F30771F4808191815C
:1043D000840F951F029611969C938E9382819381F0
:1043E00013969C938E931297E0E0F0E0D80112961A
:1043F0008D919C911397009719F0F8018C01F6CFDD
:104400008D919C9198012E5F3F4F820F931F2091B9
:104410009F123091A0122817390769F4309729F4B8
:104420001092A2121092A11202C013821282109353
:10443000A01200939F12DF91CF911F910F910895C9
:104440006F927F928F929F92AF92BF92CF92DF92A4
:10445000EF92FF920F931F93CF93DF93EC0100979E
:1044600081F4CB01DF91CF911F910F91FF90EF90DD
:10447000DF90CF90BF90AF909F908F907F906F9084
:10448000B2CEFC01E60FF71F9C0122503109E21762
:10449000F30708F4A8C0D9010D911C9111970617D4
:1044A0001707A8F00530110508F49BC0C801049750
:1044B0008617970708F495C002501109061B170BC1
:1044C000019311936D937C93CF0122DF8AC05B012E
:1044D000A01AB10A4C01800E911EA091A112B091B8
:1044E000A21240E050E0E12CF12C109709F44AC0F0
:1044F000A815B905D1F56D907C901197630182E004
:10450000C80ED11CCA14DB0480F1A3014A195B094F
:104510006A0182E0C80ED11C1296BC9012971396C5
:10452000AC91B5E0CB16D10440F0B282A3835183A5
:104530004083D9016D937C930AC00E5F1F4FC30166
:10454000800F911FF90191838083EB2DFA2FE114E5
:10455000F10431F0D7011396FC93EE93129741C00A
:10456000F093A212E093A1123CC08D919C911197FF
:104570004817590708F4AC017D0112960D90BC91C3
:10458000A02DB3CF80919F129091A012881599050C
:10459000E1F446175707C8F4809101029091020296
:1045A000009741F48DB79EB74091050250910602E5
:1045B000841B950BE817F907B0F4F093A012E09371
:1045C0009F12F901718360830CC0CB010CDE7C016A
:1045D000009749F0A801BE011BD0CE0199DEC701AA
:1045E00004C0CE0102C080E090E0DF91CF911F9126
:1045F0000F91FF90EF90DF90CF90BF90AF909F9082
:104600008F907F906F90089581E090E0F89410C0B3
:10461000FB01DC0102C001900D9241505040D8F7DF
:104620000895FB01DC0101900D920020E1F708954F
:1046300011E0C2E5D1E000E005C0802FFE01B7DD4A
:104640002196011DC335D10780E00807B1F7F89422
:02465000FFCF9A
:10465200010000A31280000000400014005400007A
:10466200000000BB0716077C075A076E0701080007
:10467200000000870958091E090A09FB08FA080008
:104682000000006E081607C208D90855086D080018
:10469200000000780B160757454C434F4D45005616
:1046A200657273696F6E3A20004279204D617474AD
:1046B2002053746574736F6E00436F6E74726F6C07
:1046C2002050616E656C0073746574736F6E324056
:1046D200696C6C696E6F69732E656475004C6173E9
:1046E2007420557064617465643A20392F382F3113
:1046F200360056455253494F4E3A200042593A200D
:104702004D4154542053544554534F4E0056455234
:104712003A0050414E454C20504F57455220495384
:10472200204F46462E205357495443482050414E6D
:10473200454C20544F204F4E20544F20424547496C
:104742004E20535441525455502E0053574954430E
:104752004820544F204155544F204D4F444520543A
:104762004F20424547494E20504841534520492059
:10477200535441525455502E00415454454E5449BD
:104782004F4E3A20452D53544F5020544553542CEC
:1047920020452D53544F502052455345542C20262A
:1047A200205741524E494E4720484F524E20686191
:1047B2007665206265656E20736B69707065642E24
:1047C20020506C6561736520726573746172742028
:1047D20069662074686973207761732061206D694E
:1047E2007374616B652E005354415455532030301D
:1047F200313A0050414E454C20504F574552204FC0
:10480200464600535441545553203030323A0053F7
:10481200574954434820544F204155544F00576143
:10482200726E696E6720686F726E207465737400B1
:104832005072657373205269646520537461727497
:1048420020746F20636F6E74696E75652073746176
:10485200727475700050726573732072657374722E
:1048620061696E747320666F722066756E63746917
:104872006F6E73206D656E7500436F6E6E65637447
:10488200656420746F204B6579626F617264205396
:10489200696D756C61746F722100535441525455A5
:1048A2005020434F4D504C45544521004552524FE4
:1048B200523A2020202020202000452D53544F50D2
:1048C20020505245535345440052494445205354C5
:1048D2004F5020505245535345440041495247419D
:1048E2005445533A20204F50454E210041495247EA
:1048F200415445533A202020204F4B2100526573EA
:10490200747261696E747320756E6C6F636B65642B
:1049120000524553545241494E54533A204F504548
:104922004E00526573747261696E7473206C6F63AA
:104932006B656400524553545241494E54533A20D8
:10494200204F4B2100535441545553203130303ABB
:10495200004449535041544348494E47210053545F
:1049620041545553203130303A20005265737472ED
:1049720061696E747320756E6C6F636B656420621F
:1049820065636175736520747261696E2073746FFB
:10499200707065642E00554E4B4E4F574E204D4F52
:1049A20044450050524553532052494445205354E4
:1049B20041525400544F20455352205245534554BE
:1049C20000546F20726573657420455352206C6FDA
:1049D2006F703A00507265737320455352205245EE
:1049E20053455400452D53544F502041435449568A
:1049F200450053776974636820746F2042595041AF
:104A02005353210053776974636820746F204259AD
:104A120050415353004552524F523A2000434F4D9A
:104A22004D204552524F5200494E5445524E414C30
:104A3200204552524F522E2053454520444542555F
:104A420047204C4F470050414E454C204B4559455D
:104A520044204F464600504F574552204B657973CC
:104A62007769746368207761732073776974636808
:104A72006564206F66662E0050616E656C207761FA
:104A82007320696E61637469766520666F72207443
:104A92006F6F206C6F6E672E2054696D6564206F96
:104AA20075742E004D61696E2070616E656C2065B3
:104AB2002D73746F70207072657373656421004E7C
:104AC2004F204552524F52004572726F7220436C12
:104AD20065617265642E2050726573732054524F63
:104AE20055424C4520746F2072657365742E0045E3
:104AF20072726F722052657365740050524F475242
:104B0200414D4D204552524F523A20554E4B4E4F39
:104B1200574E204D4F44452121004B6579626F610C
:104B2200726420436F6E6E65637465642E004B651C
:104B320079626F61726420636F6E6E656374696F10
:104B42006E206661696C65640046554E4354494F58
:104B52004E53204D454E553A20285041474520316D
:104B6200204F462033293B204F5045524154494F54
:104B72004E532046554E4354494F4E53004C4541E7
:104B8200442F53555045525649534F5253204F4E7E
:104B92004C592100504147452031413A204C454172
:104BA200442D41434345535341424C452046554EC3
:104BB2004354494F4E53005072657373204C4F4318
:104BC2004B20524553545241494E545320746F2046
:104BD200746F67676C65204155544F4D415449438A
:104BE20020524553545241494E545320554E4C4F36
:104BF200434B0050726573732044495350415443F0
:104C02004820524947485420746F204C495354203D
:104C120043555252454E54204F5045524154494FEC
:104C22004E532053455454494E475300466F722009
:104C32006D6F7265206F7074696F6E732C2073775D
:104C42006974636820474154455320746F204F5064
:104C5200454E00524553545241494E5453205749F0
:104C62004C4C204E4F57204155544F4D41544943CF
:104C7200414C4C5920554E4C4F434B20494E2041FC
:104C820055544F4D41544943204D4F444521005204
:104C92004553545241494E54532057494C4C204E8F
:104CA2004F204C4F4E474552204155544F4D415491
:104CB2004943414C4C5920554E4C4F434B212049BE
:104CC2004E204155544F4D41544943204D4F444588
:104CD20000504147452032413A20535550455256E3
:104CE20049534F522D41434345535341424C452072
:104CF20046554E4354494F4E5300507265737320CC
:104D0200444953504154434820524947485420662D
:104D12006F7220444953504154434820544F4747EF
:104D22004C450053555045525649534F52204D4F12
:104D3200444520454E41424C45442100535550457F
:104D4200525649534F52204D4F44452044495341F6
:104D5200424C4544210044454255473A20200053E5
:104D6200776974636820746F204155544F204D4F0A
:104D7200444520746F20636F6E74696E756520738D
:104D82007461727475702E00535441525455503AE6
:104D920020504841534520490053544F5020544518
:104DA20053540050484153452049205354415254D2
:104DB20055503A2053544F5020544553543B2045AC
:104DC2006E7375726520616C6C2073746F702062F3
:104DD2007574746F6E732066756E6374696F6E207E
:104DE200636F72726563746C792E00524944452078
:104DF20053544F5020544553543A205072657373A4
:104E020020524944452053544F50005249444520B2
:104E120053544F502066756E6374696F6E696E6786
:104E220020636F72726563746C792E00454D455232
:104E320047454E43592053544F5020544553543AFA
:104E420020507265737320454D455247454E435974
:104E52002053544F502100507265737320454D45C5
:104E62005247454E43592053544F5000454D4552E9
:104E720047454E43592053544F50205052455353A7
:104E820045443A2050756C6C20757020454D455252
:104E920047454E43592053544F500050756C6C2077
:104EA200454D455247454E43592053544F502000DB
:104EB200452D53544F502066756E6374696F6E6949
:104EC2006E6720636F72726563746C792E0053543F
:104ED2004F50205445535420434F4D504C45544558
:104EE2002E2050726573732041434B4E4F574C45F1
:104EF20044474520746F20636F6E74696E75652137
:104F02000053746F70207465737420636F6D706CDE
:104F12006574650050726573732041434B4E4F5761
:104F22004C4544474520202000554B4E4F574E20BC
:104F3200434153452073746F7054657374536572A3
:104F420069616C00506861736520492073746172F5
:104F52007475703A204C414D5020544553543A20B8
:104F6200456E7375726520616C6C206C616D707337
:104F72002066756E6374696F6E20636F727265630B
:104F8200746C792E0050726573732041434B4E4FFF
:104F9200574C4544474520746F20636F6E666972B3
:104FA2006D20616C6C206C616D70732066756E6330
:104FB20074696F6E2070726F7065726C7920616EA9
:104FC2006420636F6E74696E7565207374617274A8
:104FD20075702E0045585452412046554E4354494F
:104FE2004F4E533A200053776974636820454E54FC
:104FF20052414E434520474154455320746F204F40
:1050020050454E20746F207475726E20616C6C2056
:105012006C616D707320736F6C69642E00507265E1
:10502200737320616E6420686F6C642054524F5514
:10503200424C4520666F72205354415254555020C1
:10504200484F524E20746573742E0050726573730C
:1050520020616E6420686F6C64205249444520537D
:105062005441525420666F72205741524E494E4766
:10507200204D455353414745207465737400507267
:1050820065737320524944452053544F5020746F26
:105092002062797061737320737461727475702009
:1050A2003D3E204D41494E5441494E454E434520D7
:1050B2004F4E4C5921004C414D50205445535420E1
:1050C200434F4D504C4554452E0043616E6E6F74F4
:1050D20020636F6D706C657465206C616D702074F7
:1050E2006573742E200A20537769746368204741E0
:1050F20054455320746F20434C4F5345442E004C6B
:10510200414D5020544553540050726573732041F1
:10511200434B4E4F574C45444745004C414D502060
:10512200544553543A0045585452412046554E4333
:1051320054494F4E530020202020202020202020A0
:10514200202020202020202020200053544152548F
:1051520055503A2050484153452049494900537718
:105162006974636820746F204155544F204D4F4439
:105172004500504841534520494949205354415222
:105182005455503A205249444520535441525400F8
:10519200452D53544F502052455345543A20507296
:1051A20065737320616E6420686F6C642052494499
:1051B2004520535441525420746F20636F6D706CBC
:1051C20065746520737461727475702E00546F205B
:1051D200636F6D706C657465207374617274757041
:1051E2003A00486F6C64205249444520535441525E
:1051F20054005249444520535441525445440046B8
:10520200494E414C53544152542053455249414C0A
:1052120000452D53544F502052455345543A0053A4
:105222005441525455503A2050484153452049491F
:105232000050484153452049492053544152545546
:10524200503A20452D53544F502052455345540057
:10525200452D53544F502052455345543A205072D5
:1052620065737320616E6420686F6C6420524944D8
:105272004520535441525420746F207265736574F3
:1052820020455352204C4F4F5000546F207265738B
:10529200657420657372206C6F6F703A00486F6C92
:1052A200642045535220524553455400452D5354D2
:1052B2004F50205245534554205355434345535371
:1052C20046554C0045535253544152542053455273
:1052D20049414C00504841534520494920535441CB
:1052E200525455503A20535441525455502057412C
:1052F200524E494E47005354415254555020574143
:10530200524E494E473A20434845434B2054484168
:105312005420414C4C204741544553204152452092
:1053220053454355524520414E442052494445205D
:105332004152454120434C45415221005052455370
:10534200532041434B4E4F574C4544474520544F01
:1053520020434F4E4652494D205341464520544F1B
:10536200204F5045524154452100434845434B206C
:10537200524944452041524541212100534146456D
:10538200204F5045524154494F4E20434F4E4652B2
:10539200494D4544213A20507265737320616E6411
:1053A20020686F6C64205249444520535441525442
:1053B20020746F20726573657420494E49544941C7
:1053C2005445205354415254555000535441525461
:1053D2005550205741524E494E472053554343455D
:1053E200535300352E302E3020646576320044450A
:0A53F2004255473A20000D0A000062
:00000001FF
