:1000000052C1000081C100007FC100007DC100001D
:100010007BC1000079C1000077C1000075C10000FC
:1000200073C1000073C4000071C400006FC40000FD
:100030006BC1000069C1000067C1000065C100001C
:1000400063C1000061C100005FC100005DC100002C
:100050005BC1000059C1000057C100000C94790A2F
:1000600053C100001DC40000F2C300004DC10000D8
:100070004BC1000049C1000047C1000045C100005C
:1000800043C1000041C100003FC100003DC100006C
:100090003BC1000039C1000037C10000B5C40000F9
:1000A00033C1000031C100002FC100002DC100008C
:1000B0002BC1000029C1000027C1000025C100009C
:1000C00023C1000021C100001FC100001DC10000AC
:1000D0001BC1000019C1000017C1000015C10000BC
:1000E00013C10000D60FDB0FE00FEA0FF40F6D1005
:1000F000FE0F06100E10181022102C103B10451089
:100100006D104F10591063107A078D07A007B407C0
:10011000BB07CE07E107CC08CF08BE08C208C80855
:100120000609D308D708DD08E108E508EB08EF0861
:10013000F3080609F908FD08010950524F475241DA
:100140004D4D204552524F523A20554E4B4E4F572F
:100150004E205459504521210052454144204F50D2
:1001600045524154494E4720494E535452554354E9
:10017000494F4E53204245464F5245205553452145
:10018000210000002100240027002A002D0030005B
:10019000330001010000040107010A0100000A0BFD
:1001A00002090C0D0E080703040100000000000006
:1001B000000000000000000000000000000000003F
:1001C00000000000000000001211100000000000FC
:1001D000000000000000000000000000000000001F
:1001E000000000002200250028002B002E00310016
:1001F000340002010000050108010B01000020008D
:100200002300260029002C002F00320000010000EE
:100210000301060109010505050507050808080889
:10022000020202020A0A080804040404010101018E
:100230000101010103030303030303030407070789
:100240000C0C0C0C0C0C0C0C02020202060606062E
:10025000060606060B0B0B0B0B0B0B0B01021020FB
:1002600020080810204010204080020102010804EC
:100270000201010204081020408080402010080480
:1002800002018004020180402010080402010804D9
:10029000020101020408102040800102040810201D
:1002A00040800817E11611241FBECFEFD1E2DEBF58
:1002B000CDBF00E00CBF1CE0A0E0B2E0EAE8F4E350
:1002C00000E00BBF02C007900D92A23BB107D9F727
:1002D0002EE0A2EBBCE001C01D92AD3AB207E1F7FF
:1002E00011E0C2E5D1E000E006C021970109802FAE
:1002F000FE010E94F317C135D10780E00807A9F776
:100300000E94C30A0C94341A7BCECF92DF92EF92F4
:10031000FF920F931F93CF93DF936C017A018B01B0
:10032000C0E0D0E0CE15DF0589F0D8016D918D01D8
:10033000D601ED91FC910190F081E02DC601199557
:10034000892B11F47E0102C02196ECCFC701DF9109
:10035000CF911F910F91FF90EF90DF90CF90089574
:10036000FC01918D828D981761F0828DDF01A80FBD
:10037000B11D5D968C91928D9F5F9F73928F90E0DF
:1003800008958FEF9FEF0895FC01918D828D98174E
:1003900031F0828DE80FF11D858D90E008958FEF8B
:1003A0009FEF0895FC01918D228D892F90E0805C54
:1003B0009F4F821B91098F739927089586EC9DE0CA
:1003C000F1DF21E0892B09F420E0822F0895FC0160
:1003D000848DDF01A80FB11DA35ABF4F2C91848DCE
:1003E00090E001968F739927848FA689B7892C9303
:1003F000A089B1898C9180648C93938D848D98139E
:1004000006C00288F389E02D80818F7D8083089566
:10041000EF92FF920F931F93CF93DF93EC0181E054
:10042000888F9B8D8C8D981305C0E889F989808110
:1004300085FD23C0F62E0B8D10E00F5F1F4F0F734D
:100440001127E02E8C8DE8120BC00FB607FCFACFF7
:10045000E889F989808185FFF5CFCE01B8DFF2CF39
:100460008B8DFE01E80FF11DE35AFF4FF0820B8FD9
:10047000EA89FB898081806207C0EE89FF896083F9
:10048000E889F98980818064808381E090E0DF9150
:10049000CF911F910F91FF90EF900895CF93DF932D
:1004A000EC01888D8823C1F0EA89FB89808185FD74
:1004B00005C0A889B9898C9186FD0EC00FB607FCCE
:1004C000F5CF808185FFF2CFA889B9898C9185FF0E
:1004D000EDCFCE017CDFE8CFDF91CF91089580E0B2
:1004E00090E0892B19F06ADF811125C080E090E04F
:1004F000892B41F080E090E0892B21F00E940000E0
:1005000081111CC080E090E0892B41F080E090E0F8
:10051000892B21F00E940000811113C080E090E03F
:10052000892BA1F080E090E0892B81F00E940000EF
:1005300081110AC008950E940000D8CF0E940000D7
:10054000E1CF0E940000EACF0C94000008952091B2
:10055000B40C3091B50C2817390771F49091B20C96
:100560008091B30C981741F0E091B20CF0E0EA579B
:10057000F24F808190E008958FEF9FEF08950895E6
:100580001F93CF93DF93DC015C962D913C915D9797
:100590002115310539F481E090E013969C938E93F8
:1005A00012973DC05196ED91FC91529750969C91B7
:1005B0005097892F80951FB75E964C915E9741FBAF
:1005C000772770F941FD6095F8944081772311F009
:1005D000492B01C048234083E9012197F1F748E006
:1005E000508160FF02C0592B01C058235083E9019C
:1005F0002197F1F76695415099F7772321F0908183
:100600008923808303C08081982B90831FBF5C96D1
:100610008D919C915D970197F1F721E030E0C90140
:10062000DF91CF911F9108952091B40C3091B50CBA
:100630002817390769F48091B30C2091B20C90E02F
:10064000805C9F4F821B910960E470E00C94E0177E
:1006500080E090E008952091B40C3091B50C2817FB
:100660003907B9F49091B20C8091B30C981789F0C6
:10067000E091B20CF0E0EA57F24F80812091B20C89
:1006800030E02F5F3F4F2F7333272093B20C90E061
:1006900008958FEF9FEF089508958FEF9FEF0895CE
:1006A0008FEF9FEF08958091850D90E09195819552
:1006B0009109089585ED8093BC008091BC0084FD74
:1006C000FCCF10925F0D08954091390D262F30E038
:1006D000240F311D21323105DCF420915F0D2430CF
:1006E000C9F4FC0180E090E0861758F43091390D90
:1006F0002191DC01A95EB24FA30FB11D2C9301968D
:10070000F3CF8091390D680F6093390D80E0089523
:1007100081E0089582E00895CF93DF931F921F92A6
:10072000CDB7DEB7CB01642F49835A83CDDF498132
:10073000842F5A81952F0F900F90DF91CF910895BC
:10074000CF93DF931F92CDB7DEB7698361E0CE010F
:100750000196BADF81E090E00F90DF91CF9108958C
:100760000E94201AFC01808191810C94A418EF92C0
:10077000FF920F931F93CF93DF93EC01198218829E
:100780001B821A821D821C8261157105A9F17B01F1
:10079000FB0101900020E9F731978F01061B170B31
:1007A000B8016F5F7F4F80E090E00E943C19009796
:1007B00059F0998388831B830A832C813D81232BE5
:1007C00081F4FC0110820DC088819981009711F09D
:1007D0000E94A418198218821D821C821B821A8210
:1007E0000BC01D830C83B701DF91CF911F910F9137
:1007F000FF90EF900C942D1ADF91CF911F910F91E4
:10080000FF90EF900895DC01ED91FC91DB011496CF
:100810004D915C9115976D917C910280F381E02D53
:1008200019946115710579F0FB0101900020E9F739
:100830003197AF01461B570BDC01ED91FC91028013
:10084000F381E02D199480E090E00895EACF1F92A3
:100850000F920FB60F9211240BB60F922F933F9366
:100860004F935F936F937F938F939F93AF93BF93B8
:10087000EF93FF9386EC9DE0AADDFF91EF91BF918E
:10088000AF919F918F917F916F915F914F913F9128
:100890002F910F900BBE0F900FBE0F901F901895C9
:1008A0001F920F920FB60F9211240BB60F922F9337
:1008B0008F939F93EF93FF93E091D60DF091D70D17
:1008C0008081E091DC0DF091DD0D82FD12C0908100
:1008D0008091DF0D8F5F8F732091E00D821751F0B3
:1008E000E091DF0DF0E0EA53F24F958F8093DF0D3A
:1008F00001C08081FF91EF919F918F912F910F9077
:100900000BBE0F900FBE0F901F9018951F920F9265
:100910000FB60F9211240BB60F922F933F934F9364
:100920005F936F937F938F939F93AF93BF93EF9357
:10093000FF93E091B40CF091B50C309709F451C0DD
:10094000968DA685B785858591FF04C09C918923E6
:1009500029F447C09C91892309F043C0A389B48935
:100960009C918589809589238C93868997890197A5
:10097000F1F7608D718DA685B785558538E020E04B
:10098000CB010197F1F7822F90E095958795282F5D
:100990004C91452309F02068315091F7868D81FDF7
:1009A00020958091B30C90E001968F739927309138
:1009B000B20C381749F0A091B30CB0E0AA57B24F6F
:1009C0002C938093B30C03C0868D8160868F828DBB
:1009D000938D0197F1F7A389B4899C918589892B1F
:1009E0008C93FF91EF91BF91AF919F918F917F91E8
:1009F0006F915F914F913F912F910F900BBE0F9090
:100A00000FBE0F901F9018951F920F920FB60F9266
:100A100011240BB60F922F933F934F935F936F93D5
:100A20007F938F939F93AF93BF93EF93FF938091A7
:100A3000B900887F803609F49CC068F5883209F4D3
:100A40005BC090F4803109F454C038F4882309F471
:100A5000F6C0883009F44DC0F5C0883109F44CC0A7
:100A6000803209F45DC0EEC0803409F468C048F4F7
:100A7000803309F455C0883309F0E4C080935E0DDB
:100A8000D8C0803509F44FC0883509F45DC088347A
:100A900009F0D8C0D6C0883909F4C7C0A8F488378F
:100AA00009F467C038F4883609F463C0803709F464
:100AB00060C0C8C0883809F4B8C0803909F45FC084
:100AC000803809F0BFC05BC0803B09F486C038F4B1
:100AD000803A09F466C0883A09F47FC0B3C0803C0C
:100AE00009F4A7C0883C09F4A4C0883B09F48AC073
:100AF000A9C08091840D10C09091830D8091820DCA
:100B0000981770F5E091830D81E08E0F8093830D2F
:100B1000F0E0EE59F24F80818093BB0085EC86C0F7
:100B200080935E0D8EC0E091830D81E08E0F8093E7
:100B3000830D8091BB00F0E0EE59F24F80839091DD
:100B4000830D8091820D6EC0E091830D81E08E0F48
:100B50008093830D8091BB00F0E0EE59F24F8083CB
:100B60008091610D81116DC081E08093600D84EAF8
:100B700061C083E080935F0D10925D0DCFCF8091B7
:100B80005D0D803208F051C0E0915D0D81E08E0F67
:100B900080935D0D8091BB00F0E0E35CF24F8083B9
:100BA000BDCF85EC8093BC0010925F0D80915D0DF0
:100BB000803230F4E0915D0DF0E0E35CF24F1082A2
:100BC00060915D0D70E0E0913B0DF0913C0D8DE387
:100BD0009DE0199510925D0D35C084E080935F0D06
:100BE00010923A0D1092390DE091370DF091380DB9
:100BF00019958091390D811105C081E08093390DDF
:100C00001092170DE0913A0D81E08E0F80933A0D0E
:100C1000F0E0E95EF24F80818093BB0090913A0D45
:100C20008091390D981708F479CF85E88093BC003E
:100C300009C085EC8093BC0010925F0D03C0109238
:100C40005E0D38DDFF91EF91BF91AF919F918F9134
:100C50007F916F915F914F913F912F910F900BBEBC
:100C60000F900FBE0F901F9018951092BF0C10920E
:100C7000BE0C1092BC0C1092BB0C1092B90C1092CE
:100C8000B70C1092B60C1092160D1092150D109212
:100C9000140D1092BD0C1092BA0C1092B80C68EEA4
:100CA00073E080E090E0CCC360E08BE25ED360E074
:100CB00081E35BD360E085E358D360E084E355D300
:100CC00060E083E352D360E08FE24FD360E089E2DB
:100CD0004CD360E087E249C3CF93DF93EC0164E13A
:100CE00077E086EC9DE0B2DDBE0186EC9DE08BDD19
:100CF00088E89EE0C2D26AE070E080E090E0DF9198
:100D0000CF919EC381E090E0D3C36EEF83E69EE077
:100D100037DC61E083E69EE033DC80E090E0C8D31E
:100D200062E070E080E090E08BC30F931F93CF935D
:100D3000DF93CDB7DEB72C970FB6F894DEBF0FBEAA
:100D4000CDBF8C016DE177E0CE01019610DD023060
:100D5000110599F00330110519F10130110589F5DC
:100D6000CE0101968AD2D1DF66E477E083E69EE089
:100D70006DDDC8DF63E973E00FC084E597E06CD2F6
:100D800083E797E069D2C1DF66E477E083E69EE01F
:100D90005DDDB8DF67EB76E083E69EE057DD03C0FC
:100DA0008DEA97E059D2CE010196DCDC2C960FB685
:100DB000F894DEBF0FBECDBFDF91CF911F910F9191
:100DC000089565EC77E0CE010796D1DCCE01079659
:100DD00083DFCE010796C6DCE6CF0F931F93CF9338
:100DE000DF93CDB7DEB72C970FB6F894DEBF0FBEFA
:100DF000CDBF8C016DE177E0CE010196B8DC023009
:100E00001105F1F08CF40130110509F049C0CE0153
:100E1000019633D27ADF65ED77E083E69EE016DD5A
:100E200071DF63E973E02BC003301105E1F004309A
:100E3000110509F035C08EEE98E00ED266DF22C0B3
:100E400086EE97E009D288E098E006D28EE498E03A
:100E500003D25BDF6CE778E083E69EE0F7DC52DFED
:100E60006EE878E00CC08FE998E0F6D14EDF65EDD2
:100E700077E083E69EE0EADC45DF67EB76E083E639
:100E80009EE0E4DCCE0101966DDC2C960FB6F89462
:100E9000DEBF0FBECDBFDF91CF911F910F9108959F
:100EA00065EC77E0CE01079662DCCE01079614DF91
:100EB000CE01079657DCE6CF0F931F93CF93DF93B6
:100EC000CDB7DEB72C970FB6F894DEBF0FBECDBFFF
:100ED0008C016DE177E0CE01019649DCF801319794
:100EE000E730F10508F083C08827EC57FF4F8F4F9C
:100EF0000C94F317CE010196C0D107DF66E079E0CC
:100F000083E69EE0A3DCFEDE63E973E083E69EE019
:100F10009DDC81E08093BF0C19C081E199E09CD1F8
:100F2000F4DE66E079E083E69EE090DCEBDE69E5E6
:100F300079E083E69EE08ADC81E08093BE0C06C007
:100F400089E699E089D181E08093BC0CCE010196BD
:100F500009DC2C960FB6F894DEBF0FBECDBFDF9133
:100F6000CF911F910F91089589E899E075D181E0A3
:100F70008093BB0CEBCF8AEA99E06ED1C6DE66E0C7
:100F800079E083E69EE062DCBDDE65ED79E083E634
:100F90009EE05CDC81E08093B90CD8CF82EE99E0D2
:100FA0005BD1B3DE66E079E083E69EE04FDCAADE4B
:100FB00061E17AE083E69EE049DC81E08093B70C52
:100FC000C5CF8DE19AE048D18BE39AE045D19DDE13
:100FD0006EE67AE083E69EE039DC94DE6CE77AE048
:100FE00083E69EE033DC81E08093B60CAFCF66E809
:100FF0007AE0CE010796BBDBCE0107966DDECE010F
:101000000796B0DBA3CFEF92FF920F931F93CF937E
:10101000DF93CDB7DEB7E6970FB6F894DEBF0FBE0D
:10102000CDBF8C0161EA7AE0CE0101967C019FDBA5
:1010300062EE7AE0CE0107969ADB61E37BE0CE01B7
:101040000D9695DB63E47BE0CE01439690DB6AE787
:101050007BE0CE0149968BDB68EA7BE0CE014F96C0
:1010600086DB6BED7BE0CE01859681DB63E17CE086
:10107000CE018B967CDB67E27CE0CE01C19677DB0C
:101080000230110521F1E4F40130110509F047C0E7
:10109000C701F3D0CE010796F0D088E89EE0EDD0EE
:1010A00034DE6CE57CE083E69EE0D0DB2BDE6DE693
:1010B0007CE083E69EE0CADB81E08093BF0C2FC01A
:1010C0000330110531F10430110581F128C0CE0142
:1010D0000D96D3D0CE014396D0D0CE014996CDD037
:1010E000CE014F96CAD0CE018596C7D088E89EE043
:1010F000C4D00BDE6DE77CE083E69EE0A7DB02DE7A
:1011000068E87CE083E69EE0A1DB81E08093BE0C92
:1011100006C0CE018B96B1D081E08093BC0CCE018D
:10112000C19620DB8E010F5C1F4F07C0CE01C19618
:10113000A4D081E08093BB0CF2CF06501109C80106
:1011400011DB0E151F05C9F7E6960FB6F894DEBF42
:101150000FBECDBFDF91CF911F910F91FF90EF9008
:10116000089590E0FC013197E231F10508F04EC09E
:101170008827E557FF4F8F4F0C94F317809180001D
:101180008F7703C0809180008F7D809380000895C9
:1011900080918000877FF9CF84B58F7702C084B5B6
:1011A0008F7D84BD08958091B0008F7703C08091BA
:1011B000B0008F7D8093B0000895809190008F776C
:1011C00007C0809190008F7D03C080919000877F41
:1011D0008093900008958091A0008F7707C0809140
:1011E000A0008F7D03C08091A000877F8093A00026
:1011F0000895809120018F7707C0809120018F7D15
:1012000003C080912001877F8093200108953FB71C
:10121000F8948091990E90919A0EA0919B0EB091A6
:101220009C0E26B5A89B05C02F3F19F00196A11D65
:10123000B11D3FBFBA2FA92F982F8827820F911D6C
:10124000A11DB11DBC01CD0142E0660F771F881FB3
:10125000991F4A95D1F70895CF93DF93BC0186EC8F
:101260009DE0DFDAEC016EEA7CE086EC9DE0D9DA05
:101270008C0F9D1FDF91CF910895CF93DF93BC0119
:1012800086EC9DE0C0DAEC016EEA7CE086EC9DE045
:10129000C8DA8C0F9D1FDF91CF910895CF93DF9314
:1012A000E091C60DF091C70D0190F081E02D682FFF
:1012B00086EC9DE01995EC016EEA7CE086EC9DE001
:1012C000B0DA8C0F9D1FDF91CF9108950F931F937C
:1012D000CF93DF938C01C0E0D0E0F801EC0FFD1F4D
:1012E0006491662371F0E091C60DF091C70D0190F5
:1012F000F081E02D86EC9DE01995892B11F0219667
:10130000ECCF6EEA7CE086EC9DE08BDA8C0F9D1FC3
:10131000DF91CF911F910F910895CF93DF93282FE5
:1013200030E0F901E456FE4F8491F901E45AFD4F93
:10133000D491F901EA5EFD4FC491CC2389F081116B
:1013400010DFEC2FF0E0EE0FFF1FE450FE4FA591F1
:10135000B491EC91ED2381E090E021F480E002C0B3
:1013600080E090E0DF91CF9108951F93CF93DF93BA
:10137000282F30E0F901E456FE4F8491F901E45A38
:10138000FD4FD491F901EA5EFD4FC491CC23C1F029
:10139000162F8111E6DEEC2FF0E0EE0FFF1FEE516D
:1013A000FE4FA591B4918FB7F894111105C09C918F
:1013B000ED2FE095E92302C0EC91ED2BEC938FBF6C
:1013C000DF91CF911F910895CF93DF9390E0FC01BF
:1013D000E45AFD4F2491FC01EA5EFD4F849188237D
:1013E00061F190E0880F991FFC01EE57FE4FC59107
:1013F000D491FC01EE51FE4FA591B491611109C049
:101400009FB7F8948881209582238883EC912E23BE
:101410000BC0623061F49FB7F8943881822F8095B9
:1014200083238883EC912E2B2C939FBF06C08FB70C
:10143000F894E8812E2B28838FBFDF91CF910895F8
:101440008F929F92AF92BF92CF92DF92EF92FF92D4
:101450006B017C01DCDE4B015C01C114D104E104B1
:10146000F104E9F0D4DEDC01CB0188199909AA095D
:10147000BB09883E9340A105B10578F321E0C21A6B
:10148000D108E108F10888EE880E83E0981EA11CBF
:10149000B11CC114D104E104F10421F7DECFFF90A7
:1014A000EF90DF90CF90BF90AF909F908F90089576
:1014B000CF93C82F6EEF83E69EE062D86C2F6295C3
:1014C000660F660F607C605883E69EE059D862E044
:1014D00070E080E090E0CF91B3CF2FB7F8946091A7
:1014E000950E7091960E8091970E9091980E2FBF49
:1014F00008951F920F920FB60F9211242F933F93CE
:101500008F939F93AF93BF938091950E9091960E7A
:10151000A091970EB091980E3091940E23E0230F76
:101520002D3720F40196A11DB11D05C026E8230F1B
:101530000296A11DB11D2093940E8093950E909359
:10154000960EA093970EB093980E8091990E90915D
:101550009A0EA0919B0EB0919C0E0196A11DB11DFB
:101560008093990E90939A0EA0939B0EB0939C0E2D
:10157000BF91AF919F918F913F912F910F900FBE8F
:101580000F901F901895CF93DF93CDB7DEB7689774
:101590000FB6F894DEBF0FBECDBF789484B58260DD
:1015A00084BD84B5816084BD85B5826085BD85B507
:1015B000816085BD80916E00816080936E00109285
:1015C0008100809181008260809381008091810000
:1015D0008160809381008091800081608093800091
:1015E0008091B10084608093B1008091B0008160EF
:1015F0008093B000809191008260809391008091EF
:10160000910081608093910080919000816080932F
:1016100090008091A10082608093A1008091A10040
:1016200081608093A1008091A00081608093A000E0
:10163000809121018260809321018091210181604C
:10164000809321018091200181608093200180910D
:101650007A00846080937A0080917A00826080931F
:101660007A0080917A00816080937A0080917A007C
:10167000806880937A001092C100E091D60DF091BD
:10168000D70D82E08083E091D20DF091D30D1082CE
:10169000E091D40DF091D50D8FEC80831092DE0D8A
:1016A000E091DA0DF091DB0D86E08083E091D80DBA
:1016B000F091D90D808180618083E091D80DF09107
:1016C000D90D808188608083E091D80DF091D90D8B
:1016D000808180688083E091D80DF091D90D808160
:1016E0008F7D808310927E0E10927D0E10927C0E64
:1016F00010927B0E10927A0E1092790E8DE991E085
:101700009093800E80937F0E80916F0E96EF980FCE
:10171000943048F02EEC280F243028F022EC280FCB
:10172000283008F070C02DEB30E030937A0E209313
:10173000790E2BE931E030937C0E20937B0E2CE266
:1017400031E030937E0E20937D0E943070F02EECBD
:10175000280F243050F022EC280F283010F40C947D
:10176000D716A0E0B0E00C94D916A8E6B0E0E8E601
:10177000F0E02081943018F08E53883010F081E032
:1017800001C084E0822B8C9380916F0E96EF980FAE
:10179000943058F02EEC280F243038F022EC280F2B
:1017A000283030F020E030E005C02BE630E002C009
:1017B0002DE630E03093770E2093760E943010F4BF
:1017C0009AEF0BC0823381F0833381F0843381F050
:1017D00092EC980F983070F492EC980F81E001C071
:1017E000880F9A95EAF707C088E005C084E003C037
:1017F00082E001C081E08093780E80917F0E90910D
:10180000800E0197F1F780917D0E90917E0E892BCD
:1018100049F1E091B40CF091B50C2EE0E336F207FB
:1018200009F1309739F0A389B4899C918589809515
:1018300089238C938091810E8E7F8093810E1092EC
:10184000B30C1092B20C83E69EE09093B50C80939B
:10185000B40CE091760EF091770E90818091780E25
:10186000892B808352DA80E090E022DE60E088E11C
:10187000ABDD60E080E3A8DD60E08EE1A5DD60E047
:101880008FE1A2DD60E081E29FDD60E08EE29CDD21
:1018900060E082E399DD60E082E296DD60E084E270
:1018A00093DD60E083E290DD60E086E28DDD60E064
:1018B00088E28ADD60E08DE187DD60E08CE284DD36
:1018C00060E08AE281DD61E085E27EDD61E087E261
:1018D0007BDD61E089E278DD61E085E375DD61E073
:1018E00083E372DD61E084E36FDD61E08DE26CDD56
:1018F00061E08FE269DD61E08BE266DD61E081E35A
:1019000063DD61E088E131DD61E080E32EDD61E0EF
:101910008EE12BDD61E08FE128DD61E081E225DDF4
:1019200061E08EE222DD61E082E31FDD61E082E2C0
:101930001CDD61E084E219DD61E083E216DD61E037
:1019400088E213DD61E086E210DD61E08DE10DDD0E
:1019500061E08CE20ADD61E08AE207DD11E082E00D
:10196000C82ED12C93E0A92EB12C88248394912CDD
:1019700036E9E32EF12C44E6642E712C06E9ADDD48
:101980002091C10C3091C20C4091C30C5091C40CF9
:101990001B012C01221A330A440A550AA2019101A3
:1019A000253631054105510588F06093C10C7093CF
:1019B000C20C8093C30C9093C40C8091C00C811115
:1019C00003C01093C00C02C01092C00C86DD2091A1
:1019D000C50C3091C60C4091C70C5091C80C1B012E
:1019E0002C01221A330A440A550AA20191012B3F05
:1019F00031054105510588F06093C50C7093C60C04
:101A00008093C70C9093C80C8091EB0C811103C09C
:101A10001093EB0C02C01092EB0C5FDD2091C90C0F
:101A20003091CA0C4091CB0C5091CC0C1B012C0175
:101A3000221A330A440A550AE5EF2E16E1E03E0663
:101A40004104510488F06093C90C7093CA0C8093D0
:101A5000CB0C9093CC0C80910B0D811103C0109393
:101A60000B0D02C010920B0D38DD2091CD0C309182
:101A7000CE0C4091CF0C5091D00C1B012C01221A9E
:101A8000330A440A550AE9EE2E16E3E03E06410405
:101A9000510488F06093CD0C7093CE0C8093CF0CE2
:101AA0009093D00C8091000D811103C01093000D14
:101AB00002C01092000D88E130DC892B19F41093DC
:101AC000D60C02C01092D60C80E327DC892B19F0CB
:101AD0001093110D02C01092110D8EE11EDC892BA6
:101AE00019F41093F00C02C01092F00C8FE115DC89
:101AF000892B59F41093FC0C1092090D10920F0DC4
:101B00009092D40C8092D30C25C081E206DC892B04
:101B100059F41092FC0C1092090D10930F0DB09215
:101B2000D40CA092D30C16C08FE1F7DB892B11F4F3
:101B30000C94BF1681E2F1DB892B11F40C94BF16D3
:101B40001092FC0C1093090D10920F0DD092D40C32
:101B5000C092D30C8EE2E1DB019719F410920C0DC8
:101B600002C010930C0D82E3D8DB892B19F010937F
:101B7000ED0C02C01092ED0C82E2CFDB892B19F440
:101B80001093EC0C02C01092EC0C8AE2C6DB892B9D
:101B900019F41092F70C02C01093F70C84E2BDDB2D
:101BA000892B59F41093FF0C1092FE0C1092FD0C2F
:101BB0009092F30C8092F20C1AC084E2AEDB892B77
:101BC00031F083E2AADB892B11F00C94CB1683E26F
:101BD000A4DB892B11F00C94C5161092FF0C109207
:101BE000FE0C1093FD0CB092F30CA092F20C86E266
:101BF00094DB892B19F41093E30C02C01092E30CD0
:101C000088E28BDB892B19F41093F50C02C010923B
:101C1000F50C8DE182DB892B19F41093D20C02C0F4
:101C20001092D20C8CE279DB892B19F41093D10C31
:101C300002C01092D10C8091D20C882339F080918F
:101C4000D10C882319F01093FA0C06C080910F0D67
:101C5000811102C01092FA0C8091130D8111AFC551
:101C600080910302882389F080910C0D882351F024
:101C70008091EB0C882311F060E001C061E085E306
:101C800074DB03C08091000DF5CF809102028823A0
:101C900049F08091000D882311F060E001C061E0FF
:101CA00084E363DB8091EA0C8111B0C06DE372E0E4
:101CB000CE0101960E94B70364E872E0CE01079658
:101CC0000E94B7036BE472E0CE010D960E94B70349
:101CD00061E672E0CE0143960E94B70388E89EE079
:101CE000CCDA8FE2DBDA88E89EE0C7DACE01019633
:101CF000C4DACE014396C1DA88E89EE0BEDACE01AE
:101D00000796BBDACE010D96B8DA86E792E0A4DA40
:101D10006EE87EE086EC9DE00E94030488E89EE089
:101D2000ACDA8FE2BBDA0E94850660E872E083E6F7
:101D30009EE00E94260481E090E0BADB61E972E057
:101D400083E69EE00E9426046EE87EE083E69EE045
:101D50000E940304CE0143960E94B203CE010D9669
:101D60000E94B203CE0107960E94B203CE010196F3
:101D70000E94B20364EF71E080E090E061DB80EBF1
:101D80009CE06ADA8CE78ADA89E591E09FDA8CE7F1
:101D900085DA80EB9CE060DA1093EA0C68EE73E081
:101DA00080E090E04DDB66E972E0CE0101960E9492
:101DB000B7036FEC72E0CE0107960E94B7036DEF98
:101DC00072E0CE010D960E94B703CE01019655DA5E
:101DD0000E9485066BE673E083E69EE00E9426047F
:101DE00081E090E065DB67E773E083E69EE00E94B8
:101DF0002604CE010D960E94B203CE0107960E94E2
:101E0000B203CE0101960E94B203B5C78091F00CD7
:101E1000882309F4C3C48091E90C811133C066E9B9
:101E200072E0CE0101960E94B7036FEC72E0CE0122
:101E300007960E94B7036DEF72E0CE010D960E94E7
:101E4000B703CE01079619DA1093E90C0E948506B4
:101E500067E873E083E69EE00E9426040E94820603
:101E600063E973E083E69EE00E942604CE010D96AE
:101E70000E94B203CE0107960E94B203CE010196E2
:101E80000E94B20380910502811199C18091FC0CDE
:101E9000882309F491C18091EC0C882309F438C19E
:101EA0008091BE0C811103C082E090E0ACD880919B
:101EB000F70C811139C08091000D81111AC061E0C9
:101EC00087E253DA60E089E250DA61E085E34DDAD7
:101ED00060E083E34ADA60E084E347DA61E08FE2BE
:101EE00044DA61E08BE241DA61E081E33EDA60E00E
:101EF00019C060E087E239DA61E089E236DA60E051
:101F000085E333DA61E083E330DA61E084E32DDAFC
:101F100060E08FE22ADA60E08BE227DA60E081E3BA
:101F200024DA61E08DE217C061E087E21EDA61E049
:101F300089E21BDA61E085E318DA61E083E315DA10
:101F400061E084E312DA61E08FE20FDA61E08BE2B4
:101F50000CDA61E081E309DA8091ED0C882371F0FD
:101F60001093130D10930502109304021093D50CD7
:101F700010930202109300020E9454068091D60C26
:101F800061E0882309F4ABC085E01EDAE1EAF1E004
:101F9000849190E0FC013197E231F10508F09DC099
:101FA0008827EE58FF4F8F4F0C94F31784B5806845
:101FB00084BD07BD99C084B5806284BD08BD94C04E
:101FC00080918000806880938000F0928900E09288
:101FD00088008AC080918000806280938000F092A7
:101FE0008B00E0928A0080C080918000886080939E
:101FF0008000F0928D00E0928C0076C08091B0005D
:1020000080688093B0000093B3006EC08091B000F0
:1020100080628093B0000093B40066C0809190000D
:10202000806880939000F0929900E09298005CC0E4
:1020300080919000806280939000F0929B00E092EB
:102040009A0052C080919000886080939000F09236
:102050009D00E0929C0048C08091A0008068809321
:10206000A0008091A0008F7B8093A000F092A90037
:10207000E092A80039C08091A00080628093A00007
:10208000F092AB00E092AA002FC08091A00088607F
:102090008093A000F092AD00E092AC0025C080914A
:1020A0002001806880932001F0922901E0922801AC
:1020B0001BC080912001806280932001F0922B014F
:1020C000E0922A0111C08091200188608093200154
:1020D000F0922D01E0922C0107C061E003C085E081
:1020E00073D960E085E041D980910C0D882309F413
:1020F00050C062EA73E0CE0101960E94B703CE01A0
:1021000001960E946C06CE0101960E94B20341C066
:102110008091BF0C811104C081E090E00E9403080F
:102120008091000D81111AC061E087E21ED961E043
:1021300089E21BD961E085E318D961E083E315D911
:1021400061E084E312D961E08FE20FD961E08BE2B4
:102150000CD961E081E309D960E019C060E087E251
:1021600004D960E089E201D960E085E3FED860E04F
:1021700083E3FBD860E084E3F8D860E08FE2F5D831
:1021800060E08BE2F2D860E081E3EFD861E08DE2BD
:10219000ECD88091E30C882309F4EDC50E94540625
:1021A0001093050260E08DE2E0D883E090E00E94A9
:1021B00003080E943506DFC50E945406DEC18091E7
:1021C00004028111A5C08091BF0C811104C081E07F
:1021D00090E00E945C078091FC0C882309F4B4C055
:1021E0008091BE0C811104C082E090E00E945C07E7
:1021F0008091BD0C811124C08091BC0C811104C060
:1022000083E090E00E945C078091000D882311F02C
:1022100061E001C060E084E3A8D88091ED0C8823E0
:1022200009F43EC061E084E3A0D81093BD0C809116
:10223000BB0C811135C084E090E00E945C0730C087
:102240008091BA0C81112CC08091B90C811104C00D
:1022500085E090E00E945C078091B80C811109C074
:102260008091000D882311F061E001C060E085E3FA
:102270007CD88091110D882399F08091B70C811141
:1022800004C086E090E00E945C0780910B0D8823DB
:1022900011F061E001C060E085E367D81093B80CED
:1022A0008091B80C882309F466C58091110D8111C5
:1022B00062C561E085E359D81093BA0C8091000D96
:1022C000882311F061E001C060E08DE24ED880917A
:1022D000E30C8823A1F01093040260E08DE245D85E
:1022E0000E94540661E084E340D80E94350661E014
:1022F00085E33BD868EE73E080E090E0A1D8809160
:10230000B60C811138C587E090E00E945C0733C5A8
:10231000809103028111A7C18091E40C811118C042
:1023200061E085E322D8D9D81B012C018091BF0C34
:10233000811106C081E090E00E94ED061093BF0C71
:102340008091FC0C8111BFC060E08DE20ED800C20C
:102350008091000D811102C061E001C060E08DE25A
:1023600004D88091E30C882361F01093E20C109262
:10237000E40C0E9435060E94540660E08DE20E9443
:10238000B5098091FC0C882309F4F5C48091E10C17
:1023900081110AC084EB93E00E942C0988EE93E03F
:1023A0000E942C091093E10C8091F70C60E08111E0
:1023B00048C083E30E94B5098091E00C811114C0EC
:1023C0008FEF93E00E942C0982E294E00E942C0996
:1023D0008EE594E00E942C0987E994E00E942C0984
:1023E0001093E00C1092DF0C8091000D882331F0E7
:1023F00061E08FE20E94B50960E009C080910602A9
:10240000811108C060E08FE20E94B50961E081E3BC
:102410000E94B5098091F50C882309F4ACC4809121
:102420000602811109C01093060261E08FE20E944A
:10243000B5098EEB94E040C0109206028AEF94E05A
:102440003BC08FE20E94B50960E081E30E94B509BC
:102450008091DF0C81110CC08CE395E00E942C0967
:1024600085E695E00E942C091093DF0C1092E00C99
:102470008091000D882311F061E005C08091DE0C91
:10248000811104C060E083E30E94B50980910C0DC6
:10249000882309F470C48091DE0C811109C0109367
:1024A000DE0C61E083E30E94B5098EE895E004C08C
:1024B0001092DE0C87EA95E00E942C0968EE73E02A
:1024C00080E090E056C48091BE0C811106C082E08D
:1024D00090E00E94ED061093BE0C8091DD0C8111FE
:1024E0004EC08091DB0C9091DC0C092E000CAA0BE5
:1024F000BB0BA2019101281B390B4A0B5B0BDA01C4
:10250000C901893E9340A105B105D0F03092DC0CA1
:102510002092DB0C8091E30C882371F061E08DE266
:102520000E94B5098091D90C9091DA0C0196909394
:10253000DA0C8093D90C04C01092DA0C1092D90CEA
:102540008091D90C9091DA0C029751F483E090E0DD
:102550000E94ED0660E08DE20E94B5091093DD0C4B
:102560008091000D882329F061E08DE20E94B50979
:1025700002C48091E30C8111FEC360E0F6CF60E0FD
:102580008DE20E94B5098091DB0C9091DC0C092E44
:10259000000CAA0BBB0BA2019101281B390B4A0BA3
:1025A0005B0BDA01C901893E9340A105B105D0F06A
:1025B0003092DC0C2092DB0C80910C0D882371F0A2
:1025C00061E083E30E94B5098091D70C9091D80C0B
:1025D00001969093D80C8093D70C04C01092D80C1D
:1025E0001092D70C8091D70C9091D80C0A97A1F437
:1025F00084E090E00E94ED060E94540660E083E3D0
:102600000E94B5090E94350668EE73E080E090E014
:102610000E94200A109303025090000D552011F0E3
:1026200061E005C080910C0D811104C060E083E37E
:102630000E94B5098091EC0C882309F49CC3809119
:10264000E20C811198C3552011F061E001C060E0F7
:102650008FE20E94B5098091F50C882309F48BC3A1
:102660001093E40C88C380910202811176C00E940D
:102670006D0A1B012C018091BF0C811106C081E005
:1026800090E00E9495061093BF0C8091FC0C88236B
:1026900009F45EC08091BE0C811106C082E090E01A
:1026A0000E9495061093BE0C8091DB0C9091DC0C7F
:1026B000092E000CAA0BBB0BA2019101281B390BA0
:1026C0004A0B5B0BDA01C901893E9340A105B105B4
:1026D000D0F03092DC0C2092DB0C80910C0D882322
:1026E00071F061E083E30E94B5098091D70C90916D
:1026F000D80C01969093D80C8093D70C04C01092FC
:10270000D80C1092D70C8091D70C9091D80C0A97C6
:1027100091F483E090E00E949506109302021092DB
:10272000D80C1092D70C0E94540660E083E30E94FC
:10273000B5090E9435068091000D882311F061E0F3
:1027400005C080910C0D811116C360E083E30ECFAC
:102750000E9454061092BE0C0EC38091010281119A
:1027600012C080910B0D882311F061E001C060E080
:1027700083E30E94B50980910C0D882309F4FBC204
:1027800010930102F8C21093030D61E08FE20E94E2
:10279000B5091093F60C1093130DEDC260E08DE2B5
:1027A0000E94B5090E9454061092E90C1092E80CA0
:1027B0001092E70C1092E60C1092E50CDCC290919E
:1027C000FC0C8091EC0C91111DC0882321F08091AC
:1027D000EB0C882311F061E001C060E087E20E9409
:1027E000B5098091F00C811112C01093100D109357
:1027F000120D10930A0D7092EF0C6092EE0C109374
:10280000010D05C0882349F380910B0DE2CF809123
:10281000110D882321F01093100D1093120D80914B
:10282000ED0C882331F01093060D1093050D1093D5
:10283000120D8091100D882371F18091010D81118D
:102840001CC00E94540660E08DE20E94B50961E060
:1028500084E30E94B50981EC95E00E942C09109355
:102860000A0DF092EF0CE092EE0C8091040D8111B4
:1028700002C01093040D1093010D8091110D882357
:1028800011F061E005C080910B0D8823D1F360E069
:1028900085E30E94B5098091060D882371F180912E
:1028A000020D81111CC00E94540660E08DE20E945E
:1028B000B50960E083E30E94B50980ED95E00E94D0
:1028C0002C098091040D811102C01093040D64EF56
:1028D00071E080E090E00E94200A1093020D809148
:1028E000050D882351F080910B0D882311F060E0D5
:1028F00001C061E084E30E94B5098091F00C882357
:10290000A9F061E085E20E94B5090E94850662EEA9
:1029100075E083E69EE00E9426040E9482066EEE29
:1029200075E083E69EE00E94260414C01093120D09
:102930001093100D0E94540660E08DE20E94B509CC
:102940008091000D882311F060E001C061E085E214
:102950000E94B5098091120D811151C18091FF0C27
:10296000882309F421C18091FC0C882309F415C146
:102970008091FB0C8111E0C09091F70C8091F60CD6
:10298000992379F08823D9F01092F60C80E090E03A
:102990000E94580A6CEF75E083E69EE00E942604D0
:1029A0000EC081110CC080E090E00E94580A6DE0DA
:1029B00076E083E69EE00E9426041093F60C809158
:1029C000F50C882309F447C08091F40C882309F49E
:1029D00044C01092F40C8091030D8823C9F010922A
:1029E000030D60E08FE20E94B5096EE176E0CE0152
:1029F00001960E94B703CE0101960E943D09CE01C7
:102A000001960E94B2030E94820662E376E018C03B
:102A10001093030D61E08FE20E94B50963E476E054
:102A2000CE0101960E94B703CE0101960E943D0996
:102A3000CE0101960E94B2030E94820665E576E00F
:102A400083E69EE00E94260464E670E080E090E069
:102A50000E94200A02C01093F40C8091F20C909115
:102A6000F30C8130910571F48091F60C882339F0D4
:102A70008091030D882319F01093F80C16C0109262
:102A8000F80C13C08230910511F0039771F4809116
:102A9000F60C811105C01092F80C1092F10C05C0D3
:102AA0008091030D8111E8CFF6CF8091F80C882337
:102AB000D1F18091000D882331F061E08BE20E941A
:102AC000B50961E005C060E08BE20E94B50960E0F5
:102AD00081E30E94B5098091FA0C882309F47AC039
:102AE0008091FB0C811176C060E081E30E94B50902
:102AF00060E08BE20E94B50960E08FE20E94B509B8
:102B00001093FB0C0E94850666E676E083E69EE065
:102B10000E9426040E94820662E776E083E69EE039
:102B20000E94260457C060E08BE20E94B50960E075
:102B300081E30E94B5094EC08091FA0C81114AC010
:102B40000E9485066DE076E083E69EE00E94260402
:102B50000E94820665E576E083E69EE00E942604F8
:102B60001093F90C1092F80C80910602882391F0D2
:102B70001092030D60E08FE20E94B5098FE796E0A6
:102B80000E942C090E94820662E376E083E69EE0C2
:102B90000E9426041092FB0C1DC08091090D81112A
:102BA00019C080910F0D06C08091FE0C811112C0DA
:102BB0008091FD0C81110EC06AEA76E0CE0101968B
:102BC0000E94B703CE0101960E946C06CE010196C9
:102BD0000E94B20361E083E30E94B5098091000D79
:102BE000882331F060E085E30E94B50960E005C00C
:102BF00061E085E30E94B50961E084E3B7CC809190
:102C0000110D8111B8C08091100D882309F45EC0A8
:102C100080910F0D882309F448C00E94850667EB58
:102C200076E083E69EE00E9426040E94820668EC1D
:102C300076E083E69EE00E94260440900D0D5090C1
:102C40000E0D45E044165104FCF480910C0D8823D0
:102C500061F061E083E30E94B5095FEF451A550A10
:102C600050920E0D40920D0D86C080910B0D882361
:102C700011F061E001C060E083E30E94B5091092A9
:102C80000E0D10920D0D77C060E083E30E94B50930
:102C900060E085E30E94B50910920E0D10920D0DB3
:102CA0001092100D1092010D66C00E94850665ED10
:102CB00076E083E69EE00E9426040E94820663EE90
:102CC00076E083E69EE00E94260455C080910A0DBE
:102CD000882341F08091090D882309F44CC010929B
:102CE0000A0D49C00E94850667EB76E083E69EE008
:102CF0000E9426044090070D5090080D8AE0481667
:102D00005104FCF480910C0D882361F061E083E3B1
:102D10000E94B509EFEF4E1A5E0A5092080D4092DC
:102D2000070D29C080910B0D882311F061E001C0CF
:102D300060E083E30E94B5091092080D1092070D20
:102D40001AC061E083E30E94B5091092080D109249
:102D5000070D1092060D1092050D1092120D109293
:102D6000040D1092030D1093020D64EF71E080E0EA
:102D700090E00E94200A0E946F020C94BF0C85EF25
:102D800096E00E942C090C94AA0D8AE391E00E941F
:102D900066090C94F70D1092FF0C1093FE0C109224
:102DA000FD0CD092F30CC092F20C0C94F70DA8E637
:102DB000B0E0283010F40C94B70BE0E0F0E00C9495
:102DC000B90B81E392E09093640E8093630E80913F
:102DD000B40C9091B50C83569E4071F4E091760E40
:102DE000F091770E90818091780E80958923808371
:102DF0001092B50C1092B40C82E89EE00E94B203CF
:102E000088E89EE00E94B2038EE89EE00C94B20334
:102E1000CF92DF92EF92FF921092C90D1092C80DDF
:102E200098EEC92E93E0D92EE12CF12CC092CA0D58
:102E3000D092CB0DE092CC0DF092CD0D81E192E0DD
:102E40009093C70D8093C60D85EC90E09093D30DC1
:102E50008093D20D84EC90E09093D50D8093D40DA7
:102E600080EC90E09093D70D8093D60D81EC90E0AC
:102E70009093D90D8093D80D82EC90E09093DB0D68
:102E80008093DA0D86EC90E09093DD0D8093DC0D5D
:102E90001092DF0D1092E00D1092E10D1092E20DF4
:102EA0001092A00E10929F0EC092A10ED092A20E70
:102EB000E092A30EF092A40E81E292E090939E0E17
:102EC00080939D0E68E97CE08EE89EE00E94B70347
:102ED00060EB7CE088E89EE00E94B70366EA7CE055
:102EE00082E89EE00E94B7031092660E1092650E73
:102EF000C092670ED092680EE092690EF0926A0E50
:102F000081E392E09093640E8093630E10927A0EA8
:102F10001092790E10927C0E10927B0E10927E0E03
:102F200010927D0E1092800E10927F0E6091810E95
:102F30006E7F6D7F6093810E6695617081E068277A
:102F40008EE00E94B50961E08EE00E94E409EAE6A5
:102F5000F2E0E491E093730EE4E2F2E0E491F0E059
:102F6000EE0FFF1FEE51FE4F859194919093750ED9
:102F70008093740E60E080E00E94E4098091810EED
:102F800081FD04C061E080E00E94B50910926F0EDF
:102F9000ECE5F2E0E491E093700EE6E1F2E0E4911A
:102FA000F0E0EE0FFF1FE450FE4F85919491909357
:102FB000720E8093710EFF90EF90DF90CF90089586
:102FC00097FB072E16F4009406D077FD08D013D097
:102FD00007FC05D03EF4909581959F4F089570951C
:102FE00061957F4F0895EE0FFF1F881F8BBF0790DD
:102FF000F691E02D1994AA1BBB1B51E107C0AA1F33
:10300000BB1FA617B70710F0A61BB70B881F991F89
:103010005A95A9F780959095BC01CD010895CF935D
:10302000DF938230910510F482E090E0E091AB0EE6
:10303000F091AC0E20E030E0C0E0D0E0309711F12C
:103040004081518148175907C0F04817590761F46A
:1030500082819381209719F09B838A832BC0909360
:10306000AC0E8093AB0E26C02115310519F0421726
:10307000530718F49A01BE01DF01EF010280F381CA
:10308000E02DDCCF2115310509F1281B390B243047
:10309000310590F412968D919C91139761157105ED
:1030A00021F0FB019383828304C09093AC0E809344
:1030B000AB0EFD01329644C0FD01E20FF31F819378
:1030C0009193225031092D933C933AC02091A90E3F
:1030D0003091AA0E232B41F42091090230910A026B
:1030E0003093AA0E2093A90E209107023091080276
:1030F0002115310541F42DB73EB740910B02509197
:103100000C02241B350BE091A90EF091AA0EE217D8
:10311000F307A0F42E1B3F0B2817390778F0AC01FA
:103120004E5F5F4F2417350748F04E0F5F1F5093D7
:10313000AA0E4093A90E8193919302C0E0E0F0E0C3
:10314000CF01DF91CF9108950F931F93CF93DF931A
:10315000009709F48CC0FC0132971382128200910F
:10316000AB0E1091AC0E0115110581F42081318157
:10317000820F931F2091A90E3091AA0E28173907AC
:1031800079F5F093AA0EE093A90E71C0D80140E042
:1031900050E0AE17BF0750F412962D913C91139753
:1031A000AD012115310509F1D901F3CF9D01DA01F6
:1031B0003383228360817181860F971F8217930763
:1031C00069F4EC0128813981260F371F2E5F3F4FAC
:1031D000318320838A819B8193838283452B29F4C9
:1031E000F093AC0EE093AB0E42C01396FC93EE93BB
:1031F0001297ED01499159919E01240F351FE21755
:10320000F30771F480819181840F951F02961196C6
:103210009C938E938281938113969C938E931297A5
:10322000E0E0F0E0D80112968D919C911397009701
:1032300019F0F8018C01F6CF8D919C9198012E5FC9
:103240003F4F820F931F2091A90E3091AA0E28178D
:10325000390769F4309729F41092AC0E1092AB0E36
:1032600002C0138212821093AA0E0093A90EDF915E
:10327000CF911F910F9108956F927F928F929F929D
:10328000AF92BF92CF92DF92EF92FF920F931F9374
:10329000CF93DF93EC01009781F4CB01DF91CF91C5
:1032A0001F910F91FF90EF90DF90CF90BF90AF9064
:1032B0009F908F907F906F90B2CEFC01E60FF71F2A
:1032C0009C0122503109E217F30708F4A8C0D90184
:1032D0000D911C91119706171707A8F005301105DD
:1032E00008F49BC0C80104978617970708F495C097
:1032F00002501109061B170B019311936D937C93D8
:10330000CF0122DF8AC05B01A01AB10A4C01800EF6
:10331000911EA091AB0EB091AC0E40E050E0E12CBC
:10332000F12C109709F44AC0A815B905D1F56D9094
:103330007C901197630182E0C80ED11CCA14DB0493
:1033400080F1A3014A195B096A0182E0C80ED11C11
:103350001296BC9012971396AC91B5E0CB16D1049F
:1033600040F0B282A38351834083D9016D937C9353
:103370000AC00E5F1F4FC301800F911FF901918397
:103380008083EB2DFA2FE114F10431F0D70113966D
:10339000FC93EE93129741C0F093AC0EE093AB0E0A
:1033A0003CC08D919C9111974817590708F4AC01C6
:1033B0007D0112960D90BC91A02DB3CF8091A90EE6
:1033C0009091AA0E88159905E1F446175707C8F49D
:1033D0008091070290910802009741F48DB79EB743
:1033E00040910B0250910C02841B950BE817F907D2
:1033F000B0F4F093AA0EE093A90EF90171836083F3
:103400000CC0CB010CDE7C01009749F0A801BE0185
:103410001BD0CE0199DEC70104C0CE0102C080E0FE
:1034200090E0DF91CF911F910F91FF90EF90DF908F
:10343000CF90BF90AF909F908F907F906F900895A6
:1034400081E090E0F89410C0FB01DC0102C0019023
:103450000D9241505040D8F70895FB01DC010190D6
:103460000D920020E1F7089511E0C2E5D1E000E0FF
:1034700005C0802FFE01B7DD2196011DC335D107A0
:0A34800080E00807B1F7F894FFCFD1
:10348A00010101010101010000AD0E8000000000F0
:10349A000008028501D201B001C4014E02000000F9
:1034AA0000A0038C03530350034D034C0300000098
:1034BA0000C002850114032B03A702BF02436F6EEB
:1034CA0074726F6C2050616E656C007374657473EE
:1034DA006F6E3240696C6C696E6F69732E656475C4
:1034EA00004C61737420557064617465643A2039C4
:1034FA002F382F31360056455253494F4E3A200045
:10350A0042593A204D4154542053544554534F4E36
:10351A00005645523A0050414E454C20504F5745AF
:10352A0052204953204F46462E2053574954434868
:10353A002050414E454C20544F204F4E20544F208E
:10354A00424547494E20535441525455502E005338
:10355A00574954434820544F204155544F204D4F0A
:10356A00444520544F20424547494E205048415334
:10357A0045204920535441525455502E0041545429
:10358A00454E54494F4E3A20452D53544F502054DE
:10359A004553542C20452D53544F502052455345E2
:1035AA00542C2026205741524E494E4720484F520C
:1035BA004E2068617665206265656E20736B69705E
:1035CA007065642E20506C65617365207265737432
:1035DA006172742069662074686973207761732048
:1035EA0061206D697374616B652E005354415455A3
:1035FA0053203030313A0050414E454C20504F57FD
:10360A004552204F464600535441545553203030BA
:10361A00323A0053574954434820544F2041555495
:10362A004F005761726E696E6720686F726E207400
:10363A006573740046554E4354494F4E53204D45C9
:10364A004E553A2028504147452031204F462033D5
:10365A00293B204F5045524154494F4E532046551D
:10366A004E4354494F4E53004C4541442F535550F5
:10367A0045525649534F5253204F4E4C59210050F0
:10368A004147452031413A204C4541442D4143436D
:10369A0045535341424C452046554E4354494F4E9B
:1036AA0053005072657373204C4F434B205245535D
:1036BA00545241494E545320746F20746F67676C9B
:1036CA0065204155544F4D41544943205245535466
:1036DA005241494E545320554E4C4F434B00507261
:1036EA006573732044495350415443482052494713
:1036FA00485420746F204C49535420435552524524
:10370A004E54204F5045524154494F4E5320534531
:10371A005454494E475300466F72206D6F726520AC
:10372A006F7074696F6E732C207377697463682085
:10373A00474154455320746F204F50454E0052451F
:10374A0053545241494E54532057494C4C204E4FE2
:10375A0057204155544F4D41544943414C4C5920EF
:10376A00554E4C4F434B20494E204155544F4D41E5
:10377A00544943204D4F4445210052455354524128
:10378A00494E54532057494C4C204E4F204C4F4ED3
:10379A00474552204155544F4D41544943414C4CA1
:1037AA005920554E4C4F434B2120494E20415554E8
:1037BA004F4D41544943204D4F44450050414745E0
:1037CA002032413A2053555045525649534F522DB3
:1037DA0041434345535341424C452046554E435479
:1037EA00494F4E53005072657373204449535041F8
:1037FA0054434820524947485420666F722044492E
:10380A0053504154434820544F47474C4500535561
:10381A005045525649534F52204D4F444520454E2C
:10382A0041424C4544210053555045525649534F45
:10383A0052204D4F44452044495341424C4544216E
:10384A0000452D53544F5020505245535345440080
:10385A00524944452053544F5020505245535345E2
:10386A0044005354415455533A20303030005041AB
:10387A004E454C204B4559204F4646004149524738
:10388A00415445533A20204F50454E210041495258
:10389A0047415445533A202020204F4B210052657E
:1038AA0073747261696E747320756E6C6F636B6585
:1038BA006400524553545241494E54533A204F5092
:1038CA00454E00526573747261696E7473206C6F31
:1038DA00636B656400524553545241494E54533AFE
:1038EA0020204F4B2100535441545553203130303E
:1038FA003A004449535041544348494E47210052E3
:10390A006573747261696E747320756E6C6F636B24
:10391A006564206265636175736520747261696E9E
:10392A002073746F707065642E00554E4B4E4F575E
:10393A004E204D4F4445005052455353205249445E
:10394A004520535441525400544F2045535220525B
:10395A004553455400452D53544F50204143544933
:10396A0056450053776974636820746F2042595032
:10397A00415353210050524F4752414D4D20455219
:10398A00524F523A20554E4B4E4F574E204D4F44B0
:10399A004521210044454255473A20200053776982
:1039AA0074636820746F204155544F204D4F44452D
:1039BA0020746F20636F6E74696E7565207374610D
:1039CA00727475702E00452D53544F502052455332
:1039DA0045543A00504841534520494920535441DF
:1039EA00525455503A20452D53544F502052455366
:1039FA00455400452D53544F502052455345543A8F
:103A0A0020507265737320616E6420686F6C642045
:103A1A005249444520535441525420746F207265D0
:103A2A0073657420455352204C4F4F5000452D5317
:103A3A00544F502052455345542053554343455300
:103A4A005346554C00455352535441525420534502
:103A5A005249414C005354415254555020574152F7
:103A6A004E494E473A005048415345204949205350
:103A7A005441525455503A205354415254555020AF
:103A8A005741524E494E47005354415254555020C3
:103A9A005741524E494E473A20434845434B2054DA
:103AAA0048415420414C4C204741544553204152EF
:103ABA00452053454355524520414E4420524944DE
:103ACA0045204152454120434C4541522100505224
:103ADA004553532041434B4E4F574C45444745208D
:103AEA00544F20434F4E4652494D2053414645209C
:103AFA00544F204F504552415445210043484543B5
:103B0A004B205249444520415245412121005052FF
:103B1A004553532041434B4E4F574C44474500535E
:103B2A00414645204F5045524154494F4E20434F3C
:103B3A004E4652494D4544213A20507265737320CE
:103B4A00616E6420686F6C64205249444520535466
:103B5A0041525420746F20726573657420494E492E
:103B6A0054494154452053544152545550005354DA
:103B7A004152545550205741524E494E47205355B1
:103B8A0043434553530053544F5020544553543ADA
:103B9A0000504841534520492053544152545550EE
:103BAA003A2053544F5020544553543B20456E738A
:103BBA0075726520616C6C2073746F702062757405
:103BCA00746F6E732066756E6374696F6E20636FAF
:103BDA0072726563746C792E0050524553532052A9
:103BEA004944452053544F500052494445205354A8
:103BFA004F5020544553543A2050726573732052E3
:103C0A004944452053544F50005249444520535487
:103C1A004F502066756E6374696F6E696E672063B4
:103C2A006F72726563746C792E00454D4552474533
:103C3A004E43592053544F5020544553543A205020
:103C4A007265737320454D455247454E435920537B
:103C5A00544F502100505245535320452D53544F31
:103C6A005000454D455247454E43592053544F50F5
:103C7A0020505245535345443A2050756C6C207578
:103C8A007020454D455247454E43592053544F5095
:103C9A000050554C4C20452D53544F5000452D5340
:103CAA00544F502066756E6374696F6E696E672033
:103CBA00636F72726563746C792E0053544F50208F
:103CCA005445535420434F4D504C4554452E205093
:103CDA00726573732041434B4E4F574C45444745D9
:103CEA0020746F20636F6E74696E7565210053547A
:103CFA004F5020544553543A204F4B00505245538D
:103D0A00532041434B00554B4E4F574E204341538E
:103D1A00452073746F705465737453657269616C6E
:103D2A0000506861736520492073746172747570FC
:103D3A003A204C414D5020544553543A20456E7315
:103D4A0075726520616C6C206C616D70732066758C
:103D5A006E6374696F6E20636F72726563746C79D7
:103D6A002E0050726573732041434B4E4F574C459A
:103D7A0044474520746F20636F6E6669726D2061D7
:103D8A006C6C206C616D70732066756E6374696FFC
:103D9A006E2070726F7065726C7920616E64206338
:103DAA006F6E74696E756520737461727475702EA6
:103DBA000045585452412046554E4354494F4E539C
:103DCA003A200053776974636820454E5452414E35
:103DDA00434520474154455320746F204F50454E68
:103DEA0020746F207475726E20616C6C206C616D2A
:103DFA00707320736F6C69642E0050726573732040
:103E0A00616E6420686F6C642054524F55424C4571
:103E1A0020666F72205354415254555020484F52D5
:103E2A004E20746573742E00507265737320616E30
:103E3A006420686F6C6420524944452053544152AF
:103E4A005420666F72205741524E494E47204D45C5
:103E5A0053534147452074657374005072657373F8
:103E6A0020524944452053544F5020746F206279A0
:103E7A00706173732073746172747570203D3E2093
:103E8A004D41494E5441494E454E4345204F4E4CB3
:103E9A005921004C414D50205445535420434F4D15
:103EAA00504C4554452E0043616E6E6F7420636F0B
:103EBA006D706C657465206C616D702074657374C7
:103ECA002E200A205377697463682047415445536A
:103EDA0020746F20434C4F5345442E004C414D50A3
:103EEA0020544553543A2050524553530041434BB2
:103EFA0020544F20434F4E54494E5545004C414D96
:103F0A005020544553543A0045585452412046557E
:103F1A004E4354494F4E5300352E302E3020616C9B
:103F2A0070686120310044454255473A20000D0A25
:023F3A00000085
:00000001FF
