:1000000052C1000081C100007FC100007DC100001D
:100010007BC1000079C1000077C1000075C10000FC
:1000200073C1000073C4000071C400006FC40000FD
:100030006BC1000069C1000067C1000065C100001C
:1000400063C1000061C100005FC100005DC100002C
:100050005BC1000059C1000057C100000C94790A2F
:1000600053C100001DC40000F2C300004DC10000D8
:100070004BC1000049C1000047C1000045C100005C
:1000800043C1000041C100003FC100003DC100006C
:100090003BC1000039C1000037C10000B5C40000F9
:1000A00033C1000031C100002FC100002DC100008C
:1000B0002BC1000029C1000027C1000025C100009C
:1000C00023C1000021C100001FC100001DC10000AC
:1000D0001BC1000019C1000017C1000015C10000BC
:1000E00013C10000D40FD90FDE0FE80FF20F6B1011
:1000F000FC0F04100C10161020102A103910431099
:100100006B104D10571061107A078D07A007B407C8
:10011000BB07CE07E107CC08CF08BE08C208C80855
:100120000609D308D708DD08E108E508EB08EF0861
:10013000F3080609F908FD08010950524F475241DA
:100140004D4D204552524F523A20554E4B4E4F572F
:100150004E205459504521210052454144204F50D2
:1001600045524154494E4720494E535452554354E9
:10017000494F4E53204245464F5245205553452145
:10018000210000002100240027002A002D0030005B
:10019000330001010000040107010A0100000A0BFD
:1001A00002090C0D0E080703040100000000000006
:1001B000000000000000000000000000000000003F
:1001C00000000000000000001211100000000000FC
:1001D000000000000000000000000000000000001F
:1001E000000000002200250028002B002E00310016
:1001F000340002010000050108010B01000020008D
:100200002300260029002C002F00320000010000EE
:100210000301060109010505050507050808080889
:10022000020202020A0A080804040404010101018E
:100230000101010103030303030303030407070789
:100240000C0C0C0C0C0C0C0C02020202060606062E
:10025000060606060B0B0B0B0B0B0B0B01021020FB
:1002600020080810204010204080020102010804EC
:100270000201010204081020408080402010080480
:1002800002018004020180402010080402010804D9
:10029000020101020408102040800102040810201D
:1002A00040801F15F81411241FBECFEFD1E2DEBF2E
:1002B000CDBF00E00CBF1BE0A0E0B2E0E8EBF0E354
:1002C00000E00BBF02C007900D92A63EB107D9F720
:1002D0002DE0A6EEBBE001C01D92AC3DB207E1F7F8
:1002E00011E0C2E5D1E000E006C021970109802FAE
:1002F000FE010E940A16C135D10780E00807A9F760
:100300000E94C30A0C944B187BCECF92DF92EF92DF
:10031000FF920F931F93CF93DF936C017A018B01B0
:10032000C0E0D0E0CE15DF0589F0D8016D918D01D8
:10033000D601ED91FC910190F081E02DC601199557
:10034000892B11F47E0102C02196ECCFC701DF9109
:10035000CF911F910F91FF90EF90DF90CF90089574
:10036000FC01918D828D981761F0828DDF01A80FBD
:10037000B11D5D968C91928D9F5F9F73928F90E0DF
:1003800008958FEF9FEF0895FC01918D828D98174E
:1003900031F0828DE80FF11D858D90E008958FEF8B
:1003A0009FEF0895FC01918D228D892F90E0805C54
:1003B0009F4F821B91098F739927089585EF9CE0C9
:1003C000F1DF21E0892B09F420E0822F0895FC0160
:1003D000848DDF01A80FB11DA35ABF4F2C91848DCE
:1003E00090E001968F739927848FA689B7892C9303
:1003F000A089B1898C9180648C93938D848D98139E
:1004000006C00288F389E02D80818F7D8083089566
:10041000EF92FF920F931F93CF93DF93EC0181E054
:10042000888F9B8D8C8D981305C0E889F989808110
:1004300085FD23C0F62E0B8D10E00F5F1F4F0F734D
:100440001127E02E8C8DE8120BC00FB607FCFACFF7
:10045000E889F989808185FFF5CFCE01B8DFF2CF39
:100460008B8DFE01E80FF11DE35AFF4FF0820B8FD9
:10047000EA89FB898081806207C0EE89FF896083F9
:10048000E889F98980818064808381E090E0DF9150
:10049000CF911F910F91FF90EF900895CF93DF932D
:1004A000EC01888D8823C1F0EA89FB89808185FD74
:1004B00005C0A889B9898C9186FD0EC00FB607FCCE
:1004C000F5CF808185FFF2CFA889B9898C9185FF0E
:1004D000EDCFCE017CDFE8CFDF91CF91089580E0B2
:1004E00090E0892B19F06ADF811125C080E090E04F
:1004F000892B41F080E090E0892B21F00E940000E0
:1005000081111CC080E090E0892B41F080E090E0F8
:10051000892B21F00E940000811113C080E090E03F
:10052000892BA1F080E090E0892B81F00E940000EF
:1005300081110AC008950E940000D8CF0E940000D7
:10054000E1CF0E940000EACF0C94000008952091B2
:10055000E80B3091E90B2817390771F49091E60BFD
:100560008091E70B981741F0E091E60BF0E0EB5437
:10057000F34F808190E008958FEF9FEF08950895E5
:100580001F93CF93DF93DC015C962D913C915D9797
:100590002115310539F481E090E013969C938E93F8
:1005A00012973DC05196ED91FC91529750969C91B7
:1005B0005097892F80951FB75E964C915E9741FBAF
:1005C000772770F941FD6095F8944081772311F009
:1005D000492B01C048234083E9012197F1F748E006
:1005E000508160FF02C0592B01C058235083E9019C
:1005F0002197F1F76695415099F7772321F0908183
:100600008923808303C08081982B90831FBF5C96D1
:100610008D919C915D970197F1F721E030E0C90140
:10062000DF91CF911F9108952091E80B3091E90B54
:100630002817390769F48091E70B2091E60B90E0C9
:10064000805C9F4F821B910960E470E00C94F71569
:1006500080E090E008952091E80B3091E90B281795
:100660003907B9F49091E60B8091E70B981789F060
:10067000E091E60BF0E0EB54F34F80812091E60B24
:1006800030E02F5F3F4F2F7333272093E60B90E02E
:1006900008958FEF9FEF089508958FEF9FEF0895CE
:1006A0008FEF9FEF08958091B40C90E09195819524
:1006B0009109089585ED8093BC008091BC0084FD74
:1006C000FCCF10928E0C08954091680C262F30E0DC
:1006D000240F311D21323105DCF420918E0C2430A1
:1006E000C9F4FC0180E090E0861758F43091680C62
:1006F0002191DC01AA5BB34FA30FB11D2C9301968E
:10070000F3CF8091680C680F6093680C80E00895C7
:1007100081E0089582E00895CF93DF931F921F92A6
:10072000CDB7DEB7CB01642F49835A83CDDF498132
:10073000842F5A81952F0F900F90DF91CF910895BC
:10074000CF93DF931F92CDB7DEB7698361E0CE010F
:100750000196BADF81E090E00F90DF91CF9108958C
:100760000E943718FC01808191810C94BB16EF9296
:10077000FF920F931F93CF93DF93EC01198218829E
:100780001B821A821D821C8261157105A9F17B01F1
:10079000FB0101900020E9F731978F01061B170B31
:1007A000B8016F5F7F4F80E090E00E945317009781
:1007B00059F0998388831B830A832C813D81232BE5
:1007C00081F4FC0110820DC088819981009711F09D
:1007D0000E94BB16198218821D821C821B821A82FB
:1007E0000BC01D830C83B701DF91CF911F910F9137
:1007F000FF90EF900C944418DF91CF911F910F91CF
:10080000FF90EF900895DC01ED91FC91DB011496CF
:100810004D915C9115976D917C910280F381E02D53
:1008200019946115710579F0FB0101900020E9F739
:100830003197AF01461B570BDC01ED91FC91028013
:10084000F381E02D199480E090E00895EACF1F92A3
:100850000F920FB60F9211240BB60F922F933F9366
:100860004F935F936F937F938F939F93AF93BF93B8
:10087000EF93FF9385EF9CE0AADDFF91EF91BF918D
:10088000AF919F918F917F916F915F914F913F9128
:100890002F910F900BBE0F900FBE0F901F901895C9
:1008A0001F920F920FB60F9211240BB60F922F9337
:1008B0008F939F93EF93FF93E091050DF091060DB9
:1008C0008081E0910B0DF0910C0D82FD12C09081A2
:1008D00080910E0D8F5F8F7320910F0D821751F055
:1008E000E0910E0DF0E0EB50F34F958F80930E0DDD
:1008F00001C08081FF91EF919F918F912F910F9077
:100900000BBE0F900FBE0F901F9018951F920F9265
:100910000FB60F9211240BB60F922F933F934F9364
:100920005F936F937F938F939F93AF93BF93EF9357
:10093000FF93E091E80BF091E90B309709F451C077
:10094000968DA685B785858591FF04C09C918923E6
:1009500029F447C09C91892309F043C0A389B48935
:100960009C918589809589238C93868997890197A5
:10097000F1F7608D718DA685B785558538E020E04B
:10098000CB010197F1F7822F90E095958795282F5D
:100990004C91452309F02068315091F7868D81FDF7
:1009A00020958091E70B90E001968F739927309105
:1009B000E60B381749F0A091E70BB0E0AB54B34F0A
:1009C0002C938093E70B03C0868D8160868F828D88
:1009D000938D0197F1F7A389B4899C918589892B1F
:1009E0008C93FF91EF91BF91AF919F918F917F91E8
:1009F0006F915F914F913F912F910F900BBE0F9090
:100A00000FBE0F901F9018951F920F920FB60F9266
:100A100011240BB60F922F933F934F935F936F93D5
:100A20007F938F939F93AF93BF93EF93FF938091A7
:100A3000B900887F803609F49CC068F5883209F4D3
:100A40005BC090F4803109F454C038F4882309F471
:100A5000F6C0883009F44DC0F5C0883109F44CC0A7
:100A6000803209F45DC0EEC0803409F468C048F4F7
:100A7000803309F455C0883309F0E4C080938D0CAD
:100A8000D8C0803509F44FC0883509F45DC088347A
:100A900009F0D8C0D6C0883909F4C7C0A8F488378F
:100AA00009F467C038F4883609F463C0803709F464
:100AB00060C0C8C0883809F4B8C0803909F45FC084
:100AC000803809F0BFC05BC0803B09F486C038F4B1
:100AD000803A09F466C0883A09F47FC0B3C0803C0C
:100AE00009F4A7C0883C09F4A4C0883B09F48AC073
:100AF000A9C08091B30C10C09091B20C8091B10C40
:100B0000981770F5E091B20C81E08E0F8093B20CD3
:100B1000F0E0EF56F34F80818093BB0085EC86C0F8
:100B200080938D0C8EC0E091B20C81E08E0F80938B
:100B3000B20C8091BB00F0E0EF56F34F80839091B0
:100B4000B20C8091B10C6EC0E091B20C81E08E0FBE
:100B50008093B20C8091BB00F0E0EF56F34F80839E
:100B60008091900C81116DC081E080938F0C84EA9C
:100B700061C083E080938E0C10928C0CCFCF80915B
:100B80008C0C803208F051C0E0918C0C81E08E0F0B
:100B900080938C0C8091BB00F0E0E459F34F80838C
:100BA000BDCF85EC8093BC0010928E0C80918C0C94
:100BB000803230F4E0918C0CF0E0E459F34F108275
:100BC00060918C0C70E0E0916A0CF0916B0C8CE6FB
:100BD0009CE0199510928C0C35C084E080938E0CAB
:100BE0001092690C1092680CE091660CF091670C01
:100BF00019958091680C811105C081E08093680C83
:100C00001092460CE091690C81E08E0F8093690C84
:100C1000F0E0EA5BF34F80818093BB009091690C18
:100C20008091680C981708F479CF85E88093BC0010
:100C300009C085EC8093BC0010928E0C03C010920A
:100C40008D0C38DDFF91EF91BF91AF919F918F9106
:100C50007F916F915F914F913F912F910F900BBEBC
:100C60000F900FBE0F901F9018951092F30B1092DB
:100C7000F20B1092F00B1092EF0B1092ED0B109202
:100C8000EB0B1092EA0B1092450C1092440C109250
:100C9000430C1092F10B1092EE0B1092EC0B68EEDD
:100CA00073E080E090E0CCC360E08BE25ED360E074
:100CB00081E35BD360E085E358D360E084E355D300
:100CC00060E083E352D360E08FE24FD360E089E2DB
:100CD0004CD360E087E249C3CF93DF93EC0168E334
:100CE00076E085EF9CE0B2DDBE0185EF9CE08BDD18
:100CF00087EB9DE0B1D26AE070E080E090E0DF91A8
:100D0000CF919EC381E090E0D3C36EEF82E99DE076
:100D100037DC61E082E99DE033DC80E090E0C8D31D
:100D20006AE070E080E090E08BC30F931F93CF9355
:100D3000DF93CDB7DEB72C970FB6F894DEBF0FBEAA
:100D4000CDBF8C0161E476E0CE01019610DD02306A
:100D5000110599F00330110519F10130110589F5DC
:100D6000CE01019679D2D1DF6AE676E082E99DE094
:100D70006DDDC8DF6DE873E00FC088E796E07DD2D7
:100D800087E996E07AD2C1DF6AE676E082E99DE003
:100D90005DDDB8DF61ED76E082E99DE057DD03C0FF
:100DA00082EE96E06AD2CE010196DCDC2C960FB67C
:100DB000F894DEBF0FBECDBFDF91CF911F910F9191
:100DC00008956AEF76E0CE010796D1DCCE01079652
:100DD00083DFCE010796C6DCE6CF0F931F93CF9338
:100DE000DF93CDB7DEB72C970FB6F894DEBF0FBEFA
:100DF000CDBF8C0161E476E0CE010196B8DC023013
:100E00001105F1F08CF40130110509F049C0CE0153
:100E1000019622D27ADF6AE077E082E99DE016DD72
:100E200071DF6DE873E02BC003301105E1F0043091
:100E3000110509F035C083E298E01FD266DF22C0B9
:100E40008BE197E01AD28DE397E017D283E897E021
:100E500014D25BDF61EB77E082E99DE0F7DC52DFE3
:100E600063EC77E00CC084ED97E007D24EDF6AE0D8
:100E700077E082E99DE0EADC45DF61ED76E082E93A
:100E80009DE0E4DCCE0101966DDC2C960FB6F89463
:100E9000DEBF0FBECDBFDF91CF911F910F9108959F
:100EA0006AEF76E0CE01079662DCCE01079614DF8A
:100EB000CE01079657DCE6CF0F931F93CF93DF93B6
:100EC000CDB7DEB72C970FB6F894DEBF0FBECDBFFF
:100ED0008C0161E476E0CE01019649DCF80131979E
:100EE000E730F10508F083C08827EC57FF4F8F4F9C
:100EF0000C940A16CE010196AFD107DF6BE378E0C0
:100F000082E99DE0A3DCFEDE6DE873E082E99DE00E
:100F10009DDC81E08093F30B19C086E498E0ADD1AD
:100F2000F4DE6BE378E082E99DE090DCEBDE6EE8D6
:100F300078E082E99DE08ADC81E08093F20B06C0D4
:100F40008EE998E09AD181E08093F00BCE01019672
:100F500009DC2C960FB6F894DEBF0FBECDBFDF9133
:100F6000CF911F910F9108958EEB98E086D181E08B
:100F70008093EF0BEBCF8FED98E07FD1C6DE6BE374
:100F800078E082E99DE062DCBDDE6AE079E082E93A
:100F90009DE05CDC81E08093ED0BD8CF87E199E0A8
:100FA0006CD1B3DE6BE378E082E99DE04FDCAADE32
:100FB00066E479E082E99DE049DC81E08093EB0B17
:100FC000C5CF82E599E059D180E799E056D19DDE01
:100FD00063EA79E082E99DE039DC94DE61EB79E057
:100FE00082E99DE033DC81E08093EA0BAFCF6BEBCD
:100FF00079E0CE010796BBDBCE0107966DDECE0110
:101000000796B0DBA3CFEF92FF920F931F93CF937E
:10101000DF93CDB7DEB7E6970FB6F894DEBF0FBE0D
:10102000CDBF8C0166ED79E0CE0101967C019FDB9E
:1010300067E17AE0CE0107969ADB66E67AE0CE01B8
:101040000D9695DB68E77AE0CE01439690DB6FEA78
:101050007AE0CE0149968BDB6DED7AE0CE014F96BA
:1010600086DB60E17BE0CE01859681DB68E47BE096
:10107000CE018B967CDB6CE57BE0CE01C19677DB05
:101080000230110521F1E4F40130110509F047C0E7
:10109000C701E2D0CE010796DFD087EB9DE0DCD020
:1010A00034DE61E97BE082E99DE0D0DB2BDE62EAA1
:1010B0007BE082E99DE0CADB81E08093F30B2FC0E7
:1010C0000330110531F10430110581F128C0CE0142
:1010D0000D96C2D0CE014396BFD0CE014996BCD06A
:1010E000CE014F96B9D0CE018596B6D087EB9DE064
:1010F000B3D00BDE62EB7BE082E99DE0A7DB02DE92
:101100006DEB7BE082E99DE0A1DB81E08093F20B57
:1011100006C0CE018B96A0D081E08093F00BCE016B
:10112000C19620DB8E010F5C1F4F07C0CE01C19618
:1011300093D081E08093EF0BF2CF06501109C801E4
:1011400011DB0E151F05C9F7E6960FB6F894DEBF42
:101150000FBECDBFDF91CF911F910F91FF90EF9008
:10116000089590E0FC013197E231F10508F04EC09E
:101170008827E557FF4F8F4F0C940A168091800007
:101180008F7703C0809180008F7D809380000895C9
:1011900080918000877FF9CF84B58F7702C084B5B6
:1011A0008F7D84BD08958091B0008F7703C08091BA
:1011B000B0008F7D8093B0000895809190008F776C
:1011C00007C0809190008F7D03C080919000877F41
:1011D0008093900008958091A0008F7707C0809140
:1011E000A0008F7D03C08091A000877F8093A00026
:1011F0000895809120018F7707C0809120018F7D15
:1012000003C080912001877F8093200108953FB71C
:10121000F8948091C80D9091C90DA091CA0DB0911C
:10122000CB0D26B5A89B05C02F3F19F00196A11D37
:10123000B11D3FBFBA2FA92F982F8827820F911D6C
:10124000A11DB11DBC01CD0142E0660F771F881FB3
:10125000991F4A95D1F70895CF93DF93BC0185EF8D
:101260009CE0D1DAEC0163EE7BE085EF9CE0D9DA1B
:101270008C0F9D1FDF91CF910895CF93DF93BC0119
:1012800085EF9CE0CEDAEC0163EE7BE085EF9CE03D
:10129000C8DA8C0F9D1FDF91CF910895CF93DF9314
:1012A000E091F50CF091F60C0190F081E02D682FA3
:1012B00085EF9CE01995EC0163EE7BE085EF9CE007
:1012C000B0DA8C0F9D1FDF91CF9108950F931F937C
:1012D000CF93DF938C01C0E0D0E0F801EC0FFD1F4D
:1012E0006491662371F0E091F50CF091F60C019099
:1012F000F081E02D85EF9CE01995892B11F0219666
:10130000ECCF63EE7BE085EF9CE08BDA8C0F9D1FCA
:10131000DF91CF911F910F910895CF93DF93282FE5
:1013200030E0F901E456FE4F8491F901E45AFD4F93
:10133000D491F901EA5EFD4FC491CC2389F081116B
:1013400010DFEC2FF0E0EE0FFF1FE450FE4FA591F1
:10135000B491EC91ED2381E090E021F480E002C0B3
:1013600080E090E0DF91CF9108951F93CF93DF93BA
:10137000282F30E0F901E456FE4F8491F901E45A38
:10138000FD4FD491F901EA5EFD4FC491CC23C1F029
:10139000162F8111E6DEEC2FF0E0EE0FFF1FEE516D
:1013A000FE4FA591B4918FB7F894111105C09C918F
:1013B000ED2FE095E92302C0EC91ED2BEC938FBF6C
:1013C000DF91CF911F910895CF93DF9390E0FC01BF
:1013D000E45AFD4F2491FC01EA5EFD4F849188237D
:1013E00061F190E0880F991FFC01EE57FE4FC59107
:1013F000D491FC01EE51FE4FA591B491611109C049
:101400009FB7F8948881209582238883EC912E23BE
:101410000BC0623061F49FB7F8943881822F8095B9
:1014200083238883EC912E2B2C939FBF06C08FB70C
:10143000F894E8812E2B28838FBFDF91CF910895F8
:101440008F929F92AF92BF92CF92DF92EF92FF92D4
:101450006B017C01DCDE4B015C01C114D104E104B1
:10146000F104E9F0D4DEDC01CB0188199909AA095D
:10147000BB09883E9340A105B10578F321E0C21A6B
:10148000D108E108F10888EE880E83E0981EA11CBF
:10149000B11CC114D104E104F10421F7DECFFF90A7
:1014A000EF90DF90CF90BF90AF909F908F90089576
:1014B000CF93C82F6EEF82E99DE062D86C2F6295C2
:1014C000660F660F607C605882E99DE059D86AE03B
:1014D00070E080E090E0CF91B3CF2FB7F8946091A7
:1014E000C40D7091C50D8091C60D9091C70D2FBF91
:1014F00008951F920F920FB60F9211242F933F93CE
:101500008F939F93AF93BF938091C40D9091C50D1E
:10151000A091C60DB091C70D3091C30D23E0230FEC
:101520002D3720F40196A11DB11D05C026E8230F1B
:101530000296A11DB11D2093C30D8093C40D9093FD
:10154000C50DA093C60DB093C70D8091C80D9091A5
:10155000C90DA091CA0DB091CB0D0196A11DB11D71
:101560008093C80D9093C90DA093CA0DB093CB0D75
:10157000BF91AF919F918F913F912F910F900FBE8F
:101580000F901F901895CF93DF93CDB7DEB7689774
:101590000FB6F894DEBF0FBECDBF789484B58260DD
:1015A00084BD84B5816084BD85B5826085BD85B507
:1015B000816085BD80916E00816080936E00109285
:1015C0008100809181008260809381008091810000
:1015D0008160809381008091800081608093800091
:1015E0008091B10084608093B1008091B0008160EF
:1015F0008093B000809191008260809391008091EF
:10160000910081608093910080919000816080932F
:1016100090008091A10082608093A1008091A10040
:1016200081608093A1008091A00081608093A000E0
:10163000809121018260809321018091210181604C
:10164000809321018091200181608093200180910D
:101650007A00846080937A0080917A00826080931F
:101660007A0080917A00816080937A0080917A007C
:10167000806880937A001092C100E091050DF0918E
:10168000060D82E08083E091010DF091020D108241
:10169000E091030DF091040D8FEC808310920D0DFD
:1016A000E091090DF0910A0D86E08083E091070D2D
:1016B000F091080D808180618083E091070DF091A9
:1016C000080D808188608083E091070DF091080DFE
:1016D000808180688083E091070DF091080D808102
:1016E0008F7D80831092AD0D1092AC0D1092AB0DDA
:1016F0001092AA0D1092A90D1092A80D8DE991E0FB
:101700009093AF0D8093AE0D80919E0D96EF980F44
:10171000943048F02EEC280F243028F022EC280FCB
:10172000283008F070C02DEB30E03093A90D2093E5
:10173000A80D2BE931E03093AB0D2093AA0D2CE2DC
:1017400031E03093AD0D2093AC0D943070F02EEC61
:10175000280F243050F022EC280F283010F40C947D
:10176000EE14A0E0B0E00C94F014A8E6B0E0E8E6D7
:10177000F0E02081943018F08E53883010F081E032
:1017800001C084E0822B8C9380919E0D96EF980F80
:10179000943058F02EEC280F243038F022EC280F2B
:1017A000283030F020E030E005C02BE630E002C009
:1017B0002DE630E03093A60D2093A50D943010F463
:1017C0009AEF0BC0823381F0833381F0843381F050
:1017D00092EC980F983070F492EC980F81E001C071
:1017E000880F9A95EAF707C088E005C084E003C037
:1017F00082E001C081E08093A70D8091AE0D9091B1
:10180000AF0D0197F1F78091AC0D9091AD0D892B43
:1018100049F1E091E80BF091E90B2DE0E239F20794
:1018200009F1309739F0A389B4899C918589809515
:1018300089238C938091B00D8E7F8093B00D109290
:10184000E70B1092E60B82E99DE09093E90B809301
:10185000E80BE091A50DF091A60D90818091A70D68
:10186000892B808352DA80E090E022DE60E088E11C
:10187000ABDD60E080E3A8DD60E08EE1A5DD60E047
:101880008FE1A2DD60E081E29FDD60E08EE29CDD21
:1018900060E082E399DD60E082E296DD60E084E270
:1018A00093DD60E083E290DD60E086E28DDD60E064
:1018B00088E28ADD60E08DE187DD60E08CE284DD36
:1018C00060E08AE281DD61E085E27EDD61E087E261
:1018D0007BDD61E089E278DD61E085E375DD61E073
:1018E00083E372DD61E084E36FDD61E08DE26CDD56
:1018F00061E08FE269DD61E08BE266DD61E081E35A
:1019000063DD61E088E131DD61E080E32EDD61E0EF
:101910008EE12BDD61E08FE128DD61E081E225DDF4
:1019200061E08EE222DD61E082E31FDD61E082E2C0
:101930001CDD61E084E219DD61E083E216DD61E037
:1019400088E213DD61E086E210DD61E08DE10DDD0E
:1019500061E08CE20ADD61E08AE207DD11E082E00D
:10196000C82ED12C93E0A92EB12C88248394912CDD
:1019700036E9E32EF12C06E9B0DD4090F50B5090EE
:10198000F60B6090F70B7090F80B9B01AC012419DB
:1019900035094609570929013A0135E6431651042C
:1019A0006104710488F06093F50B7093F60B8093DB
:1019B000F70B9093F80B8091F40B811103C01093F7
:1019C000F40B02C01092F40B88DD4090F90B50909C
:1019D000FA0B6090FB0B7090FC0B9B01AC0124197F
:1019E00035094609570929013A013BEF43165104CD
:1019F0006104710488F06093F90B7093FA0B809383
:101A0000FB0B9093FC0B8091280C811103C0109369
:101A1000280C02C01092280C60DD4090FD0B509005
:101A2000FE0B6090FF0B7090000C9B01AC01241921
:101A300035094609570929013A0135EF431631E0C6
:101A400053066104710488F06093FD0B7093FE0BE4
:101A50008093FF0B9093000C8091270C811103C0A1
:101A60001093270C02C01092270C37DD4090010C18
:101A70005090020C6090030C7090040C9B01AC0120
:101A8000241935094609570929013A0139EE431647
:101A900033E053066104710488F06093010C709385
:101AA000020C8093030C9093040C80912F0C8111F5
:101AB00003C010932F0C02C010922F0C88E12DDC74
:101AC000892B19F410930B0C02C010920B0C80E3BD
:101AD00024DC892B19F010931A0C02C010921A0CF6
:101AE0008EE11BDC892B19F41093420C02C010927A
:101AF000420C8FE112DC892B59F410933E0C1092AA
:101B00003D0C10923C0C9092080C8092070C23C064
:101B100081E203DC892B59F410923E0C10923D0CAB
:101B200010933C0CB092080CA092070C14C08FE1EB
:101B3000F4DB892B09F43DC781E2EFDB892B09F443
:101B400038C710923E0C10933D0C10923C0CD09272
:101B5000080CC092070C8EE2E0DB019719F410929A
:101B6000130C02C01093130C82E3D7DB892B19F0FE
:101B700010931B0C02C010921B0C82E2CEDB892B4F
:101B800019F41093290C02C01092290C8AE2C5DBCB
:101B9000892B19F41092350C02C01093350C84E295
:101BA000BCDB892B59F41093410C1092400C10921D
:101BB0003F0C9092320C8092310C18C084E2ADDB65
:101BC000892B29F083E2A9DB892B09F0FCC683E28B
:101BD000A4DB892B09F0F2C61092410C1092400C44
:101BE00010933F0CB092320CA092310C86E295DB40
:101BF000892B19F41093190C02C01092190C88E269
:101C00008CDB892B19F41093330C02C01092330C27
:101C10008DE183DB892B19F41093060C02C010921E
:101C2000060C8CE27ADB892B19F41093050C02C0A8
:101C30001092050C8091060C882339F08091050CD8
:101C4000882319F010933A0C06C080913C0C811146
:101C500002C010923A0C809100028111AAC58091B5
:101C60001E0C882389F08091130C882351F08091F9
:101C7000280C882311F060E001C061E085E375DB8A
:101C800003C080912F0CF5CF80911C0C882349F064
:101C900080912F0C882311F060E001C061E084E3A3
:101CA00064DB8091260C8111B0C067E372E0CE0145
:101CB00001960E94B7036EE772E0CE0107960E947C
:101CC000B70365E472E0CE010D960E94B7036BE5A1
:101CD00072E0CE0143960E94B70387EB9DE0BCDA29
:101CE0008FE2DCDA87EB9DE0B7DACE010196B4DA59
:101CF000CE014396B1DA87EB9DE0AEDACE010796CE
:101D0000ABDACE010D96A8DA80E792E0B6DA6DEB99
:101D10007DE085EF9CE00E94030487EB9DE09CDA68
:101D20008FE2BCDA0E9485066AE772E082E99DE0F4
:101D30000E94260481E090E0BBDB6BE872E082E960
:101D40009DE00E9426046DEB7DE082E99DE00E940B
:101D50000304CE0143960E94B203CE010D960E9469
:101D6000B203CE0107960E94B203CE0101960E94F3
:101D7000B20364EF71E080E090E062DB85EE9BE00F
:101D80007CDA8CE78BDA89E591E0A0DA8CE786DAF9
:101D900085EE9BE072DA1093260C68EE73E080E02B
:101DA00090E04EDB60E972E0CE0101960E94B7033D
:101DB00069EC72E0CE0107960E94B70367EF72E00C
:101DC000CE010D960E94B703CE01019645DA0E941E
:101DD000850665E673E082E99DE00E94260481E0C5
:101DE00090E066DB61E773E082E99DE00E942604F3
:101DF000CE010D960E94B203CE0107960E94B20357
:101E0000CE0101960E94B203B8C48091420C88238F
:101E100009F4A3C48091250C811133C060E972E0FC
:101E2000CE0101960E94B70369EC72E0CE010796DD
:101E30000E94B70367EF72E0CE010D960E94B703D0
:101E4000CE01079609DA1093250C0E94850661E8F9
:101E500073E082E99DE00E9426040E9482066DE8FC
:101E600073E082E99DE00E942604CE010D960E9457
:101E7000B203CE0107960E94B203CE0101960E94E2
:101E8000B2038091240C811198C180913E0C88236B
:101E900009F490C18091290C882309F437C18091FD
:101EA000F20B811103C082E090E0ADD88091350C37
:101EB000811139C080912F0C81111AC061E087E235
:101EC00054DA60E089E251DA61E085E34EDA60E0FD
:101ED00083E34BDA60E084E348DA61E08FE245DADD
:101EE00061E08BE242DA61E081E33FDA60E019C051
:101EF00060E087E23ADA61E089E237DA60E085E3C0
:101F000034DA61E083E331DA61E084E32EDA60E021
:101F10008FE22BDA60E08BE228DA60E081E325DAF9
:101F200061E08DE217C061E087E21FDA61E089E2DB
:101F30001CDA61E085E319DA61E083E316DA61E037
:101F400084E313DA61E08FE210DA61E08BE20DDA0C
:101F500061E081E30ADA80911B0C882371F0109311
:101F600000021093240C10931F0C10930A0C109372
:101F70001C0C1093090C0E94540680910B0C61E01C
:101F8000882309F4AAC085E01FDAE1EAF1E0849130
:101F900090E0FC013197E231F10508F09CC0882700
:101FA000EE58FF4F8F4F36C684B5806884BD07BD9D
:101FB00099C084B5806284BD08BD94C080918000C2
:101FC000806880938000F0928900E09288008AC047
:101FD00080918000806280938000F0928B00E0927C
:101FE0008A0080C080918000886080938000F09299
:101FF0008D00E0928C0076C08091B0008068809364
:10200000B0000093B3006EC08091B00080628093F6
:10201000B0000093B40066C0809190008068809307
:102020009000F0929900E09298005CC0809190003E
:10203000806280939000F0929B00E0929A0052C0E0
:1020400080919000886080939000F0929D00E092D3
:102050009C0048C08091A00080688093A00080917F
:10206000A0008F7B8093A000F092A900E092A800CE
:1020700039C08091A00080628093A000F092AB00F4
:10208000E092AA002FC08091A00088608093A000F9
:10209000F092AD00E092AC0025C0809120018068F4
:1020A00080932001F0922901E09228011BC08091C9
:1020B0002001806280932001F0922B01E0922A019E
:1020C00011C080912001886080932001F0922D0141
:1020D000E0922C0107C061E003C085E075D960E0A3
:1020E00085E043D98091130C882309F450C06CE932
:1020F00073E0CE0101960E94B703CE0101960E94C3
:102100006C06CE0101960E94B20341C08091F30B90
:10211000811104C081E090E00E94030880912F0C9F
:1021200081111AC061E087E220D961E089E21DD9FE
:1021300061E085E31AD961E083E317D961E084E3C4
:1021400014D961E08FE211D961E08BE20ED961E030
:1021500081E30BD960E019C060E087E206D960E056
:1021600089E203D960E085E300D960E083E3FDD82C
:1021700060E084E3FAD860E08FE2F7D860E08BE2B9
:10218000F4D860E081E3F1D861E08DE2EED880918F
:10219000190C882309F4F1C20E9454061093240CF0
:1021A00060E08DE2E2D883E090E00E9403080E94A4
:1021B0003506E3C20E945406DDC180911F0C8111D7
:1021C000A5C08091F30B811104C081E090E00E94D2
:1021D0005C0780913E0C882309F4B4C08091F20B17
:1021E000811104C082E090E00E945C078091F10BB5
:1021F000811124C08091F00B811104C083E090E034
:102200000E945C0780912F0C882311F061E001C0CF
:1022100060E084E3AAD880911B0C882309F43EC0B7
:1022200061E084E3A2D81093F10B8091EF0B811150
:1022300035C084E090E00E945C0730C08091EE0BD6
:1022400081112CC08091ED0B811104C085E090E0DC
:102250000E945C078091EC0B811109C080912F0CCA
:10226000882311F061E001C060E085E37ED88091B1
:102270001A0C882399F08091EB0B811104C086E041
:1022800090E00E945C078091270C882311F061E0A8
:1022900001C060E085E369D81093EC0B8091EC0BF2
:1022A000882309F46AC280911A0C811166C261E028
:1022B00085E35BD81093EE0B80912F0C882311F0EF
:1022C00061E001C060E08DE250D88091190C882354
:1022D000A1F010931F0C60E08DE247D80E945406D5
:1022E00061E084E342D80E94350661E085E33DD891
:1022F00068EE73E080E090E0A3D88091EA0B811152
:102300003CC287E090E00E945C0737C280911E0CBF
:102310008111A7C180911D0C811118C061E085E376
:1023200024D8DBD82B013C018091F30B811106C02E
:1023300081E090E00E94ED061093F30B80913E0C3B
:102340008111C1C060E08DE210D802C280912F0CD3
:10235000811102C061E001C060E08DE206D8809189
:10236000190C882361F01093180C10921D0C0E9418
:1023700035060E94540660E08DE20E94B509809106
:102380003E0C882309F4F9C18091170C81110AC011
:102390008EEA93E00E943D0982EE93E00E943D099F
:1023A0001093170C8091350C60E0811148C083E3D5
:1023B0000E94B5098091160C811114C089EF93E039
:1023C0000E943D098CE194E00E943D0988E594E07B
:1023D0000E943D0981E994E00E943D091093160C8A
:1023E0001092150C80912F0C882331F061E08FE260
:1023F0000E94B50960E009C08091370C811108C0C6
:1024000060E08FE20E94B50961E081E30E94B509B6
:102410008091330C882309F4B0C18091370C81116D
:1024200009C01093370C61E08FE20E94B50988EB78
:1024300094E040C01092370C84EF94E03BC08FE2F0
:102440000E94B50960E081E30E94B5098091150CF6
:1024500081110CC086E395E00E943D098FE595E06F
:102460000E943D091093150C1092160C80912F0CB0
:10247000882311F061E005C08091140C811104C023
:1024800060E083E30E94B5098091130C882309F46E
:1024900074C18091140C811109C01093140C61E077
:1024A00083E30E94B50988E895E004C01092140CFB
:1024B00081EA95E00E943D0968EE73E080E090E0DB
:1024C0000E94200A5AC18091F20B811106C082E05D
:1024D00090E00E94ED061093F20B8091120C811196
:1024E0004CC08091100C9091110C092E000CAA0B7D
:1024F000BB0BA3019201281B390B4A0B5B0BDA01C2
:10250000C901893E9340A105B105D0F05092110C4C
:102510004092100C8091190C882371F061E08DE2DB
:102520000E94B50980910E0C90910F0C019690932A
:102530000F0C80930E0C04C010920F0C10920E0C16
:1025400080910E0C90910F0C029751F483E090E073
:102550000E94ED0660E08DE20E94B5091093120C16
:1025600080912F0C882311F061E005C08091190C37
:10257000811103C160E08DE2E8C060E08DE20E945D
:10258000B5098091100C9091110C092E000CAA0B2A
:10259000BB0BA3019201281B390B4A0B5B0BDA0121
:1025A000C901893E9340A105B105D0F05092110CAC
:1025B0004092100C8091130C882371F061E083E34A
:1025C0000E94B50980910C0C90910D0C019690938E
:1025D0000D0C80930C0C04C010920D0C10920C0C7E
:1025E00080910C0C90910D0C0A97A1F484E090E07E
:1025F0000E94ED060E94540660E083E30E94B50944
:102600000E94350668EE73E080E090E00E94200AA8
:1026100010931E0C50902F0C552011F061E005C056
:102620008091130C811104C060E083E30E94B5091E
:102630008091290C882309F4A0C08091180C811185
:102640009CC0552011F061E001C060E08FE20E9463
:10265000B5098091330C882309F48FC010931D0CA9
:102660008CC080911C0C811188C00E946D0A1B01D6
:102670002C018091F30B811106C081E090E00E9453
:1026800095061093F30B80913E0C882309F460C0EB
:102690008091F20B811106C082E090E00E949506C5
:1026A0001093F20B8091100C9091110C092E000CDC
:1026B000AA0BBB0BA2019101281B390B4A0B5B0B28
:1026C000DA01C901893E9340A105B105D0F03092ED
:1026D000110C2092100C8091130C882371F061E092
:1026E00083E30E94B50980910C0C90910D0C01962A
:1026F00090930D0C80930C0C04C010920D0C109252
:102700000C0C80910C0C90910D0C0A9791F483E0C5
:1027100090E00E94950610931C0C10920D0C1092E4
:102720000C0C0E94540660E083E30E94B5090E94ED
:10273000350680912F0C882311F061E005C080914F
:10274000130C81111AC060E083E30E94B50915C023
:102750000E9454061092F20B10C060E08DE20E94BD
:10276000B5090E9454061092250C1092230C109269
:10277000220C1092210C1092200C8091420C882384
:1027800089F080912F0C882309F40FC180E00E940A
:102790008D09892B11F061E001C060E085E20E94A3
:1027A000B50903C160E085E20E94B5090E945406A4
:1027B000FCC050903E0C8091290C51101EC0882303
:1027C00021F08091280C882311F061E001C060E0C5
:1027D00087E20E94B5098091310C9091320C909360
:1027E0002E0C80932D0C8817990761F010932C0CF8
:1027F00010922B0C10922A0C05C0882341F3809173
:10280000270CE1CF8091410C882309F4B8C05520F2
:1028100009F4AEC080913B0C811191C09091350CB0
:102820008091340C992329F0882339F01092340CCC
:1028300004C0811102C01093340C8091330C8823A2
:1028400039F18091360C882349F01092360C60E003
:102850008FE20E94B5096BEB75E008C01093360C4F
:1028600061E08FE20E94B5096FEC75E0CE01019640
:102870000E94B703CE0101960E942C09CE01019659
:102880000E94B20364E670E080E090E00E94200ABB
:102890008091310C9091320C8130910571F48091CE
:1028A000340C882339F08091360C882319F010936A
:1028B000380C16C01092380C13C08230910511F0FC
:1028C000039771F48091340C811105C01092380C7B
:1028D0001092300C05C08091360C8111E8CFF6CFF4
:1028E0008091380C882309F460C080912F0C8823D4
:1028F00031F061E08BE20E94B50961E005C060E063
:102900008BE20E94B50960E081E30E94B5098091E5
:102910003A0C882309F449C080913B0C811145C0D1
:1029200060E081E30E94B50960E08BE20E94B50996
:1029300060E08FE20E94B50910933B0C36C0809195
:102940003A0C811132C01093390C1092380C8091DE
:10295000370C882351F01092360C60E08FE20E9411
:10296000B50981EE95E00E943D0910923B0C1DC017
:1029700080913D0C811119C080913C0C06C0809162
:10298000400C811112C080913F0C81110EC06CE08F
:1029900076E0CE0101960E94B703CE0101960E9417
:1029A0006C06CE0101960E94B2030E946F020C9445
:1029B000BC0C89E196E00E943D09CDC88AE391E014
:1029C0000E94660913C91092410C1093400C10929A
:1029D0003F0CD092320CC092310C08C9A8E6B0E08E
:1029E000283010F40C94B70BE0E0F0E00C94B90B35
:1029F0008BE292E09093930D8093920D8091E80B7F
:102A00009091E90B82599D4071F4E091A50DF091F0
:102A1000A60D90818091A70D8095892380831092C7
:102A2000E90B1092E80B81EB9DE00E94B20387EB6B
:102A30009DE00E94B2038DEB9DE00C94B203CF9217
:102A4000DF92EF92FF921092F80C1092F70C98EE32
:102A5000C92E93E0D92EE12CF12CC092F90CD09222
:102A6000FA0CE092FB0CF092FC0C8BE092E090935D
:102A7000F60C8093F50C85EC90E09093020D80931A
:102A8000010D84EC90E09093040D8093030D80EC95
:102A900090E09093060D8093050D81EC90E090936B
:102AA000080D8093070D82EC90E090930A0D8093BF
:102AB000090D86EC90E090930C0D80930B0D109215
:102AC0000E0D10920F0D1092100D1092110D10920C
:102AD000CF0D1092CE0DC092D00DD092D10DE092BC
:102AE000D20DF092D30D8BE192E09093CD0D8093B7
:102AF000CC0D6DEC7BE08DEB9DE00E94B70365EEA5
:102B00007BE087EB9DE00E94B7036BED7BE081EB00
:102B10009DE00E94B7031092950D1092940DC09203
:102B2000960DD092970DE092980DF092990D8BE250
:102B300092E09093930D8093920D1092A90D1092B4
:102B4000A80D1092AB0D1092AA0D1092AD0D10921F
:102B5000AC0D1092AF0D1092AE0D6091B00D6E7F66
:102B60006D7F6093B00D6695617081E068278EE09F
:102B70000E94B50961E08EE00E94E409EAE6F2E015
:102B8000E491E093A20DE4E2F2E0E491F0E0EE0FD4
:102B9000FF1FEE51FE4F859194919093A40D809369
:102BA000A30D60E080E00E94E4098091B00D81FDFA
:102BB00004C061E080E00E94B50910929E0DECE532
:102BC000F2E0E491E0939F0DE6E1F2E0E491F0E0C1
:102BD000EE0FFF1FE450FE4F859194919093A10D4D
:102BE0008093A00DFF90EF90DF90CF90089597FB1A
:102BF000072E16F4009406D077FD08D013D007FCFA
:102C000005D03EF4909581959F4F089570956195FC
:102C10007F4F0895EE0FFF1F881F8BBF0790F6911F
:102C2000E02D1994AA1BBB1B51E107C0AA1FBB1FB3
:102C3000A617B70710F0A61BB70B881F991F5A9548
:102C4000A9F780959095BC01CD010895CF93DF93AE
:102C50008230910510F482E090E0E091DA0DF0917D
:102C6000DB0D20E030E0C0E0D0E0309711F1408192
:102C7000518148175907C0F04817590761F48281FC
:102C80009381209719F09B838A832BC09093DB0D4F
:102C90008093DA0D26C02115310519F0421753072C
:102CA00018F49A01BE01DF01EF010280F381E02DEB
:102CB000DCCF2115310509F1281B390B24303105F2
:102CC00090F412968D919C9113976115710521F0E6
:102CD000FB019383828304C09093DB0D8093DA0D14
:102CE000FD01329644C0FD01E20FF31F81939193E1
:102CF000225031092D933C933AC02091D80D309148
:102D0000D90D232B41F4209103023091040230931A
:102D1000D90D2093D80D2091010230910202211586
:102D2000310541F42DB73EB740910502509106029E
:102D3000241B350BE091D80DF091D90DE217F30764
:102D4000A0F42E1B3F0B2817390778F0AC014E5F1B
:102D50005F4F2417350748F04E0F5F1F5093D90D72
:102D60004093D80D8193919302C0E0E0F0E0CF0151
:102D7000DF91CF9108950F931F93CF93DF93009727
:102D800009F48CC0FC013297138212820091DA0D93
:102D90001091DB0D0115110581F420813181820F25
:102DA000931F2091D80D3091D90D2817390779F547
:102DB000F093D90DE093D80D71C0D80140E050E0F8
:102DC000AE17BF0750F412962D913C911397AD01A9
:102DD0002115310509F1D901F3CF9D01DA013383C2
:102DE000228360817181860F971F8217930769F490
:102DF000EC0128813981260F371F2E5F3F4F318329
:102E000020838A819B8193838283452B29F4F093CD
:102E1000DB0DE093DA0D42C01396FC93EE9312970C
:102E2000ED01499159919E01240F351FE217F307D7
:102E300071F480819181840F951F029611969C9365
:102E40008E938281938113969C938E931297E0E0E8
:102E5000F0E0D80112968D919C911397009719F08C
:102E6000F8018C01F6CF8D919C9198012E5F3F4F18
:102E7000820F931F2091D80D3091D90D2817390753
:102E800069F4309729F41092DB0D1092DA0D02C02C
:102E9000138212821093D90D0093D80DDF91CF9138
:102EA0001F910F9108956F927F928F929F92AF9290
:102EB000BF92CF92DF92EF92FF920F931F93CF9327
:102EC000DF93EC01009781F4CB01DF91CF911F914B
:102ED0000F91FF90EF90DF90CF90BF90AF909F90B9
:102EE0008F907F906F90B2CEFC01E60FF71F9C0190
:102EF00022503109E217F30708F4A8C0D9010D9157
:102F00001C91119706171707A8F00530110508F452
:102F10009BC0C80104978617970708F495C0025014
:102F20001109061B170B019311936D937C93CF012D
:102F300022DF8AC05B01A01AB10A4C01800E911EEB
:102F4000A091DA0DB091DB0D40E050E0E12CF12CC6
:102F5000109709F44AC0A815B905D1F56D907C9079
:102F60001197630182E0C80ED11CCA14DB0480F102
:102F7000A3014A195B096A0182E0C80ED11C1296AE
:102F8000BC9012971396AC91B5E0CB16D10440F0EB
:102F9000B282A38351834083D9016D937C930AC08D
:102FA0000E5F1F4FC301800F911FF9019183808332
:102FB000EB2DFA2FE114F10431F0D7011396FC93B5
:102FC000EE93129741C0F093DB0DE093DA0D3CC015
:102FD0008D919C9111974817590708F4AC017D0118
:102FE00012960D90BC91A02DB3CF8091D80D9091E9
:102FF000D90D88159905E1F446175707C8F4809153
:10300000010290910202009741F48DB79EB7409162
:10301000050250910602841B950BE817F907B0F4DE
:10302000F093D90DE093D80DF901718360830CC042
:10303000CB010CDE7C01009749F0A801BE011BD03A
:10304000CE0199DEC70104C0CE0102C080E090E04D
:10305000DF91CF911F910F91FF90EF90DF90CF9074
:10306000BF90AF909F908F907F906F90089581E078
:1030700090E0F89410C0FB01DC0102C001900D92B9
:1030800041505040D8F70895FB01DC0101900D92AA
:103090000020E1F7089511E0C2E5D1E000E005C0AD
:1030A000802FFE01B7DD2196011DC335D10780E0D9
:0830B0000807B1F7F894FFCF07
:1030B800010000DC0D80000000000008028501D23C
:1030C80001B001C4014E0200000000A0038C0353AC
:1030D8000350034D034C0300000000C00285011497
:1030E800032B03A702BF02436F6E74726F6C2050EC
:1030F800616E656C0073746574736F6E3240696CD1
:103108006C696E6F69732E656475004C6173742009
:10311800557064617465643A20392F382F31360050
:1031280056455253494F4E3A200042593A204D4194
:1031380054542053544554534F4E005645523A0068
:1031480050414E454C20504F574552204953204F2F
:1031580046462E205357495443482050414E454C2B
:1031680020544F204F4E20544F20424547494E206F
:10317800535441525455502E0053574954434820F4
:10318800544F204155544F204D4F444520544F2013
:10319800424547494E205048415345204920535401
:1031A80041525455502E00415454454E54494F4EA7
:1031B8003A20452D53544F5020544553542C204504
:1031C8002D53544F502052455345542C20262057F8
:1031D80041524E494E4720484F524E20686176650D
:1031E800206265656E20736B69707065642E20506F
:1031F8006C656173652072657374617274206966A9
:103208002074686973207761732061206D69737415
:10321800616B652E00535441545553203030313A78
:103228000050414E454C20504F574552204F46467E
:1032380000535441545553203030323A00535749C3
:1032480054434820544F204155544F005761726EE3
:10325800696E6720686F726E2074657374004655D6
:103268004E4354494F4E53204D454E553A20285011
:103278004147452031204F462033293B204F5045B8
:10328800524154494F4E532046554E4354494F4E90
:1032980053004C4541442F53555045525649534FBE
:1032A8005253204F4E4C592100504147452031413F
:1032B8003A204C4541442D41434345535341424CE8
:1032C800452046554E4354494F4E5300507265733E
:1032D80073204C4F434B20524553545241494E544E
:1032E8005320746F20746F67676C65204155544F85
:1032F8004D4154494320524553545241494E545329
:1033080020554E4C4F434B0050726573732044490F
:1033180053504154434820524947485420746F2021
:103328004C4953542043555252454E54204F504512
:10333800524154494F4E532053455454494E4753D4
:1033480000466F72206D6F7265206F7074696F6EC2
:10335800732C207377697463682047415445532060
:10336800746F204F50454E00524553545241494EB8
:1033780054532057494C4C204E4F57204155544FD9
:103388004D41544943414C4C5920554E4C4F434BA9
:1033980020494E204155544F4D41544943204D4FEB
:1033A80044452100524553545241494E54532057E5
:1033B800494C4C204E4F204C4F4E474552204155CA
:1033C800544F4D41544943414C4C5920554E4C4F54
:1033D800434B2120494E204155544F4D41544943B8
:1033E800204D4F444500504147452032413A205333
:1033F800555045525649534F522D41434345535317
:1034080041424C452046554E4354494F4E53005077
:1034180072657373204449535041544348205249BC
:1034280047485420666F72204449535041544348DA
:1034380020544F47474C4500535550455256495321
:103448004F52204D4F444520454E41424C45442162
:103458000053555045525649534F52204D4F4445FD
:103468002044495341424C454421005265737472CB
:1034780061696E747320756E6C6F636B656400525E
:103488006573747261696E7473206C6F636B6564C5
:1034980000526573747261696E747320756E6C6F17
:1034A800636B65642062656361757365207472611E
:1034B800696E2073746F707065642E00554E4B4EA4
:1034C8004F574E204D4F44450050524F4752414DA3
:1034D8004D204552524F523A20554E4B4E4F574E63
:1034E800204D4F444521210044454255473A20206C
:1034F8000053776974636820746F204155544F20D6
:103508004D4F444520746F20636F6E74696E756506
:1035180020737461727475702E00452D53544F508A
:103528002052455345543A00504841534520494993
:1035380020535441525455503A20452D53544F501E
:1035480020524553455400452D53544F5020524561
:103558005345543A20507265737320616E64206835
:103568006F6C64205249444520535441525420748E
:103578006F20726573657420455352204C4F4F502D
:103588000050524553532052494445205354415208
:103598005400452D53544F50205245534554205301
:1035A80055434345535346554C0045535253544194
:1035B80052542053455249414C005354415254559A
:1035C80050205741524E494E473A005048415345C2
:1035D80020494920535441525455503A205354419C
:1035E80052545550205741524E494E47005354416A
:1035F80052545550205741524E494E473A2043485D
:1036080045434B205448415420414C4C2047415499
:103618004553204152452053454355524520414E7C
:10362800442052494445204152454120434C45419C
:1036380052210050524553532041434B4E4F574C53
:103648004544474520544F20434F4E4652494D204C
:103658005341464520544F204F504552415445212F
:1036680000434845434B2052494445204152454177
:1036780021210050524553532041434B4E4F574C44
:103688004447450053414645204F5045524154490F
:103698004F4E20434F4E4652494D4544213A205003
:1036A8007265737320616E6420686F6C6420524980
:1036B800444520535441525420746F2072657365F9
:1036C8007420494E49544941544520535441525459
:1036D80055500053544152545550205741524E4969
:1036E8004E4720535543434553530053544F50209E
:1036F800544553543A0050484153452049205354A7
:1037080041525455503A2053544F50205445535425
:103718003B20456E7375726520616C6C2073746F05
:103728007020627574746F6E732066756E63746949
:103738006F6E20636F72726563746C792E005052DD
:1037480045535320524944452053544F5000524941
:1037580044452053544F5020544553543A205072F6
:1037680065737320524944452053544F50005249C1
:1037780044452053544F502066756E6374696F6ECC
:10378800696E6720636F72726563746C792E004589
:103798004D455247454E43592053544F50205445A8
:1037A80053543A20507265737320454D455247452E
:1037B8004E43592053544F502100505245535320E3
:1037C800452D53544F5000454D455247454E43599A
:1037D8002053544F5020505245535345443A20509B
:1037E800756C6C20757020454D455247454E4359C0
:1037F8002053544F500050554C4C20452D53544F96
:103808005000452D53544F502066756E6374696F90
:103818006E696E6720636F72726563746C792E00CF
:1038280053544F50205445535420434F4D504C450A
:1038380054452E2050726573732041434B4E4F57A9
:103848004C4544474520746F20636F6E74696E75EC
:1038580065210053544F5020544553543A204F4B40
:103868000050524553532041434B00554B4E4F5740
:103878004E20434153452073746F705465737453DD
:10388800657269616C0050686173652049207374C2
:1038980061727475703A204C414D50205445535410
:1038A8003A20456E7375726520616C6C206C616D91
:1038B80070732066756E6374696F6E20636F7272C1
:1038C8006563746C792E0050726573732041434BA5
:1038D8004E4F574C4544474520746F20636F6E66C2
:1038E80069726D20616C6C206C616D7073206675F7
:1038F8006E6374696F6E2070726F7065726C792078
:10390800616E6420636F6E74696E7565207374618F
:10391800727475702E0045585452412046554E43D6
:1039280054494F4E533A20005377697463682045D1
:103938004E5452414E434520474154455320746FDD
:10394800204F50454E20746F207475726E20616C44
:103958006C206C616D707320736F6C69642E0050FD
:103968007265737320616E6420686F6C64205452B2
:103978004F55424C4520666F72205354415254555E
:103988005020484F524E20746573742E0050726553
:10399800737320616E6420686F6C642052494445DB
:1039A80020535441525420666F72205741524E4959
:1039B8004E47204D45535341474520746573740065
:1039C800507265737320524944452053544F502018
:1039D800746F206279706173732073746172747587
:1039E80070203D3E204D41494E5441494E454E437D
:1039F80045204F4E4C5921004C414D5020544553C1
:103A08005420434F4D504C4554452E0043616E6E33
:103A18006F7420636F6D706C657465206C616D7078
:103A280020746573742E200A2053776974636820A4
:103A3800474154455320746F20434C4F5345442EFF
:103A4800004C414D5020544553543A205052455350
:103A5800530041434B20544F20434F4E54494E5539
:103A680045004C414D5020544553543A0045585454
:103A780052412046554E4354494F4E5300352E303F
:103A88002E3020616C7068612031004445425547F2
:063A98003A20000D0A00B7
:00000001FF
